:020000040800F2
:1000000038040020450100082F03000827030008DA
:100010002B0300088D010008A90B00080000000058
:10002000000000000000000000000000490400087B
:10003000F501000800000000310300083505000844
:100040005F0100085F0100085F0100085F01000810
:100050005F0100085F0100085F0100085F01000800
:100060005F0100085F0100085F0100085F010008F0
:100070005F0100085F0100085F0100085F010008E0
:100080005F0100085F0100085F0100085F010008D0
:100090005F0100085F0100085F0100085F010008C0
:1000A0005F0100085F0100085F0100085F010008B0
:1000B0005F0100085F0100085F0100085F010008A0
:1000C0005F0100085F0100085F0100085F01000890
:1000D0005F0100085F0100085F0100085F01000880
:1000E0005F0100085F0100085F0100085F01000870
:1000F0005F0100085F0100085F0100085F01000860
:100100005F0100085F0100085F0100085F0100084F
:100110005F0100085F0100085F0100085F0100083F
:100120005F0100085F0100085F0100085F0100082F
:10013000DFF80CD000F018F8004800470D0D00085B
:10014000380400200648804706480047FEE7FEE7DF
:10015000FEE7FEE7FEE7FEE7FEE7FEE7FEE7FEE777
:100160003905000831010008064C074D06E0E0683B
:1001700040F0010394E8070098471034AC42F6D3EE
:10018000FFF7DAFF6C1000088C10000800BFFEE7D4
:1001900008B50121082000F0DDF84FF46040ADF80B
:1001A000000010208DF8030003208DF8020069463E
:1001B0000F4800F020F84FF48050ADF800002820E0
:1001C0008DF8030069460A4800F015F800F0A6FE15
:1001D00000F0A4FE00F0A2FE00F042FD00F0F6FEEA
:1001E00000F020FF00F0AEFD00F0F0FC08BD0000C4
:1001F000000C014070472DE9F04102460025002621
:10020000002000230024002791F803C00CF00F0504
:1002100091F803C00CF0100CBCF1000F03D091F862
:1002200002C04CEA050591F800C0BCF1000F31D0C6
:10023000146800202BE04FF0010C0CFA00F3B1F829
:1002400000C00CEA03069E4220D183004FF00F0C41
:100250000CFA03F7BC4305FA03FC4CEA040491F8DA
:1002600003C0BCF1280F06D14FF0010C0CFA00FCC2
:10027000C2F814C00AE091F803C0BCF1480F05D1E0
:100280004FF0010C0CFA00FCC2F810C0401C08280A
:10029000D1D31460B1F800C0BCF1FF0F34DD546855
:1002A00000202EE000F1080C4FF0010808FA0CF3D2
:1002B000B1F800C00CEA03069E4221D183004FF042
:1002C0000F0C0CFA03F7BC4305FA03FC4CEA0404D8
:1002D00091F803C0BCF1280F05D100F1080C08FA11
:1002E0000CF8C2F8148091F803C0BCF1480F07D194
:1002F00000F1080C4FF0010808FA0CF8C2F8108061
:10030000401C0828CED35460BDE8F081024600208E
:1003100093680B400BB1012000E000207047416161
:1003200070470161704700BFFEE700BFFEE77047FE
:100330007047000029B1064AD2690243044BDA61D2
:1003400004E0034AD2698243014BDA61704700003E
:100350000010024029B1064A92690243044B9A6197
:1003600004E0034A92698243014B9A61704700009E
:100370000010024030B500210022002400232D4D42
:100380006D6805F00C0121B1042905D0082923D19D
:1003900005E0294D056022E0274D05601FE0254D51
:1003A0006D6805F47012234D6D6805F480340225E4
:1003B00005EB92421CB9214D554305600BE01D4DE4
:1003C0006D6805F400351DB11C4D5543056002E014
:1003D000194D5543056002E0174D056000BF00BF91
:1003E000144D6D6805F0F0010909154D6B5C056849
:1003F000DD4045600F4D6D6805F4E061090A104D60
:100400006B5C4568DD4085600A4D6D6805F46051A0
:10041000C90A0B4D6B5C4568DD40C560054D6D68D4
:1004200005F44041890B074D6B5CC568B5FBF3F5DE
:10043000056130BD0010024000127A0000093D0045
:100440001800002028000020704710B500F002F8C6
:1004500010BD00000CB500200190009033480068EA
:1004600040F480303149086000BF3048006800F433
:10047000003000900198401C0190009818B9019834
:10048000B0F5A06FF1D12948006800F4003010B138
:100490000120009001E0002000900098012843D145
:1004A0002348006840F010002149086008460068B1
:1004B00020F0030008600846006840F00200086071
:1004C0001A4840681949486008464068486008462C
:1004D000406840F4806048600846406820F47C1022
:1004E00048600846406840F4E810486008460068E4
:1004F00040F08070086000BF0C48006800F0007099
:100500000028F9D00948406820F0030007494860F6
:100510000846406840F00200486000BF0348406859
:1005200000F00C000828F9D10CBD000000100240BA
:10053000002002407047000010B51348006840F0EA
:1005400001001149086008464068104908400E49FA
:100550004860084600680E4908400B490860084694
:10056000006820F4802008600846406820F4FE00FF
:1005700048604FF41F008860FFF767FF4FF000608E
:100580000449086010BD0000001002400000FFF8A0
:10059000FFFFF6FE08ED00E008B501210220FFF79D
:1005A000C9FE01210C20FFF7D5FE0320ADF80000A5
:1005B00018208DF8030003208DF8020069460548D5
:1005C000FFF719FEC020ADF8000069460248FFF7AA
:1005D00012FE08BD000C01400008014000B587B0C4
:1005E00040F2E730ADF814000020ADF81000ADF88F
:1005F0001600ADF8120004A91B4800F0ABF960200A
:10060000ADF800000120ADF802000020ADF80600B2
:10061000ADF808006946144800F040F80821124877
:1006200000F088F86946104800F08EF808210E485E
:1006300000F0DCF869460C4800F0E6F808210A48AA
:1006400000F032F96946084800F038F908210648F8
:1006500000F072F90121044800F008F80121024875
:1006600000F010F807B000BD0004004021B102887E
:1006700042F08002028004E002884FF67F731A4045
:100680000280704721B1028842F00102028004E03A
:1006900002884FF6FE731A400280704770B500243E
:1006A00000220023058C4FF6FE7635400584028C2F
:1006B0008388048B4FF68F752C40B51E2C400D8817
:1006C0002C43751E2A400D892A434D882A43144D18
:1006D000A8420BD0134DA84208D0134DA84205D014
:1006E000124DA84202D0124DA84213D14FF6F77511
:1006F0002A404D892A434FF6FB752A408D882A43AC
:100700004FF6FF652B404FF6FF552B408D892B434D
:10071000CD892B4383800483CD888586028470BD78
:10072000002C0140003401400040014000440140E1
:10073000004801400A460021018B4FF6F77319402B
:10074000114301837047000070B50024002200238C
:10075000058C4FF6EF7635400584028C8388048B38
:1007600048F6FF752C404FF6FF452C400D884FF69C
:10077000FF7606EA05252C434FF6DF752A400D89E2
:1007800006EA05152A434D8806EA05152A43154D44
:10079000A84202D0144DA8421DD14FF67F752A40C1
:1007A0004D894FF6FF7606EA05152A434FF6BF75C9
:1007B0002A408D8806EA05152A434FF6FF352B405F
:1007C0004FF2FF752B408D8906EA85052B43CD89B5
:1007D00006EA85052B4383800483CD880587028440
:1007E00070BD0000002C0140003401400A46002189
:1007F000018B4FF2FF7319404FF6FF7303EA022398
:10080000194301837047000070B5002400220023C3
:10081000058C4FF6FF6635400584028C8388848BF7
:100820004FF68F752C404FF6FC752C400D882C43ED
:100830004FF6FF552A400D894FF6FF7606EA05254B
:100840002A434D8806EA05252A43154DA84202D0C1
:10085000144DA8421DD14FF2FF752A404D894FF625
:10086000FF7606EA05252A434FF6FF352A408D8894
:1008700006EA05252A434EF6FF752B404DF6FF7517
:100880002B408D8906EA05152B43CD8906EA05150F
:100890002B4383808483CD888587028470BD0000CC
:1008A000002C0140003401400A460021818B4FF6A4
:1008B000F7731940114381837047000070B500221F
:1008C00000230024058C4EF6FF7635400584038C0A
:1008D0008488828B48F6FF752A404FF6FF452A40F0
:1008E0000D884FF6FF7606EA05252A434DF6FF757B
:1008F0002B400D8906EA05352B434D8806EA053560
:100900002B430B4DA84202D00A4DA84208D14BF60A
:10091000FF752C408D894FF6FF7606EA85152C432E
:1009200084808283CD88A0F84050038470BD00008D
:10093000002C0140003401400A460021818B4FF217
:10094000FF7319404FF6FF7303EA022319438183B3
:1009500070470000002202881D4B98420ED01D4BAC
:1009600098420BD0B0F1804F08D01B4B984205D075
:100970001A4B984202D01A4B984204D14FF68F730B
:100980001A404B881A43174B984207D0164B98428F
:1009900004D04FF6FF431A40CB881A4302808B885D
:1009A00083850B8803850A4B98420BD0094B9842EC
:1009B00008D00E4B984205D00D4B984202D00D4BFB
:1009C000984201D10B7A038601238382704700008D
:1009D000002C0140003401400004004000080040A9
:1009E000000C004000100040001400400040014096
:1009F000004401400048014008B501210C20FFF7E8
:100A0000A9FC0420ADF8000010208DF8030003209D
:100A10008DF8020069460748FFF7EDFB2020ADF88E
:100A2000000069460448FFF7E6FBFFF7B5FDFFF756
:100A3000D5FD08BD000C01400008014000B585B09F
:100A4000012144F20400FFF785FC4FF40070ADF87B
:100A5000100018208DF8130003208DF8120004A94F
:100A60001348FFF7C8FB4FF48060ADF81000042076
:100A70008DF8130004A90E48FFF7BDFB4FF4E130D9
:100A800000900020ADF80400ADF80600ADF80800B5
:100A9000ADF80C000C20ADF80A006946054800F0DE
:100AA00017F80121034800F007F805B000BD000069
:100AB000000801400038014021B1828942F400520F
:100AC000828104E082894DF6FF731A40828170476B
:100AD0002DE9F04786B005460E460024A24600BF29
:100AE000A1460027B08900B100BF2F462C8A4CF6E2
:100AF000FF700440F08804432C82AC894EF6F3105A
:100B00000440B08831890843718908430443AC81AB
:100B1000AC8A4FF6FF400440B0890443AC8201A880
:100B2000FFF728FC1F48874202D1DDF810A001E042
:100B3000DDF80CA0A88900F4004040B10AEBCA001F
:100B400000EB0A1031684900B0FBF1F807E00AEB4E
:100B5000CA0000EB0A1031688900B0FBF1F864208C
:100B6000B8FBF0F004012009642101FB1089A88979
:100B700000F4004040B1322000EBC900B0FBF1F0BE
:100B800000F00700044308E0322000EB0910642164
:100B9000B0FBF1F000F00F0004432C8106B0BDE87B
:100BA000F08700000038014000BFFEE702E008C8FF
:100BB000121F08C1002AFAD170477047002001E0D7
:100BC00001C1121F002AFBD170470000002004E081
:100BD0000021034A1154411CC8B20928F8DB7047B0
:100BE0002C0000204FF0E021096921F004014FF0B2
:100BF000E0221161C21700EB5272C2F3C702074B29
:100C00001A701946097801EB4102C2EBC1114FF687
:100C1000FF7202EAC101024A118070470000002001
:100C20000200002001460D4A12784A434FF0E023AB
:100C30005A6100229A6101221A6100BF4FF0E0223E
:100C4000106900F001021AB100F48032002AF5D0D8
:100C500000224FF0E0231A619A61704700000020E3
:100C600010B54FF480411548FFF759FB1020FFF7EE
:100C7000D9FF012000F0F8F8432000F0F5F800203B
:100C800000F0F2F8012000F0EFF8002000F0ECF89E
:100C9000002000F0E9F8002000F0E6F8002000F065
:100CA000E3F8002000F0E0F84FF480410348FFF73C
:100CB00038FB1020FFF7B6FF10BD0000000C01400C
:100CC00010B5FFF783FF00F06DF80D48C0780C49B0
:100CD000097940EA01200B49088000240BE00A480A
:100CE000015D0120884007490988084008B920466D
:100CF00010BD601CC4B2102CF1DB0020F8E700002E
:100D00002C00002004000020080000204820FFF7ED
:100D100069FFFFF793FEFFF73BFAFFF76DFE042133
:100D20000648FFF7FEFA20210548FFF7FAFA04E02B
:100D3000FFF7C6FF044600F015F9F9E7000C014083
:100D40000008014010B54FF480411548FFF7E7FA5D
:100D50001020FFF767FF012000F086F8432000F025
:100D600083F8002000F080F8002000F07DF85A2081
:100D700000F07AF85A2000F077F85A2000F074F862
:100D80005A2000F071F85A2000F06EF84FF48041BC
:100D90000348FFF7C6FA1020FFF744FF10BD00001C
:100DA000000C01401CB501200190002000904FF480
:100DB00080412A48FFF7B3FA2949087800F054F82F
:100DC0002749487800F050F8022000903BE00120CD
:100DD00001902CE04FF400412048FFF7A2FA0220D6
:100DE000FFF720FF4FF400411C48FFF798FA02205C
:100DF000FFF718FF4FF400411848FFF792FA4FF43D
:100E000080511648FFF782FA50B116489DF800103D
:100E1000405CBDF80410084312499DF80020885436
:100E2000BDF804004FF6FF7101EA40000190BDF8E3
:100E30000400FF28CEDD1020FFF7F4FE9DF800002F
:100E4000401CC0B200909DF800000928BFDB4FF4A1
:100E500080410248FFF765FA1CBD0000000C01400C
:100E6000060000202C00002038B504460120009028
:100E70000020224948700120009037E0BDF80000B2
:100E8000204028B14FF400511D48FFF74AFA04E012
:100E90004FF400511A48FFF742FA4FF40041184846
:100EA000FFF73FFA0220FFF7BDFE4FF40041144860
:100EB000FFF735FA0220FFF7B5FE4FF40041104866
:100EC000FFF72FFA4FF480510D48FFF71FFA30B1AA
:100ED0000A484078BDF80010084308494870BDF83A
:100EE00000004FF6FF7101EA40000090BDF80000DD
:100EF000FF28C3DD1020FFF795FE38BD2C00002031
:100F0000000C014030B5044D28802D1D29802D1D79
:100F10002A802D1D2B8030BD3404004010B54FF4C5
:100F200080410F48FFF7FBF91020FFF77BFE0120FF
:100F3000FFF79AFF4220FFF797FF0020FFF794FF8B
:100F40000020FFF791FF0020FFF78EFF4FF4804154
:100F50000348FFF7E6F91020FFF764FE10BD00001C
:100F6000000C014010B50446042C06D0052C14D00A
:100F7000062C0AD0072C20D117E04FF4FA73002278
:100F800019461046FFF7BEFF1EE000234FF4FA7229
:100F900019461046FFF7B6FF16E04FF4FA73002229
:100FA00011466420FFF7AEFF0EE0002364224FF4E9
:100FB000FA711846FFF7A6FF06E000231A46194605
:100FC0001846FFF79FFF00BF00BF10BD10B54FF4DC
:100FD00080411348FFF7A3F90120FFF745FF4420A4
:100FE000FFF742FF0020FFF73FFF0120FFF73CFF24
:100FF000EE20FFF739FF0020FFF736FF0020FFF754
:1010000033FF0020FFF730FF0020FFF72DFF4FF4E4
:1010100080410348FFF785F91020FFF703FE10BD5C
:10102000000C014010B54FF480410F48FFF777F9ED
:101030001020FFF7F7FD0120FFF716FF4D20FFF707
:1010400013FF0020FFF710FF0020FFF70DFF012026
:10105000FFF70AFF4FF480410348FFF762F91020C1
:10106000FFF7E0FD10BD0000000C01408C100008EF
:10107000000000202C000000AC0B0008B810000895
:101080002C0000200C040000BC0B00080000000035
:1010900000000142000102030405060708090A0BCB
:1010A0000C0D0E0F000000000102030401020304F6
:0810B000060708090204060806
:0400000508000131BD
:00000001FF
