:020000040800F2
:1000000040040020450100081305000853030008C0
:100010000F050008B9010008590A00080000000097
:10002000000000000000000000000000C9080008F7
:100030002102000800000000B1070008B50900080F
:100040005F0100085F0100085F0100085F01000810
:100050005F0100085F0100085F0100085F01000800
:100060005F0100085F0100085F0100085F010008F0
:100070005F0100085F0100085F0100085F010008E0
:100080005F0100085F0100085F0100085F010008D0
:100090005F0100085F0100085F0100085F010008C0
:1000A0005F0100085F0100085F0100085F010008B0
:1000B0005F0100085F0100085F0100085F010008A0
:1000C0005F0100085F0100085F0100085F01000890
:1000D0005F0100085F0100085F0100085F01000880
:1000E0005F0100085F0100085F0100085F01000870
:1000F0005F0100085F0100085F0100085F01000860
:100100005F0100085F0100085F0100085F0100084F
:100110005F0100085F0100085F0100085F0100083F
:100120005F0100085F0100085F0100085F0100082F
:10013000DFF80CD000F018F800480047750C0008F4
:10014000400400200648804706480047FEE7FEE7D7
:10015000FEE7FEE7FEE7FEE7FEE7FEE7FEE7FEE777
:10016000B909000831010008064C074D06E0E068B7
:1001700040F0010394E8070098471034AC42F6D3EE
:10018000FFF7DAFF18110008381100081CB500F05D
:1001900008FA40208DF8000000208DF801000120B1
:1001A0008DF8020000208DF8030082208DF80400F5
:1001B000684600F06DFA1CBD00BFFEE708B50121DE
:1001C000402000F007FB1C20ADF8000010208DF847
:1001D000030003208DF802006946104800F021F862
:1001E0000220ADF8000028208DF8030069460B4876
:1001F00000F017F800F04EFC00F0D6FE00F0D4FE40
:1002000000F0D2FE00F0B8FC00F03AFF00F062FF10
:1002100000F070FD00F032FC08BD00000018014045
:1002200070472DE9F04102460025002600200023FA
:100230000024002791F803C00CF00F0591F803C0CB
:100240000CF0100CBCF1000F03D091F802C04CEA86
:10025000050591F800C0BCF1000F31D014680020F2
:100260002BE04FF0010C0CFA00F3B1F800C00CEADF
:1002700003069E4220D183004FF00F0C0CFA03F7C7
:10028000BC4305FA03FC4CEA040491F803C0BCF13A
:10029000280F06D14FF0010C0CFA00FCC2F814C074
:1002A0000AE091F803C0BCF1480F05D14FF0010CF2
:1002B0000CFA00FCC2F810C0401C0828D1D314600E
:1002C000B1F800C0BCF1FF0F34DD546800202EE00F
:1002D00000F1080C4FF0010808FA0CF3B1F800C067
:1002E0000CEA03069E4221D183004FF00F0C0CFA5A
:1002F00003F7BC4305FA03FC4CEA040491F803C07D
:10030000BCF1280F05D100F1080C08FA0CF8C2F86E
:10031000148091F803C0BCF1480F07D100F1080C1C
:100320004FF0010808FA0CF8C2F81080401C0828A9
:10033000CED35460BDE8F0810246002093680B40A4
:100340000BB1012000E0002070474161704701615E
:10035000704700BFFEE770B5024600240025002369
:100360000020958A138B1B0445EA030626F07F4480
:1003700004EA01068E4201D1012000E0002070BD98
:1003800021B1028842F00102028004E002884FF6A7
:10039000FE731A400280704721B1028842F48072D5
:1003A000028004E002884FF6FF631A400280704723
:1003B00021B1028842F40072028004E002884FF604
:1003C000FF531A40028070470CB5024600200023FC
:1003D0000193009300920B0F019321F07F41019B49
:1003E0001BB1009B1433009303E0090C009B1833EE
:1003F0000093009B1B680B400BB1012000E0002024
:100400000CBD00002DE9F04385B004460D460026E2
:10041000B1460427DFF8CC80A6884FF6C0700640AE
:10042000684600F0E7F9DDF808802F48B8FBF0F0E7
:100430001FFA80F946EA0906A68020884FF6FE7169
:100440000840208000262949286888420CD828685E
:100450004000B8FBF0F087B2042F00DA04273E43D7
:1004600009F10100208427E0E8884BF6FF718842FB
:1004700006D1286800EB4000B8FBF0F087B209E035
:10048000286800EBC00101EB0010B8FBF0F087B268
:1004900047F48047C7F30B0008B947F0010747F45A
:1004A000004006434FF4967009FB00F04FF47A7158
:1004B00090FBF1F0401C2084A683208840F00100CE
:1004C000208026884FF6F5300640A88869890843C1
:1004D00006432680A88929890843208105B0BDE804
:1004E000F083000000127A0040420F00A086010055
:1004F0000146088AC0B2704712B141F0010102E022
:100500004FF6FE731940018270470182704700BFA9
:10051000FEE7704710B5044601210C48FFF73CFF89
:1005200000BF0B490948FFF716FF0028F9D0600605
:10053000010E00220548FFF7DFFF00BF0549034811
:10054000FFF709FF0028F9D010BD0000005400405B
:10055000010003008200070010B501210148FFF7E8
:1005600027FF10BD0054004008B50121082000F00D
:1005700031F90121480500F01DF9C020ADF8000057
:1005800003208DF802001C208DF803006946024804
:10059000FFF747FE08BD0000000C014001460120A6
:1005A000704710B5FFF7E0FF00F002F810BD000043
:1005B0001FB50020ADF804004BF6FF70ADF8060043
:1005C0004FF48060ADF80A000001ADF80C0005485A
:1005D000009069460448FFF715FF01210248FFF724
:1005E000CFFE1FBD400D03000054004070B506460D
:1005F0000D46144600BF4FF400311A48FFF7E4FEE1
:100600000028F8D101211748FFF7C6FE00BF1649A0
:100610001448FFF7A0FE0028F9D07006010E012251
:100620001048FFF769FF00BF0F49491C0D48FFF74D
:1006300092FE0028F8D011E01CB901210948FFF70B
:10064000B7FE09493F310748FFF785FE30B105483D
:10065000FFF74EFF28706D1C601EC4B2002CEBD15A
:10066000012070BD005400400100030010B5044695
:1006700021460548FFF749FF00BF04490248FFF73C
:100680006AFE0028F9D010BD005400408400070025
:1006900070B5044600250026FFF783FF2078FFF79A
:1006A0007DFF002833D02078FFF734FF0020FFF7CC
:1006B000DDFF1020FFF7DAFFFFF74EFF2078FFF78E
:1006C00029FFFE20FFF7D2FF2079FFF7CFFFFFF7CA
:1006D00043FF2078FFF71EFF0020FFF7C7FF212010
:1006E000FFF7C4FFFFF738FF60780001A17840EA08
:1006F0008100E1780843C6B22078FFF70BFF0120A4
:10070000FFF7B4FF3046FFF7B1FFFFF725FF207872
:1007100000F02BF8284670BD2DE9F04107460E4643
:1007200014461D460F2E1EDCB4F5805F1BDAB5F5AE
:10073000805F18DA3846FFF7EDFE062101EB8601EF
:10074000C8B2FFF793FFE0B2FFF790FFC4F30320B6
:10075000FFF78CFFE8B2FFF789FFC5F30320FFF72F
:1007600085FFFFF7F9FEBDE8F08138B504460020AB
:1007700000902046FFF7CEFE0020FFF777FFFFF73F
:10078000EBFE012269462046FFF730FF9DF800008E
:1007900020F0100000902046FFF7BCFE0020FFF77D
:1007A00065FF9DF80000FFF761FFFFF7D5FE38BD3C
:1007B0007047000029B1064AD2690243044BDA614E
:1007C00004E0034AD2698243014BDA6170470000BA
:1007D0000010024029B1064A92690243044B9A6113
:1007E00004E0034A92698243014B9A61704700001A
:1007F0000010024030B500210022002400232D4DBE
:100800006D6805F00C0121B1042905D0082923D118
:1008100005E0294D056022E0274D05601FE0254DCC
:100820006D6805F47012234D6D6805F4803402255F
:1008300005EB92421CB9214D554305600BE01D4D5F
:100840006D6805F400351DB11C4D5543056002E08F
:10085000194D5543056002E0174D056000BF00BF0C
:10086000144D6D6805F0F0010909154D6B5C0568C4
:10087000DD4045600F4D6D6805F4E061090A104DDB
:100880006B5C4568DD4085600A4D6D6805F460511C
:10089000C90A0B4D6B5C4568DD40C560054D6D6850
:1008A00005F44041890B074D6B5CC568B5FBF3F55A
:1008B000056130BD0010024000127A0000093D00C1
:1008C0001C0000202C000020704710B500F002F83A
:1008D00010BD00000CB50020019000903348006866
:1008E00040F480303149086000BF3048006800F4AF
:1008F000003000900198401C0190009818B90198B0
:10090000B0F5A06FF1D12948006800F4003010B1B3
:100910000120009001E0002000900098012843D1C0
:100920002348006840F0100021490860084600682C
:1009300020F0030008600846006840F002000860EC
:100940001A484068194948600846406848600846A7
:10095000406840F4806048600846406820F47C109D
:1009600048600846406840F4E8104860084600685F
:1009700040F08070086000BF0C48006800F0007014
:100980000028F9D00948406820F003000749486072
:100990000846406840F00200486000BF03484068D5
:1009A00000F00C000828F9D10CBD00000010024036
:1009B000002002407047000010B51348006840F066
:1009C00001001149086008464068104908400E4976
:1009D0004860084600680E4908400B490860084610
:1009E000006820F4802008600846406820F4FE007B
:1009F00048604FF41F008860FFF767FF4FF000600A
:100A00000449086010BD0000001002400000FFF81B
:100A1000FFFFF6FE08ED00E008B501212020FFF7FA
:100A2000D9FE3020ADF8000010208DF8030003201F
:100A30008DF8020069460748FFF7F3FBC020ADF8C8
:100A4000000069460348FFF7ECFBFFF79FFB00F04F
:100A5000CDFA08BD0014014000BFFEE702E008C85F
:100A6000121F08C1002AFAD170477047002001E028
:100A700001C1121F002AFBD170470000002004E0D2
:100A80000021034A1154411CC8B20928F8DB704701
:100A90003000002008B501214020FFF79BFE2020F8
:100AA000ADF8000010208DF8030003208DF802003F
:100AB00069460248FFF7B5FB08BD00000018014079
:100AC0004FF0E021096921F004014FF0E0221161AB
:100AD000C21700EB5272C2F3C702074B1A701946D5
:100AE000097801EB4102C2EBC1114FF6FF7202EA35
:100AF000C101024A1180704700000020020000205E
:100B000001460D4A12884A434FF0E0235A61002201
:100B10009A6101221A6100BF4FF0E022106900F0D3
:100B200001021AB100F48032002AF5D000224FF001
:100B3000E0231A619A6170470200002001460D4AC5
:100B400012784A434FF0E0235A6100229A61012251
:100B50001A6100BF4FF0E022106900F001021AB1E3
:100B600000F48032002AF5D000224FF0E0231A6111
:100B70009A6170470000002010B508211448FFF763
:100B8000E4FB1020FFF7DAFF012000F03DF94320DD
:100B900000F03AF9002000F037F9012000F034F9B4
:100BA000002000F031F9002000F02EF9002000F0C4
:100BB0002BF9002000F028F9002000F025F9082189
:100BC0000348FFF7C4FB1020FFF7B8FF10BD00007B
:100BD0000018014010B5FFF751FF00F0B9F80D48BB
:100BE000C0780C49097940EA01200B4908800024AB
:100BF0000BE00A48015D0120884007490988084048
:100C000008B9204610BD601CC4B2102CF1DB0020D6
:100C1000F8E7000030000020080000200C00002051
:100C200010B5FFF7D7FF0A280ED1002405E000BF5A
:100C3000FFF7D0FF0A28FBD0641C322CF7DB0B48EF
:100C40000068401C094908600848007800F001006D
:100C500028B120210648FFF77AFB012010BD202192
:100C60000348FFF772FB0020F8E7000004000020B3
:100C7000001801404820FFF723FFFFF79FFAFFF716
:100C8000CBFEFFF783FA33E0FFF7CAFF60B9FFF747
:100C9000A1FF044600F0CCF940F6FF731A4600218C
:100CA0004020FFF739FD23E0FFF7BAFF00B301242E
:100CB00006E0A3B2002211464020FFF72DFD641C80
:100CC00040F244408442F4DD4FF47A70FFF718FF9D
:100CD00040F2444406E0A3B2002211464020FFF750
:100CE0001BFD641E002CF6DC4FF47A70FFF708FF42
:100CF000CAE7000010B508211448FFF726FB1020B2
:100D0000FFF71CFF012000F07FF8432000F07CF883
:100D1000002000F079F8002000F076F85A2000F06A
:100D200073F85A2000F070F85A2000F06DF85A203D
:100D300000F06AF85A2000F067F808210348FFF72E
:100D400006FB1020FFF7FAFE10BD0000001801405E
:100D50001CB5012001900020009008212748FFF7D2
:100D6000F4FA2749087800F04FF82549487800F050
:100D70004BF80220009037E00120019028E010217C
:100D80001E48FFF7E4FA0220FFF7D8FE10211B48A7
:100D9000FFF7DBFA0220FFF7D1FE10211748FFF71B
:100DA000D6FA02211548FFF7C7FA50B115489DF849
:100DB0000010405CBDF80410084312499DF8002063
:100DC0008854BDF804004FF6FF7101EA400001901D
:100DD000BDF80400FF28D2DD1020FFF7AFFE9DF81C
:100DE0000000401CC0B200909DF800000928C3DB41
:100DF00008210248FFF7ABFA1CBD000000180140B3
:100E00000A0000203000002038B504460120009080
:100E100000201F4948700120009031E0BDF800001B
:100E2000204020B104211B48FFF791FA03E0042180
:100E30001848FFF78AFA10211648FFF788FA0220AF
:100E4000FFF77CFE10211348FFF77FFA0220FFF71F
:100E500075FE10210F48FFF77AFA02210D48FFF7BF
:100E60006BFA30B10A484078BDF8001008430849D1
:100E70004870BDF800004FF6FF7101EA4000009095
:100E8000BDF80000FF28C9DD1020FFF757FE38BD70
:100E9000300000200018014010B510210748FFF76E
:100EA00056FA40210548FFF752FA20210348FFF780
:100EB0004CFA80210148FFF748FA10BD00140140A8
:100EC00010B520210748FFF742FA80210548FFF7B7
:100ED0003EFA10210348FFF738FA40210148FFF796
:100EE00034FA10BD001401402DE9F04106460C46CD
:100EF000154636B1012E07D0022E08D0032E0CD194
:100F000008E0FFF7DDFF08E0FFF7C6FF05E000F0AF
:100F100023F802E000F034F800BF00BF642C19DCB5
:100F2000642D17DCC4EB0430642190FBF1F087B230
:100F30003B46002204214020FFF7EEFBC5EB0530C5
:100F4000642190FBF1F087B23B460022052140204E
:100F5000FFF7E2FBBDE8F08110B510210748FFF76D
:100F6000F6F980210548FFF7F2F920210348FFF741
:100F7000ECF940210148FFF7E8F910BD00140140E9
:100F800010B520210748FFF7E2F940210548FFF797
:100F9000DEF910210348FFF7D8F980210148FFF757
:100FA000D4F910BD0014014010B508210E48FFF718
:100FB000CCF91020FFF7C2FD0120FFF725FF4220EA
:100FC000FFF722FF0020FFF71FFF0020FFF71CFFA5
:100FD0000020FFF719FF08210348FFF7B8F9102098
:100FE000FFF7ACFD10BD00000018014010B5202136
:100FF0000E48FFF7AAF910210C48FFF7A6F9802147
:101000000A48FFF7A2F940210848FFF79EF900239C
:1010100040F6FF7204214020FFF77EFB002340F6DC
:10102000FF7205214020FFF777FB10BD001401403F
:1010300010B50446042C06D0052C10D0062C08D080
:10104000072C18D111E0322211460020FFF74CFF87
:1010500014E0322211460120FFF746FF0EE0322253
:1010600011460320FFF740FF08E03222114602201C
:10107000FFF73AFF02E0FFF7B9FF00BF00BF10BD66
:1010800010B508211248FFF760F90120FFF7BCFEF8
:101090004420FFF7B9FE0020FFF7B6FE0120FFF75E
:1010A000B3FEEE20FFF7B0FE0020FFF7ADFE0020FC
:1010B000FFF7AAFE0020FFF7A7FE0020FFF7A4FE1F
:1010C00008210348FFF743F91020FFF737FD10BD53
:1010D0000018014010B508210E48FFF736F910201E
:1010E000FFF72CFD0120FFF78FFE4D20FFF78CFE50
:1010F0000020FFF789FE0020FFF786FE0120FFF7A2
:1011000083FE08210348FFF722F91020FFF716FDA0
:1011100010BD000000180140381100080000002038
:10112000300000005C0A0008681100083000002050
:10113000100400006C0A000800000000000000001D
:1011400000000142000102030405060708090A0B1A
:101150000C0D0E0F00000000010203040102030445
:08116000060708090204060855
:0400000508000131BD
:00000001FF
