:020000040800F2
:1000000040040020450100081F0500085F030008A8
:100010001B050008B9010008810A00080000000063
:10002000000000000000000000000000D5080008EB
:100030002102000800000000BD070008C1090008F7
:100040005F0100085F0100085F0100085F01000810
:100050005F0100085F0100085F0100085F01000800
:100060005F0100085F0100085F0100085F010008F0
:100070005F0100085F0100085F0100085F010008E0
:100080005F0100085F0100085F0100085F010008D0
:100090005F0100085F0100085F0100085F010008C0
:1000A0005F0100085F0100085F0100085F010008B0
:1000B0005F0100085F0100085F0100085F010008A0
:1000C0005F0100085F0100085F0100085F01000890
:1000D0005F0100085F0100085F0100085F01000880
:1000E0005F0100085F0100085F0100085F01000870
:1000F0005F0100085F0100085F0100085F01000860
:100100005F0100085F0100085F0100085F0100084F
:100110005F0100085F0100085F0100085F0100083F
:100120005F0100085F0100085F0100085F0100082F
:10013000DFF80CD000F018F800480047790D0008EF
:10014000400400200648804706480047FEE7FEE7D7
:10015000FEE7FEE7FEE7FEE7FEE7FEE7FEE7FEE777
:10016000C509000831010008064C074D06E0E068AB
:1001700040F0010394E8070098471034AC42F6D3EE
:10018000FFF7DAFFB8120008D81200081CB500F01B
:100190000EFA40208DF8000000208DF801000120AB
:1001A0008DF8020000208DF8030082208DF80400F5
:1001B000684600F073FA1CBD00BFFEE708B50121D8
:1001C000402000F00DFB1C20ADF8000010208DF841
:1001D000030003208DF802006946104800F021F862
:1001E0000220ADF8000028208DF8030069460B4876
:1001F00000F017F800F0B0FC00F0C6FF00F0C4FFFC
:1002000000F0C2FF00F01AFD01F00AF801F032F828
:1002100000F038FE00F094FC08BD0000001801401A
:1002200070472DE9F04102460025002600200023FA
:100230000024002791F803C00CF00F0591F803C0CB
:100240000CF0100CBCF1000F03D091F802C04CEA86
:10025000050591F800C0BCF1000F31D014680020F2
:100260002BE04FF0010C0CFA00F3B1F800C00CEADF
:1002700003069E4220D183004FF00F0C0CFA03F7C7
:10028000BC4305FA03FC4CEA040491F803C0BCF13A
:10029000280F06D14FF0010C0CFA00FCC2F814C074
:1002A0000AE091F803C0BCF1480F05D14FF0010CF2
:1002B0000CFA00FCC2F810C0401C0828D1D314600E
:1002C000B1F800C0BCF1FF0F34DD546800202EE00F
:1002D00000F1080C4FF0010808FA0CF3B1F800C067
:1002E0000CEA03069E4221D183004FF00F0C0CFA5A
:1002F00003F7BC4305FA03FC4CEA040491F803C07D
:10030000BCF1280F05D100F1080C08FA0CF8C2F86E
:10031000148091F803C0BCF1480F07D100F1080C1C
:100320004FF0010808FA0CF8C2F81080401C0828A9
:10033000CED35460BDE8F0810246002093680B40A4
:100340000BB1012000E0002070470146C86880B270
:1003500070474161704701617047C160704700BFDD
:10036000FEE770B502460024002500230020958A90
:10037000138B1B0445EA030626F07F4404EA0106BA
:100380008E4201D1012000E0002070BD21B1028821
:1003900042F00102028004E002884FF6FE731A4028
:1003A0000280704721B1028842F48072028004E02A
:1003B00002884FF6FF631A400280704721B102881D
:1003C00042F40072028004E002884FF6FF531A40A4
:1003D000028070470CB50246002000230193009371
:1003E00000920B0F019321F07F41019B1BB1009BF9
:1003F0001433009303E0090C009B18330093009B17
:100400001B680B400BB1012000E000200CBD000078
:100410002DE9F04385B004460D460026B146042779
:10042000DFF8CC80A6884FF6C0700640684600F022
:10043000E7F9DDF808802F48B8FBF0F01FFA80F9E3
:1004400046EA0906A68020884FF6FE710840208003
:1004500000262949286888420CD828684000B8FB43
:10046000F0F087B2042F00DA04273E4309F10100BF
:10047000208427E0E8884BF6FF71884206D128687F
:1004800000EB4000B8FBF0F087B209E0286800EB11
:10049000C00101EB0010B8FBF0F087B247F48047D1
:1004A000C7F30B0008B947F0010747F400400643C3
:1004B0004FF4967009FB00F04FF47A7190FBF1F065
:1004C000401C2084A683208840F0010020802688DC
:1004D0004FF6F5300640A888698908430643268010
:1004E000A88929890843208105B0BDE8F083000070
:1004F00000127A0040420F00A08601000146088ADF
:10050000C0B2704712B141F0010102E04FF6FE7334
:100510001940018270470182704700BFFEE77047B3
:1005200010B5044601210C48FFF73CFF00BF0B4902
:100530000948FFF716FF0028F9D06006010E0022D7
:100540000548FFF7DFFF00BF05490348FFF709FF34
:100550000028F9D010BD0000005400400100030045
:100560008200070010B501210148FFF727FF10BDE9
:100570000054004008B50121082000F031F90121A4
:10058000480500F01DF9C020ADF8000003208DF8EB
:1005900002001C208DF8030069460248FFF741FE67
:1005A00008BD0000000C014001460120704710B555
:1005B000FFF7E0FF00F002F810BD00001FB50020BB
:1005C000ADF804004BF6FF70ADF806004FF4806004
:1005D000ADF80A000001ADF80C000548009069462E
:1005E0000448FFF715FF01210248FFF7CFFE1FBDAA
:1005F000400D03000054004070B506460D461446F9
:1006000000BF4FF400311A48FFF7E4FE0028F8D18C
:1006100001211748FFF7C6FE00BF16491448FFF72F
:10062000A0FE0028F9D07006010E01221048FFF745
:1006300069FF00BF0F49491C0D48FFF792FE0028D3
:10064000F8D011E01CB901210948FFF7B7FE0949AC
:100650003F310748FFF785FE30B10548FFF74EFFF1
:1006600028706D1C601EC4B2002CEBD1012070BD3F
:10067000005400400100030010B50446214605481F
:10068000FFF749FF00BF04490248FFF76AFE002850
:10069000F9D010BD005400408400070070B5044636
:1006A00000250026FFF783FF2078FFF77DFF002855
:1006B00033D02078FFF734FF0020FFF7DDFF102054
:1006C000FFF7DAFFFFF74EFF2078FFF729FFFE2044
:1006D000FFF7D2FF2079FFF7CFFFFFF743FF207826
:1006E000FFF71EFF0020FFF7C7FF2120FFF7C4FF21
:1006F000FFF738FF60780001A17840EA8100E178D7
:100700000843C6B22078FFF70BFF0120FFF7B4FFC4
:100710003046FFF7B1FFFFF725FF207800F02BF8F8
:10072000284670BD2DE9F04107460E4614461D4689
:100730000F2E1EDCB4F5805F1BDAB5F5805F18DA8A
:100740003846FFF7EDFE062101EB8601C8B2FFF740
:1007500093FFE0B2FFF790FFC4F30320FFF78CFF95
:10076000E8B2FFF789FFC5F30320FFF785FFFFF726
:10077000F9FEBDE8F08138B504460020009020461F
:10078000FFF7CEFE0020FFF777FFFFF7EBFE012219
:1007900069462046FFF730FF9DF8000020F010006A
:1007A00000902046FFF7BCFE0020FFF765FF9DF894
:1007B0000000FFF761FFFFF7D5FE38BD704700006E
:1007C00029B1064AD2690243044BDA6104E0034AC4
:1007D000D2698243014BDA61704700000010024089
:1007E00029B1064A92690243044B9A6104E0034A24
:1007F00092698243014B9A617047000000100240E9
:1008000030B500210022002400232D4D6D6805F035
:100810000C0121B1042905D0082923D105E0294D77
:10082000056022E0274D05601FE0254D6D6805F449
:100830007012234D6D6805F48034022505EB924259
:100840001CB9214D554305600BE01D4D6D6805F445
:1008500000351DB11C4D5543056002E0194D55434F
:10086000056002E0174D056000BF00BF144D6D68C4
:1008700005F0F0010909154D6B5C0568DD40456028
:100880000F4D6D6805F4E061090A104D6B5C456819
:10089000DD4085600A4D6D6805F46051C90A0B4D55
:1008A0006B5C4568DD40C560054D6D6805F44041F1
:1008B000890B074D6B5CC568B5FBF3F5056130BD71
:1008C0000010024000127A0000093D001F000020C5
:1008D0002F000020704710B500F002F810BD000096
:1008E0000CB50020019000903348006840F480303F
:1008F0003149086000BF3048006800F400300090C3
:100900000198401C0190009818B90198B0F5A06FAB
:10091000F1D12948006800F4003010B101200090A6
:1009200001E0002000900098012843D1234800688E
:1009300040F01000214908600846006820F00300DC
:1009400008600846006840F0020008601A484068E5
:10095000194948600846406848600846406840F4C5
:10096000806048600846406820F47C104860084673
:10097000406840F4E81048600846006840F0807025
:10098000086000BF0C48006800F000700028F9D033
:100990000948406820F0030007494860084640685D
:1009A00040F00200486000BF0348406800F00C00BF
:1009B0000828F9D10CBD00000010024000200240C0
:1009C0007047000010B51348006840F0010011495D
:1009D000086008464068104908400E4948600846CB
:1009E00000680E4908400B4908600846006820F47A
:1009F000802008600846406820F4FE0048604FF4FC
:100A00001F008860FFF767FF4FF00060044908602F
:100A100010BD0000001002400000FFF8FFFFF6FECE
:100A200008ED00E008B501212020FFF7D9FE0320E2
:100A3000ADF8000010208DF8030003208DF80200AF
:100A400069460E48FFF7EDFB0C20ADF80000694643
:100A50000A48FFF7E6FB3020ADF80000694607487A
:100A6000FFF7DFFBC020ADF8000069460348FFF741
:100A7000D8FBFFF78BFB00F0A9FB08BD0014014079
:100A800000BFFEE702E008C8121F08C1002AFAD121
:100A900070477047002001E001C1121F002AFBD1FE
:100AA000704710B50446092C0ED00B2C09D00C2C25
:100AB00004D00E2C0BD100F087F908E000F09EF96D
:100AC00005E000F01DF902E000F022F900BF00BFD0
:100AD00010BD10B50446201F0C282BD2DFE800F013
:100AE00006120C182A2A2A2A2A1E2A2428221146EB
:100AF000002000F0C9FA20E019221146012000F080
:100B0000C3FA1AE01E221146032000F0BDFA14E0D9
:100B10001E221146022000F0B7FA0EE007221E2125
:100B2000032000F0B1FA08E01E220721022000F0A5
:100B3000ABFA02E000F04AFB00BF00BF10BD0000AE
:100B4000002004E00021034A1154411CC8B20928C6
:100B5000F8DB70473400002008B501214020FFF782
:100B60003FFE2020ADF8000010208DF80300032088
:100B70008DF8020069460248FFF753FB08BD0000EC
:100B8000001801404FF0E021096921F004014FF005
:100B9000E0221161C21700EB5272C2F3C702074B89
:100BA0001A701946097801EB4102C2EBC1114FF6E8
:100BB000FF7202EAC101024A118070470000002062
:100BC0000200002001460D4A12884A434FF0E023FC
:100BD0005A6100229A6101221A6100BF4FF0E0229F
:100BE000106900F001021AB100F48032002AF5D039
:100BF00000224FF0E0231A619A6170470200002042
:100C000001460D4A12784A434FF0E0235A61002210
:100C10009A6101221A6100BF4FF0E022106900F0D2
:100C200001021AB100F48032002AF5D000224FF000
:100C3000E0231A619A6170470000002010B5082176
:100C40001448FFF786FB1020FFF7DAFF012000F0C1
:100C5000A3F9432000F0A0F9002000F09DF9012045
:100C600000F09AF9002000F097F9002000F094F9C4
:100C7000002000F091F9002000F08EF9002000F033
:100C80008BF908210348FFF766FB1020FFF7B8FF38
:100C900010BD00000018014010B5FFF751FF00F033
:100CA0001FF90D48C0780C49097940EA01200B4929
:100CB000088000240BE00A48015D012088400749B4
:100CC0000988084008B9204610BD601CC4B2102C29
:100CD000F1DB0020F8E70000340000200A000020CB
:100CE0000E00002010B5FFF7D7FF082802D1012021
:100CF000024908700148007810BD0000080000207B
:100D000010B57D23002203214020FFF70BFD10BD0D
:100D100010B54FF48773002203214020FFF702FD36
:100D200010BD000010B5FFF7B7FF0A280ED1002450
:100D300005E000BFFFF7B0FF0A28FBD0641C322C8F
:100D4000F7DB0B480068401C094908600848007838
:100D500000F0010028B120210648FFF7FCFA01202D
:100D600010BD20210348FFF7F4FA0020F8E7000047
:100D700004000020001801404820FFF703FFFFF7A0
:100D80001DFAFFF74FFEFFF701FA00F01DF818E01B
:100D9000FFF7C8FF70B9FFF77FFF0446FFF799FE22
:100DA000FFF77AFF0446FFF77CFEFFF79BFF05493C
:100DB000087006E0FFF7B6FF18B14FF47A70FFF73E
:100DC00001FFE5E71E00002010B573230022114645
:100DD0004020FFF7A7FC4FF47A70FFF7F3FE4FF4C3
:100DE000EB73002201214020FFF79CFC40F2F91335
:100DF000002202214020FFF795FC10BD10B54FF4F2
:100E00009673002201214020FFF78CFCC820FFF7D9
:100E1000D9FEFA23002201214020FFF783FCC820DD
:100E2000FFF7D0FEC82409E0A3B200220121402030
:100E3000FFF778FC2320FFF7C5FEA41F692CF3DA27
:100E4000FFF75EFF4FF4E673002211464020FFF7E4
:100E500069FC4FF41670FFF7B5FEFFF759FF4FF42A
:100E60009670FFF7AFFEFA23002201214020FFF722
:100E700059FC40F2EF13002202214020FFF752FC00
:100E800010BD000010B508211448FFF762FA1020C9
:100E9000FFF7B6FE012000F07FF8432000F07CF859
:100EA000002000F079F8002000F076F85A2000F0D9
:100EB00073F85A2000F070F85A2000F06DF85A20AC
:100EC00000F06AF85A2000F067F808210348FFF79D
:100ED00042FA1020FFF794FE10BD000000180140F8
:100EE0001CB5012001900020009008212748FFF741
:100EF00030FA2749087800F04FF82549487800F083
:100F00004BF80220009037E00120019028E01021EA
:100F10001E48FFF720FA0220FFF772FE10211B483F
:100F2000FFF717FA0220FFF76BFE10211748FFF7B3
:100F300012FA02211548FFF7FFF950B115489DF844
:100F40000010405CBDF80410084312499DF80020D1
:100F50008854BDF804004FF6FF7101EA400001908B
:100F6000BDF80400FF28D2DD1020FFF749FE9DF8F0
:100F70000000401CC0B200909DF800000928C3DBAF
:100F800008210248FFF7E7F91CBD000000180140E6
:100F90000C0000203400002038B5044601200090E9
:100FA00000201F4948700120009031E0BDF800008A
:100FB000204020B104211B48FFF7CDF903E00421B4
:100FC0001848FFF7C6F910211648FFF7C4F90220A8
:100FD000FFF716FE10211348FFF7BBF90220FFF7B9
:100FE0000FFE10210F48FFF7B6F902210D48FFF759
:100FF000A3F930B10A484078BDF800100843084909
:101000004870BDF800004FF6FF7101EA4000009003
:10101000BDF80000FF28C9DD1020FFF7F1FD38BD45
:10102000340000200018014010B50A48FFF78DF980
:101030004FF6AA7100EA010421460648FFF78DF930
:101040000448FFF782F940F0AA0421460148FFF75F
:1010500084F910BD0014014010B50A48FFF775F976
:101060004FF6557100EA010421460648FFF775F96D
:101070000448FFF76AF940F0550421460148FFF79C
:101080006CF910BD001401402DE9F04106460C46F4
:101090001546642C31DC642D2FDCC4EB0430642154
:1010A00090FBF1F087B23B46002204214020FFF77D
:1010B00039FBC4EB0430642190FBF1F087B23B466E
:1010C000002205214020FFF72DFBC5EB05306421F0
:1010D00090FBF1F087B23B46002206214020FFF74B
:1010E00021FBC5EB0530642190FBF1F087B23B4654
:1010F000002207214020FFF715FB36B1012E07D053
:10110000022E08D0032E0CD108E0FFF7A5FF08E05F
:10111000FFF78AFF05E000F007F802E000F01CF896
:1011200000BF00BFBDE8F08110B50A48FFF70DF918
:101130004FF65A7100EA010421460648FFF70DF9FF
:101140000448FFF702F940F05A0421460148FFF72E
:1011500004F910BD0014014010B50A48FFF7F5F876
:101160004FF6A57100EA010421460648FFF7F5F89D
:101170000448FFF7EAF840F0A50421460148FFF7CC
:10118000ECF810BD0014014010B508210E48FFF71F
:10119000E0F81020FFF734FD0120FFF7FDFE4220AC
:1011A000FFF7FAFE0020FFF7F7FE0020FFF7F4FE3E
:1011B0000020FFF7F1FE08210348FFF7CCF81020CC
:1011C000FFF71EFD10BD00000018014010B51348C8
:1011D000FFF7BBF800F47F4421461048FFF7BDF845
:1011E000002340F6FF7204214020FFF79BFA002302
:1011F00040F6FF7205214020FFF794FA002340F6E5
:10120000FF7206214020FFF78DFA002340F6FF729F
:1012100007214020FFF786FA10BD000000140140AE
:1012200010B508211248FFF794F80120FFF7B4FE2B
:101230004420FFF7B1FE0020FFF7AEFE0120FFF7CC
:10124000ABFEEE20FFF7A8FE0020FFF7A5FE002072
:10125000FFF7A2FE0020FFF79FFE0020FFF79CFE95
:1012600008210348FFF777F81020FFF7C9FC10BDED
:101270000018014010B508210E48FFF76AF8102049
:10128000FFF7BEFC0120FFF787FE4D20FFF784FE2D
:101290000020FFF781FE0020FFF77EFE0120FFF710
:1012A0007BFE08210348FFF756F81020FFF7A8FC43
:1012B00010BD000000180140D812000800000020F6
:1012C00034000000840A00080C13000834000020D9
:1012D0000C040000940A0008000000000000000058
:1012E000000000000142000102030405060708098E
:1012F0000A0B0C0D0E0F0000000000010203040198
:0C130000020304060708090204060800A6
:0400000508000131BD
:00000001FF
