:020000040800F2
:10000000E8050020450100086F1B0008E713000801
:100010006B1B00086D0E00089932000800000000FC
:10002000000000000000000000000000A120000807
:100030007510000800000000D51E000839240008D3
:100040005F0100085F0100085F0100085F01000810
:100050005F0100085F0100085F0100085F01000800
:100060005F0100085F0100085F0100085F010008F0
:100070005F0100085F0100085F0100085F010008E0
:100080005F0100085F0100085F0100085F010008D0
:100090005F0100085F0100085F0100085F010008C0
:1000A0005F0100085F0100085F0100085F010008B0
:1000B0005F010008DD2600085F0100085F010008FD
:1000C0005F0100085F0100085F0100085F01000890
:1000D0005F010008E52E00085F0100085F010008CD
:1000E0005F0100085F0100085F0100085F01000870
:1000F0005F0100085F0100085F0100085F01000860
:100100005F0100085F0100085F0100085F0100084F
:100110005F0100085F0100085F0100085F0100083F
:100120005F0100085F0100085F0100085F0100082F
:10013000DFF80CD000F034FC00480047ED54000814
:10014000E80500200648804706480047FEE7FEE72E
:10015000FEE7FEE7FEE7FEE7FEE7FEE7FEE7FEE777
:100160003D240008310100082DE9F0410024061B60
:10017000254671F1000605DA01240027D0EB0700BF
:1001800067EB0101161E73F1000605DA0027D2EBBA
:100190000702012567EB030300F004FB86460E46C9
:1001A00017469C46AC4204D00025D0EB050E65EB0B
:1001B000010624B10020D2EB000760EB030C70466F
:1001C00031463A466346BDE8F081D2B201E000F81C
:1001D000012B491EFBD270470022F6E710B51346EB
:1001E0000A4604461946FFF7F0FF204610BD30B519
:1001F00004460020034600E05B1C934203D2E05C0F
:10020000CD5C401BF8D030BDF0B480EA0102D40FC1
:100210004200B2EB410F02D20246084611464A00A4
:1002200042D0C30DDDB2C1F3C752AD1A202D35DA6D
:10023000C1F3160141F4000204B15242C5F1200697
:1002400002FA06F12A411044B3EBD05F23D0C4B1C7
:10025000012DA0EBC35009DCF0BC4FF0004202EAD4
:10026000C352DBB200F5000000F0F7BA400000F125
:10027000807000EBC350A0F1807040EAD17049005B
:1002800009E0490841EAC071A0EBC35000F5000045
:10029000400800EBC350F0BC00F0D6BA6142012226
:1002A00002EB4101001BF6E7F0BC704781F0004112
:1002B000AAE780F00040A7E780EA010210B502F04B
:1002C0000043400022D04A001FD0010E01EB126112
:1002D000C0F35600C2F3560240F4000042F400029C
:1002E000A0FB022000047F39140400D0401C50EA17
:1002F000124001D44000491EC2B20C0604EBD010DB
:10030000401C4008802A02D003E0002010BD20F0ED
:100310000100002900DA0020184310BD30B480EA43
:10032000010202F0004530F0004221F0004013D0FD
:1003300090B1C30DD40DC2F31601C0F31600E41A38
:1003400041F4000140F400027D34914201D3641C69
:1003500000E04900002C02DA30BC002070474FF466
:1003600000000023914201D3891A034340084FEA59
:100370004101F7D151B1914202D14FF0004105E066
:1003800002D24FF0010101E06FF0010103EBC45014
:10039000284430BC00F058BA2DE9FE4F804681EA6F
:1003A0000300C00F0C46009021F0004123F00045EF
:1003B000B8EB0200A94105D24046214690461C46B2
:1003C0000B46024623F00040104347D0270DC7F3E9
:1003D0000A00C3F30A510290401A019040286BDAD8
:1003E000C3F3130040F4801B0098924620B1002311
:1003F000D2EB030A63EB0B0B01985946C0F14002A4
:10040000504600F000FA06460D4650465946019AFD
:1004100000F008FA10EB08006141002487EA11524D
:1004200084EAE7731A4340D0009A62B3019A012A22
:100430004FEA075215DC001B61EB02014FF000424E
:1004400002EA0752CDE90042001C41F58011324614
:100450002B4600F03FFA03B0BDE8F08F404621463E
:10046000F9E7001B61EB0201001C41F58013001845
:100470005B412018A2F5001747EB030140EAD57055
:10048000B6196D4111E06D084FEA360645EAC075B0
:100490004FEA0752001B61EB0201001C41F580117D
:1004A00049084FEA30000019514132462B4603B04B
:1004B000BDE8F04F00F0FFB9009801224000002392
:1004C000D0EB020263EBE073009821464FEAE07440
:1004D000B8EB000061EB0401E9E783F000435BE760
:1004E00081F0004158E72DE9FE4F81EA030404F052
:1004F000004421F0004100944FF0000B23F0004332
:1005000050EA01045ED052EA03045BD0C3F30A54FC
:10051000C1F30A552C44A4F2F3340194A0FB025415
:10052000C1F3130141F48011C3F3130343F48013A7
:1005300001FB024400FB034E840A970A44EA8154FB
:1005400047EA8357A4FB076802958D0A05FB0785D8
:100550004FEA932C04FB0C542705029D4FEA0658E2
:1005600047EA1637B5EB08056EEB070C870E920EBF
:1005700047EA811742EA8312A7FB0201B6EB0B019F
:1005800064EB00042B0D43EA0C335E1844EB1C5063
:10059000DA465146E7FB0201C5F313044FEA0B3379
:1005A00043EA14534FEA0432019C43EA0603A4F1E0
:1005B0000C040294009CCDE900B400F08BF903B068
:1005C000BDE8F08F00200146F9E72DE9F04D81EA02
:1005D000030404F0004B21F0004514464FF0000ADC
:1005E00023F0004150EA050220D054EA01021DD058
:1005F000C5F30A570246C5F31303C1F31300C1F351
:100600000A5640F4801543F48013A7EB0608101B2C
:10061000D64608F2FD3873EB050002D308F1010855
:1006200001E092185B41B8F1000F03DA00200146A7
:10063000BDE8F08D00204FF48011064684460EE0A0
:10064000171B73EB050705D3121B63EB050306436A
:100650004CEA010C49084FEA300092185B4150EA1D
:100660000107EDD152EA030012D082EA040083EAC6
:100670000501084305D0101BAB4106D2012200231F
:1006800006E000224FF0004302E06FF00102531039
:100690001AEB06004CEB085110EB0A0041EB0B0182
:1006A000BDE8F04D00F007B9C10F80EAE0700844E2
:1006B000CA079623002100F0D0B8962300221146E5
:1006C00000F0CBB800F0004220F00040C10DC0F3B4
:1006D000160040F400007F2901DA002070479629B7
:1006E00003DCC1F19601C84001E096398840002A38
:1006F000F4D04042704720F00040C10DC0F3160016
:1007000040F400007F2901DA00207047962903DCBD
:10071000C1F19601C840704796398840704700F093
:10072000004230F000400AD0C10D01F56071C0F305
:10073000160042EA0151C2084007114370470020E9
:100740000146704701F0004330B421F0004150EA07
:10075000010206D00A0DA2F56072C1F31301002A4E
:1007600002DC30BC00207047440F44EAC104C100E1
:10077000E01830BC00EBC25000F066B8002801DB86
:10078000C0F10040002901DBC1F100418142704706
:10079000002801DBC0F10040002901DBC1F100416C
:1007A000884270472DE9F05F0546002092469B463F
:1007B00088460646814640241BE028464146474677
:1007C000224600F0FFF853465A46C01A914110D312
:1007D00011461846224600F016F82D1A67EB01085C
:1007E0004F4622460120002100F00DF817EB0009CA
:1007F0004E41201EA4F10104DFDC484631462A4662
:100800004346BDE8F09F202A04DB203A00FA02F1BB
:10081000002070479140C2F1200320FA03F31943EE
:1008200090407047202A06DBCB17203A41FA02F0AD
:1008300043EAE07306E041FA02F3D040C2F120023D
:1008400091400843194670470029A8BF7047401CD3
:10085000490008BF20F00100704710B4B0FA80FCD6
:1008600000FA0CF050EA010404BF10BC704749B113
:10087000CCF1200421FA04F411FA0CF118BF012183
:1008800021430843A3EB0C01CB1D4FEA00614FEA63
:10089000102042BF002010BC704700EBC350104432
:1008A0000029A4BF10BC7047401C490008BF20F0BD
:1008B000010010BC704710B5141E73F1000408DA73
:1008C000401C41F1000192185B411A4301D120F014
:1008D000010010BD2DE9F04D92469B4611B1B1FAD1
:1008E00081F202E0B0FA80F220329046FFF78BFFEF
:1008F00004460F4640EA0A0041EA0B0153465A46B5
:10090000084313D0114653EA010019D0C8F1400240
:10091000504600F057F805460E46504659464246A6
:10092000FFF771FF084305D0012004E02046394657
:10093000BDE8F08D0020054346EAE0762C433743BE
:100940000A986305E40AA0EB08000022FD0A44EAC5
:1009500047540A3002D500200146E9E70105101985
:100960006941DDE9084500196941BDE8F04DA2E79C
:1009700070B521F0004303430CD0C1F30A550024A5
:10098000D5EB040564EB0403D617AD1AB34102DBC3
:100990000020014670BD201841EB025170BD0000DF
:1009A000064C074D06E0E06840F0010394E80700BC
:1009B00098471034AC42F6D3FFF7BEFBB07A00087C
:1009C000D07A0008202A04DB203A21FA02F0002124
:1009D000704721FA02F3D040C2F12002914008434F
:1009E0001946704770B58C1810F8015B15F00703B5
:1009F00001D110F8013B2A1106D110F8012B03E0B8
:100A000010F8016B01F8016B5B1EF9D12B0705D4BF
:100A10000023521E0DD401F8013BFAE710F8013B08
:100A2000CB1A921C03E013F8015B01F8015B521E24
:100A3000F9D5A142D8D3002070BD21B1826842F01F
:100A40000102826003E0826822F001028260704746
:100A500000B591B00121142001F08EFA7E20ADF88E
:100A6000400000208DF8430010A95D4800F0D4FB41
:100A70003F20ADF8400010A95A4800F0CDFB0320FC
:100A8000ADF8400010A9584800F0C6FB012148020B
:100A900001F072FA4FF4004001F042FA00200B908E
:100AA00001208DF830008DF831004FF460200D905A
:100AB00000200E900C208DF83C000BA94B4800F054
:100AC000BBF8072301221146484800F037F90723F5
:100AD00002221146454800F031F90723032211464E
:100AE000424800F02BF90723042211463F4800F04A
:100AF00025F9072305220A213C4800F01FF90723A6
:100B000006220B21394800F019F907231A460C2157
:100B1000364800F013F9072308220D21334800F06E
:100B20000DF9072309220521304800F007F90723B2
:100B30000A2206212D4800F001F907230B22082183
:100B40002A4800F0FBF807230C220F21274800F069
:100B5000F5F80121254800F04FF801212348FFF75F
:100B60006CFF224800F046F900BF204800F059F819
:100B70000028FAD11D4800F042F900BF1B4800F0E0
:100B800046F80028FAD10121084601F0D5F91848A5
:100B900000F0ACF915484C30009016480190002048
:100BA00002900C20039000200490802005904000CB
:100BB00006908000079020200890000209900020F5
:100BC0000A9069460A4800F037FA0121084800F007
:100BD00081F901210548FFF730FF11B000BD000089
:100BE0000008014000100140000C014000240140B9
:100BF00008000240BE01002021B1826842F48072E8
:100C0000826003E0826822F480728260704701464D
:100C100000208A6802F004020AB1012000E00020EE
:100C20007047014600208A6802F008020AB10120DC
:100C300000E000207047000030B50246002000238D
:100C400050680F4C20400D790C6844EA052420437D
:100C5000506090680B4C2040D1E902542C434D79F0
:100C600044EA450420439060D06A20F470000C7C74
:100C7000641EE4B2234340EA0350D06230BD00005A
:100C8000FFFEF0FFFDF7F1FF08B50F48C0880090A8
:100C90000D488388428801880CA002F0CDFB0A48E9
:100CA000C0890090084883894289018910A002F018
:100CB000C3FB0548408A00900348038AC28A818AA0
:100CC00014A002F0B9FB08BDBE01002076616C756E
:100CD000653A2066726F6E74202534642C202534AA
:100CE000642C202534642C202534640A0000000084
:100CF000202020202020206261636B202025346486
:100D00002C202534642C202534642C202534640ABE
:100D100000000000202020202020204C2F522F42B5
:100D2000202534642C202534642C202534642C2088
:100D3000636F6C6F72202534640A0000F0B50446BE
:100D40000D4600200021092D11DDE068A5F10A06FD
:100D500006EB4607072606FA07F18843A5F10A06BF
:100D600006EB460603FA06F10843E0600CE0206952
:100D700005EB4507072606FA07F1884305EB45060C
:100D800003FA06F108432061072A0FDA606B561E4A
:100D900006EB86071F2606FA07F18843561E06EB68
:100DA000860605FA06F10843606322E00D2A0FDA91
:100DB000206BD61F06EB86071F2606FA07F188432D
:100DC000D61F06EB860605FA06F10843206310E0FD
:100DD000E06AA2F10D0606EB86071F2606FA07F168
:100DE0008843A2F10D0606EB860605FA06F10843D4
:100DF000E062F0BD816841F0080181607047816860
:100E000041F00401816070471CB500F05CFF402098
:100E10008DF8000000208DF8010001208DF80200FF
:100E200000208DF8030082208DF80400684600F051
:100E3000C1FF1CBD10B50A48007830B901F04CF86C
:100E40000120074908700749087001E001F02AF9FC
:100E5000044800780028F9D10348006810BD00005C
:100E6000680000206A0000206000002000BFFEE74C
:100E700008B50121402001F07FF81C20ADF80000EA
:100E800010208DF8030003208DF8020069461048F9
:100E900000F0C2F90220ADF8000028208DF8030010
:100EA00069460B4800F0B8F903F00CF805F0E4FDD2
:100EB00005F0E2FD05F0E0FD03F034FE05F072FE02
:100EC00005F09AFE05F002FC02F0F0FF08BD0000FC
:100ED0000018014021B1026842F00102026004E002
:100EE00002684FF6FE731A400260704701684FF6C1
:100EF000FE72114001600021016041608160C160AB
:100F00004B49884208D14A490839496841F00F01E4
:100F1000474A083A51608AE045491431884208D16D
:100F200043490839496841F0F001414A083A5160A3
:100F30007DE03F492831884208D13D490839496858
:100F400041F470613A4A083A516070E038493C31E6
:100F5000884208D136490839496841F47041344A19
:100F6000083A516063E032495031884208D1304933
:100F70000839496841F470212D4A083A516056E019
:100F80002B496431884208D129490839496841F41C
:100F90007001274A083A516049E025497831884272
:100FA00008D123490839496841F07061204A083A5C
:100FB00051603CE01F49884206D1011F096841F099
:100FC0000F01021F116032E01A491431884208D122
:100FD0001849091F096841F0F001164A121F1160F3
:100FE00025E014492831884208D11249091F0968AF
:100FF00041F470610F4A121F116018E00D493C3135
:10100000884208D10B49091F096841F47041094A17
:10101000121F11600BE007495031884207D1054982
:10102000091F096841F47021024A121F11607047BC
:10103000080002400804024010B50022026847F68A
:10104000F0739A430C6A8B6823430C6923434C6901
:1010500023438C692343CC6923434C6A23438C6A22
:1010600023431A430260CB6843600B6883604B687C
:10107000C36010BD7047000070B506460C4655A011
:1010800002F0DAF905F01AFD322002F0B9FFC4F1DE
:1010900003005022114605F01BFCF4B1012C39D19C
:1010A000514952480068FFF7AFF805465049FFF72D
:1010B000FDF85049086000BF4F4803F0EFFD0028DD
:1010C000FAD102E04C4803F0E9FD4A4801684A4879
:1010D0000068FFF753FBF5D31CE043494348006821
:1010E000FFF7E4F805464249FFF78EF841490860EA
:1010F00000BF414803F0D2FD0028FAD102E03E488B
:1011000003F0CCFD3B4801683B480068FFF740FB1B
:10111000F5D300BF00BF0F221146012005F0D8FB18
:101120004FF4617002F06CFF0F221146002005F0B1
:10113000CFFBC82002F064FF00BF3048008AB0F542
:10114000967FFADBA01C5022114605F0C1FBD4B1FA
:10115000012C31D1264925480068FFF755F825496B
:10116000086000BF244803F099FD0028FAD102E08E
:10117000214803F093FD1F4801681F480068FFF7EE
:1011800007FBF5D318E01A4918480068FFF78EF8F6
:101190001849086000BF184803F080FD0028FAD104
:1011A00002E0154803F07AFD124801681248006811
:1011B000FFF7E4FAF5D300BF00BF05F07FFC10A0F5
:1011C00002F03AF9002013490870322002F018FFAB
:1011D00070BD00003A6C696768742069732073659C
:1011E000656B65640A0000000000B44260000020E6
:1011F0000000E040640000205C000020BE010020F0
:101200006C696768742069732066696E6465640A36
:10121000000000006B0000202DE9F041024600258F
:101220000026002000230024002791F803C00CF0C2
:101230000F0591F803C00CF0100CBCF1000F03D0A7
:1012400091F802C04CEA050591F800C0BCF1000F0E
:1012500031D0146800202BE04FF0010C0CFA00F3A1
:10126000B1F800C00CEA03069E4220D183004FF083
:101270000F0C0CFA03F7BC4305FA03FC4CEA040418
:1012800091F803C0BCF1280F06D14FF0010C0CFA05
:1012900000FCC2F814C00AE091F803C0BCF1480F8A
:1012A00005D14FF0010C0CFA00FCC2F810C0401C34
:1012B0000828D1D31460B1F800C0BCF1FF0F34DDB1
:1012C000546800202EE000F1080C4FF0010808FAE5
:1012D0000CF3B1F800C00CEA03069E4221D1830052
:1012E0004FF00F0C0CFA03F7BC4305FA03FC4CEA71
:1012F000040491F803C0BCF1280F05D100F1080CDB
:1013000008FA0CF8C2F8148091F803C0BCF1480F39
:1013100007D100F1080C4FF0010808FA0CF8C2F8E8
:101320001080401C0828CED35460BDE8F081000036
:10133000F0B50A46002300240021002500F00046F5
:10134000B6F1004F02D11D4EF16901E01B4E7168EC
:10135000C0F3034583B200F44016B6F5401F08D130
:1013600021F07061154E766826F07066134F7E602E
:1013700012E000F48016B6F5801F06D1032606FAA7
:1013800005F4A14341F0706106E0460D360103FA11
:1013900006F6B14341F0706122B1460D360103FA01
:1013A00006F6314300F00046B6F1004F02D1034E7D
:1013B000F16101E0014E7160F0BD000000000140EC
:1013C0000246002093680B400BB1012000E0002092
:1013D00070470146C86880B270474161704701613B
:1013E0007047C160704700BFFEE770B50246002439
:1013F000002500230020958A138B1B0445EA030671
:1014000026F07F4404EA01068E4201D1012000E06B
:10141000002070BD21B1028842F00102028004E088
:1014200002884FF6FE731A400280704721B102888D
:1014300042F48072028004E002884FF6FF631A4093
:101440000280704721B1028842F40072028004E0F9
:1014500002884FF6FF531A40028070470CB50246CF
:10146000002000230193009300920B0F019321F0C1
:101470007F41019B1BB1009B1433009303E0090CD7
:10148000009B18330093009B1B680B400BB101209D
:1014900000E000200CBD00002DE9F04385B00446BB
:1014A0000D460026B1460427DFF8CC80A6884FF60B
:1014B000C0700640684600F06FFDDDF808802F48D8
:1014C000B8FBF0F01FFA80F946EA0906A6802088EA
:1014D0004FF6FE710840208000262949286888427E
:1014E0000CD828684000B8FBF0F087B2042F00DA6F
:1014F00004273E4309F10100208427E0E8884BF6E9
:10150000FF71884206D1286800EB4000B8FBF0F07C
:1015100087B209E0286800EBC00101EB0010B8FBBE
:10152000F0F087B247F48047C7F30B0008B947F0E3
:10153000010747F4004006434FF4967009FB00F0A2
:101540004FF47A7190FBF1F0401C2084A683208830
:1015500040F00100208026884FF6F5300640A8882C
:101560006989084306432680A88929890843208180
:1015700005B0BDE8F083000000127A0040420F0081
:10158000A08601000146088AC0B2704712B141F03E
:10159000010102E04FF6FE7319400182704701829B
:1015A0007047000010B50023002206E01C4C34F800
:1015B0001240FA2C00DD5B1C521C082AF6DB2BB90A
:1015C0000222184C2270184C227010BD144A128846
:1015D000134C64882244124CA4882244104CE488A2
:1015E000224490B20E4A12890D4C648922440C4C5C
:1015F000A48922440A4CE489224491B201F5FA728A
:10160000904203DD0022074C227006E000F57A725A
:10161000914202DD0122034C227000BFD5E7000099
:10162000BE0100206C0000206D00002010B50020DD
:101630000E4908600E48006820F470400C490860AC
:101640000846006840F44050086000200949C1F88D
:10165000AC0100F011F801200449086000F00CF81A
:1016600000200449C1F8A80110BD0000A881214252
:10167000040C01400080214210B5022002F0DEFC83
:1016800010BD000008B50121082000F075FC4FF4E2
:101690004060ADF8000010208DF8030003208DF8A5
:1016A000020069460448FFF7B7FD4FF44061024865
:1016B000FFF795FE08BD0000000C014010B50020AA
:1016C0000E4908600E48006820F470400C4908601C
:1016D0000846006840F44050086001200949C1F8FC
:1016E000AC01FFF7C9FF012004490860FFF7C4FF00
:1016F00000200449C1F8A80110BD0000A8812142C2
:10170000040C01400080214270B5054600241648B3
:10171000006820F47040144908600846006840F4EE
:1017200000400860002614E0002010490860FFF720
:10173000A3FF01200E49C1F8A8016006040E0B4862
:101740007C38006808B1601CC4B2FFF795FF701CBC
:10175000C6B2082EE8DB15B9FFF7B0FF01E0FFF7CE
:1017600065FF204670BD0000040C0140A8812142A5
:101770000080214270B504461248006820F4704091
:10178000104908600846006840F440500860002096
:101790000D490860002512E0E0090B49091D0860A9
:1017A0006006040E01200949C1F8A801FFF764FF93
:1017B000002005490860FFF75FFF681CC5B2082DCF
:1017C000EADB70BD040C0140A88121420080214267
:1017D00010B50E48006820F470400C4908600846B7
:1017E000006840F440500860012009490860094938
:1017F000C1F8A801FFF740FF002005490860FFF786
:101800003BFF00200349C1F8A80110BD040C0140B2
:10181000AC8121420080214210B50E48006820F4BE
:1018200070400C4908600846006840F44050086069
:101830000020094908600949C1F8AC01FFF71CFF05
:101840000120054908600549C1F8AC01FFF714FF04
:1018500010BD0000040C0140A881214200802142FB
:1018600010B500241448006820F470401249086044
:101870000846006840F40040086001200F490860F5
:10188000FFF7FAFE01200E49C1F8A801FFF7F4FEA8
:1018900007E0601CC4B2FA2C03DDFFF7BDFF012096
:1018A00010BD0648803800680028F2D10349091F9E
:1018B000086000BFF4E70000040C0140AC81214245
:1018C0000080214238B50121084600F055FB012176
:1018D000042000F051FB4FF40040ADF80000102050
:1018E0008DF8030003208DF8020069462248FFF7B7
:1018F00093FC01212148FFF71BFD002020490860CF
:10190000FFF7C0FE80216B2000F0DDF8642002F0BC
:1019100077FB00216B2000F0D6F8022000F091F850
:10192000002000F086F8322000F0B0F800213820C6
:1019300000F0C9F800216A2000F0C5F8002123203A
:1019400000F0C1F88021372000F0BDF8752000F0CC
:1019500019F80446682C0BD101216B2000F0B3F874
:1019600000216C2000F0AFF8322000F08FF801E089
:10197000012038BD0020FCE70008014000023000D3
:10198000BC01214270B50446FFF722FFD020FFF7CB
:10199000F1FEFFF765FF2046FFF7ECFEFFF760FF63
:1019A000FFF716FFD120FFF7E5FEFFF759FF0020F4
:1019B000FFF7AAFE0546FFF72FFF284670BD2DE969
:1019C000F04106460F4614461D46FFF701FF002171
:1019D00041EA4601C8B2FFF7CDFEFFF741FF20B153
:1019E000FFF71AFF0120BDE8F0813846FFF7C2FE7D
:1019F000FFF736FFFFF7ECFE012101EB4601C8B20D
:101A0000FFF7B8FEFFF72CFF0DE0012C04D10020FA
:101A1000FFF77AFE287003E00120FFF775FE2870BB
:101A2000601EC4B26D1C002CEFD1FFF7F5FE002044
:101A3000D9E710B50446E006010E1C2000F043F87B
:101A400010BD10B50446E006010E1B2000F03BF867
:101A500010BD70B504460025BC2C01DB012510E04B
:101A6000622C01DB02250CE02A2C01DB032508E0B7
:101A7000142C01DB042504E00A2C01DB052500E021
:101A8000062529461A2000F01EF870BD70B50446E0
:101A9000B4F57A7F01DD4FF47A74042C00DA042463
:101AA0004FF47A7090FBF4F0401EC5B2294619201D
:101AB00000F009F80546264604EBD671C1F34F0045
:101AC000FFF7C7FF70BD70B505460C46FFF780FEF7
:101AD000D020FFF74FFEFFF7C3FE18B1FFF79CFEC3
:101AE000012070BD2846FFF745FEFFF7B9FE2046EE
:101AF000FFF740FEFFF7B4FE18B1FFF78DFE01209F
:101B0000EFE7FFF789FE0020EBE72DE9F0410546FE
:101B10000E4617469846FFF75BFE002141EA450155
:101B2000C8B2FFF727FEFFF79BFE20B1FFF774FE58
:101B30000120BDE8F0813046FFF71CFEFFF790FE64
:101B400000240CE018F80400FFF714FEFFF788FEED
:101B500018B1FFF761FE0120EBE7601CC4B2BC4284
:101B6000F0DBFFF759FE0020E3E700BFFEE7704718
:101B700008B500214FF0006000F054F84FF4E06029
:101B800000F046F825208DF8000000208DF80200B6
:101B900001208DF80300684600F002F808BD00003F
:101BA00070B5002100230F22C47804B3154C2468BB
:101BB00004F4E064C4F5E064210AC1F10403CA40FE
:101BC000447804FA03F184781440214309010E4C4F
:101BD0000678A155047804F01F050124AC4005786F
:101BE0006D11AD0005F1E025C5F8004109E004786C
:101BF00004F01F050124AC40044D0678761145F829
:101C0000264070BD0CED00E000E400E080E100E063
:101C100002490143024A1160704700000000FA05C2
:101C20000CED00E0024A0A400243024B1A60704782
:101C300080FFFF1F08ED00E010B5044601210C48AD
:101C4000FFF7F4FB00BF0B490948FFF7CEFB002864
:101C5000F9D06006010E00220548FFF797FC00BF8F
:101C600005490348FFF7C1FB0028F9D010BD00006B
:101C700000540040010003008200070010B501215C
:101C80000148FFF7DFFB10BD0054004008B50121FB
:101C9000082000F071F90121480500F05DF9C0202D
:101CA000ADF8000003208DF802001C208DF8030021
:101CB00069460248FFF7B0FA08BD0000000C014079
:101CC00001460120704710B5FFF7E0FF00F002F871
:101CD00010BD00001FB50020ADF804004BF6FF70EA
:101CE000ADF806004FF48060ADF80A000001ADF8D1
:101CF0000C000548009069460448FFF7CDFB012120
:101D00000248FFF787FB1FBD400D03000054004051
:101D100070B506460D46144600BF4FF400311A4810
:101D2000FFF79CFB0028F8D101211748FFF77EFB45
:101D300000BF16491448FFF758FB0028F9D0700679
:101D4000010E01221048FFF721FC00BF0F49491C7A
:101D50000D48FFF74AFB0028F8D011E01CB901211B
:101D60000948FFF76FFB09493F310748FFF73DFB83
:101D700030B10548FFF706FC28706D1C601EC4B228
:101D8000002CEBD1012070BD005400400100030085
:101D900010B5044621460548FFF701FC00BF044981
:101DA0000248FFF722FB0028F9D010BD0054004084
:101DB0008400070070B5044600250026FFF783FF66
:101DC0002078FFF77DFF002833D02078FFF734FF1D
:101DD0000020FFF7DDFF1020FFF7DAFFFFF74EFFCF
:101DE0002078FFF729FFFE20FFF7D2FF2079FFF7C9
:101DF000CFFFFFF743FF2078FFF71EFF0020FFF71C
:101E0000C7FF2120FFF7C4FFFFF738FF607800010C
:101E1000A17840EA8100E1780843C6B22078FFF754
:101E20000BFF0120FFF7B4FF3046FFF7B1FFFFF7CC
:101E300025FF207800F02BF8284670BD2DE9F041F1
:101E400007460E4614461D460F2E1EDCB4F5805F75
:101E50001BDAB5F5805F18DA3846FFF7EDFE06218C
:101E600001EB8601C8B2FFF793FFE0B2FFF790FFE6
:101E7000C4F30320FFF78CFFE8B2FFF789FFC5F337
:101E80000320FFF785FFFFF7F9FEBDE8F08138B5C5
:101E90000446002000902046FFF7CEFE0020FFF70A
:101EA00077FFFFF7EBFE012269462046FFF730FF80
:101EB0009DF8000020F0100000902046FFF7BCFEC7
:101EC0000020FFF765FF9DF80000FFF761FFFFF7B7
:101ED000D5FE38BD7047000010B500BF0F4802F0B6
:101EE000DDFE0028FAD11422114604F0F1FC4FF473
:101EF0007A7000F091FE04E0002000F027FFFFF769
:101F000051FB00F09DFE0028F6D100F077FE04F0B2
:101F1000D5FDC82002F074F810BD0000600000205C
:101F200001460020034A506820F4404008435060B6
:101F3000704700000010024029B1064A526902436E
:101F4000044B5A6104E0034A52698243014B5A61CF
:101F5000704700000010024029B1064AD2690243CE
:101F6000044BDA6104E0034AD2698243014BDA612F
:101F7000704700000010024029B1064A92690243EE
:101F8000044B9A6104E0034A92698243014B9A61CF
:101F9000704700000010024030B5002100220024EC
:101FA00000232D4D6D6805F00C0121B1042905D0E9
:101FB000082923D105E0294D056022E0274D056061
:101FC0001FE0254D6D6805F47012234D6D6805F412
:101FD0008034022505EB92421CB9214D5543056022
:101FE0000BE01D4D6D6805F400351DB11C4D5543CA
:101FF000056002E0194D5543056002E0174D05608C
:1020000000BF00BF144D6D6805F0F0010909154DC2
:102010006B5C0568DD4045600F4D6D6805F4E0615F
:10202000090A104D6B5C4568DD4085600A4D6D689E
:1020300005F46051C90A0B4D6B5C4568DD40C56015
:10204000054D6D6805F44041890B074D6B5CC56813
:10205000B5FBF3F5056130BD0010024000127A00B7
:1020600000093D0000000020100000200020084969
:10207000087008490870012007490870002003E033
:1020800006490854411CC8B20028F9D17047000025
:102090006F01002070010020710100206F000020FE
:1020A0007047000010B586B0FFF77CFA76480078DC
:1020B00002283DD175A001F0BFF9FEF7E5FD002033
:1020C00000F044FE802000F0D3FD0446214672A0BB
:1020D00001F0B2F9802000F0CBFD012813D9802057
:1020E00000F0C6FDB0F5FA6F0DD2FFF75BFA664857
:1020F0000078022807D104F0E1FC00206A4908704A
:102100006AA001F099F96D48408A40F2E2418842A4
:102110000CDD012C0AD9C800844207D20020624994
:10212000087004F0CBFC66A001F086F906B010BD83
:102130005548007818B166A001F07EF902E066A06B
:1021400001F07AF95048007800F000FE5B48C08941
:102150005A498989594A5289584B1B89CDE901321C
:10216000CDE903105548C0880090544883884288C0
:1021700001885BA001F060F95048C28A818A63A09F
:1021800001F05AF94D48808AB0F5C86F06DA01208F
:102190006749087000206749087009E04748C08A0D
:1021A000B0F5C86F04DA0120614908706149087010
:1021B0003548007880BB802000F05AFD01282CD9DA
:1021C000802000F055FDB0F5FA6F26D25AA001F03C
:1021D00033F93A480088B0F57A7F0BDD374800883C
:1021E0003649C988884205DD0120514908705149A6
:1021F00008703EE03148C088B0F57A7F39DD2F485D
:10220000C0882E490988884233DD0120484908707A
:102210000020484908702CE0FFE71B48007801289F
:1022200027D12648408A40F2E241884221DD2348F6
:102230000089B0F57A7F0CDD204800891F49C989E3
:10224000884206DD01203A490870002039490870AB
:102250000FE01A48C089B0F57A7F0ADD1748C089B7
:1022600016490989884204DD012031490870314945
:1022700008702F48007828B12E480178024800786D
:10228000FEF7FAFE00BF51E76C0000203A4E4F20E7
:102290004C494748540A00003A3A44495354414E85
:1022A00043452025750A00006A00002064697374A4
:1022B000616E6365206C696D69740A00BE0100205F
:1022C000636F6C6F72206C696D69740A00000000A6
:1022D0003A4241434B2020003A46524F4E54200090
:1022E0002534642C202534642C202534642C2025AE
:1022F0003464202D202534642C202534642C2025A2
:1023000034642C202534640A0000000020202020A2
:102310002020206C656674202020202534642C2029
:1023200072696768742020202534640A0000000068
:102330006B0000206D0000207365656B206469737D
:1023400074616E6365206C696D69740A0000000039
:1023500010B500F001F810BD0CB500200190009000
:102360003348006840F480303149086000BF30488D
:10237000006800F4003000900198401C0190009823
:1023800018B90198B0F5A06FF1D12948006800F4A0
:10239000003010B10120009001E000200090009872
:1023A000012843D12348006840F01000214908600B
:1023B0000846006820F0030008600846006840F006
:1023C000020008601A484068194948600846406899
:1023D00048600846406840F48060486008464068AD
:1023E00020F47C1048600846406840F4E8104860DB
:1023F0000846006840F08070086000BF0C48006824
:1024000000F000700028F9D00948406820F003006F
:10241000074948600846406840F00200486000BF35
:102420000348406800F00C000828F9D10CBD0000FA
:1024300000100240002002407047000010B5134811
:10244000006840F0010011490860084640681049E2
:1024500008400E494860084600680E4908400B498C
:1024600008600846006820F480200860084640683C
:1024700020F4FE0048604FF41F008860FFF768FFFB
:102480004FF000600449086010BD000000100240D9
:102490000000FFF8FFFFF6FE08ED00E0F0B50C4687
:1024A000154600220021068C4FF6FE773E4006843A
:1024B000028B018C4FF60C7632407E1C06EA031626
:1024C0002E433243104EB0420ED0104EB0420BD0CD
:1024D000B0F1804F08D00E4EB04205D00D4EB04244
:1024E00002D00D4EB04206D14FF6FD76314044F099
:1024F0000106314305E04FF6F576314044F0010620
:10250000314302830184F0BD002C014000340140BE
:102510000004004000080040000C0040F0B50C46EC
:102520001546002200210026078C4FF6EF7C07EAB3
:102530000C070784028B018C4FF6FF7707EA04161D
:1025400040F6FF473A404FF6FF7707EA03373A4332
:102550004FF6FF7707EA05273A43114FB8420ED0EE
:10256000104FB8420BD0B0F1804F08D00E4FB84298
:1025700005D00E4FB84202D00D4FB84206D14FF6EB
:10258000DF77394046F01007394305E04FF65F77B3
:10259000394044F01007394302830184F0BD000044
:1025A000002C0140003401400004004000080040BD
:1025B000000C0040F0B50C46154600220021002614
:1025C000078C4FF6FF6C07EA0C070784828B018C9F
:1025D0004FF6FF7707EA04264FF60C773A404FF69E
:1025E000FF7707EA03172F433A43114FB8420ED043
:1025F000104FB8420BD0B0F1804F08D00E4FB84208
:1026000005D00E4FB84202D00D4FB84206D14FF65A
:10261000FF57394046F48077394305E04FF2FF57C2
:10262000394044F48077394382830184F0BD00004F
:10263000002C01400034014000040040000800402C
:10264000000C0040F0B50C46154600220021002683
:10265000078C4EF6FF7C07EA0C070784828B018CFF
:102660004FF6FF7707EA043640F6FF473A404FF649
:10267000FF7707EA05273A434FF6FF7707EA033764
:102680003A43114FB8420ED0104FB8420BD0B0F1C0
:10269000804F08D00E4FB84205D00E4FB84202D03E
:1026A0000D4FB84206D14DF6FF77394046F48057BA
:1026B000394305E047F6FF57394044F48057394322
:1026C00082830184F0BD0000002C014000340140F1
:1026D0000004004000080040000C004010B5042138
:1026E0005F4800F070F901282AD104215C4800F00D
:1026F00051F95C48007860B9594800F05AF95A49D4
:1027000008600120574908700221554800F0CBF9B4
:1027100016E05648006840B1514800F04AF9524965
:102720000968401A51490968086000204D4908703D
:1027300000214B4800F0B7F90021494800F02DF97D
:102740000821474800F03FF901282AD108214448D0
:1027500000F020F94348007860B9414800F02CF9B6
:102760004149086001203F49087002213C4800F0BF
:10277000A7F916E03D48006840B1394800F01CF95F
:1027800039490968401A3949096808600020354903
:1027900008700021324800F093F90021304800F021
:1027A000FCF810212E4800F00EF901282AD1102142
:1027B0002B4800F0EFF82B48007860B9284800F06B
:1027C000FEF82949086001202649087002212448A2
:1027D00000F083F916E02548006840B1204800F079
:1027E000EEF821490968401A20490968086000206C
:1027F0001C49087000211A4800F06FF900211848A0
:1028000000F0CBF80121164800F0DDF8012826D1B0
:102810000121134800F0BEF81448006858B111486F
:10282000007820B9002011490968086003E0012000
:102830000E490968086000200A49087000214FF01D
:10284000804000F04AF90021054800F046F90021D7
:10285000074800F042F90021014800F09EF810BD41
:10286000000400404C0000205000002054000020D4
:102870000008004000B587B000203C4908703C4982
:1028800008603C49086001210220FFF765FB4FF614
:10289000FF70ADF814000020ADF81000ADF8160080
:1028A000ADF8120004A9344800F056F901221121B4
:1028B000314800F01FF90420ADF804000020ADF805
:1028C00006000120ADF808000020ADF80A00ADF8C0
:1028D0000C0001A9284800F087F80820ADF8040092
:1028E0000020ADF806000120ADF808000020ADF88A
:1028F0000A00ADF80C0001A91F4800F075F80C2083
:10290000ADF804000020ADF806000120ADF8080085
:102910000020ADF80A00ADF80C0001A9164800F03F
:1029200063F84FF4E060FFF773F91D208DF80000A5
:1029300000208DF8010001208DF802008DF80300C1
:102940006846FFF72DF901210B4800F023F800211C
:10295000094800F013F801221D21074800F09AF8F9
:102960000021054800F019F807B000BD4C00002018
:1029700050000020540000200004004021B10288D3
:1029800042F08002028004E002884FF67F731A4012
:1029900002807047CA430282704721B1028842F028
:1029A0000102028004E002884FF6FE731A400280A2
:1029B00070470146088F70470146888F704701466F
:1029C000B1F84000704730B50246002000230024D3
:1029D000158A05EA0103958905EA010413B10CB1D2
:1029E000012000E0002030BD70B505460C462448AB
:1029F00085420ED0234885420BD0B5F1804F08D0D8
:102A00002148854205D02148854202D02048854290
:102A100000D100E000BF208850B92389A2886188D6
:102A20002846FFF73BFDE188284600F068F825E0DE
:102A3000208804280AD12389A28861882846FFF7C4
:102A40006DFDE188284600F063F817E0208808282B
:102A50000AD12389A28861882846FFF7ABFDE18867
:102A6000284600F062F809E02389A2886188284698
:102A7000FFF7E8FDE188284600F060F870BD00002F
:102A8000002C0140003401400004004000080040D8
:102A9000000C00401AB183890B43838102E08389D3
:102AA0008B43838170470A460021018C4FF6DF7308
:102AB00019404FF6FF7303EA02131943018470476C
:102AC0000A460021018C4FF6FF5319404FF6FF7361
:102AD00003EA02231943018470470A460021018C4E
:102AE0004DF6FF7319404FF6FF7303EA02331943A3
:102AF0000184704701858282704781847047028B10
:102B00004FF6F3731A400283028B0A430283704725
:102B1000028B4FF2FF331A400283028B4FF6FF7392
:102B200003EA01231A4302837047828B4FF6F37343
:102B30001A408283828B0A4382837047828B4FF2D2
:102B4000FF331A408283828B4FF6FF7303EA01231F
:102B50001A43828370470000002202881D4B98426E
:102B60000ED01D4B98420BD0B0F1804F08D01B4BBC
:102B7000984205D01A4B984202D01A4B984204D181
:102B80004FF68F731A404B881A43174B984207D061
:102B9000164B984204D04FF6FF431A40CB881A4395
:102BA00002808B8883850B8803850A4B98420BD063
:102BB000094B984208D00E4B984205D00D4B9842D5
:102BC00002D00D4B984201D10B7A038601238382F8
:102BD00070470000002C0140003401400004004018
:102BE00000080040000C00400010004000140040AD
:102BF0000040014000440140004801400548007881
:102C000030B100204FF0E02108618861014908706F
:102C1000704700006E000020B0F5E16F01DD4FF459
:102C2000E16042F2283141434FF0E022516100213E
:102C3000916101211161014A117070476E000020FD
:102C40004FF0E022116901F0010222B101F480325B
:102C50000AB9012200E00022104630B900224FF0EC
:102C6000E0231A619A61014B1A7070476E000020D0
:102C70002DE9F0410746002500260DE0384600F01A
:102C8000D9FA0446012C00D01CB94FF6FF70BDE8FC
:102C9000F0812544701CC6B20A2EEFDB0A20B5FB7A
:102CA000F0F0F4E708B501212020FFF765F90320D3
:102CB000ADF8000010208DF8030003208DF802000D
:102CC00069460E48FEF7A8FA0C20ADF800006946E8
:102CD0000A48FEF7A1FA3020ADF80000694607481F
:102CE000FEF79AFAC020ADF8000069460348FEF7E7
:102CF00093FAFEF789F803F0E1FE08BD00140140E5
:102D000010B500244FF480410F48FEF759FB2044D2
:102D1000C4B24FF400610C48FEF752FB04EB4000D4
:102D2000C4B24FF480510848FEF74AFB04EB800020
:102D3000C4B24FF400510448FEF742FB04EBC0005C
:102D4000C4B2204610BD00000014014010B5044676
:102D5000ACB3FFF7D5FF0A282AD2DFE800F0052937
:102D6000292914290B29231A14221146012003F0C2
:102D7000AFFD23E003F0A2FE00BF2D4801F08EFF5F
:102D80000028FAD100BF50221146022003F0A0FD16
:102D900014E003F093FE00BF254801F07FFF0028F8
:102DA000FAD100BF50221146032003F091FD05E047
:102DB00014221146012003F08BFD00BF36E0FFE72F
:102DC000FFF79EFF0A282AD2DFE800F00514232926
:102DD00029291A29290B14221146002003F078FD15
:102DE00023E003F06BFE00BF114801F057FF0028FD
:102DF000FAD100BF50221146022003F069FD14E011
:102E000003F05CFE00BF0A4801F048FF0028FAD139
:102E100000BF50221146032003F05AFD05E01422A2
:102E20001146002003F054FD00BF00BF10BD00009C
:102E30006000002000B585B001210520FFF79CF857
:102E400001218803FFF798F84FF40070ADF81000E7
:102E500018208DF8130003208DF8120004A91E48D5
:102E6000FEF7DAF94FF48060ADF8100004208DF819
:102E7000130004A91848FEF7CFF904A91648FEF775
:102E8000CBF94FF4E13000900020ADF80400ADF82C
:102E90000600ADF80800ADF80C000C20ADF80A00F3
:102EA00069460E4800F016F9012240F225510B4800
:102EB00000F0EAF80121094800F0A3F84021074892
:102EC00000F096F8002003E005490854411CC8B200
:102ED0000028F9D105B000BD0008014000380140CC
:102EE0006F00002010B540F225513C4800F0A2F8D8
:102EF000002872D03A4800783A490978884229D1A6
:102F0000394838490978405C3649097888420ED1F9
:102F100036480078401CC0B2344908703149087006
:102F2000324800783049314A1278885412E02D49ED
:102F3000087803E02C490854411CC8B22A49294AA0
:102F40001278895C8142F5DC274826490978405C83
:102F500024490870214800F029F92349204A1278B1
:102F600088541F480078401C1D49087008460078A6
:102F7000801E1D49085C0D282FD119480078401E7D
:102F8000085C0A2829D11648017818480078C01C26
:102F9000814205D112480078801E114908701CE05A
:102FA0000F480078801E1049104A127888540C4847
:102FB0000078801E0D490870084601780A480B4ABF
:102FC0001278815406480078401E0549087008466A
:102FD00000780549024A1278885410BD0038014033
:102FE000710100206F0100206F000020700100209F
:102FF00001F40072B2F5007F00D100BFCA43028025
:10300000704721B1828942F40052828104E08289B2
:103010004DF6FF731A408281704702460020B1F5D9
:10302000007F00D100BF13880B400BB1012000E0EE
:103030000020704770B502460024002300250020C0
:1030400040F66A16B14200D100BFC1F3421501F04B
:103050001F03012606FA03F3012D02D1968933409E
:1030600006E0022D02D1168A334001E0968A3340F1
:103070000C12012606FA04F41688344013B10CB180
:10308000012000E0002070BDF0B5034600240026BA
:103090000025002040F66A17B94200D100BF18464B
:1030A000C1F3421401F01F06012707FA06F5012CAF
:1030B00001D10C3004E0022C01D1103000E01430BA
:1030C0001AB107682F43076002E00768AF43076043
:1030D000F0BD00002DE9F04786B005460E460024FD
:1030E000A24600BFA1460027B08900B100BF2F460D
:1030F0002C8A4CF6FF700440F08804432C82AC8983
:103100004EF6F3100440B0883189084371890843B2
:103110000443AC81AC8A4FF6FF400440B0890443BD
:10312000AC8201A8FEF738FF1F48874202D1DDF8C4
:1031300010A001E0DDF80CA0A88900F4004040B127
:103140000AEBCA0000EB0A1031684900B0FBF1F845
:1031500007E00AEBCA0000EB0A1031688900B0FBF7
:10316000F1F86420B8FBF0F004012009642101FBB0
:103170001089A88900F4004040B1322000EBC9005A
:10318000B0FBF1F000F00700044308E0322000EB50
:1031900009106421B0FBF1F000F00F0004432C8112
:1031A00006B0BDE8F087000000380140014688887D
:1031B000C0F308007047C1F3080282807047000026
:1031C00008B501211D20FEF7D7FE8020ADF80000D4
:1031D00028208DF8030003208DF80200694613486B
:1031E000FEF71AF880211148FEF7F7F84FF46070E7
:1031F000ADF8000010208DF8030003208DF80200C8
:1032000069460B48FEF708F880210948FEF7E5F803
:103210004FF480710648FEF7E0F84FF4007104485F
:10322000FEF7DBF8FFF726FB08BD000000080140B1
:103230000010014070B504460025002011490860C7
:10324000084611490860A1B21048FEF7C8F81420DA
:1032500000F0F4FE00210E48FFF74FFC01210C485E
:10326000FFF79BFBA1B20948FEF7B7F800E06D1C21
:103270000848854203D2034800680028F7D0014877
:10328000006870BD5800002054000020001001406C
:1032900000040040FFFF080000BFFEE710B53EE05D
:1032A00023480378234822490978445C1A4601469A
:1032B000581C085C2B2804D030280FD04F2822D16E
:1032C0001DE000BF1046511CCAB21A49085C3A28DA
:1032D000F8D12146104603F065F914E01549181D90
:1032E000085C4F2802D10120134908701149181DAC
:1032F000085C4C2802D100200F49087003E001202F
:103300000E49087000BF00BF094804701A4603E068
:1033100008488254501CC2B2A242F9D100BF0548ED
:1033200003490978405C024909788842B8D110BD48
:103330006F0100206F000020730100207201002047
:1033400010B5FEF793FE00202749087012E041F601
:10335000907226A129A000F06FF8002405E00A2051
:1033600000F04EFEFFF79AFF641C1F48007808B972
:10337000642CF4DB1C4800780028E8D0FEF776FEC9
:103380000020194908700FE023A000F055F8002430
:1033900005E00A2000F034FEFFF780FF641C1248AD
:1033A000007808B9322CF4DB0F4800780028EBD005
:1033B000FEF75CFE00200C4908700FE01AA000F038
:1033C0003BF8002405E00A2000F01AFEFFF766FF34
:1033D000641C0548007808B9322CF4DB02480078F8
:1033E0000028EBD010BD00007201002031302E31DA
:1033F000382E3139362E32303200000041542B4302
:10340000495053544152543D22544350222C2225BA
:1034100073222C25640D0A0041542B4349504D4F13
:1034200044453D310D0A000041542B43495053455A
:103430004E440D0A000000000FB4054B10B503A95F
:10344000044A029800F08EF810BC5DF814FB0000EE
:10345000F94B0008B0010020490050EAC12018BF14
:1034600004204A0D18BF40F0010040F2FF72B2EB99
:10347000515F08BF40F00200012808BF05207047D7
:103480002DE9F0414F1E00EBC7010446D1E90001D0
:1034900015461E4637F006020DD02A463346FDF784
:1034A00022F87F1E04EBC703D3E90023FCF774FF67
:1034B00037F00602F1D1022F25D0042F13D0062FAA
:1034C00018BFBDE8F0812A463346FDF70CF8D4E971
:1034D0000A23FCF761FF2A463346FDF704F8D4E9D6
:1034E0000823FCF759FF2A463346FCF7FCFFD4E9D2
:1034F0000623FCF751FF2A463346FCF7F4FFD4E9D4
:103500000423FCF749FF2A463346FCF7ECFFD4E9D5
:103510000223FCF741FF2A463346FCF7E4FFD4E9D7
:103520000023BDE8F041FCF737BF0122FDF720BAC8
:10353000FCF732BF024A00201107FDF719BA00005C
:1035400001FDFFFF02E008C8121F08C1002AFAD1DE
:1035500070477047002001E001C1121F002AFBD113
:10356000704700002DE9FF4F8DB00F46054600263D
:1035700006E025280BD0DDE90F1290476D1C761C64
:1035800028780028F5D111B03046BDE8F08F00242E
:10359000A246A1460122EC4900E0044315F8013F90
:1035A000203B02FA03F00842F7D128782A2810D0ED
:1035B0006FF02F022878A0F13001092914D80AEB06
:1035C0008A0102EB410144F0020400EB010A6D1C88
:1035D000F0E701CF5FEA000A03D544F40054CAF1D2
:1035E000000A44F002046D1C28782E2817D115F823
:1035F000010F44F004042A280ED06FF02F0228781F
:10360000A0F1300109290AD809EB890102EB410137
:1036100000EB01096D1CF2E757F8049B6D1C28783C
:103620006C280FD006DC4C2817D068280DD06A28EB
:1036300014D104E0742810D07A280FD10DE044F49E
:1036400000140AE044F4801401E044F44014697862
:10365000814202D104F580146D1C6D1C2A786E2AFB
:103660001FD00CDC632A31D004DC002A8BD0582A0E
:1036700011D1A3E0642A68D0692A0CD165E0732ACD
:103680002ED004DC6F2A73D0702A04D19BE0752AF7
:103690006FD0782A6ED01046DDE90F129047761C65
:1036A00050E1C4F30250022806D0032809D00428B0
:1036B00001CF09D0066045E101CFF117C0E90061F3
:1036C00040E101CF06803DE106703BE117F8040BB5
:1036D0008DF8000000208DF80100EB46012003E08A
:1036E00057F804BB4FF0FF3061074FF0000102D4E0
:1036F0000DE008F10101884649450FDA8045F8DB05
:103700001BF808100029F4D108E008F101018846EF
:103710008142FADB1BF808100029F6D1DDE90F23FE
:10372000AAEB08008146214600F036F9304400EB50
:10373000080604E0DDE90F121BF8010B9047B8F111
:103740000108F7D221464846F7E00A21C4F30253A4
:103750004FF0000B0891022B04D001CFC117032BAF
:1037600009D00AE0FF1D27F00707F7E8020108E08B
:1037700032E01FE020E000B2C117042B01D140B2BB
:10378000C117031E71F1000307DA4FF0000CD0EBF4
:103790000C006CEB01012D2302E0230504D52B2343
:1037A0008DF82430012303E0E30701D02023F7E75D
:1037B000984658E00A2110E010210EE010204FF04A
:1037C000000B08900CE010214FF0000B44F00404B3
:1037D0004FF00809089103E008214FF0000B089111
:1037E000C4F30253022B04D001CF0021032B06D0D7
:1037F00006E0FF1D27F00707F7E8020103E080B2AB
:10380000042B00D1C0B24FF0000823072BD5702A3B
:1038100007D0DDF820C08CF0100C5CEA0B0C05D052
:103820000EE040238DF82430012308E050EA010324
:1038300006D030238DF824308DF8252002239846B9
:10384000DDF820C08CF0080C5CEA0B0C0BD150EAC0
:10385000010301D1630706D530238DF824304FF0E2
:103860000108A9F10109582A04D038A20B9208AA2C
:103870000A920BE03AA2F9E75B46089AFCF792FF3E
:103880000B9B9B5C0A9A521E0A92137050EA01022B
:10389000F2D10A98ADEB000000F1200B600702D5D1
:1038A00024F4803401E04FF00109D94502DDA9EB91
:1038B0000B0000E0002000EB0B0141440890AAEB54
:1038C000010AE00306D4DDE90F232146504600F04B
:1038D00063F806444FF0000908E009A911F809004F
:1038E000DDE90F12904709F10109761CC145F4DBAF
:1038F000E0030CD5DDE90F232146504600F04CF8DB
:10390000064404E0DDE90F1230209047761C089948
:10391000481E08900029F5DC08E00A980A9900780A
:10392000491C0A91DDE90F129047761CBBF100019A
:10393000ABF1010BF1DC21465046DDE90F2300F02D
:1039400019F806446D1C1BE609280100303132339A
:1039500034353637383961626364656600000000CB
:1039600030313233343536373839414243444546B5
:10397000000000002DE9F041044600251E461746D0
:10398000880404D405E039462020B0476D1C641E2D
:10399000F9D52846BDE8F0812DE9F041044600251F
:1039A0001E469046C80301D5302700E02027880432
:1039B00004D505E041463846B0476D1C641EF9D574
:1039C0002846BDE8F08100002DE9FE4F06460F466F
:1039D0000025684601F0FAF9002442E056F8240078
:1039E00057F82410A0EB010ABAF1000F01DB514691
:1039F00001E0CAF100010846FCF756FE83464FF08D
:103A00008F41FCF78BFC80465DF824000021FCF719
:103A1000B5FE16D05DF824104046FCF77FFC8246C8
:103A20004FF07E51FCF742FC814629F0004A0F48D6
:103A3000416A5046FCF7ACFE12D20120A04005437B
:103A40000EE00A48C1694046FCF798FE05D30748D6
:103A5000016A4046FCF79CFE02D20120A0400543CB
:103A6000641C032CBADB2846BDE8FE8FA06D00085D
:103A700010B50446092C0ED00B2C09D00C2C04D008
:103A80000E2C0BD102F08FFD08E002F0A6FD05E040
:103A900001F0B6FC02E001F0BBFC00BF00BF10BDAE
:103AA0002DE9F84F04460D4621F00040009173497E
:103AB000814211DC7249884201DC06D12CB12046DA
:103AC0002946BDE8F84FFFF730BD6E48002DCCBF4A
:103AD0006D496E49BDE8F88F6D49814211DD6D4930
:103AE0008142D8BF4FF0FF366DDD20462946FFF7F3
:103AF000B3FC042808BFFFF71DFD20462946BDE89A
:103B0000F88F6549654F25F00045814233DD6449F2
:103B1000814219DD002632464FF080432046294677
:103B2000FCF73AFC80468A46012220462946FCF7EB
:103B30001FFF00223B46FCF7D0FC42465346FCF7F1
:103B400044FD04460D463EE001260022BA463B46AF
:103B500020462946FCF720FC80460F4600225346AB
:103B600020462946FCF7B9FC42463B46FCF72DFDB2
:103B700004460D4627E04B4981421BDDDFF828A1B2
:103B800002260022534620462946FCF7ACFC0022C0
:103B90003B46FCF701FC80460F4600225346204678
:103BA0002946FCF79AFC42463B46FCF70EFD0446CC
:103BB0000D4608E0032622462B4600203B49FCF731
:103BC00004FD04460D4622462B4610461946FCF7D6
:103BD0008AFC8B46824602460B46FCF784FC07466D
:103BE0000246334888460B4606217844FFF748FCD6
:103BF00052465B46FCF777FC82462E488B463A4697
:103C0000434605217844FFF73BFC3A464346FCF720
:103C10006AFC02460B46002E504659460CDAFCF769
:103C2000BBFB22462B46FCF75EFC01B022462B462E
:103C3000BDE8F04FFCF754BCFCF7AEFB22462B4628
:103C4000FCF751FC1C4A7A4402EBC603D3E900237B
:103C5000FCF743FC22462B46FCF73FFC174A7A440C
:103C600002EBC603D3E90023FCF73AFC009A002AD2
:103C7000B8BF81F00041BDE8F88F0000000010449B
:103C80000000F07F182D4454FB21F93FFB21F9BFC0
:103C90000000DC3F0000203E0000F33F0000F03F4A
:103CA0000000E63F008003400000F83F0000F0BF46
:103CB0003A3E0000F83D0000963D00005E3D0000E9
:103CC0002DE9F04D9446CCF1000423F000464CEA77
:103CD0000404524F46EAD4749A46884621F00042C2
:103CE000BC4206D8454240EA050442EAD474BC42CC
:103CF00004D9BDE8F04D6246FFF71ABCAAF1405561
:103D0000A5F17F6555EA0C040BD0022404EAAA74DD
:103D1000434DDFF810E144EAD87452EA000B04D0B6
:103D20000CE0BDE8F04DFFF7BBBE002C14BF012C2A
:103D3000BDE8F08D022C30D0032C32D056EA0C0BAB
:103D40000AD0BE4220D1BA4209D126F0804622F0E4
:103D500080423346114617E000291ADB25E0DFF8E0
:103D6000C8B0FB44002C04BFDBE90001BDE8F08DC6
:103D7000012C02BFDBE9000181F00041BDE8F08DBC
:103D8000022C0AD0032C0CD0BA4212D1B8F1000F89
:103D90000BDA23482549BDE8F08D28462449BDE8C3
:103DA000F08D28467146BDE8F08D1D482149BDE8DB
:103DB000F08D921B12153C2AC4BF19481D490EDC18
:103DC000BAF1000FBEBF12F13C0F0020014606DB26
:103DD0006246FCF7FAFB21F00041FFF761FE002C80
:103DE00008BFBDE8F08D012C04BF81F00041BDE8A3
:103DF000F08D114A114B022C07D0FCF76EFB2A46BE
:103E0000BDE8F04D0A4BFCF768BBFCF766FB2A46A1
:103E1000BDE8F04D064BFCF763BB00000000F07FEF
:103E2000182D4454FB2109C0F23C0000FB21F9BFCE
:103E3000FB210940FB21F93F075C143326A6A13C76
:103E400010B50446201F0C282BD2DFE800F0061224
:103E50000C182A2A2A2A2A1E2A241E221146002049
:103E600002F036FD20E01E221146012002F030FD56
:103E70001AE050221146032002F02AFD14E05022DD
:103E80001146022002F024FD0EE0282211460320F4
:103E900002F01EFD08E028221146022002F018FD63
:103EA00002E002F00BFE00BF00BF10BD002004E0E6
:103EB0000021034A1154411CC8B20928F8DB70479D
:103EC000B401002008B501214020FEF755F820205C
:103ED000ADF8000010208DF8030003208DF80200DB
:103EE00069460248FDF798F908BD00000018014036
:103EF00001B500210098FCF74BFC0ED25022114670
:103F0000032002F0E5FC02E0684600F0C7FE002155
:103F10000098FCF73DFC13D2F6E700210098FCF76F
:103F20002DFC0DD250221146022002F0D1FC02E0FD
:103F3000684600F0B3FE00210098FCF71FFCF7D3A1
:103F400002F0BCFD14221146002002F0C1FCC82082
:103F500000F056F802F0B2FD08BD00002DE9F04176
:103F60000446E07800F0C006E07800F03F05607895
:103F700000F0010098B1EF102846E91705EB5171E8
:103F8000C910A5EBC101491C01F0FF080B480068EE
:103F900020B10A48414602683846904700BF607821
:103FA00000F0080030B10548406818B1B011034A6C
:103FB000516888470020BDE8F0810000D80100204A
:103FC0004FF0E021096921F004014FF0E022116176
:103FD000C21700EB5272C2F3C702074B1A701946A0
:103FE000097801EB4102C2EBC1114FF6FF7202EA00
:103FF000C101024A118070473200002034000020C5
:1040000001460D4A12884A434FF0E0235A610022CC
:104010009A6101221A6100BF4FF0E022106900F09E
:1040200001021AB100F48032002AF5D000224FF0CC
:10403000E0231A619A6170473400002001460D4A5E
:1040400012784A434FF0E0235A6100229A6101221C
:104050001A6100BF4FF0E022106900F001021AB1AE
:1040600000F48032002AF5D000224FF0E0231A61DC
:104070009A6170473200002030B10221064A117067
:104080000321064A117005E00321034A1170022141
:10409000024A1170704700004800002049000020CB
:1040A00038B5044664B120208DF8000028208DF832
:1040B000010030208DF8020038208DF8030004E064
:1040C000A32204216846FCF780F86A46042140F6E2
:1040D0009E2002F027FA01F011FE38BD3EB50446DD
:1040E00002208DF80000CA208DF80100E3208DF831
:1040F000020009208DF803006A460421682002F0BE
:1041000011FAA3208DF8000004F0400048B1C0204F
:104110008DF80100C8208DF80200C2208DF8030040
:1041200006E0A3208DF801008DF802008DF8030051
:1041300004F4C07048B1C4208DF80400CC208DF880
:104140000500C6208DF8060006E0A3208DF80400C7
:104150008DF805008DF80600A3208DF807008DF876
:1041600008008DF809006A460A2140F6A72002F0EF
:10417000D9F904F0030018B120208DF8000002E006
:10418000D8208DF800006A46012140F6B62002F0E2
:10419000C9F904F0200018B1012000F0ADF802E0E8
:1041A000002000F0A9F804F4C07008B304F4807093
:1041B00060B1B2208DF800008B208DF80100B62090
:1041C0008DF802009B208DF803000BE0B0208DF8E5
:1041D000000080208DF80100B4208DF802009020AE
:1041E0008DF803006A46042140F6A22002F09AF9F5
:1041F00004F0010020B3F8208DF800006A46012188
:104200004FF40B6002F08EF9FA21072000F094FBC6
:10421000072000F05BFB012000F07BFB642000F036
:104220005BFC4FF4FA7000F06AFCC821304800F0E3
:104230000BFB282000F024FB0A2000F034FB08E0F0
:10424000D8208DF800006A4601214FF40B6002F07F
:1042500069F904F0020018B1D9208DF8000002E0DD
:10426000D8208DF800006A46012140F23D7002F02E
:1042700059F904F0040018B1012000F069F802E0D7
:10428000002000F065F804F0100018B10120FFF7DD
:1042900007FF02E00020FFF703FF44F00800154984
:1042A000488101F02BFD00201249887304F0400082
:1042B00018B10846807B801D887304F4C07020B15B
:1042C0000C48807B801D0B49887304F0140020B1DA
:1042D0000848807B10300749887304F0030020B140
:1042E0000448807B001D0349887300203EBD000008
:1042F00009E3CA02D80100203EB504466CB10EA104
:10430000D1E900208968CDE9002002916A4609219F
:104310004FF4976002F006F93EBD0AA2D2E9001000
:104320009268CDE9010200916A4609214FF4976035
:1043300002F0F8F8F0E70000B8AAB38DB4980D3594
:104340005D000000B8AAAAAAB088C3C5C7000000D3
:1043500038B5044664B1C0208DF80000C2208DF845
:104360000100C4208DF80200C6208DF8030004E08F
:104370008B2204216846FBF728FF6A46042140F699
:10438000982002F0CFF801F0B9FC38BD10B5C82371
:104390004FF48062024940F6F63001F043FB10BD55
:1043A000C86D00082DE9F04F8DB0074688461546C8
:1043B0009946DDE9166B0024002030806B49887B2C
:1043C0005A4605A901F0FAFB18B1601E0DB0BDE810
:1043D000F08F6648807A00F01400002867D09DF8BE
:1043E000140000069DF8151040EA01409DF81610D3
:1043F00040EA01209DF81710084328609DF8180036
:1044000000069DF8191040EA01409DF81A1040EA94
:1044100001209DF81B10084368609DF81C000006F1
:104420009DF81D1040EA01409DF81E1040EA012051
:104430009DF81F100843A8609DF8200000069DF815
:10444000211040EA01409DF8221040EA01209DF829
:1044500023100843E86004F11000C4B22868001477
:104460000190686800140290A86800140390E8683E
:104470000014049001984043029901FB0100039944
:1044800001FB0100049901FB010ABAF1706F02DB24
:10449000BAF1885F05DD01F031FC00203080401E5C
:1044A00094E7B6F9000040F48070308000BF2F48D8
:1044B000807A00F0400020B305A9601C085C095D0B
:1044C00040EA012000B2A8F8000005A9E01C095C40
:1044D00005AAA01C105C41EA002000B2A8F8020066
:1044E00005A9601D095C201D105C41EA002000B296
:1044F000A8F80400A01DC4B2B6F9000040F00800FE
:1045000030801A48408900F4C07008B305A9601CC7
:10451000085C095D40EA012000B2388005A9E01C72
:10452000095C05AAA01C105C41EA002000B278805A
:1045300005A9601D095C201D105C41EA002000B245
:10454000B880A01DC4B2B6F9000040F07000308001
:104550000648807A00F0030018B105A90819FFF792
:10456000FDFC484601F02CF800202FE7D801002080
:1045700030B585B0044616A207CA02AB07C3C82CE3
:1045800003DD4FF0FF3005B030BDC82090FBF4F0E4
:10459000401E85B2280A8DF80000E8B28DF80100AF
:1045A0006A46022140F2162001F0BCFF10B14FF024
:1045B000FF30E8E702AA0C2140F6C12001F0B2FF6B
:1045C00010B14FF0FF30DEE7044884810020DAE7C5
:1045D000FEF2ABC4AAF1DFDFBBAFDFDFD801002002
:1045E0001FB504464848007A00F0030054F8200044
:1045F00001904548007A00F0040010B10198404253
:1046000001904148007AC0F3C10054F820000290A4
:104610003D48007A00F0200010B10298404202901C
:104620003948007AC0F3811054F8200003903648CE
:10463000008900F4807010B1039840420390334920
:10464000019880FB0101800F40EA810001902F4911
:10465000029880FB0110820042EA917002902B497F
:10466000039880FB0110820042EA91700390019848
:10467000000E8DF800000198000C8DF801000198E3
:10468000000A8DF802000198C0B28DF803006A4656
:1046900004214FF4747001F045FF18B14FF0FF3062
:1046A00004B010BD0298000E8DF800000298000CB6
:1046B0008DF801000298000A8DF802000298C0B23D
:1046C0008DF803006A4604214FF4757001F02AFF4B
:1046D00010B14FF0FF30E3E70398000E8DF80000B3
:1046E0000398000C8DF801000398000A8DF8020071
:1046F0000398C0B28DF803006A4604214FF4767027
:1047000001F010FFCCE70000D801002009E3CA0245
:1047100010B586B0044647A00068039046A0006824
:10472000029046A00068019045A00068009004F047
:10473000030003A9085C8DF8140003A8C4F3C101A9
:10474000405C8DF8150003A8C4F38111405C8DF81E
:10475000160004F0030002A9085C8DF8100002A8FE
:10476000C4F3C101405C8DF8110002A8C4F38111AB
:10477000405C8DF8120005AA032140F2264001F0AA
:10478000D1FE18B14FF0FF3006B010BD04AA0321CE
:1047900040F22A4001F0C6FE10B14FF0FF30F3E7BF
:1047A000019805900098049004F0040058B19DF819
:1047B000140040F001008DF814009DF8100040F046
:1047C00001008DF8100004F0200058B19DF815008C
:1047D00040F001008DF815009DF8110040F0010037
:1047E0008DF8110004F4807058B19DF8160040F067
:1047F00001008DF816009DF8120040F001008DF8C0
:10480000120005AA03214FF4886001F08BFE10B15D
:104810004FF0FF30B8E704AA032140F2314001F025
:1048200081FE10B14FF0FF30AEE706480481002052
:10483000AAE700004CCD6C000CC92C00365676005F
:1048400026466600D8010020F8B505460E464FF40E
:104850007A7095FBF0F000FB06F4200E8DF8000056
:10486000200C8DF80100200A8DF80200E0B28DF8CE
:1048700003006A4604214FF4AE7001F053FEF8BD08
:1048800038B50446052094FBF0F084B220128DF870
:104890000000E0B28DF801006A4602214FF4AD70CD
:1048A00001F040FE38BD38B50446052094FBF0F019
:1048B00084B220128DF80000E0B28DF801006A4643
:1048C00002214FF4AC7001F02DFE38BD38B504461E
:1048D0000020009004F0010020B19DF8000040F09D
:1048E0003000009004F0020020B19DF8000040F07C
:1048F0000C00009004F0040020B19DF8000040F08E
:10490000030000906A4601214FF4A47001F00AFEF2
:1049100038BD38B50446012C01DA012402E0042C2C
:1049200000DD0424601EC0B200906A46012140F2FE
:104930004F1001F0F7FD38BD2DE9FC4706460F4644
:1049400006F0070010B1B7F5C86F03DD4FF0FF3078
:10495000BDE8FC873846FBF7B0FE81465949FBF7B6
:10496000DDFC8046684600F0B5FE9DF80000022898
:1049700006D0042816D0082826D0102848D135E0C3
:104980004FF08D414046FBF797FC8146FBF7B3FEA5
:1049900084B24D494046FBF78FFC8146FBF7ABFEE6
:1049A00085B238E04FF08C414046FBF785FC8146EC
:1049B000FBF7A1FE84B245494046FBF77DFC8146EA
:1049C000FBF799FE85B226E04FF08B414046FBF79E
:1049D00073FC8146FBF78FFE84B23D494046FBF7EE
:1049E0006BFC8146FBF787FE85B214E04FF08A41ED
:1049F0004046FBF761FC8146FBF77DFE84B23549FA
:104A00004046FBF759FC8146FBF775FE85B202E094
:104A10004FF0FF309CE700BF20128DF80400E0B299
:104A20008DF8050028128DF80600E8B28DF8070011
:104A300006F00100A0B101AA02214FF4EA7001F0D2
:104A400071FD10B14FF0FF3082E70DF10602022137
:104A50004FF4927001F066FD10B14FF0FF3077E730
:104A600006F00200A0B101AA02214FF4EC7001F09F
:104A700059FD10B14FF0FF306AE70DF10602022137
:104A80004FF4947001F04EFD10B14FF0FF305FE72E
:104A900006F00400A0B101AA02214FF4EE7001F06B
:104AA00041FD10B14FF0FF3052E70DF10602022137
:104AB0004FF4967001F036FD10B14FF0FF3047E72C
:104AC000002045E700004843000040460000C04584
:104AD000000040450000C04438B50446052094FB62
:104AE000F0F085B228128DF80000E8B28DF80100D0
:104AF0006A4602214FF4EF7001F014FD38BD38B55D
:104B00000446052094FBF0F085B228128DF80000D1
:104B1000E8B28DF801006A4602214FF4ED7001F011
:104B200001FD38BD10B508211448FCF756FC1020D3
:104B3000FFF784FA012001F053FE432001F050FEFC
:104B4000002001F04DFE012001F04AFE002001F09E
:104B500047FE002001F044FE002001F041FE00204D
:104B600001F03EFE002001F03BFE08210348FCF767
:104B700036FC1020FFF762FA10BD0000001801405B
:104B800005460C462046FFF7B3F92846FFF774FAAE
:104B900001F0BEFF16221146002001F099FE4FF4ED
:104BA0002F70FFF72DFA01F089FF0DA0FEF744FCEE
:104BB00002F044F800BF16221146002001F088FEE2
:104BC0008020FEF755F8B0F5AF6FF4D802F036F854
:104BD00002F072F801F072FF01F0FFFC00BFFEE787
:104BE000466F7277617264203120776173206F762F
:104BF0006572210A0000000070B504460D46E1B25E
:104C00000548FEF7D8FA00BF40210348FEF705FA31
:104C10000128F9D1204670BD0038014010B5FFF7DA
:104C200045F901F081FD0D48C0780C49097940EA49
:104C300001200B49088000240BE00A48015D012097
:104C4000884007490988084008B9204610BD601C03
:104C5000C4B2102CF1DB0020F8E70000B401002002
:104C60001E0000202200002010B5002400BF06E036
:104C700000BFFFF7D3FF0828FBD0601CC4B20A2C8A
:104C8000F6DB06D1FFF7CAFF082802D1012002494E
:104C900008700148007810BD1C0000202DE9F04F7D
:104CA00097B004464FF07E5500264FF000094FF0B4
:104CB000000A10A811A916AB0CAACDE9001012A980
:104CC00014A8FFF76FFB18B1012017B0BDE8F08FF3
:104CD000BDF8440000F48070002870D00C98FBF7F9
:104CE000E3FC07464FF09D41FBF718FB05460D9886
:104CF000FBF7DAFC07464FF09D41FBF70FFB06463A
:104D00000E98FBF7D1FC07464FF09D41FBF706FBE1
:104D100081460F98FBF7C8FC07464FF09D41FBF713
:104D2000FDFA824651465046FBF7C6FA49460590C1
:104D30004846FBF7C1FA314603903046FBF7BCFA10
:104D4000294601902846FBF7B7FA00900199FBF736
:104D50005BFA02900399FBF7A9FA04900599FBF717
:104D6000A5FA8346FBF7DBFC0746884651462846F2
:104D7000FBF7A2FA494604903046FBF79DFA0390F0
:104D80000499FBF741FA4FF080410590FBF794FA44
:104D90008346FBF7C4FC3A464346CDE90601FEF7DD
:104DA0008FFF4FF06632084BCDE90801FBF79BFB04
:104DB000CDE90A01FBF7C6FC206002E0FFE7022014
:104DC00083E7002081E7000066A64C407CB50546DD
:104DD00028494968087801AB04220D21FCF7EFFD52
:104DE00008B107207CBD9DF80700C0F301109DF8B5
:104DF000041001F0E00140EAE1008DF800009DF8A8
:104E00000700C0F381009DF8051001F0E00140EAC1
:104E1000E1008DF801009DF8070000F003009DF807
:104E2000061001F0E00140EAE1008DF802000024E4
:104E30001CE01DF8040018B9002045F8240013E018
:104E40000D4845F8240006E055F824000B49FBF70F
:104E500033FA45F824001DF80400401EC0B20DF8D6
:104E600004000028F0D100BF601CC4B2032CE0DBBA
:104E70000020B7E7780100207B14AE3E1D5A843F26
:104E80002DE9F04F87B005460C46914601208DF87C
:104E9000100000208DF81100FE4A1268917CFD4A36
:104EA0005268107804AB0222FCF72FFE20B14FF0BD
:104EB000FF3007B0BDE8F08FC820FFF7A1F8002051
:104EC0008DF81000F34A1268D17BF24A52681078CC
:104ED00004AB0122FCF719FE10B14FF0FF30E8E7F8
:104EE000EC4A12685179EB4A5268107804AB0122FF
:104EF000FCF70BFE10B14FF0FF30DAE7E54A12681D
:104F0000917CE44A5268107804AB0122FCF7FDFD65
:104F100010B14FF0FF30CCE7DE4A1268D17DDD4A98
:104F20005268107804AB0122FCF7EFFD10B14FF08E
:104F3000FF30BEE7D74A12681179D64A5268107816
:104F400004AB0122FCF7E1FD10B14FF0FF30B0E7F8
:104F50000C208DF81000CF4A12681179CD4A5268A2
:104F6000107804AB0122FCF7D0FD10B14FF0FF30F8
:104F70009FE70F20FFF744F8C648806A407A8DF813
:104F80001000C44A12689178C24A5268107804AB83
:104F90000122FCF7BAFD10B14FF0FF3089E7BD48A0
:104FA000806A007A8DF81000BA4A12685178B94ABE
:104FB0005268107804AB0122FCF7A7FD10B14FF046
:104FC000FF3076E7B9F1000F07D0B248806A807AE7
:104FD00040F0E0008DF8100004E0AE48806A807A6E
:104FE0008DF81000AB4A12689179AA4A526810787D
:104FF00004AB0122FCF789FD10B14FF0FF3058E7F8
:10500000B9F1000F07D0A348806AC07A40F0E000F1
:105010008DF8100003E0A048C07A8DF810009D4A7A
:105020001268D1799B4A5268107804AB0122FCF7D0
:105030006CFD10B14FF0FF303BE7B9F1000F02D02B
:10504000C820FEF7DDFF40208DF81000914A12685D
:105050001179904A5268107804AB0122FCF755FD93
:1050600010B14FF0FF3024E778208DF81000894A06
:1050700012685179874A5268107804AB0122FCF714
:1050800044FD10B14FF0FF3013E783498889FEF7E4
:10509000B7FF00208DF810007E4A126851797D4AD2
:1050A0005268107804AB0122FCF72FFD10B14FF0CD
:1050B000FF30FEE6774A1268917A764A5268107895
:1050C00004AB0222FCF77BFC10B14FF0FF30F0E69E
:1050D0009DF811009DF8101040EA012B0C209BFB5D
:1050E000F0F0C6B20020A86068602860A060606030
:1050F0002060824665E0674A1268D17A654A526844
:10510000107804AB0C22FCF75AFC10B14FF0FF30C2
:10511000CFE69DF811009DF8101040EA012000B282
:10512000ADF808009DF813009DF8121040EA012028
:1051300000B2ADF80A009DF815009DF8141040EA81
:10514000012000B2ADF80C00BDF908102068084439
:105150002060BDF90A10606808446060BDF90C1059
:10516000A0680844A0609DF817009DF8161040EA5A
:10517000012000B2ADF800009DF819009DF818104C
:1051800040EA012000B2ADF802009DF81B009DF836
:105190001A1040EA012000B2ADF80400BDF9001079
:1051A000286808442860BDF90210686808446860EF
:1051B000BDF90410A8680844A8600AF1010000F0D5
:1051C000FF0AB24597DB3448D0F800C02868C11701
:1051D000090441EA10410704624600233846FAF701
:1051E000C3FF32460023CDE90201FAF7BDFF286074
:1051F0002948D0F800C06868C117090441EA104185
:105200000704624600233846FAF7AEFF3246002311
:10521000CDE90201FAF7A8FF68601F48D0F800C086
:10522000A868C117090441EA104107046246002337
:105230003846FAF799FF32460023CDE90201FAF722
:1052400093FFA8601448D0F804C02168C817000470
:1052500040EA11480F046246002338464146FAF7F7
:1052600083FF32460023CDE90201FAF77DFF20607B
:105270000948D0F804C06068C117090441EA104128
:105280000704624600233846FAF76EFF32460023D1
:1052900004E0000078010020A06D0008CDE90201C3
:1052A000FAF762FF60601148D0F804C0A068C11727
:1052B000090441EA10410704624600233846FAF720
:1052C00053FF32460023CDE90201FAF74DFFA060FB
:1052D000A068002804DDA068A0F58030A06003E08D
:1052E000A06800F58030A0600020E2E5A06D000815
:1052F0002DE9FC5F06460F4600253D4949680878C0
:1053000001AB03220D21FCF75AFB10B10720BDE8C9
:10531000FC9F9DF8040000F01F008DF804009DF82C
:10532000050000F01F008DF805009DF8060000F054
:105330001F008DF80600002456E056F8240057F8A8
:105340002410A0EB010BBBF1000F01DB594601E07B
:10535000CBF100010846FBF7A7F94FF08F41009011
:10536000FAF7DCFF814601A8005D68B321490868AF
:10537000FBF7A3F9834659461F48FAF7CFFF80464B
:1053800004E01E494046FAF797FF804601A8005DF9
:10539000401EC0B201A908550028F2D14146484636
:1053A000FAF7BCFF83464FF07E51FAF77FFF824643
:1053B0002AF0004B0F4881695846FBF7E9F912D2F1
:1053C0000120A04005430EE00A4801694846FBF76A
:1053D000D5F905D3074841694846FBF7D9F902D208
:1053E0000120A0400543641C032CA6DB28468EE761
:1053F00078010020A06D000800B04C4554E3853FC3
:1054000010B57D23002203214020FCF717FD10BDBD
:1054100010B54FF48773002203214020FCF70EFDE6
:1054200010BD10B50446204600F00FF80346E01CFE
:1054300000F00BF843EAC00083B2A01D00F005F8AD
:1054400043EA801083B2184610BD014691F900204E
:10545000002A01DD00201EE091F90020002A01DA77
:10546000042018E091F90120002A01DD012012E05A
:1054700091F90120002A01DA05200CE091F90220BF
:10548000002A01DD022006E091F90220002A01DA5B
:10549000062000E00720704710B5FFF7BFFB0A2881
:1054A0000ED1002405E000BFFFF7B8FB0A28FBD0AF
:1054B000641C302CF7DB0B480068401C094908606D
:1054C0000848007800F0010028B120210648FBF7C9
:1054D00086FF012010BD20210348FBF77EFF00203E
:1054E000F8E7000018000020001801404820FEF7EF
:1054F00067FDFBF7BDFCFDF7D5FBFBF785FCFDF772
:105500005FFEFBF7A5FAFCF7DDF900BF00F092F8AB
:105510000028FBD1FDF78EFCFCF72AFB6420FEF788
:105520006FFDFDF70DFF6420FEF76AFD1BA0FDF780
:1055300083FF01F038F830E0FFF7AEFF08BBFFF75C
:105540006DFB0446FEF77CFCFFF768FB08280ED1D4
:10555000FBF79AFB8020FDF78BFB0446214615A044
:10556000FDF76AFF00BFFFF759FB0828FBD0FFF7E4
:1055700055FB0446FEF77CFAFFF776FB0F490870EF
:105580000BE0FFF789FF40B1FBF754FC04462146CE
:105590000A480078FFF7F4FA00BFCDE70A546865BF
:1055A0002063617220697320636F6E6E656374653A
:1055B00064210A003A3A25750A0000001400002010
:1055C0007047000070B50446002624F00104184816
:1055D00090F8240008B1002070BD1548807A10B9F9
:1055E0004FF0FF30F8E71248057C807A20401049E0
:1055F00008740846007CA04202D04FF0FF3600E05D
:10560000002614B90A48007D18B1012001F0ECF918
:1056100002E0002001F0E8F93CB100F06FFB20B19E
:10562000034805744FF0FF30D6E73046D4E700005A
:105630007801002070B50024FCF724F800F0FAF897
:10564000002840D1782000F005FFC4B20CB1012041
:1056500070BD7820FFF7B6FFC4B20CB10220F7E7A7
:10566000642000F0A9FEC4B20CB10320F0E7FEF7FD
:105670008DFEC4B20CB10420EAE71548FFF7D1FE55
:105680000546FFF745F8C4B20CB10520E0E740F24B
:105690007310FEF723FDC4B20CB10620D8E76420D6
:1056A000FEF766FFC4B20CB10720D1E700F0D8FFC7
:1056B00004460CB10820CBE7012000F079FDC4B20C
:1056C0001CB10920C4E70A20C2E70020C0E700009F
:1056D000A401002001461148407A30B1012807D0CA
:1056E000022808D003280CD108E0022008700BE043
:1056F0000420087008E00820087005E010200870F9
:1057000002E04FF0FF30704700BF0448C07C18B182
:1057100008784006000E08700020F4E778010020A9
:1057200001460248007C0870002070477801002084
:1057300001460F48007A30B1012807D0022809D06D
:1057400003280FD10AE0FA2008800EE04FF4FA7027
:1057500008800AE04FF47A70088006E04FF4FA609F
:10576000088002E00020088000BF00BF00207047D2
:105770007801002001460E48007A30B1012807D098
:10578000022808D003280CD108E00A4808600BE082
:105790000948086008E00948086005E00848086012
:1057A00002E04FF0FF30704700BF0020FBE7000031
:1057B000780100200000034300008342333303429A
:1057C0003333834101461248C07A082817D2DFE8F4
:1057D00000F01704070A0D101318BC20088013E00E
:1057E0006220088010E02A2008800DE01420088044
:1057F0000AE00A20088007E00520088004E000BFD6
:1058000000BF0020088000BF00BF002070470000DC
:10581000780100200146064890F8240010B14FF0AE
:10582000FF3070470248C08908800020F9E7000077
:10583000780100201CB580208DF80000654A1268B0
:10584000917C644A526810786B460122FCF75DF93E
:1058500010B14FF0FF301CBD6420FEF7D1FB0020DB
:105860008DF800005B4A1268917C5A4A52681078A1
:105870006B460122FCF749F910B14FF0FF30EAE71F
:10588000544A1268917D534A526810786B4606223A
:10589000FCF795F810B14FF0FF30DCE79DF80500FC
:1058A000C007400F9DF8031001F0010140EA4100DC
:1058B0009DF8011001F0010140EA010494B1012CAE
:1058C00003D101214348C17431E0022C03D10021EE
:1058D0004048C1742BE021463FA0FDF7ADFD4FF0DD
:1058E000FF30B8E73B4A1268D1783A4A52681078DC
:1058F0006B460122FCF763F810B14FF0FF30AAE7C6
:105900009DF8000000F00F042CB93D48FDF794FD10
:105910004FF0FF309FE7042C06D13AA0FDF78CFD35
:1059200001212C48C17402E000212A48C174FF21E2
:1059300028488172FF2027490872FF2125484172BB
:10594000C1724FF6FF71C181FF2101748174012181
:10595000017380F82210002180F823104175017531
:105960001630016041608160163880F8241080F89C
:105970002510C1844FF4FA6000F062FC10B14FF0C2
:10598000FF3068E7022000F02BFB10B14FF0FF3032
:1059900061E72A2000F0CEFC10B14FF0FF305AE74B
:1059A000322000F009FD10B14FF0FF3053E7002026
:1059B000FFF708FE10B14FF0FF304CE7002000F079
:1059C00051FB10B14FF0FF3045E7002000F042FDE1
:1059D000002040E778010020556E737570706F727B
:1059E00074656420736F6674776172652070726F7E
:1059F00064756374207265762025642E0A000000A9
:105A0000607A000848616C662073656E736974691A
:105A100076697479207061727420666F756E642E79
:105A20000A0000002DE9F04385B005460E46904679
:105A30009946294890F8250020B14FF0FF3005B075
:105A4000BDE8F08316B94FF0FF30F8E7002423E0FB
:105A5000281B102801DD102000E0281B87B2321916
:105A60003946204600F05EFD10B14FF0FF30E6E70A
:105A700001AA3946204600F001F910B14FF0FF307D
:105A8000DDE730193A4601A9FAF7B1FB10B16FF022
:105A90000100D4E7E01984B2AC42D9DB4FEA2820F8
:105AA0008DF8000008F0FF008DF801000A4A126826
:105AB000917E094A526810786B460222FCF725F85D
:105AC00010B14FF0FF30BAE70121034880F82510EC
:105AD000A0F826900020B2E77801002038B50446EF
