:020000040800F2
:10000000E8050020450100084B1B00088F1300087D
:10001000471B00083D0E0008913100080000000059
:10002000000000000000000000000000792000082F
:100030004510000800000000B11E00083923000828
:100040005F0100085F0100085F0100085F01000810
:100050005F0100085F0100085F0100085F01000800
:100060005F0100085F0100085F0100085F010008F0
:100070005F0100085F0100085F0100085F010008E0
:100080005F0100085F0100085F0100085F010008D0
:100090005F0100085F0100085F0100085F010008C0
:1000A0005F0100085F0100085F0100085F010008B0
:1000B0005F010008DD2500085F0100085F010008FE
:1000C0005F0100085F0100085F0100085F01000890
:1000D0005F010008DD2D00085F0100085F010008D6
:1000E0005F0100085F0100085F0100085F01000870
:1000F0005F0100085F0100085F0100085F01000860
:100100005F0100085F0100085F0100085F0100084F
:100110005F0100085F0100085F0100085F0100083F
:100120005F0100085F0100085F0100085F0100082F
:10013000DFF80CD000F034FC0048004761540008A0
:10014000E80500200648804706480047FEE7FEE72E
:10015000FEE7FEE7FEE7FEE7FEE7FEE7FEE7FEE777
:100160003D230008310100082DE9F0410024061B61
:10017000254671F1000605DA01240027D0EB0700BF
:1001800067EB0101161E73F1000605DA0027D2EBBA
:100190000702012567EB030300F004FB86460E46C9
:1001A00017469C46AC4204D00025D0EB050E65EB0B
:1001B000010624B10020D2EB000760EB030C70466F
:1001C00031463A466346BDE8F081D2B201E000F81C
:1001D000012B491EFBD270470022F6E710B51346EB
:1001E0000A4604461946FFF7F0FF204610BD30B519
:1001F00004460020034600E05B1C934203D2E05C0F
:10020000CD5C401BF8D030BDF0B480EA0102D40FC1
:100210004200B2EB410F02D20246084611464A00A4
:1002200042D0C30DDDB2C1F3C752AD1A202D35DA6D
:10023000C1F3160141F4000204B15242C5F1200697
:1002400002FA06F12A411044B3EBD05F23D0C4B1C7
:10025000012DA0EBC35009DCF0BC4FF0004202EAD4
:10026000C352DBB200F5000000F0F7BA400000F125
:10027000807000EBC350A0F1807040EAD17049005B
:1002800009E0490841EAC071A0EBC35000F5000045
:10029000400800EBC350F0BC00F0D6BA6142012226
:1002A00002EB4101001BF6E7F0BC704781F0004112
:1002B000AAE780F00040A7E780EA010210B502F04B
:1002C0000043400022D04A001FD0010E01EB126112
:1002D000C0F35600C2F3560240F4000042F400029C
:1002E000A0FB022000047F39140400D0401C50EA17
:1002F000124001D44000491EC2B20C0604EBD010DB
:10030000401C4008802A02D003E0002010BD20F0ED
:100310000100002900DA0020184310BD30B480EA43
:10032000010202F0004530F0004221F0004013D0FD
:1003300090B1C30DD40DC2F31601C0F31600E41A38
:1003400041F4000140F400027D34914201D3641C69
:1003500000E04900002C02DA30BC002070474FF466
:1003600000000023914201D3891A034340084FEA59
:100370004101F7D151B1914202D14FF0004105E066
:1003800002D24FF0010101E06FF0010103EBC45014
:10039000284430BC00F058BA2DE9FE4F804681EA6F
:1003A0000300C00F0C46009021F0004123F00045EF
:1003B000B8EB0200A94105D24046214690461C46B2
:1003C0000B46024623F00040104347D0270DC7F3E9
:1003D0000A00C3F30A510290401A019040286BDAD8
:1003E000C3F3130040F4801B0098924620B1002311
:1003F000D2EB030A63EB0B0B01985946C0F14002A4
:10040000504600F000FA06460D4650465946019AFD
:1004100000F008FA10EB08006141002487EA11524D
:1004200084EAE7731A4340D0009A62B3019A012A22
:100430004FEA075215DC001B61EB02014FF000424E
:1004400002EA0752CDE90042001C41F58011324614
:100450002B4600F03FFA03B0BDE8F08F404621463E
:10046000F9E7001B61EB0201001C41F58013001845
:100470005B412018A2F5001747EB030140EAD57055
:10048000B6196D4111E06D084FEA360645EAC075B0
:100490004FEA0752001B61EB0201001C41F580117D
:1004A00049084FEA30000019514132462B4603B04B
:1004B000BDE8F04F00F0FFB9009801224000002392
:1004C000D0EB020263EBE073009821464FEAE07440
:1004D000B8EB000061EB0401E9E783F000435BE760
:1004E00081F0004158E72DE9FE4F81EA030404F052
:1004F000004421F0004100944FF0000B23F0004332
:1005000050EA01045ED052EA03045BD0C3F30A54FC
:10051000C1F30A552C44A4F2F3340194A0FB025415
:10052000C1F3130141F48011C3F3130343F48013A7
:1005300001FB024400FB034E840A970A44EA8154FB
:1005400047EA8357A4FB076802958D0A05FB0785D8
:100550004FEA932C04FB0C542705029D4FEA0658E2
:1005600047EA1637B5EB08056EEB070C870E920EBF
:1005700047EA811742EA8312A7FB0201B6EB0B019F
:1005800064EB00042B0D43EA0C335E1844EB1C5063
:10059000DA465146E7FB0201C5F313044FEA0B3379
:1005A00043EA14534FEA0432019C43EA0603A4F1E0
:1005B0000C040294009CCDE900B400F08BF903B068
:1005C000BDE8F08F00200146F9E72DE9F04D81EA02
:1005D000030404F0004B21F0004514464FF0000ADC
:1005E00023F0004150EA050220D054EA01021DD058
:1005F000C5F30A570246C5F31303C1F31300C1F351
:100600000A5640F4801543F48013A7EB0608101B2C
:10061000D64608F2FD3873EB050002D308F1010855
:1006200001E092185B41B8F1000F03DA00200146A7
:10063000BDE8F08D00204FF48011064684460EE0A0
:10064000171B73EB050705D3121B63EB050306436A
:100650004CEA010C49084FEA300092185B4150EA1D
:100660000107EDD152EA030012D082EA040083EAC6
:100670000501084305D0101BAB4106D2012200231F
:1006800006E000224FF0004302E06FF00102531039
:100690001AEB06004CEB085110EB0A0041EB0B0182
:1006A000BDE8F04D00F007B9C10F80EAE0700844E2
:1006B000CA079623002100F0D0B8962300221146E5
:1006C00000F0CBB800F0004220F00040C10DC0F3B4
:1006D000160040F400007F2901DA002070479629B7
:1006E00003DCC1F19601C84001E096398840002A38
:1006F000F4D04042704720F00040C10DC0F3160016
:1007000040F400007F2901DA00207047962903DCBD
:10071000C1F19601C840704796398840704700F093
:10072000004230F000400AD0C10D01F56071C0F305
:10073000160042EA0151C2084007114370470020E9
:100740000146704701F0004330B421F0004150EA07
:10075000010206D00A0DA2F56072C1F31301002A4E
:1007600002DC30BC00207047440F44EAC104C100E1
:10077000E01830BC00EBC25000F066B8002801DB86
:10078000C0F10040002901DBC1F100418142704706
:10079000002801DBC0F10040002901DBC1F100416C
:1007A000884270472DE9F05F0546002092469B463F
:1007B00088460646814640241BE028464146474677
:1007C000224600F0FFF853465A46C01A914110D312
:1007D00011461846224600F016F82D1A67EB01085C
:1007E0004F4622460120002100F00DF817EB0009CA
:1007F0004E41201EA4F10104DFDC484631462A4662
:100800004346BDE8F09F202A04DB203A00FA02F1BB
:10081000002070479140C2F1200320FA03F31943EE
:1008200090407047202A06DBCB17203A41FA02F0AD
:1008300043EAE07306E041FA02F3D040C2F120023D
:1008400091400843194670470029A8BF7047401CD3
:10085000490008BF20F00100704710B4B0FA80FCD6
:1008600000FA0CF050EA010404BF10BC704749B113
:10087000CCF1200421FA04F411FA0CF118BF012183
:1008800021430843A3EB0C01CB1D4FEA00614FEA63
:10089000102042BF002010BC704700EBC350104432
:1008A0000029A4BF10BC7047401C490008BF20F0BD
:1008B000010010BC704710B5141E73F1000408DA73
:1008C000401C41F1000192185B411A4301D120F014
:1008D000010010BD2DE9F04D92469B4611B1B1FAD1
:1008E00081F202E0B0FA80F220329046FFF78BFFEF
:1008F00004460F4640EA0A0041EA0B0153465A46B5
:10090000084313D0114653EA010019D0C8F1400240
:10091000504600F057F805460E46504659464246A6
:10092000FFF771FF084305D0012004E02046394657
:10093000BDE8F08D0020054346EAE0762C433743BE
:100940000A986305E40AA0EB08000022FD0A44EAC5
:1009500047540A3002D500200146E9E70105101985
:100960006941DDE9084500196941BDE8F04DA2E79C
:1009700070B521F0004303430CD0C1F30A550024A5
:10098000D5EB040564EB0403D617AD1AB34102DBC3
:100990000020014670BD201841EB025170BD0000DF
:1009A000064C074D06E0E06840F0010394E80700BC
:1009B00098471034AC42F6D3FFF7BEFB207A00080C
:1009C000407A0008202A04DB203A21FA02F00021B4
:1009D000704721FA02F3D040C2F12002914008434F
:1009E0001946704770B58C1810F8015B15F00703B5
:1009F00001D110F8013B2A1106D110F8012B03E0B8
:100A000010F8016B01F8016B5B1EF9D12B0705D4BF
:100A10000023521E0DD401F8013BFAE710F8013B08
:100A2000CB1A921C03E013F8015B01F8015B521E24
:100A3000F9D5A142D8D3002070BD21B1826842F01F
:100A40000102826003E0826822F001028260704746
:100A500000B591B00121142001F07AFA7E20ADF8A2
:100A6000400000208DF8430010A9574800F0A8FB73
:100A70003F20ADF8400010A9544800F0A1FB03202E
:100A8000ADF8400010A9524800F09AFB012148023D
:100A900001F05EFA4FF4004001F02EFA00200B90B6
:100AA00001208DF830008DF831004FF460200D905A
:100AB00000200E900A208DF83C000BA9454800F05C
:100AC000AFF8072301221146424800F01FF907231F
:100AD000022211463F4800F019F90723032211466C
:100AE0003C4800F013F9072304221146394800F06E
:100AF0000DF9072305220A21364800F007F90723DC
:100B000006220B21334800F001F907231A460C2175
:100B1000304800F0FBF8072308220D212D4800F093
:100B2000F5F80723092208212A4800F0EFF80723E7
:100B30000A220921274800F0E9F80121254800F0A0
:100B40004FF801212348FFF778FF224800F03AF9D7
:100B500000BF204800F059F80028FAD11D4800F0E5
:100B600036F900BF1B4800F046F80028FAD10121F1
:100B7000084601F0CDF9184800F0A0F915484C30AE
:100B8000009016480190002002900A200390002057
:100B9000049080200590400006908000079020205F
:100BA00008900002099000200A9069460A4800F067
:100BB0002BFA0121084800F075F901210548FFF7DB
:100BC0003CFF11B000BD00000008014000100140D2
:100BD000000C01400024014008000240BE0100203A
:100BE00021B1826842F48072826003E0826822F45C
:100BF000807282607047014600208A6802F0040219
:100C00000AB1012000E000207047014600208A68F8
:100C100002F008020AB1012000E000207047000045
:100C200030B502460020002350680F4C20400D795B
:100C30000C6844EA05242043506090680B4C204027
:100C4000D1E902542C434D7944EA45042043906095
:100C5000D06A20F470000C7C641EE4B2234340EAA6
:100C60000350D06230BD0000FFFEF0FFFDF7F1FF42
:100C700008B50D48C08800900B48838842880188D9
:100C80000AA002F055FB0848C089009006488389F5
:100C9000428901890EA002F04BFB0348428A018A77
:100CA00014A002F045FB08BDBE01002076616C7502
:100CB000653A2066726F6E74202534642C202534CA
:100CC000642C202534642C202534640A00000000A4
:100CD000202020202020206261636B2020253464A6
:100CE0002C202534642C202534642C202534640ADF
:100CF0000000000020202020202020636F6C6F72F5
:100D0000202534642C202534640A0000F0B5044604
:100D10000D4600200021092D11DDE068A5F10A062D
:100D200006EB4607072606FA07F18843A5F10A06EF
:100D300006EB460603FA06F10843E0600CE0206982
:100D400005EB4507072606FA07F1884305EB45063C
:100D500003FA06F108432061072A0FDA606B561E7A
:100D600006EB86071F2606FA07F18843561E06EB98
:100D7000860605FA06F10843606322E00D2A0FDAC1
:100D8000206BD61F06EB86071F2606FA07F188435D
:100D9000D61F06EB860605FA06F10843206310E02D
:100DA000E06AA2F10D0606EB86071F2606FA07F198
:100DB0008843A2F10D0606EB860605FA06F1084304
:100DC000E062F0BD816841F0080181607047816890
:100DD00041F00401816070471CB500F062FF4020C3
:100DE0008DF8000000208DF8010001208DF8020030
:100DF00000208DF8030082208DF80400684600F082
:100E0000C7FF1CBD10B50A48007830B901F052F890
:100E10000120074908700749087001E001F02EF928
:100E2000044800780028F9D10348006810BD00008C
:100E300068000020690000206000002000BFFEE77D
:100E400008B50121402001F083F81C20ADF8000016
:100E500010208DF8030003208DF802006946104829
:100E600000F0AEF90220ADF8000028208DF8030054
:100E700069460B4800F0A4F902F0AAFF05F0A0FDB6
:100E800005F09EFD05F09CFD03F0D6FD05F022FE69
:100E900005F04AFE05F0BEFB02F084FF08BD00002D
:100EA0000018014021B1026842F00102026004E032
:100EB00002684FF6FE731A400260704701684FF6F1
:100EC000FE72114001600021016041608160C160DB
:100ED0004B49884208D14A490839496841F00F0115
:100EE000474A083A51608AE045491431884208D19E
:100EF00043490839496841F0F001414A083A5160D4
:100F00007DE03F492831884208D13D490839496888
:100F100041F470613A4A083A516070E038493C3116
:100F2000884208D136490839496841F47041344A49
:100F3000083A516063E032495031884208D1304963
:100F40000839496841F470212D4A083A516056E049
:100F50002B496431884208D129490839496841F44C
:100F60007001274A083A516049E0254978318842A2
:100F700008D123490839496841F07061204A083A8C
:100F800051603CE01F49884206D1011F096841F0C9
:100F90000F01021F116032E01A491431884208D152
:100FA0001849091F096841F0F001164A121F116023
:100FB00025E014492831884208D11249091F0968DF
:100FC00041F470610F4A121F116018E00D493C3165
:100FD000884208D10B49091F096841F47041094A48
:100FE000121F11600BE007495031884207D10549B3
:100FF000091F096841F47021024A121F11607047ED
:10100000080002400804024010B50022026847F6BA
:10101000F0739A430C6A8B6823430C6923434C6931
:1010200023438C692343CC6923434C6A23438C6A52
:1010300023431A430260CB6843600B6883604B68AC
:10104000C36010BD7047000070B506460C4605F041
:10105000D9FC322002F05EFFC4F103005A2211468F
:1010600005F0DAFBF4B1012C39D14E494E48006845
:10107000FFF7CAF805464D49FFF718F94C490860D3
:1010800000BF4C4803F0C4FD0028FAD102E04948F3
:1010900003F0BEFD4648016846480068FFF76EFB56
:1010A000F5D31CE03F4940480068FFF7FFF80546CC
:1010B0003E49FFF7A9F83E49086000BF3D4803F0EC
:1010C000A7FD0028FAD102E03A4803F0A1FD384814
:1010D000016838480068FFF75BFBF5D300BF00BF2D
:1010E00014221146012005F097FB4FF4167002F010
:1010F00011FF10221146012005F08EFBC82002F0DE
:1011000009FF14221146002005F086FBC82002F0DA
:1011100001FF00BF03F01AFD0028FBD0A01C5A22DB
:10112000114605F079FBD4B1012C31D122491E487A
:101130000068FFF769F81E49086000BF1D4803F00A
:1011400067FD0028FAD102E01A4803F061FD184853
:10115000016818480068FFF71BFBF5D318E0164933
:1011600011480068FFF7A2F81149086000BF114854
:1011700003F04EFD0028FAD102E00E4803F048FDCE
:101180000B4801680B480068FFF7F8FAF5D300BF79
:1011900000BF05F037FC002008490870322002F03B
:1011A000B9FE70BD0000B442600000200000204184
:1011B000640000205C0000200000E0406A00002085
:1011C0002DE9F041024600250026002000230024DE
:1011D000002791F803C00CF00F0591F803C00CF044
:1011E000100CBCF1000F03D091F802C04CEA0505C9
:1011F00091F800C0BCF1000F31D0146800202BE042
:101200004FF0010C0CFA00F3B1F800C00CEA030631
:101210009E4220D183004FF00F0C0CFA03F7BC4321
:1012200005FA03FC4CEA040491F803C0BCF1280F52
:1012300006D14FF0010C0CFA00FCC2F814C00AE011
:1012400091F803C0BCF1480F05D14FF0010C0CFA26
:1012500000FCC2F810C0401C0828D1D31460B1F8BB
:1012600000C0BCF1FF0F34DD546800202EE000F117
:10127000080C4FF0010808FA0CF3B1F800C00CEAB2
:1012800003069E4221D183004FF00F0C0CFA03F7A6
:10129000BC4305FA03FC4CEA040491F803C0BCF11A
:1012A000280F05D100F1080C08FA0CF8C2F81480D8
:1012B00091F803C0BCF1480F07D100F1080C4FF0C2
:1012C000010808FA0CF8C2F81080401C0828CED398
:1012D0005460BDE8F0810000F0B50A460023002408
:1012E0000021002500F00046B6F1004F02D11D4E4E
:1012F000F16901E01B4E7168C0F3034583B200F44D
:101300004016B6F5401F08D121F07061154E766881
:1013100026F07066134F7E6012E000F48016B6F57A
:10132000801F06D1032606FA05F4A14341F070613F
:1013300006E0460D360103FA06F6B14341F070614E
:1013400022B1460D360103FA06F6314300F000469D
:10135000B6F1004F02D1034EF16101E0014E716020
:10136000F0BD0000000001400246002093680B40E1
:101370000BB1012000E0002070470146C86880B230
:1013800070474161704701617047C160704700BF9D
:10139000FEE770B502460024002500230020958A50
:1013A000138B1B0445EA030626F07F4404EA01067A
:1013B0008E4201D1012000E0002070BD21B10288E1
:1013C00042F00102028004E002884FF6FE731A40E8
:1013D0000280704721B1028842F48072028004E0EA
:1013E00002884FF6FF631A400280704721B10288DD
:1013F00042F40072028004E002884FF6FF531A4064
:10140000028070470CB50246002000230193009330
:1014100000920B0F019321F07F41019B1BB1009BB8
:101420001433009303E0090C009B18330093009BD6
:101430001B680B400BB1012000E000200CBD000038
:101440002DE9F04385B004460D460026B146042739
:10145000DFF8CC80A6884FF6C0700640684600F0E2
:1014600087FDDDF808802F48B8FBF0F01FFA80F9FF
:1014700046EA0906A68020884FF6FE7108402080C3
:1014800000262949286888420CD828684000B8FB03
:10149000F0F087B2042F00DA04273E4309F101007F
:1014A000208427E0E8884BF6FF71884206D128683F
:1014B00000EB4000B8FBF0F087B209E0286800EBD1
:1014C000C00101EB0010B8FBF0F087B247F4804791
:1014D000C7F30B0008B947F0010747F40040064383
:1014E0004FF4967009FB00F04FF47A7190FBF1F025
:1014F000401C2084A683208840F00100208026889C
:101500004FF6F5300640A8886989084306432680CF
:10151000A88929890843208105B0BDE8F08300002F
:1015200000127A0040420F00A08601000146088A9E
:10153000C0B2704712B141F0010102E04FF6FE73F4
:1015400019400182704701827047000010B50023E6
:10155000002207E0294C34F81240B4F5AF7F00DDDB
:101560005B1C521C082AF5DB2BB90222244C22708A
:10157000244C227010BD214A1288204C64882244D9
:101580001E4CA48822441D4CE488224490B21B4A7D
:1015900012891A4C64892244184CA4892244174C9D
:1015A000E489224491B2154A1288144CE4882244FA
:1015B000124C24892244114CE4892244B2F57A7FEA
:1015C0000FDD01F5FA72904203DD00220C4C22700F
:1015D00012E000F57A7291420EDD0122084C227071
:1015E0000AE0884203DD0022054C227004E08142BB
:1015F00002DD0122024C227000BFBBE7BE010020C9
:101600006B0000206C00002010B500200E4908601F
:101610000E48006820F470400C49086008460068D5
:1016200040F44050086000200949C1F8AC0100F0C6
:1016300011F801200449086000F00CF8002004496A
:10164000C1F8A80110BD0000A8812142040C01408E
:101650000080214210B5022002F07AFC10BD00008B
:1016600008B50121082000F073FC4FF44060ADF88C
:10167000000010208DF8030003208DF80200694659
:101680000448FFF79DFD4FF440610248FFF77BFEE1
:1016900008BD0000000C014010B500200E49086094
:1016A0000E48006820F470400C4908600846006845
:1016B00040F44050086001200949C1F8AC01FFF72F
:1016C000C9FF012004490860FFF7C4FF0020044956
:1016D000C1F8A80110BD0000A8812142040C0140FE
:1016E0000080214270B5054600241648006820F4A9
:1016F0007040144908600846006840F400400860E3
:10170000002614E0002010490860FFF7A3FF012025
:101710000E49C1F8A8016006040E0B487C38006829
:1017200008B1601CC4B2FFF795FF701CC6B2082E4A
:10173000E8DB15B9FFF7B0FF01E0FFF765FF2046D2
:1017400070BD0000040C0140A881214200802142AC
:1017500070B504461248006820F4704010490860D3
:101760000846006840F44050086000200D490860B9
:10177000002512E0E0090B49091D08606006040E0F
:1017800001200949C1F8A801FFF764FF00200549BD
:101790000860FFF75FFF681CC5B2082DEADB70BD6B
:1017A000040C0140A88121420080214210B50E485E
:1017B000006820F470400C4908600846006840F456
:1017C000405008600120094908600949C1F8A80192
:1017D000FFF740FF002005490860FFF73BFF0020AE
:1017E0000349C1F8A80110BD040C0140AC8121429D
:1017F0000080214210B50E48006820F470400C496A
:1018000008600846006840F440500860002009491C
:1018100008600949C1F8AC01FFF71CFF0120054928
:1018200008600549C1F8AC01FFF714FF10BD0000C6
:10183000040C0140A88121420080214210B50024FF
:101840001448006820F47040124908600846006897
:1018500040F40040086001200F490860FFF7FAFEDD
:1018600001200E49C1F8A801FFF7F4FE07E0601C53
:10187000C4B2FA2C03DDFFF7BDFF012010BD0648FE
:10188000803800680028F2D10349091F086000BFB2
:10189000F4E70000040C0140AC81214200802142A9
:1018A00038B50121084600F053FB0121042000F067
:1018B0004FFB4FF40040ADF8000010208DF80300FE
:1018C00003208DF8020069462248FFF779FC0121C8
:1018D0002148FFF701FD002020490860FFF7C0FE06
:1018E00080216B2000F0DDF8642002F013FB002162
:1018F0006B2000F0D6F8022000F091F8002000F0F4
:1019000086F8322000F0B0F80021382000F0C9F845
:1019100000216A2000F0C5F80021232000F0C1F862
:101920008021372000F0BDF8752000F019F804463A
:10193000682C0BD101216B2000F0B3F800216C2042
:1019400000F0AFF8322000F08FF801E0012038BD40
:101950000020FCE70008014000023000BC012142E9
:1019600070B50446FFF722FFD020FFF7F1FEFFF726
:1019700065FF2046FFF7ECFEFFF760FFFFF716FF5D
:10198000D120FFF7E5FEFFF759FF0020FFF7AAFE81
:101990000546FFF72FFF284670BD2DE9F0410646AA
:1019A0000F4614461D46FFF701FF002141EA46019C
:1019B000C8B2FFF7CDFEFFF741FF20B1FFF71AFFD6
:1019C0000120BDE8F0813846FFF7C2FEFFF736FF81
:1019D000FFF7ECFE012101EB4601C8B2FFF7B8FEAC
:1019E000FFF72CFF0DE0012C04D10020FFF77AFE59
:1019F000287003E00120FFF775FE2870601EC4B256
:101A00006D1C002CEFD1FFF7F5FE0020D9E710B5D3
:101A10000446E006010E1C2000F043F810BD10B58E
:101A20000446E006010E1B2000F03BF810BD70B527
:101A300004460025BC2C01DB012510E0622C01DBF3
:101A400002250CE02A2C01DB032508E0142C01DB25
:101A5000042504E00A2C01DB052500E006252946C3
:101A60001A2000F01EF870BD70B50446B4F57A7FF8
:101A700001DD4FF47A74042C00DA04244FF47A70F8
:101A800090FBF4F0401EC5B22946192000F009F879
:101A90000546264604EBD671C1F34F00FFF7C7FF9A
:101AA00070BD70B505460C46FFF780FED020FFF7ED
:101AB0004FFEFFF7C3FE18B1FFF79CFE012070BD7B
:101AC0002846FFF745FEFFF7B9FE2046FFF740FE28
:101AD000FFF7B4FE18B1FFF78DFE0120EFE7FFF727
:101AE00089FE0020EBE72DE9F04105460E4617463A
:101AF0009846FFF75BFE002141EA4501C8B2FFF7B7
:101B000027FEFFF79BFE20B1FFF774FE0120BDE822
:101B1000F0813046FFF71CFEFFF790FE00240CE03A
:101B200018F80400FFF714FEFFF788FE18B1FFF75E
:101B300061FE0120EBE7601CC4B2BC42F0DBFFF7A2
:101B400059FE0020E3E700BFFEE7704708B500211B
:101B50004FF0006000F054F84FF4E06000F046F8F9
:101B600025208DF8000000208DF8020001208DF85E
:101B70000300684600F002F808BD000070B50021BF
:101B800000230F22C47804B3154C246804F4E064E5
:101B9000C4F5E064210AC1F10403CA40447804FAA0
:101BA00003F184781440214309010E4C0678A155B5
:101BB000047804F01F050124AC4005786D11AD00D8
:101BC00005F1E025C5F8004109E0047804F01F059F
:101BD0000124AC40044D0678761145F8264070BDCE
:101BE0000CED00E000E400E080E100E00249014388
:101BF000024A1160704700000000FA050CED00E099
:101C0000024A0A400243024B1A60704780FFFF1FDE
:101C100008ED00E010B5044601210C48FFF7DAFB9F
:101C200000BF0B490948FFF7B4FB0028F9D0600654
:101C3000010E00220548FFF77DFC00BF054903485F
:101C4000FFF7A7FB0028F9D010BD000000540040AA
:101C5000010003008200070010B501210148FFF7D1
:101C6000C5FB10BD0054004008B50121082000F05C
:101C70006FF90121480500F05BF9C020ADF80000C4
:101C800003208DF802001C208DF8030069460248ED
:101C9000FFF796FA08BD0000000C01400146012044
:101CA000704710B5FFF7E0FF00F002F810BD00002C
:101CB0001FB50020ADF804004BF6FF70ADF806002C
:101CC0004FF48060ADF80A000001ADF80C00054843
:101CD000009069460448FFF7B3FB01210248FFF773
:101CE0006DFB1FBD400D03000054004070B506465B
:101CF0000D46144600BF4FF400311A48FFF782FB2F
:101D00000028F8D101211748FFF764FB00BF1649EE
:101D10001448FFF73EFB0028F9D07006010E01229F
:101D20001048FFF707FC00BF0F49491C0D48FFF79B
:101D300030FB0028F8D011E01CB901210948FFF759
:101D400055FB09493F310748FFF723FB30B10548F0
:101D5000FFF7ECFB28706D1C601EC4B2002CEBD1A9
:101D6000012070BD005400400100030010B504467E
:101D700021460548FFF7E7FB00BF04490248FFF78B
:101D800008FB0028F9D010BD005400408400070073
:101D900070B5044600250026FFF783FF2078FFF783
:101DA0007DFF002833D02078FFF734FF0020FFF7B5
:101DB000DDFF1020FFF7DAFFFFF74EFF2078FFF777
:101DC00029FFFE20FFF7D2FF2079FFF7CFFFFFF7B3
:101DD00043FF2078FFF71EFF0020FFF7C7FF2120F9
:101DE000FFF7C4FFFFF738FF60780001A17840EAF1
:101DF0008100E1780843C6B22078FFF70BFF01208D
:101E0000FFF7B4FF3046FFF7B1FFFFF725FF20785B
:101E100000F02BF8284670BD2DE9F04107460E462C
:101E200014461D460F2E1EDCB4F5805F1BDAB5F597
:101E3000805F18DA3846FFF7EDFE062101EB8601D8
:101E4000C8B2FFF793FFE0B2FFF790FFC4F303209F
:101E5000FFF78CFFE8B2FFF789FFC5F30320FFF718
:101E600085FFFFF7F9FEBDE8F08138B50446002094
:101E700000902046FFF7CEFE0020FFF777FFFFF728
:101E8000EBFE012269462046FFF730FF9DF8000077
:101E900020F0100000902046FFF7BCFE0020FFF766
:101EA00065FF9DF80000FFF761FFFFF7D5FE38BD25
:101EB0007047000010B504F0A5FD00BF0D4802F00A
:101EC000A7FE0028FAD14FF4C87000F025FE04E008
:101ED000002000F0BBFEFFF739FB00F031FE0028C8
:101EE000F6D100F00BFE04F08DFD322002F012F866
:101EF00010BD00006000002001460020034A506829
:101F000020F4404008435060704700000010024039
:101F100029B1064A52690243044B5A6104E0034A5C
:101F200052698243014B5A61704700000010024021
:101F300029B1064AD2690243044BDA6104E0034A3C
:101F4000D2698243014BDA61704700000010024001
:101F500029B1064A92690243044B9A6104E0034A9C
:101F600092698243014B9A61704700000010024061
:101F700030B500210022002400232D4D6D6805F0AE
:101F80000C0121B1042905D0082923D105E0294DF0
:101F9000056022E0274D05601FE0254D6D6805F4C2
:101FA0007012234D6D6805F48034022505EB9242D2
:101FB0001CB9214D554305600BE01D4D6D6805F4BE
:101FC00000351DB11C4D5543056002E0194D5543C8
:101FD000056002E0174D056000BF00BF144D6D683D
:101FE00005F0F0010909154D6B5C0568DD404560A1
:101FF0000F4D6D6805F4E061090A104D6B5C456892
:10200000DD4085600A4D6D6805F46051C90A0B4DCD
:102010006B5C4568DD40C560054D6D6805F4404169
:10202000890B074D6B5CC568B5FBF3F5056130BDE9
:102030000010024000127A0000093D00000000205C
:10204000100000200020084908700849087001208D
:1020500007490870002003E006490854411CC8B233
:102060000028F9D1704700007001002071010020A4
:1020700072010020700000207047000010B5FFF7CB
:1020800065FA6C48008AB0F5617F09DD6A4800781E
:10209000142808DA68480078401C6749087002E094
:1020A0000020654908706348408AB0F5617F09DD0A
:1020B00062480078142808DA60480078401C5F49BC
:1020C000087002E000205D4908705D480078022831
:1020D00014D1002000F0BAFD802000F049FD044634
:1020E000554800780A2808DD00205649087000BFCE
:1020F0005048008AB0F5617FFADC10BD5048007886
:1021000000F0A4FD02F052FD70B104F07BFC05204C
:1021100001F000FF02F04AFDB0B101204A49087009
:1021200000204A4908700FE002F066FD60B104F03B
:1021300069FC052001F0EEFE02F05EFD20B10120F9
:1021400041490870414908703D480078C0BB3A4891
:102150000078052835DD00203749087035480088AB
:10216000B0F57A7F12DD334800883249C988884249
:102170000CDD0120344908703449087016221146DC
:1021800004F04AFB642001F0C5FE47E02948C088FE
:10219000B0F57A7F42DD2748C08826490988884201
:1021A0003CDD0120284908700020284908701622CB
:1021B0001146012004F030FB642001F0ABFE2DE05D
:1021C000FFE71F480078012828D11C48007805281F
:1021D00024DD00201949087016480089B0F57A7F7F
:1021E0000CDD144800891349C989884206DD0120A5
:1021F000154908700020154908700FE00D48C08986
:10220000B0F57A7F0ADD0B48C0890A4909898842FE
:1022100004DD01200C4908700C4908700A48007858
:1022200028B10A48017806480078FEF70DFF00BF84
:1022300063E70000BE0100206D0000206E0000205A
:102240006B000020690000206A0000206C00002064
:1022500010B500F001F810BD0CB500200190009001
:102260003348006840F480303149086000BF30488E
:10227000006800F4003000900198401C0190009824
:1022800018B90198B0F5A06FF1D12948006800F4A1
:10229000003010B10120009001E000200090009873
:1022A000012843D12348006840F01000214908600C
:1022B0000846006820F0030008600846006840F007
:1022C000020008601A48406819494860084640689A
:1022D00048600846406840F48060486008464068AE
:1022E00020F47C1048600846406840F4E8104860DC
:1022F0000846006840F08070086000BF0C48006825
:1023000000F000700028F9D00948406820F0030070
:10231000074948600846406840F00200486000BF36
:102320000348406800F00C000828F9D10CBD0000FB
:1023300000100240002002407047000010B5134812
:10234000006840F0010011490860084640681049E3
:1023500008400E494860084600680E4908400B498D
:1023600008600846006820F480200860084640683D
:1023700020F4FE0048604FF41F008860FFF768FFFC
:102380004FF000600449086010BD000000100240DA
:102390000000FFF8FFFFF6FE08ED00E0F0B50C4688
:1023A000154600220021068C4FF6FE773E4006843B
:1023B000028B018C4FF60C7632407E1C06EA031627
:1023C0002E433243104EB0420ED0104EB0420BD0CE
:1023D000B0F1804F08D00E4EB04205D00D4EB04245
:1023E00002D00D4EB04206D14FF6FD76314044F09A
:1023F0000106314305E04FF6F576314044F0010621
:10240000314302830184F0BD002C014000340140BF
:102410000004004000080040000C0040F0B50C46ED
:102420001546002200210026078C4FF6EF7C07EAB4
:102430000C070784028B018C4FF6FF7707EA04161E
:1024400040F6FF473A404FF6FF7707EA03373A4333
:102450004FF6FF7707EA05273A43114FB8420ED0EF
:10246000104FB8420BD0B0F1804F08D00E4FB84299
:1024700005D00E4FB84202D00D4FB84206D14FF6EC
:10248000DF77394046F01007394305E04FF65F77B4
:10249000394044F01007394302830184F0BD000045
:1024A000002C0140003401400004004000080040BE
:1024B000000C0040F0B50C46154600220021002615
:1024C000078C4FF6FF6C07EA0C070784828B018CA0
:1024D0004FF6FF7707EA04264FF60C773A404FF69F
:1024E000FF7707EA03172F433A43114FB8420ED044
:1024F000104FB8420BD0B0F1804F08D00E4FB84209
:1025000005D00E4FB84202D00D4FB84206D14FF65B
:10251000FF57394046F48077394305E04FF2FF57C3
:10252000394044F48077394382830184F0BD000050
:10253000002C01400034014000040040000800402D
:10254000000C0040F0B50C46154600220021002684
:10255000078C4EF6FF7C07EA0C070784828B018C00
:102560004FF6FF7707EA043640F6FF473A404FF64A
:10257000FF7707EA05273A434FF6FF7707EA033765
:102580003A43114FB8420ED0104FB8420BD0B0F1C1
:10259000804F08D00E4FB84205D00E4FB84202D03F
:1025A0000D4FB84206D14DF6FF77394046F48057BB
:1025B000394305E047F6FF57394044F48057394323
:1025C00082830184F0BD0000002C014000340140F2
:1025D0000004004000080040000C004010B5042139
:1025E0005F4800F070F901282AD104215C4800F00E
:1025F00051F95C48007860B9594800F05AF95A49D5
:1026000008600120574908700221554800F0CBF9B5
:1026100016E05648006840B1514800F04AF9524966
:102620000968401A51490968086000204D4908703E
:1026300000214B4800F0B7F90021494800F02DF97E
:102640000821474800F03FF901282AD108214448D1
:1026500000F020F94348007860B9414800F02CF9B7
:102660004149086001203F49087002213C4800F0C0
:10267000A7F916E03D48006840B1394800F01CF960
:1026800039490968401A3949096808600020354904
:1026900008700021324800F093F90021304800F022
:1026A000FCF810212E4800F00EF901282AD1102143
:1026B0002B4800F0EFF82B48007860B9284800F06C
:1026C000FEF82949086001202649087002212448A3
:1026D00000F083F916E02548006840B1204800F07A
:1026E000EEF821490968401A20490968086000206D
:1026F0001C49087000211A4800F06FF900211848A1
:1027000000F0CBF80121164800F0DDF8012826D1B1
:102710000121134800F0BEF81448006858B1114870
:10272000007820B9002011490968086003E0012001
:102730000E490968086000200A49087000214FF01E
:10274000804000F04AF90021054800F046F90021D8
:10275000074800F042F90021014800F09EF810BD42
:10276000000400404C0000205000002054000020D5
:102770000008004000B587B000203C4908703C4983
:1027800008603C49086001210220FFF7D1FB4FF6A9
:10279000FF70ADF814000020ADF81000ADF8160081
:1027A000ADF8120004A9344800F056F901221121B5
:1027B000314800F01FF90420ADF804000020ADF806
:1027C00006000120ADF808000020ADF80A00ADF8C1
:1027D0000C0001A9284800F087F80820ADF8040093
:1027E0000020ADF806000120ADF808000020ADF88B
:1027F0000A00ADF80C0001A91F4800F075F80C2084
:10280000ADF804000020ADF806000120ADF8080086
:102810000020ADF80A00ADF80C0001A9164800F040
:1028200063F84FF4E060FFF7E1F91D208DF8000038
:1028300000208DF8010001208DF802008DF80300C2
:102840006846FFF79BF901210B4800F023F80021AF
:10285000094800F013F801221D21074800F09AF8FA
:102860000021054800F019F807B000BD4C00002019
:1028700050000020540000200004004021B10288D4
:1028800042F08002028004E002884FF67F731A4013
:1028900002807047CA430282704721B1028842F029
:1028A0000102028004E002884FF6FE731A400280A3
:1028B00070470146088F70470146888F7047014670
:1028C000B1F84000704730B50246002000230024D4
:1028D000158A05EA0103958905EA010413B10CB1D3
:1028E000012000E0002030BD70B505460C462448AC
:1028F00085420ED0234885420BD0B5F1804F08D0D9
:102900002148854205D02148854202D02048854291
:1029100000D100E000BF208850B92389A2886188D7
:102920002846FFF73BFDE188284600F068F825E0DF
:10293000208804280AD12389A28861882846FFF7C5
:102940006DFDE188284600F063F817E0208808282C
:102950000AD12389A28861882846FFF7ABFDE18868
:10296000284600F062F809E02389A2886188284699
:10297000FFF7E8FDE188284600F060F870BD000030
:10298000002C0140003401400004004000080040D9
:10299000000C00401AB183890B43838102E08389D4
:1029A0008B43838170470A460021018C4FF6DF7309
:1029B00019404FF6FF7303EA02131943018470476D
:1029C0000A460021018C4FF6FF5319404FF6FF7362
:1029D00003EA02231943018470470A460021018C4F
:1029E0004DF6FF7319404FF6FF7303EA02331943A4
:1029F0000184704701858282704781847047028B11
:102A00004FF6F3731A400283028B0A430283704726
:102A1000028B4FF2FF331A400283028B4FF6FF7393
:102A200003EA01231A4302837047828B4FF6F37344
:102A30001A408283828B0A4382837047828B4FF2D3
:102A4000FF331A408283828B4FF6FF7303EA012320
:102A50001A43828370470000002202881D4B98426F
:102A60000ED01D4B98420BD0B0F1804F08D01B4BBD
:102A7000984205D01A4B984202D01A4B984204D182
:102A80004FF68F731A404B881A43174B984207D062
:102A9000164B984204D04FF6FF431A40CB881A4396
:102AA00002808B8883850B8803850A4B98420BD064
:102AB000094B984208D00E4B984205D00D4B9842D6
:102AC00002D00D4B984201D10B7A038601238382F9
:102AD00070470000002C0140003401400004004019
:102AE00000080040000C00400010004000140040AE
:102AF0000040014000440140004801400548007882
:102B000030B100204FF0E021086188610149087070
:102B1000704700006F000020B0F5E16F01DD4FF459
:102B2000E16042F2283141434FF0E022516100213F
:102B3000916101211161014A117070476F000020FD
:102B40004FF0E022116901F0010222B101F480325C
:102B50000AB9012200E00022104630B900224FF0ED
:102B6000E0231A619A61014B1A7070476F000020D0
:102B70002DE9F0410746002500260DE0384600F01B
:102B8000D5FA0446012C00D01CB94FF6FF70BDE801
:102B9000F0812544701CC6B20A2EEFDB0A20B5FB7B
:102BA000F0F0F4E708B501212020FFF7D1F9032068
:102BB000ADF8000010208DF8030003208DF802000E
:102BC00069460E48FEF7FCFA0C20ADF80000694695
:102BD0000A48FEF7F5FA3020ADF8000069460748CC
:102BE000FEF7EEFAC020ADF8000069460348FEF794
:102BF000E7FAFEF7F1F803F005FF08BD0014014005
:102C000010B500244FF400610F48FEF7ADFB2044DF
:102C1000C4B24FF480410C48FEF7A6FB04EB400021
:102C2000C4B24FF400510848FEF79EFB04EB80004D
:102C3000C4B24FF480510448FEF796FB04EBC00089
:102C4000C4B2204610BD00000014014010B5044677
:102C5000ACB3FFF7D5FF0A282AD2DFE800F0052938
:102C6000292914290B29231A16221146012003F0C1
:102C7000D3FD23E003F0C6FE00BF2D4801F0C8FFDE
:102C80000028FAD100BF5A221146022003F0C4FDE9
:102C900014E003F0B7FE00BF254801F0B9FF00289B
:102CA000FAD100BF5A221146032003F0B5FD05E01A
:102CB00016221146012003F0AFFD00BF36E0FFE70A
:102CC000FFF79EFF0A282AD2DFE800F00514232927
:102CD00029291A29290B16221146002003F09CFDF0
:102CE00023E003F08FFE00BF114801F091FF0028A0
:102CF000FAD100BF5A221146022003F08DFD14E0E4
:102D000003F080FE00BF0A4801F082FF0028FAD1DC
:102D100000BF5A221146032003F07EFD05E0162273
:102D20001146002003F078FD00BF00BF10BD000079
:102D30006000002000B585B001210520FFF708F9EB
:102D400001218803FFF704F94FF40070ADF810007B
:102D500018208DF8130003208DF8120004A91C48D8
:102D6000FEF72EFA4FF48060ADF8100004208DF8C5
:102D7000130004A91648FEF723FA4FF4E13000903F
:102D80000020ADF80400ADF80600ADF80800ADF87D
:102D90000C000C20ADF80A0069460E4800F016F948
:102DA000012240F225510B4800F0EAF801210948C0
:102DB00000F0A3F84021074800F096F8002003E057
:102DC00005490854411CC8B20028F9D105B000BD1E
:102DD00000080140003801407000002010B540F2AA
:102DE00025513C4800F0A2F8002872D03A480078FB
:102DF0003A490978884229D1394838490978405CEC
:102E00003649097888420ED136480078401CC0B255
:102E10003449087031490870324800783049314AE5
:102E20001278885412E02D49087803E02C490854A0
:102E3000411CC8B22A49294A1278895C8142F5DCD2
:102E4000274826490978405C24490870214800F049
:102E500029F92349204A127888541F480078401CD9
:102E60001D49087008460078801E1D49085C0D2821
:102E70002FD119480078401E085C0A2829D116482D
:102E8000017818480078C01C814205D112480078AA
:102E9000801E114908701CE00F480078801E104900
:102EA000104A127888540C480078801E0D4908702A
:102EB000084601780A480B4A12788154064800787F
:102EC000401E05490870084600780549024A1278F4
:102ED000885410BD003801407201002070010020AC
:102EE000700000207101002001F40072B2F5007F33
:102EF00000D100BFCA430280704721B1828942F4E9
:102F00000052828104E082894DF6FF731A4082816B
:102F1000704702460020B1F5007F00D100BF138842
:102F20000B400BB1012000E00020704770B5024655
:102F3000002400230025002040F66A16B14200D18B
:102F400000BFC1F3421501F01F03012606FA03F387
:102F5000012D02D19689334006E0022D02D1168A56
:102F6000334001E0968A33400C12012606FA04F43D
:102F70001688344013B10CB1012000E0002070BD70
:102F8000F0B50346002400260025002040F66A170D
:102F9000B94200D100BF1846C1F3421401F01F0628
:102FA000012707FA06F5012C01D10C3004E0022CB0
:102FB00001D1103000E014301AB107682F430760C8
:102FC00002E00768AF430760F0BD00002DE9F0475D
:102FD00086B005460E460024A24600BFA146002743
:102FE000B08900B100BF2F462C8A4CF6FF70044018
:102FF000F08804432C82AC894EF6F3100440B0886C
:1030000031890843718908430443AC81AC8A4FF687
:10301000FF400440B0890443AC8201A8FEF7A8FF3A
:103020001F48874202D1DDF810A001E0DDF80CA0B6
:10303000A88900F4004040B10AEBCA0000EB0A1076
:1030400031684900B0FBF1F807E00AEBCA0000EB79
:103050000A1031688900B0FBF1F86420B8FBF0F089
:1030600004012009642101FB1089A88900F40040B3
:1030700040B1322000EBC900B0FBF1F000F00700D6
:10308000044308E0322000EB09106421B0FBF1F0AA
:1030900000F00F0004432C8106B0BDE8F08700006B
:1030A0000038014001468888C0F308007047C1F32A
:1030B000080282807047000008B501211D20FEF73C
:1030C00047FF8020ADF8000028208DF80300032082
:1030D0008DF8020069461348FEF772F88021114806
:1030E000FEF74FF94FF46070ADF8000010208DF836
:1030F000030003208DF8020069460B48FEF760F8D4
:1031000080210948FEF73DF94FF480710648FEF72B
:1031100038F94FF400710448FEF733F9FFF72AFB42
:1031200008BD0000000801400010014070B50446D1
:103130000025002011490860084611490860A1B225
:103140001048FEF720F9142000F002FF00210E487D
:10315000FFF753FC01210C48FFF79FFBA1B2094880
:10316000FEF70FF900E06D1C0848854203D20348C2
:1031700000680028F7D00148006870BD58000020A2
:10318000540000200010014000040040FFFF080030
:1031900000BFFEE710B53EE02348037823482249EC
:1031A0000978445C1A460146581C085C2B2804D058
:1031B00030280FD04F2822D11DE000BF1046511CEF
:1031C000CAB21A49085C3A28F8D12146104603F0E1
:1031D000C5F914E01549181D085C4F2802D10120DB
:1031E000134908701149181D085C4C2802D10020B1
:1031F0000F49087003E001200E49087000BF00BFAE
:10320000094804701A4603E008488254501CC2B2B0
:10321000A242F9D100BF054803490978405C024940
:1032200009788842B8D110BD7001002070000020DC
:10323000740100207301002010B5FEF703FF002089
:103240002749087012E041F6907226A129A000F0EB
:103250006FF8002405E00A2000F05CFEFFF79AFFFB
:10326000641C1F48007808B9642CF4DB1C48007803
:103270000028E8D0FEF7E6FE0020194908700FE0AC
:1032800023A000F055F8002405E00A2000F042FEDB
:10329000FFF780FF641C1248007808B9322CF4DB79
:1032A0000F4800780028EBD0FEF7CCFE00200C4938
:1032B00008700FE01AA000F03BF8002405E00A2097
:1032C00000F028FEFFF766FF641C0548007808B987
:1032D000322CF4DB024800780028EBD010BD00004F
:1032E0007301002031302E31382E3139362E3230F4
:1032F0003200000041542B43495053544152543D35
:1033000022544350222C222573222C25640D0A00BE
:1033100041542B4349504D4F44453D310D0A000067
:1033200041542B43495053454E440D0A00000000C0
:103330000FB4054B10B503A9044A029800F08EF8AB
:1033400010BC5DF814FB0000294B0008B001002000
:10335000490050EAC12018BF04204A0D18BF40F0B0
:10336000010040F2FF72B2EB515F08BF40F0020073
:10337000012808BF052070472DE9F0414F1E00EBE2
:10338000C7010446D1E9000115461E4637F0060282
:103390000DD02A463346FDF7A6F87F1E04EBC7037F
:1033A000D3E90023FCF7F8FF37F00602F1D1022F32
:1033B00025D0042F13D0062F18BFBDE8F0812A4670
:1033C0003346FDF790F8D4E90A23FCF7E5FF2A46D7
:1033D0003346FDF788F8D4E90823FCF7DDFF2A46D9
:1033E0003346FDF780F8D4E90623FCF7D5FF2A46DB
:1033F0003346FDF778F8D4E90423FCF7CDFF2A46DD
:103400003346FDF770F8D4E90223FCF7C5FF2A46DE
:103410003346FDF768F8D4E90023BDE8F041FCF736
:10342000BBBF0122FDF7A4BAFCF7B6BF024A0020D9
:103430001107FDF79DBA000001FDFFFF02E008C87B
:10344000121F08C1002AFAD170477047002001E01E
:1034500001C1121F002AFBD1704700002DE9FF4F68
:103460008DB00F460546002606E025280BD0DDE985
:103470000F1290476D1C761C28780028F5D111B0EA
:103480003046BDE8F08F0024A246A1460122EC4957
:1034900000E0044315F8013F203B02FA03F0084224
:1034A000F7D128782A2810D06FF02F022878A0F1C1
:1034B0003001092914D80AEB8A0102EB410144F0DA
:1034C000020400EB010A6D1CF0E701CF5FEA000A7D
:1034D00003D544F40054CAF1000A44F002046D1C00
:1034E00028782E2817D115F8010F44F004042A2853
:1034F0000ED06FF02F022878A0F1300109290AD8E8
:1035000009EB890102EB410100EB01096D1CF2E7B7
:1035100057F8049B6D1C28786C280FD006DC4C28CB
:1035200017D068280DD06A2814D104E0742810D070
:103530007A280FD10DE044F400140AE044F480141A
:1035400001E044F440146978814202D104F580140A
:103550006D1C6D1C2A786E2A1FD00CDC632A31D0BA
:1035600004DC002A8BD0582A11D1A3E0642A68D049
:10357000692A0CD165E0732A2ED004DC6F2A73D03F
:10358000702A04D19BE0752A6FD0782A6ED010463D
:10359000DDE90F129047761C50E1C4F30250022877
:1035A00006D0032809D0042801CF09D0066045E1E0
:1035B00001CFF117C0E9006140E101CF06803DE194
:1035C00006703BE117F8040B8DF8000000208DF821
:1035D0000100EB46012003E057F804BB4FF0FF3039
:1035E00061074FF0000102D40DE008F101018846A7
:1035F00049450FDA8045F8DB1BF808100029F4D1A3
:1036000008E008F1010188468142FADB1BF8081046
:103610000029F6D1DDE90F23AAEB080081462146F7
:1036200000F036F9304400EB080604E0DDE90F1243
:103630001BF8010B9047B8F10108F7D22146484624
:10364000F7E00A21C4F302534FF0000B0891022B5C
:1036500004D001CFC117032B09D00AE0FF1D27F0CA
:103660000707F7E8020108E032E01FE020E000B2BF
:10367000C117042B01D140B2C117031E71F1000321
:1036800007DA4FF0000CD0EB0C006CEB01012D239E
:1036900002E0230504D52B238DF82430012303E019
:1036A000E30701D02023F7E7984658E00A2110E00D
:1036B00010210EE010204FF0000B08900CE01021BC
:1036C0004FF0000B44F004044FF00809089103E0A8
:1036D00008214FF0000B0891C4F30253022B04D0D1
:1036E00001CF0021032B06D006E0FF1D27F00707BE
:1036F000F7E8020103E080B2042B00D1C0B24FF022
:10370000000823072BD5702A07D0DDF820C08CF0E5
:10371000100C5CEA0B0C05D00EE040238DF8243031
:10372000012308E050EA010306D030238DF824304D
:103730008DF8252002239846DDF820C08CF0080C77
:103740005CEA0B0C0BD150EA010301D1630706D5EB
:1037500030238DF824304FF00108A9F10109582ACF
:1037600004D038A20B9208AA0A920BE03AA2F9E719
:103770005B46089AFDF716F80B9B9B5C0A9A521E53
:103780000A92137050EA0102F2D10A98ADEB0000E0
:1037900000F1200B600702D524F4803401E04FF0E3
:1037A0000109D94502DDA9EB0B0000E0002000EB88
:1037B0000B0141440890AAEB010AE00306D4DDE9BD
:1037C0000F232146504600F063F806444FF00009ED
:1037D00008E009A911F80900DDE90F12904709F185
:1037E0000109761CC145F4DBE0030CD5DDE90F23AC
:1037F0002146504600F04CF8064404E0DDE90F1283
:1038000030209047761C0899481E08900029F5DC66
:1038100008E00A980A990078491C0A91DDE90F121C
:103820009047761CBBF10001ABF1010BF1DC2146A6
:103830005046DDE90F2300F019F806446D1C1BE625
:103840000928010030313233343536373839616276
:10385000636465660000000030313233343536373A
:103860003839414243444546000000002DE9F0410B
:10387000044600251E461746880404D405E0394650
:103880002020B0476D1C641EF9D52846BDE8F081A4
:103890002DE9F041044600251E469046C80301D597
:1038A000302700E02027880404D505E0414638464B
:1038B000B0476D1C641EF9D52846BDE8F0810000B4
:1038C0002DE9FE4F06460F460025684601F038FAFE
:1038D000002442E056F8240057F82410A0EB010A17
:1038E000BAF1000F01DB514601E0CAF100010846C0
:1038F000FCF7DAFE83464FF08F41FCF70FFD804660
:103900005DF824000021FCF739FF16D05DF8241083
:103910004046FCF703FD82464FF07E51FCF7C6FCA3
:10392000814629F0004A0F48416A5046FCF730FFB3
:1039300012D20120A04005430EE00A48C16940466A
:10394000FCF71CFF05D30748016A4046FCF720FF3F
:1039500002D20120A0400543641C032CBADB284698
:10396000BDE8FE8F0C6D000810B50446092C0ED082
:103970000B2C09D00C2C04D00E2C0BD102F0EFFD37
:1039800008E002F0F7FD05E001F0F4FC02E001F0D0
:10399000F9FC00BF00BF10BD2DE9F84F04460D46ED
:1039A00021F0004000917349814211DC7249884244
:1039B00001DC06D12CB120462946BDE8F84FFFF7BF
:1039C00030BD6E48002DCCBF6D496E49BDE8F88F03
:1039D0006D49814211DD6D498142D8BF4FF0FF36FC
:1039E0006DDD20462946FFF7B3FC042808BFFFF72A
:1039F0001DFD20462946BDE8F88F6549654F25F035
:103A00000045814233DD6449814219DD002632469A
:103A10004FF0804320462946FCF7BEFC80468A468C
:103A2000012220462946FCF7A3FF00223B46FCF773
:103A300054FD42465346FCF7C8FD04460D463EE0A1
:103A400001260022BA463B4620462946FCF7A4FC44
:103A500080460F460022534620462946FCF73DFD8E
:103A600042463B46FCF7B1FD04460D4627E04B4974
:103A700081421BDDDFF828A10226002253462046A2
:103A80002946FCF730FD00223B46FCF785FC8046CA
:103A90000F460022534620462946FCF71EFD4246AB
:103AA0003B46FCF792FD04460D4608E003262246FD
:103AB0002B4600203B49FCF788FD04460D46224674
:103AC0002B4610461946FCF70EFD8B4682460246F1
:103AD0000B46FCF708FD07460246334888460B466E
:103AE00006217844FFF748FC52465B46FCF7FBFC96
:103AF00082462E488B463A46434605217844FFF7D6
:103B00003BFC3A464346FCF7EEFC02460B46002ED1
:103B1000504659460CDAFCF73FFC22462B46FCF790
:103B2000E2FC01B022462B46BDE8F04FFCF7D8BCC2
:103B3000FCF732FC22462B46FCF7D5FC1C4A7A44A3
:103B400002EBC603D3E90023FCF7C7FC22462B4651
:103B5000FCF7C3FC174A7A4402EBC603D3E90023FF
:103B6000FCF7BEFC009A002AB8BF81F00041BDE816
:103B7000F88F0000000010440000F07F182D44541E
:103B8000FB21F93FFB21F9BF0000DC3F0000203E94
:103B90000000F33F0000F03F0000E63F00800340DC
:103BA0000000F83F0000F0BFB23E0000703E000091
:103BB0000E3E0000D63D00002DE9F04D9446CCF1BC
:103BC000000423F000464CEA0404524F46EAD47441
:103BD0009A46884621F00042BC4206D8454240EA57
:103BE000050442EAD474BC4204D9BDE8F04D6246F3
:103BF000FFF71ABCAAF14055A5F17F6555EA0C0400
:103C00000BD0022404EAAA74434DDFF810E144EA21
:103C1000D87452EA000B04D00CE0BDE8F04DFFF779
:103C2000BBBE002C14BF012CBDE8F08D022C30D09F
:103C3000032C32D056EA0C0B0AD0BE4220D1BA4235
:103C400009D126F0804622F080423346114617E023
:103C500000291ADB25E0DFF8C8B0FB44002C04BFC4
:103C6000DBE90001BDE8F08D012C02BFDBE90001BA
:103C700081F00041BDE8F08D022C0AD0032C0CD05D
:103C8000BA4212D1B8F1000F0BDA23482549BDE83A
:103C9000F08D28462449BDE8F08D28467146BDE8E0
:103CA000F08D1D482149BDE8F08D921B12153C2A6C
:103CB000C4BF19481D490EDCBAF1000FBEBF12F196
:103CC0003C0F0020014606DB6246FCF77EFC21F03B
:103CD0000041FFF761FE002C08BFBDE8F08D012C0C
:103CE00004BF81F00041BDE8F08D114A114B022C58
:103CF00007D0FCF7F2FB2A46BDE8F04D0A4BFCF773
:103D0000ECBBFCF7EAFB2A46BDE8F04D064BFCF79E
:103D1000E7BB00000000F07F182D4454FB2109C0D0
:103D20006A3D0000FB21F9BFFB210940FB21F93F5F
:103D3000075C143326A6A13C10B50446201F0C28AE
:103D40002BD2DFE800F006120C182A2A2A2A2A1E93
:103D50002A241E221146002002F05EFD20E01E22D1
:103D60001146012002F058FD1AE0552211460320A9
:103D700002F052FD14E055221146022002F04CFDE3
:103D80000EE028221146032002F046FD08E028221A
:103D90001146022002F040FD02E002F033FE00BFB7
:103DA00000BF10BD002004E00021034A1154411C53
:103DB000C8B20928F8DB7047B401002010B502F042
:103DC00021FE142000F0A6F88020FEF7D1FE10BDE1
:103DD00008B501214020FEF7BBF82020ADF8000017
:103DE00010208DF8030003208DF802006946024878
:103DF000FDF7E6F908BD00000018014001B50021FB
:103E00000098FCF7C5FC0ED25A221146032002F09E
:103E100003FD02E0684600F0FBFE13490098FCF742
:103E2000B7FC13D2F6E700210098FCF7A7FC0DD2EF
:103E30005A221146022002F0EFFC02E0684600F030
:103E4000E7FE0A490098FCF799FCF7D302F0DAFD87
:103E500028221146002002F0DFFC4FF4827000F0AF
:103E600059F802F0CFFD08BD0000A0400000A0C03E
:103E70002DE9F0410446E07800F0C006E07800F05B
:103E80003F05607800F0010098B1EF102846E9176F
:103E900005EB5171C910A5EBC101491C01F0FF08E8
:103EA0000B48006820B10A484146026838469047EE
:103EB00000BF607800F0080030B10548406818B1D4
:103EC000B011034A516888470020BDE8F081000026
:103ED000D40100204FF0E021096921F004014FF0E6
:103EE000E0221161C21700EB5272C2F3C702074B06
:103EF0001A701946097801EB4102C2EBC1114FF665
:103F0000FF7202EAC101024A1180704732000020AC
:103F10003400002001460D4A12884A434FF0E02346
:103F20005A6100229A6101221A6100BF4FF0E0221B
:103F3000106900F001021AB100F48032002AF5D0B5
:103F400000224FF0E0231A619A617047340000208C
:103F500001460D4A12784A434FF0E0235A6100228D
:103F60009A6101221A6100BF4FF0E022106900F04F
:103F700001021AB100F48032002AF5D000224FF07D
:103F8000E0231A619A6170473200002030B10221AB
:103F9000064A11700321064A117005E00321034A05
:103FA00011700221024A1170704700004800002081
:103FB0004900002038B5044664B120208DF8000087
:103FC00028208DF8010030208DF8020038208DF86F
:103FD000030004E0A32204216846FCF7F6F86A46D1
:103FE000042140F69E2002F079FA01F063FE38BD0C
:103FF0003EB5044602208DF80000CA208DF801006D
:10400000E3208DF8020009208DF803006A460421A0
:10401000682002F063FAA3208DF8000004F040004D
:1040200048B1C0208DF80100C8208DF80200C220E0
:104030008DF8030006E0A3208DF801008DF8020042
:104040008DF8030004F4C07048B1C4208DF804005A
:10405000CC208DF80500C6208DF8060006E0A320D0
:104060008DF804008DF805008DF80600A3208DF86A
:1040700007008DF808008DF809006A460A2140F60D
:10408000A72002F02BFA04F0030018B120208DF8CD
:10409000000002E0D8208DF800006A46012140F6B9
:1040A000B62002F01BFA04F0200018B1012000F045
:1040B000ADF802E0002000F0A9F804F4C07008B3E5
:1040C00004F4807060B1B2208DF800008B208DF870
:1040D0000100B6208DF802009B208DF803000BE054
:1040E000B0208DF8000080208DF80100B4208DF8FC
:1040F000020090208DF803006A46042140F6A220B9
:1041000002F0ECF904F0010020B3F8208DF8000073
:104110006A4601214FF40B6002F0E0F9FA21072012
:1041200000F094FB072000F05BFB012000F07BFB1C
:10413000642000F05BFC4FF4FA7000F06AFCC821C8
:10414000304800F00BFB282000F024FB0A2000F090
:1041500034FB08E0D8208DF800006A4601214FF4B6
:104160000B6002F0BBF904F0020018B1D9208DF801
:10417000000002E0D8208DF800006A46012140F2DC
:104180003D7002F0ABF904F0040018B1012000F01A
:1041900069F802E0002000F065F804F0100018B1A2
:1041A0000120FFF707FF02E00020FFF703FF44F0C4
:1041B00008001549488101F07DFD002012498873EF
:1041C00004F0400018B10846807B801D887304F419
:1041D000C07020B10C48807B801D0B49887304F0AF
:1041E000140020B10848807B10300749887304F020
:1041F000030020B10448807B001D03498873002020
:104200003EBD000009E3CA02D40100203EB50446C9
:104210006CB10EA1D1E900208968CDE9002002919E
:104220006A4609214FF4976002F058F93EBD0AA290
:10423000D2E900109268CDE9010200916A46092195
:104240004FF4976002F04AF9F0E70000B8AAB38D86
:10425000B4980D355D000000B8AAAAAAB088C3C5FD
:10426000C700000038B5044664B1C0208DF80000D6
:10427000C2208DF80100C4208DF80200C6208DF800
:10428000030004E08B2204216846FBF79EFF6A4688
:10429000042140F6982002F021F901F00BFD38BD11
:1042A00010B5C8234FF48062024940F6F63001F0A1
:1042B00095FB10BD346D00082DE9F04F8DB0074619
:1042C000884615469946DDE9166B002400203080AB
:1042D0006B49887B5A4605A901F04CFC18B1601E59
:1042E0000DB0BDE8F08F6648807A00F01400002819
:1042F00067D09DF8140000069DF8151040EA0140B3
:104300009DF8161040EA01209DF817100843286018
:104310009DF8180000069DF8191040EA01409DF82C
:104320001A1040EA01209DF81B10084368609DF8B0
:104330001C0000069DF81D1040EA01409DF81E106B
:1043400040EA01209DF81F100843A8609DF8200056
:1043500000069DF8211040EA01409DF8221040EA35
:1043600001209DF823100843E86004F11000C4B256
:10437000286800140190686800140290A86800146E
:104380000390E8680014049001984043029901FBEF
:104390000100039901FB0100049901FB010ABAF134
:1043A000706F02DBBAF1885F05DD01F083FC00204D
:1043B0003080401E94E7B6F9000040F480703080F1
:1043C00000BF2F48807A00F0400020B305A9601C90
:1043D000085C095D40EA012000B2A8F8000005A9C8
:1043E000E01C095C05AAA01C105C41EA002000B298
:1043F000A8F8020005A9601D095C201D105C41EAB7
:10440000002000B2A8F80400A01DC4B2B6F9000054
:1044100040F0080030801A48408900F4C07008B3AA
:1044200005A9601C085C095D40EA012000B23880E3
:1044300005A9E01C095C05AAA01C105C41EA00204B
:1044400000B2788005A9601D095C201D105C41EA5E
:10445000002000B2B880A01DC4B2B6F9000040F040
:10446000700030800648807A00F0030018B105A97A
:104470000819FFF7FDFC484601F07EF800202FE701
:10448000D401002030B585B0044616A207CA02AB9D
:1044900007C3C82C03DD4FF0FF3005B030BDC82086
:1044A00090FBF4F0401E85B2280A8DF80000E8B2B7
:1044B0008DF801006A46022140F2162002F00EF843
:1044C00010B14FF0FF30E8E702AA0C2140F6C120FE
:1044D00002F004F810B14FF0FF30DEE704488481A9
:1044E0000020DAE7FEF2ABC4AAF1DFDFBBAFDFDF0B
:1044F000D40100201FB504464848007A00F00300AC
:1045000054F8200001904548007A00F0040010B1F2
:104510000198404201904148007AC0F3C10054F82C
:10452000200002903D48007A00F0200010B102986F
:10453000404202903948007AC0F3811054F82000BC
:1045400003903648008900F4807010B1039840420F
:1045500003903349019880FB0101800F40EA8100FC
:1045600001902F49029880FB0110820042EA91706D
:1045700002902B49039880FB0110820042EA91705F
:1045800003900198000E8DF800000198000C8DF842
:1045900001000198000A8DF802000198C0B28DF860
:1045A00003006A4604214FF4747001F097FF18B1BC
:1045B0004FF0FF3004B010BD0298000E8DF80000DF
:1045C0000298000C8DF801000298000A8DF8020094
:1045D0000298C0B28DF803006A4604214FF475704A
:1045E00001F07CFF10B14FF0FF30E3E70398000EBD
:1045F0008DF800000398000C8DF801000398000A64
:104600008DF802000398C0B28DF803006A460421B9
:104610004FF4767001F062FFCCE70000D401002077
:1046200009E3CA0210B586B0044647A000680390AB
:1046300046A00068029046A00068019045A000686E
:10464000009004F0030003A9085C8DF8140003A88F
:10465000C4F3C101405C8DF8150003A8C4F38111B7
:10466000405C8DF8160004F0030002A9085C8DF888
:10467000100002A8C4F3C101405C8DF8110002A82B
:10468000C4F38111405C8DF8120005AA032140F2A9
:10469000264001F023FF18B14FF0FF3006B010BDE7
:1046A00004AA032140F22A4001F018FF10B14FF094
:1046B000FF30F3E7019805900098049004F004009F
:1046C00058B19DF8140040F001008DF814009DF8D9
:1046D000100040F001008DF8100004F0200058B1E7
:1046E0009DF8150040F001008DF815009DF81100AF
:1046F00040F001008DF8110004F4807058B19DF86D
:10470000160040F001008DF816009DF8120040F0F0
:1047100001008DF8120005AA03214FF4886001F012
:10472000DDFE10B14FF0FF30B8E704AA032140F2DC
:10473000314001F0D3FE10B14FF0FF30AEE7064834
:1047400004810020AAE700004CCD6C000CC92C00AD
:104750003656760026466600D4010020F8B5054698
:104760000E464FF47A7095FBF0F000FB06F4200E35
:104770008DF80000200C8DF80100200A8DF8020051
:10478000E0B28DF803006A4604214FF4AE7001F0E8
:10479000A5FEF8BD38B50446052094FBF0F084B2C0
:1047A00020128DF80000E0B28DF801006A46022167
:1047B0004FF4AD7001F092FE38BD38B504460520C7
:1047C00094FBF0F084B220128DF80000E0B28DF876
:1047D00001006A4602214FF4AC7001F07FFE38BD43
:1047E00038B504460020009004F0010020B19DF887
:1047F000000040F03000009004F0020020B19DF86D
:10480000000040F00C00009004F0040020B19DF87E
:10481000000040F0030000906A4601214FF4A470AC
:1048200001F05CFE38BD38B50446012C01DA0124E4
:1048300002E0042C00DD0424601EC0B200906A4631
:10484000012140F24F1001F049FE38BD2DE9FC472F
:1048500006460F4606F0070010B1B7F5C86F03DD36
:104860004FF0FF30BDE8FC873846FBF726FF814656
:104870005949FBF753FD8046684600F007FF9DF855
:104880000000022806D0042816D0082826D01028B8
:1048900048D135E04FF08D414046FBF70DFD814694
:1048A000FBF729FF84B24D494046FBF705FD8146E1
:1048B000FBF721FF85B238E04FF08C414046FBF713
:1048C000FBFC8146FBF717FF84B245494046FBF7E6
:1048D000F3FC8146FBF70FFF85B226E04FF08B41DA
:1048E0004046FBF7E9FC8146FBF705FF84B23D49F2
:1048F0004046FBF7E1FC8146FBF7FDFE85B214E084
:104900004FF08A414046FBF7D7FC8146FBF7F3FEA8
:1049100084B235494046FBF7CFFC8146FBF7EBFEFE
:1049200085B202E04FF0FF309CE700BF20128DF807
:104930000400E0B28DF8050028128DF80600E8B2F8
:104940008DF8070006F00100A0B101AA02214FF482
:10495000EA7001F0C3FD10B14FF0FF3082E70DF1B6
:10496000060202214FF4927001F0B8FD10B14FF031
:10497000FF3077E706F00200A0B101AA02214FF450
:10498000EC7001F0ABFD10B14FF0FF306AE70DF1B4
:10499000060202214FF4947001F0A0FD10B14FF017
:1049A000FF305FE706F00400A0B101AA02214FF436
:1049B000EE7001F093FD10B14FF0FF3052E70DF1B2
:1049C000060202214FF4967001F088FD10B14FF0FD
:1049D000FF3047E7002045E700004843000040461D
:1049E0000000C045000040450000C04438B5044602
:1049F000052094FBF0F085B228128DF80000E8B293
:104A00008DF801006A4602214FF4EF7001F066FD57
:104A100038BD38B50446052094FBF0F085B2281265
:104A20008DF80000E8B28DF801006A4602214FF4CB
:104A3000ED7001F053FD38BD10B508211448FCF7A6
:104A4000A0FC1020FFF784FA012001F06DFE432046
:104A500001F06AFE002001F067FE012001F064FE13
:104A6000002001F061FE002001F05EFE002001F058
:104A70005BFE002001F058FE002001F055FE0821E9
:104A80000348FCF780FC1020FFF762FA10BD00001D
:104A90000018014006460C462046FFF7AFF93046A5
:104AA000FFF774FA01F0D8FF5A221146002001F0F6
:104AB000B3FE4FF4D270FFF72DFA01F0A3FF14A05C
:104AC000FEF736FC02F052F88020FEF751F805465A
:104AD0000FE08020FEF74CF805464FF6FA7085424D
:104AE00002D9FFF76BF9054619221146002001F0A3
:104AF00093FE40F2DC508542EBD802F037F802F02A
:104B000073F801F07FFF01F042FD00BFFEE70000F7
:104B1000466F7277617264203120776173206F76FF
:104B20006572210A0000000070B504460D46E1B22E
:104B30000548FEF7BCFA00BF40210348FEF7E9F93B
:104B40000128F9D1204670BD0038014010B54FF45E
:104B500080510248FCF708FC10BD0000001801401D
:104B600010B5FFF71FF901F083FD0D48C0780C491F
:104B7000097940EA01200B49088000240BE00A482B
:104B8000015D0120884007490988084008B920468E
:104B900010BD601CC4B2102CF1DB0020F8E700004F
:104BA000B40100201E0000202200002010B54FF4A8
:104BB00000610348FCF7D8FBC0F10100C0B210BD92
:104BC0000018014010B5002400BF06E000BFFFF749
:104BD000C7FF0828FBD0601CC4B20A2CF6DB06D144
:104BE000FFF7BEFF082802D10120024908700148E2
:104BF000007810BD1C00002010B54FF48041034820
:104C0000FCF7B2FBC0F10100C0B210BD00180140BA
:104C10002DE9F04F97B004464FF07E5500264FF037
:104C200000094FF0000A10A811A916AB0CAACDE993
:104C3000001012A914A8FFF73FFB18B1012017B00C
:104C4000BDE8F08FBDF8440000F48070002870D0FB
:104C50000C98FBF729FD07464FF09D41FBF75EFBE3
:104C600005460D98FBF720FD07464FF09D41FBF7E9
:104C700055FB06460E98FBF717FD07464FF09D4182
:104C8000FBF74CFB81460F98FBF70EFD07464FF0F4
:104C90009D41FBF743FB824651465046FBF70CFB18
:104CA000494605904846FBF707FB314603903046DE
:104CB000FBF702FB294601902846FBF7FDFA00901E
:104CC0000199FBF7A1FA02900399FBF7EFFA049020
:104CD0000599FBF7EBFA8346FBF721FD074688466B
:104CE00051462846FBF7E8FA494604903046FBF760
:104CF000E3FA03900499FBF787FA4FF0804105909F
:104D0000FBF7DAFA8346FBF70AFD3A464346CDE95C
:104D10000601FEF751FF4FF06632084BCDE908015E
:104D2000FBF7E1FBCDE90A01FBF70CFD206002E097
:104D3000FFE7022083E7002081E7000066A64C40E1
:104D40007CB5054628494968087801AB04220D2145
:104D5000FCF723FE08B107207CBD9DF80700C0F3D7
:104D600001109DF8041001F0E00140EAE1008DF827
:104D700000009DF80700C0F381009DF8051001F0C8
:104D8000E00140EAE1008DF801009DF8070000F025
:104D900003009DF8061001F0E00140EAE1008DF803
:104DA000020000241CE01DF8040018B9002045F89A
:104DB000240013E00D4845F8240006E055F82400CF
:104DC0000B49FBF779FA45F824001DF80400401E52
:104DD000C0B20DF804000028F0D100BF601CC4B2BE
:104DE000032CE0DB0020B7E7780100207B14AE3E07
:104DF0001D5A843F2DE9F04F87B005460C46914679
:104E000001208DF8100000208DF81100FE4A126874
:104E1000917CFD4A5268107804AB0222FCF763FED5
:104E200020B14FF0FF3007B0BDE8F08FC820FFF78A
:104E300071F800208DF81000F34A1268D17BF24A15
:104E40005268107804AB0122FCF74DFE10B14FF010
:104E5000FF30E8E7EC4A12685179EB4A5268107863
:104E600004AB0122FCF73FFE10B14FF0FF30DAE750
:104E7000E54A1268917CE44A5268107804AB01223A
:104E8000FCF731FE10B14FF0FF30CCE7DE4A12687C
:104E9000D17DDD4A5268107804AB0122FCF723FE75
:104EA00010B14FF0FF30BEE7D74A12681179D64AE9
:104EB0005268107804AB0122FCF715FE10B14FF0D8
:104EC000FF30B0E70C208DF81000CF4A126811793E
:104ED000CD4A5268107804AB0122FCF704FE10B1F1
:104EE0004FF0FF309FE70F20FFF714F8C648806AA5
:104EF000407A8DF81000C44A12689178C24A52680C
:104F0000107804AB0122FCF7EEFD10B14FF0FF303A
:104F100089E7BD48806A007A8DF81000BA4A1268A5
:104F20005178B94A5268107804AB0122FCF7DBFDD6
:104F300010B14FF0FF3076E7B9F1000F07D0B2485B
:104F4000806A807A40F0E0008DF8100004E0AE48FE
:104F5000806A807A8DF81000AB4A12689179AA4A6B
:104F60005268107804AB0122FCF7BDFD10B14FF080
:104F7000FF3058E7B9F1000F07D0A348806AC07A24
:104F800040F0E0008DF8100003E0A048C07A8DF8F2
:104F900010009D4A1268D1799B4A5268107804AB80
:104FA0000122FCF7A0FD10B14FF0FF303BE7B9F153
:104FB000000F02D0C820FEF7ADFF40208DF8100092
:104FC000914A12681179904A5268107804AB012214
:104FD000FCF789FD10B14FF0FF3024E778208DF801
:104FE0001000894A12685179874A5268107804ABD8
:104FF0000122FCF778FD10B14FF0FF3013E7834931
:105000008889FEF787FF00208DF810007E4A12681D
:1050100051797D4A5268107804AB0122FCF763FD98
:1050200010B14FF0FF30FEE6774A1268917A764A67
:105030005268107804AB0222FCF7AFFC10B14FF0BD
:10504000FF30F0E69DF811009DF8101040EA012BAA
:105050000C209BFBF0F0C6B20020A86068602860BE
:10506000A06060602060824665E0674A1268D17A7D
:10507000654A5268107804AB0C22FCF78EFC10B124
:105080004FF0FF30CFE69DF811009DF8101040EA78
:10509000012000B2ADF808009DF813009DF8121031
:1050A00040EA012000B2ADF80A009DF815009DF815
:1050B000141040EA012000B2ADF80C00BDF9081050
:1050C000206808442060BDF90A10606808446060E8
:1050D000BDF90C10A0680844A0609DF817009DF869
:1050E000161040EA012000B2ADF800009DF819004A
:1050F0009DF8181040EA012000B2ADF802009DF8BA
:105100001B009DF81A1040EA012000B2ADF804001F
:10511000BDF90010286808442860BDF902106868CD
:1051200008446860BDF90410A8680844A8600AF142
:10513000010000F0FF0AB24597DB3448D0F800C008
:105140002868C117090441EA104107046246002398
:105150003846FBF709F832460023CDE90201FBF798
:1051600003F828602948D0F800C06868C11709040E
:1051700041EA10410704624600233846FAF7F4FF7B
:1051800032460023CDE90201FAF7EEFF68601F48BE
:10519000D0F800C0A868C117090441EA104107040B
:1051A000624600233846FAF7DFFF32460023CDE996
:1051B0000201FAF7D9FFA8601448D0F804C02168AA
:1051C000C817000440EA11480F046246002338461D
:1051D0004146FAF7C9FF32460023CDE90201FAF74A
:1051E000C3FF20600948D0F804C06068C1170904F3
:1051F00041EA10410704624600233846FAF7B4FF3B
:105200003246002304E00000780100200C6D000805
:10521000CDE90201FAF7A8FF60601148D0F804C098
:10522000A068C117090441EA10410704624600233F
:105230003846FAF799FF32460023CDE90201FAF722
:1052400093FFA060A068002804DDA068A0F580306E
:10525000A06003E0A06800F58030A0600020E2E5D7
:105260000C6D00082DE9FC5F06460F4600253D4900
:105270004968087801AB03220D21FCF78EFB10B1C1
:105280000720BDE8FC9F9DF8040000F01F008DF88A
:1052900004009DF8050000F01F008DF805009DF842
:1052A000060000F01F008DF80600002456E056F8B6
:1052B000240057F82410A0EB010BBBF1000F01DB19
:1052C000594601E0CBF100010846FBF7EDF94FF03C
:1052D0008F410090FBF722F8814601A8005D68B37A
:1052E00021490868FBF7E9F9834659461F48FBF74F
:1052F00015F8804604E01E494046FAF7DDFF804677
:1053000001A8005D401EC0B201A908550028F2D1D5
:1053100041464846FBF702F883464FF07E51FAF7C4
:10532000C5FF82462AF0004B0F4881695846FBF7BB
:105330002FFA12D20120A04005430EE00A4801696D
:105340004846FBF71BFA05D3074841694846FBF777
:105350001FFA02D20120A0400543641C032CA6DBE7
:1053600028468EE7780100200C6D000800B04C45FF
:1053700054E3853F10B57D23002201214020FCF736
:105380004BFD10BD10B5FA23002201214020FCF78F
:1053900043FD10BD10B50446204600F00FF803464B
:1053A000E01C00F00BF843EAC00083B2A01D00F03F
:1053B00005F843EA801083B2184610BD014691F902
:1053C0000020002A01DD00201EE091F90020002AC3
:1053D00001DA042018E091F90120002A01DD012002
:1053E00012E091F90120002A01DA05200CE091F980
:1053F0000220002A01DD022006E091F90220002AA5
:1054000001DA062000E007207047000010B5FFF722
:10541000A7FB0A280ED1002405E000BFFFF7A0FB80
:105420000A28FBD0641C302CF7DB0B480068401CBA
:10543000094908600848007800F0010028B12021DF
:105440000648FBF7A0FF012010BD20210348FBF711
:1054500098FF0020F8E70000180000200018014025
:105460004820FEF737FDFBF7EBFCFDF79BFBFBF756
:10547000B3FCFDF721FEFBF7EBFAFCF711FA00BFD6
:1054800000F0B4F80028FBD1FDF754FCFCF75EFBFC
:105490006420FEF73FFDFDF7CFFE6420FEF73AFDE6
:1054A00026A0FDF745FF01F05AF846E0FFF7AEFFF2
:1054B000002836D1FFF754FB0446FEF73DFC254893
:1054C000007888B124480078401C234908700846B9
:1054D0000078FA2801DD022008701F4800780128B2
:1054E00002D11EA0FDF724FFFFF73AFB03280ED1DF
:1054F000FBF7BEFB8020FDF73BFB044621461CA0CA
:10550000FDF716FF00BFFFF72BFB0328FBD0FFF7CB
:1055100027FB0446FEF728FAFFF754FB0D490870F5
:105520000BE0FFF773FF40B1FBF76CFC044621462C
:1055300008480078FFF7AEFA00BFB7E70A5468657D
:105540002063617220697320636F6E6E656374659A
:1055500064210A00140000201500002064697220F4
:1055600069732052494748542121210A2E00000026
:105570003A3A25750A0000007047000070B50446ED
:10558000002624F00104184890F8240008B10020F7
:1055900070BD1548807A10B94FF0FF30F8E7124817
:1055A000057C807A2040104908740846007CA0429F
:1055B00002D04FF0FF3600E0002614B90A48007D03
:1055C00018B1012001F0B4F902E0002001F0B0F9B7
:1055D0003CB100F06FFB20B1034805744FF0FF3081
:1055E000D6E73046D4E700007801002070B50024EB
:1055F000FCF736F800F0FAF8002840D1782000F0E7
:1056000005FFC4B20CB1012070BD7820FFF7B6FFD2
:10561000C4B20CB10220F7E7642000F0A9FEC4B2C6
:105620000CB10320F0E7FEF73BFEC4B20CB104203E
:10563000EAE71548FFF7AEFE0546FEF7F3FFC4B2F2
:105640000CB10520E0E740F27310FEF7D1FCC4B2C4
:105650000CB10620D8E76420FEF714FFC4B20CB1E9
:105660000720D1E700F0A0FF04460CB10820CBE7EB
:10567000012000F079FDC4B21CB10920C4E70A2062
:10568000C2E70020C0E70000A40100200146114845
:10569000407A30B1012807D0022808D003280CD165
:1056A00008E0022008700BE00420087008E00820E1
:1056B000087005E01020087002E04FF0FF307047DE
:1056C00000BF0448C07C18B108784006000E08707E
:1056D0000020F4E77801002001460248007C0870B1
:1056E000002070477801002001460F48007A30B151
:1056F000012807D0022809D003280FD10AE0FA2098
:1057000008800EE04FF4FA7008800AE04FF47A70D7
:10571000088006E04FF4FA60088002E0002008806C
:1057200000BF00BF002070477801002001460E48EE
:10573000007A30B1012807D0022808D003280CD104
:1057400008E00A4808600BE00948086008E00948DA
:10575000086005E00848086002E04FF0FF3070473D
:1057600000BF0020FBE70000780100200000034399
:1057700000008342333303423333834101461248EE
:10578000C07A082817D2DFE800F01704070A0D10C6
:105790001318BC20088013E06220088010E02A2043
:1057A00008800DE0142008800AE00A20088007E045
:1057B0000520088004E000BF00BF0020088000BF73
:1057C00000BF002070470000780100200146064815
:1057D00090F8240010B14FF0FF3070470248C089A4
:1057E00008800020F9E70000780100201CB5802027
:1057F0008DF80000654A1268917C644A52681078FE
:105800006B460122FCF76FF910B14FF0FF301CBD61
:105810006420FEF77FFB00208DF800005B4A1268D1
:10582000917C5A4A526810786B460122FCF75BF96A
:1058300010B14FF0FF30EAE7544A1268917D534AA5
:10584000526810786B460622FCF7A7F810B14FF0AB
:10585000FF30DCE79DF80500C007400F9DF80310FE
:1058600001F0010140EA41009DF8011001F0010141
:1058700040EA010494B1012C03D101214348C174D1
:1058800031E0022C03D100214048C1742BE02146B5
:105890003FA0FDF74DFD4FF0FF30B8E73B4A1268DF
:1058A000D1783A4A526810786B460122FCF775F8B5
:1058B00010B14FF0FF30AAE79DF8000000F00F0490
:1058C0002CB93D48FDF734FD4FF0FF309FE7042C25
:1058D00006D13AA0FDF72CFD01212C48C17402E04D
:1058E00000212A48C174FF2128488172FF202749DE
:1058F0000872FF2125484172C1724FF6FF71C181C4
:10590000FF21017481740121017380F822100021AC
:1059100080F8231041750175163001604160816087
:10592000163880F8241080F82510C1844FF4FA60EE
:1059300000F062FC10B14FF0FF3068E7022000F089
:105940002BFB10B14FF0FF3061E72A2000F0CEFCB6
:1059500010B14FF0FF305AE7322000F009FD10B1CE
:105960004FF0FF3053E70020FFF708FE10B14FF073
:10597000FF304CE7002000F051FB10B14FF0FF303A
:1059800045E7002000F042FD002040E778010020BC
:10599000556E737570706F7274656420736F667482
:1059A000776172652070726F6475637420726576BA
:1059B0002025642E0A000000D079000848616C663A
:1059C0002073656E73697469766974792070617289
:1059D0007420666F756E642E0A0000002DE9F04396
:1059E00085B005460E4690469946294890F8250010
:1059F00020B14FF0FF3005B0BDE8F08316B94FF08D
:105A0000FF30F8E7002423E0281B102801DD1020D8
:105A100000E0281B87B232193946204600F05EFDAF
:105A200010B14FF0FF30E6E701AA3946204600F0FA
:105A300001F910B14FF0FF30DDE730193A4601A906
:105A4000FAF7D5FB10B16FF00100D4E7E01984B28A
:105A5000AC42D9DB4FEA28208DF8000008F0FF00A7
:105A60008DF801000A4A1268917E094A526810783E
:105A70006B460222FCF737F810B14FF0FF30BAE75F
:105A80000121034880F82510A0F826900020B2E7F5
:105A90007801002038B50446282C02DD4FF0FF3095
:105AA00038BDDCB9002000F0EBFB00208DF80000D1
:105AB00007208DF801002E4A1268917C2C4A52680A
:105AC00010786B460222FCF70EF810B14FF0FF3051
:105AD000E6E70021264801750020E1E7012000F0FB
