:020000040800F2
:100000007005002045010008EB0500082B040008DE
:10001000E7050008650200086D18000800000000F0
:100020000000000000000000000000009D0A000821
:10003000CD0200080000000051090008890B0008EB
:100040005F0100085F0100085F0100085F01000810
:100050005F0100085F0100085F0100085F01000800
:100060005F0100085F0100085F0100085F010008F0
:100070005F0100085F0100085F0100085F010008E0
:100080005F0100085F0100085F0100085F010008D0
:100090005F0100085F0100085F0100085F010008C0
:1000A0005F0100085F0100085F0100085F010008B0
:1000B0005F0100082D0E00085F0100085F010008C5
:1000C0005F0100085F0100085F0100085F01000890
:1000D0005F0100088D1400085F0100085F0100083F
:1000E0005F0100085F0100085F0100085F01000870
:1000F0005F0100085F0100085F0100085F01000860
:100100005F0100085F0100085F0100085F0100084F
:100110005F0100085F0100085F0100085F0100083F
:100120005F0100085F0100085F0100085F0100082F
:10013000DFF80CD000F02EF800480047191F000827
:10014000700500200648804706480047FEE7FEE7A6
:10015000FEE7FEE7FEE7FEE7FEE7FEE7FEE7FEE777
:100160008D0B00083101000830B50B460146002018
:100170002022012409E021FA02F59D4205D303FA69
:1001800002F5491B04FA02F52844151EA2F10102EA
:10019000F1DC30BD064C074D06E0E06840F001039D
:1001A00094E8070098471034AC42F6D3FFF7C4FF39
:1001B000102700083027000870B58C1810F8015B74
:1001C00015F0070301D110F8013B2A1106D110F8F0
:1001D000012B03E010F8016B01F8016B5B1EF9D1F4
:1001E0002B0705D40023521E0DD401F8013BFAE77A
:1001F00010F8013BCB1A921C03E013F8015B01F8E5
:10020000015B521EF9D5A142D8D3002070BD1CB5A8
:1002100000F097FA40208DF8000000208DF80100D2
:1002200001208DF8020000208DF8030082208DF857
:100230000400684600F0FCFA1CBD000008B501216E
:10024000042000F097FB4FF4F040ADF800000420CC
:100250008DF803006946024800F049F808BD000027
:100260000014014000BFFEE708B50121402000F066
:1002700081FB1C20ADF8000010208DF80300032046
:100280008DF802006946104800F031F80220ADF800
:10029000000028208DF8030069460B4800F027F87D
:1002A00001F0F2FC02F070F802F06EF802F06CF867
:1002B00001F05CFD02F0F8F802F020F901F0D2FE46
:1002C00001F0D6FC08BD000000180140704704464C
:1002D000204601F097FE204602F0A2F801F074FDDE
:1002E000204602F02DF902F0B7F900BFFEE72DE934
:1002F000F0410246002500260020002300240027AC
:1003000091F803C00CF00F0591F803C00CF0100C2D
:10031000BCF1000F03D091F802C04CEA050591F83A
:1003200000C0BCF1000F31D0146800202BE04FF06A
:10033000010C0CFA00F3B1F800C00CEA03069E426F
:1003400020D183004FF00F0C0CFA03F7BC4305FAE1
:1003500003FC4CEA040491F803C0BCF1280F06D159
:100360004FF0010C0CFA00FCC2F814C00AE091F83E
:1003700003C0BCF1480F05D14FF0010C0CFA00FC92
:10038000C2F810C0401C0828D1D31460B1F800C0D6
:10039000BCF1FF0F34DD546800202EE000F1080CA2
:1003A0004FF0010808FA0CF3B1F800C00CEA03069C
:1003B0009E4221D183004FF00F0C0CFA03F7BC438F
:1003C00005FA03FC4CEA040491F803C0BCF1280FC1
:1003D00005D100F1080C08FA0CF8C2F8148091F865
:1003E00003C0BCF1480F07D100F1080C4FF0010821
:1003F00008FA0CF8C2F81080401C0828CED35460CC
:10040000BDE8F0810246002093680B400BB101204B
:1004100000E0002070470146C86880B27047416123
:10042000704701617047C160704700BFFEE770B55B
:1004300002460024002500230020958A138B1B040C
:1004400045EA030626F07F4404EA01068E4201D104
:10045000012000E0002070BD21B1028842F00102BD
:10046000028004E002884FF6FE731A400280704753
:1004700021B1028842F48072028004E002884FF6C3
:10048000FF631A400280704721B1028842F4007273
:10049000028004E002884FF6FF531A400280704742
:1004A0000CB50246002000230193009300920B0F2D
:1004B000019321F07F41019B1BB1009B14330093FA
:1004C00003E0090C009B18330093009B1B680B4052
:1004D0000BB1012000E000200CBD00002DE9F0432D
:1004E00085B004460D460026B1460427DFF8CC80CF
:1004F000A6884FF6C0700640684600F04BFADDF85B
:1005000008802F48B8FBF0F01FFA80F946EA090688
:10051000A68020884FF6FE710840208000262949D9
:10052000286888420CD828684000B8FBF0F087B2F1
:10053000042F00DA04273E4309F10100208427E05C
:10054000E8884BF6FF71884206D1286800EB40002E
:10055000B8FBF0F087B209E0286800EBC00101EBBE
:100560000010B8FBF0F087B247F48047C7F30B00E8
:1005700008B947F0010747F4004006434FF496706E
:1005800009FB00F04FF47A7190FBF1F0401C2084DD
:10059000A683208840F00100208026884FF6F530A1
:1005A0000640A8886989084306432680A8892989C6
:1005B0000843208105B0BDE8F083000000127A00F6
:1005C00040420F00A08601000146088AC0B2704771
:1005D00012B141F0010102E04FF6FE7319400182B1
:1005E00070470182704700BFFEE7704708B50021E1
:1005F0004FF0006000F054F84FF4E06000F046F86F
:1006000025208DF8000000208DF8020001208DF8D3
:100610000300684600F002F808BD000070B5002134
:1006200000230F22C47804B3154C246804F4E0645A
:10063000C4F5E064210AC1F10403CA40447804FA15
:1006400003F184781440214309010E4C0678A1552A
:10065000047804F01F050124AC4005786D11AD004D
:1006600005F1E025C5F8004109E0047804F01F0514
:100670000124AC40044D0678761145F8264070BD43
:100680000CED00E000E400E080E100E002490143FD
:10069000024A1160704700000000FA050CED00E00E
:1006A000024A0A400243024B1A60704780FFFF1F54
:1006B00008ED00E010B5044601210C48FFF7D8FE14
:1006C00000BF0B490948FFF7B2FE0028F9D06006C9
:1006D000010E00220548FFF77BFF00BF05490348D4
:1006E000FFF7A5FE0028F9D010BD0000005400401F
:1006F000010003008200070010B501210148FFF747
:10070000C3FE10BD0054004008B50121082000F0D0
:1007100031F90121480500F01DF9C020ADF80000B5
:1007200003208DF802001C208DF803006946024862
:10073000FFF7DDFD08BD0000000C0140014601206F
:10074000704710B5FFF7E0FF00F002F810BD0000A1
:100750001FB50020ADF804004BF6FF70ADF80600A1
:100760004FF48060ADF80A000001ADF80C000548B8
:10077000009069460448FFF7B1FE01210248FFF7E7
:100780006BFE1FBD400D03000054004070B50646CF
:100790000D46144600BF4FF400311A48FFF780FEA3
:1007A0000028F8D101211748FFF762FE00BF164963
:1007B0001448FFF73CFE0028F9D07006010E012214
:1007C0001048FFF705FF00BF0F49491C0D48FFF710
:1007D0002EFE0028F8D011E01CB901210948FFF7CE
:1007E00053FE09493F310748FFF721FE30B1054864
:1007F000FFF7EAFE28706D1C601EC4B2002CEBD11E
:10080000012070BD005400400100030010B50446F3
:1008100021460548FFF7E5FE00BF04490248FFF7FF
:1008200006FE0028F9D010BD0054004084000700E7
:1008300070B5044600250026FFF783FF2078FFF7F8
:100840007DFF002833D02078FFF734FF0020FFF72A
:10085000DDFF1020FFF7DAFFFFF74EFF2078FFF7EC
:1008600029FFFE20FFF7D2FF2079FFF7CFFFFFF728
:1008700043FF2078FFF71EFF0020FFF7C7FF21206E
:10088000FFF7C4FFFFF738FF60780001A17840EA66
:100890008100E1780843C6B22078FFF70BFF012002
:1008A000FFF7B4FF3046FFF7B1FFFFF725FF2078D1
:1008B00000F02BF8284670BD2DE9F04107460E46A2
:1008C00014461D460F2E1EDCB4F5805F1BDAB5F50D
:1008D000805F18DA3846FFF7EDFE062101EB86014E
:1008E000C8B2FFF793FFE0B2FFF790FFC4F3032015
:1008F000FFF78CFFE8B2FFF789FFC5F30320FFF78E
:1009000085FFFFF7F9FEBDE8F08138B50446002009
:1009100000902046FFF7CEFE0020FFF777FFFFF79D
:10092000EBFE012269462046FFF730FF9DF80000EC
:1009300020F0100000902046FFF7BCFE0020FFF7DB
:1009400065FF9DF80000FFF761FFFFF7D5FE38BD9A
:100950007047000029B1064AD2690243044BDA61AC
:1009600004E0034AD2698243014BDA617047000018
:100970000010024029B1064A92690243044B9A6171
:1009800004E0034A92698243014B9A617047000078
:100990000010024030B500210022002400232D4D1C
:1009A0006D6805F00C0121B1042905D0082923D177
:1009B00005E0294D056022E0274D05601FE0254D2B
:1009C0006D6805F47012234D6D6805F480340225BE
:1009D00005EB92421CB9214D554305600BE01D4DBE
:1009E0006D6805F400351DB11C4D5543056002E0EE
:1009F000194D5543056002E0174D056000BF00BF6B
:100A0000144D6D6805F0F0010909154D6B5C056822
:100A1000DD4045600F4D6D6805F4E061090A104D39
:100A20006B5C4568DD4085600A4D6D6805F460517A
:100A3000C90A0B4D6B5C4568DD40C560054D6D68AE
:100A400005F44041890B074D6B5CC568B5FBF3F5B8
:100A5000056130BD0010024000127A0000093D001F
:100A60004C0100205C010020002008490870084962
:100A70000870012007490870002003E00649085467
:100A8000411CC8B20028F9D1704700002F01002096
:100A900030010020310100202F000020704710B5E8
:100AA00000F002F810BD00000CB50020019000908D
:100AB0003348006840F480303149086000BF304856
:100AC000006800F4003000900198401C01900098EC
:100AD00018B90198B0F5A06FF1D12948006800F469
:100AE000003010B10120009001E00020009000983B
:100AF000012843D12348006840F0100021490860D4
:100B00000846006820F0030008600846006840F0CE
:100B1000020008601A484068194948600846406861
:100B200048600846406840F4806048600846406875
:100B300020F47C1048600846406840F4E8104860A3
:100B40000846006840F08070086000BF0C480068EC
:100B500000F000700028F9D00948406820F0030038
:100B6000074948600846406840F00200486000BFFE
:100B70000348406800F00C000828F9D10CBD0000C3
:100B800000100240002002407047000010B51348DA
:100B9000006840F0010011490860084640681049AB
:100BA00008400E494860084600680E4908400B4955
:100BB00008600846006820F4802008600846406805
:100BC00020F4FE0048604FF41F008860FFF767FFC5
:100BD0004FF000600449086010BD000000100240A2
:100BE0000000FFF8FFFFF6FE08ED00E0F0B50C4650
:100BF000154600220021068C4FF6FE773E40068403
:100C0000028B018C4FF60C7632407E1C06EA0316EE
:100C10002E433243104EB0420ED0104EB0420BD095
:100C2000B0F1804F08D00E4EB04205D00D4EB0420C
:100C300002D00D4EB04206D14FF6FD76314044F061
:100C40000106314305E04FF6F576314044F00106E8
:100C5000314302830184F0BD002C01400034014087
:100C60000004004000080040000C0040F0B50C46B5
:100C70001546002200210026078C4FF6EF7C07EA7C
:100C80000C070784028B018C4FF6FF7707EA0416E6
:100C900040F6FF473A404FF6FF7707EA03373A43FB
:100CA0004FF6FF7707EA05273A43114FB8420ED0B7
:100CB000104FB8420BD0B0F1804F08D00E4FB84261
:100CC00005D00E4FB84202D00D4FB84206D14FF6B4
:100CD000DF77394046F01007394305E04FF65F777C
:100CE000394044F01007394302830184F0BD00000D
:100CF000002C014000340140000400400008004086
:100D0000000C0040F0B50C461546002200210026DC
:100D1000078C4FF6FF6C07EA0C070784828B018C67
:100D20004FF6FF7707EA04264FF60C773A404FF666
:100D3000FF7707EA03172F433A43114FB8420ED00B
:100D4000104FB8420BD0B0F1804F08D00E4FB842D0
:100D500005D00E4FB84202D00D4FB84206D14FF623
:100D6000FF57394046F48077394305E04FF2FF578B
:100D7000394044F48077394382830184F0BD000018
:100D8000002C0140003401400004004000080040F5
:100D9000000C0040F0B50C4615460022002100264C
:100DA000078C4EF6FF7C07EA0C070784828B018CC8
:100DB0004FF6FF7707EA043640F6FF473A404FF612
:100DC000FF7707EA05273A434FF6FF7707EA03372D
:100DD0003A43114FB8420ED0104FB8420BD0B0F189
:100DE000804F08D00E4FB84205D00E4FB84202D007
:100DF0000D4FB84206D14DF6FF77394046F4805783
:100E0000394305E047F6FF57394044F480573943EA
:100E100082830184F0BD0000002C014000340140B9
:100E20000004004000080040000C004010B5042100
:100E30005F4800F070F901282AD104215C4800F0D5
:100E400051F95C48007860B9594800F05AF95A499C
:100E500008600120574908700221554800F0CBF97D
:100E600016E05648006840B1514800F04AF952492E
:100E70000968401A51490968086000204D49087006
:100E800000214B4800F0B7F90021494800F02DF946
:100E90000821474800F03FF901282AD10821444899
:100EA00000F020F94348007860B9414800F02CF97F
:100EB0004149086001203F49087002213C4800F088
:100EC000A7F916E03D48006840B1394800F01CF928
:100ED00039490968401A39490968086000203549CC
:100EE00008700021324800F093F90021304800F0EA
:100EF000FCF810212E4800F00EF901282AD110210B
:100F00002B4800F0EFF82B48007860B9284800F033
:100F1000FEF829490860012026490870022124486A
:100F200000F083F916E02548006840B1204800F041
:100F3000EEF821490968401A204909680860002034
:100F40001C49087000211A4800F06FF90021184868
:100F500000F0CBF80121164800F0DDF8012826D179
:100F60000121134800F0BEF81448006858B1114838
:100F7000007820B9002011490968086003E00120C9
:100F80000E490968086000200A49087000214FF0E6
:100F9000804000F04AF90021054800F046F90021A0
:100FA000074800F042F90021014800F09EF810BD0A
:100FB0000004004020000020240000202800002021
:100FC0000008004000B587B000203C4908703C494B
:100FD00008603C49086001210220FFF7BBFC4FF686
:100FE000FF70ADF814000020ADF81000ADF8160049
:100FF000ADF8120004A9344800F056F9012211217D
:10100000314800F01FF90420ADF804000020ADF8CD
:1010100006000120ADF808000020ADF80A00ADF888
:101020000C0001A9284800F087F80820ADF804005A
:101030000020ADF806000120ADF808000020ADF852
:101040000A00ADF80C0001A91F4800F075F80C204B
:10105000ADF804000020ADF806000120ADF808004E
:101060000020ADF80A00ADF80C0001A9164800F008
:1010700063F84FF4E060FFF709FB1D208DF80000D6
:1010800000208DF8010001208DF802008DF803008A
:101090006846FFF7C3FA01210B4800F023F800214E
:1010A000094800F013F801221D21074800F09AF8C2
:1010B0000021054800F019F807B000BD200000200D
:1010C00024000020280000200004004021B10288F4
:1010D00042F08002028004E002884FF67F731A40DB
:1010E00002807047CA430282704721B1028842F0F1
:1010F0000102028004E002884FF6FE731A4002806B
:1011000070470146088F70470146888F7047014637
:10111000B1F84000704730B502460020002300249B
:10112000158A05EA0103958905EA010413B10CB19A
:10113000012000E0002030BD70B505460C46244873
:1011400085420ED0234885420BD0B5F1804F08D0A0
:101150002148854205D02148854202D02048854259
:1011600000D100E000BF208850B92389A28861889F
:101170002846FFF73BFDE188284600F068F825E0A7
:10118000208804280AD12389A28861882846FFF78D
:101190006DFDE188284600F063F817E020880828F4
:1011A0000AD12389A28861882846FFF7ABFDE18830
:1011B000284600F062F809E02389A2886188284661
:1011C000FFF7E8FDE188284600F060F870BD0000F8
:1011D000002C0140003401400004004000080040A1
:1011E000000C00401AB183890B43838102E083899C
:1011F0008B43838170470A460021018C4FF6DF73D1
:1012000019404FF6FF7303EA021319430184704734
:101210000A460021018C4FF6FF5319404FF6FF7329
:1012200003EA02231943018470470A460021018C16
:101230004DF6FF7319404FF6FF7303EA023319436B
:101240000184704701858282704781847047028BD8
:101250004FF6F3731A400283028B0A4302837047EE
:10126000028B4FF2FF331A400283028B4FF6FF735B
:1012700003EA01231A4302837047828B4FF6F3730C
:101280001A408283828B0A4382837047828B4FF29B
:10129000FF331A408283828B4FF6FF7303EA0123E8
:1012A0001A43828370470000002202881D4B984237
:1012B0000ED01D4B98420BD0B0F1804F08D01B4B85
:1012C000984205D01A4B984202D01A4B984204D14A
:1012D0004FF68F731A404B881A43174B984207D02A
:1012E000164B984204D04FF6FF431A40CB881A435E
:1012F00002808B8883850B8803850A4B98420BD02C
:10130000094B984208D00E4B984205D00D4B98429D
:1013100002D00D4B984201D10B7A038601238382C0
:1013200070470000002C01400034014000040040E0
:1013300000080040000C0040001000400014004075
:101340000040014000440140004801402DE9F041C7
:101350000746002500260DE0384600F055FA044601
:10136000012C00D01CB94FF6FF70BDE8F081254478
:10137000701CC6B20A2EEFDB0A20B5FBF0F0F4E7D2
:1013800008B501212020FFF7F5FA0320ADF8000091
:1013900010208DF8030003208DF8020069460E48E6
:1013A000FEF7A5FF0C20ADF8000069460A48FEF7DD
:1013B0009EFF3020ADF8000069460748FEF797FF12
:1013C000C020ADF8000069460348FEF790FFFEF725
:1013D0001EFF00F0FBFF08BD0014014000B585B002
:1013E00001210520FFF7C6FA01218803FFF7C2FAA1
:1013F0004FF40070ADF8100018208DF81300032092
:101400008DF8120004A91E48FEF771FF4FF48060AA
:10141000ADF8100004208DF8130004A91848FEF759
:1014200066FF04A91648FEF762FF4FF4E130009012
:101430000020ADF80400ADF80600ADF80800ADF8E6
:101440000C000C20ADF80A0069460E4800F016F9B1
:10145000012240F225510B4800F0EAF80121094829
:1014600000F0A3F84021074800F096F8002003E0C0
:1014700005490854411CC8B20028F9D105B000BD87
:1014800000080140003801402F00002010B540F254
:1014900025513C4800F0A2F8002872D03A48007864
:1014A0003A490978884229D1394838490978405C55
:1014B0003649097888420ED136480078401CC0B2BF
:1014C0003449087031490870324800783049314A4F
:1014D0001278885412E02D49087803E02C4908540A
:1014E000411CC8B22A49294A1278895C8142F5DC3C
:1014F000274826490978405C24490870214800F0B3
:1015000029F92349204A127888541F480078401C42
:101510001D49087008460078801E1D49085C0D288A
:101520002FD119480078401E085C0A2829D1164896
:10153000017818480078C01C814205D11248007813
:10154000801E114908701CE00F480078801E104969
:10155000104A127888540C480078801E0D49087093
:10156000084601780A480B4A1278815406480078E8
:10157000401E05490870084600780549024A12785D
:10158000885410BD00380140310100202F01002097
:101590002F0000203001002001F40072B2F5007F1E
:1015A00000D100BFCA430280704721B1828942F452
:1015B0000052828104E082894DF6FF731A408281D5
:1015C000704702460020B1F5007F00D100BF1388AC
:1015D0000B400BB1012000E00020704770B50246BF
:1015E000002400230025002040F66A16B14200D1F5
:1015F00000BFC1F3421501F01F03012606FA03F3F1
:10160000012D02D19689334006E0022D02D1168ABF
:10161000334001E0968A33400C12012606FA04F4A6
:101620001688344013B10CB1012000E0002070BDD9
:10163000F0B50346002400260025002040F66A1776
:10164000B94200D100BF1846C1F3421401F01F0691
:10165000012707FA06F5012C01D10C3004E0022C19
:1016600001D1103000E014301AB107682F43076031
:1016700002E00768AF430760F0BD00002DE9F047C6
:1016800086B005460E460024A24600BFA1460027AC
:10169000B08900B100BF2F462C8A4CF6FF70044081
:1016A000F08804432C82AC894EF6F3100440B088D5
:1016B00031890843718908430443AC81AC8A4FF6F1
:1016C000FF400440B0890443AC8201A8FFF762F9EF
:1016D0001F48874202D1DDF810A001E0DDF80CA020
:1016E000A88900F4004040B10AEBCA0000EB0A10E0
:1016F00031684900B0FBF1F807E00AEBCA0000EBE3
:101700000A1031688900B0FBF1F86420B8FBF0F0F2
:1017100004012009642101FB1089A88900F400401C
:1017200040B1322000EBC900B0FBF1F000F007003F
:10173000044308E0322000EB09106421B0FBF1F013
:1017400000F00F0004432C8106B0BDE8F0870000D4
:101750000038014001468888C0F308007047C1F393
:10176000080282807047000008B501211D20FFF7A4
:1017700001F90320ADF8000028208DF803000320B4
:101780008DF8020069461D48FEF7B1FD01211B4896
:10179000FEF745FE02211948FEF741FE8020ADF814
:1017A000000028208DF8030003208DF80200694610
:1017B0001348FEF79CFD80211148FEF730FE4FF4E0
:1017C0006070ADF8000010208DF8030003208DF844
:1017D000020069460B48FEF78AFD80210948FEF7A2
:1017E0001EFE4FF480710748FEF719FE4FF400719A
:1017F0000448FEF714FEFFF7E5FB08BD000C0140AE
:10180000000801400010014070B50446002500208A
:1018100011490860084611490860A1B21048FEF756
:1018200000FE142000F084FA00210E48FFF70DFDA1
:1018300001210C48FFF759FCA1B20948FEF7EFFD62
:1018400000E06D1C0848854203D203480068002868
:10185000F7D00148006870BD340100202800002046
:101860000010014000040040FFFF080000BFFEE739
:1018700010B53EE023480378234822490978445CA8
:101880001A460146581C085C2B2804D030280FD07B
:101890004F2822D11DE000BF1046511CCAB21A4980
:1018A000085C3A28F8D12146104600F0A9FB14E064
:1018B0001549181D085C4F2802D1012013490870F2
:1018C0001149181D085C4C2802D100200F490870EE
:1018D00003E001200E49087000BF00BF09480470F2
:1018E0001A4603E008488254501CC2B2A242F9D101
:1018F00000BF054803490978405C024909788842DD
:10190000B8D110BD2F0100202F0000202D00002095
:101910002C00002010B5FFF7A7F800202749087019
:1019200012E041F6907226A129A000F06FF8002481
:1019300005E00A2000F0DEF9FFF79AFF641C1F485B
:10194000007808B9642CF4DB1C4800780028E8D043
:10195000FFF78AF80020194908700FE023A000F073
:1019600055F8002405E00A2000F0C4F9FFF780FFD5
:10197000641C1248007808B9322CF4DB0F48007858
:101980000028EBD0FFF770F800200C4908700FE03A
:101990001AA000F03BF8002405E00A2000F0AAF9A4
:1019A000FFF766FF641C0548007808B9322CF4DBA9
:1019B000024800780028EBD010BD00002C00002069
:1019C00031302E31382E3139362E3230320000008F
:1019D00041542B43495053544152543D2254435097
:1019E000222C222573222C25640D0A0041542B43FE
:1019F00049504D4F44453D310D0A000041542B43A1
:101A0000495053454E440D0A000000000FB4054BE9
:101A100010B503A9044A029800F018F810BC5DF84C
:101A200014FB0000391E00086001002002E008C815
:101A3000121F08C1002AFAD170477047002001E048
:101A400001C1121F002AFBD1704700002DE9FF4F92
:101A50008BB09A460F460546002606E025280BD097
:101A600052460D9990476D1C761C28780028F5D1B8
:101A70000FB03046BDE8F08F0024A0460122604937
:101A800000E0044315F8013F203B02FA03F008424E
:101A9000F7D128782E2817D115F8010F44F0040447
:101AA0002A280ED06FF02F022878A0F130010929E2
:101AB0000AD808EB880102EB410100EB01086D1C1C
:101AC000F2E757F8048B6D1C287869283ED006DCB5
:101AD0000028CDD063280BD0642804D136E07328C9
:101AE00010D075284BD052460D999047761C85E052
:101AF00017F8040B8DF8000000208DF80100E9466E
:101B0000012003E057F8049B4FF0FF3061074FF0CE
:101B1000000401D40AE0641C44450DDA8442FADB77
:101B200019F804100029F6D106E0641C8442FCDB9D
:101B300019F804100029F8D1264404E019F8010B23
:101B400052460D999047641EF8D257E001CF4FF0EE
:101B50000A0B002802DA40422D2102E0210504D5BB
:101B60002B218DF82410012103E0E10705D020216D
:101B7000F7E70DF1200908910CE00021F9E701CF0A
:101B80004FF00A0BF9E75946FEF7EEFA01F1300281
:101B900009F8012D0028F6D1ADEB090000F1200B6A
:101BA000600701D44FF00108D84502DDA8EB0B0017
:101BB00000E000208046002406E009A85246005DAF
:101BC0000D999047641C761C08988442F5DB04E06C
:101BD000302052460D999047761CB8F10001A8F1CB
:101BE0000108F5DC05E019F8010B52460D99904704
:101BF000761CBBF10001ABF1010BF4DC6D1C34E78A
:101C00000928010010B50446201F0C282BD2DFE85C
:101C100000F006120C182A2A2A2A2A1E2A2419221F
:101C20001146002000F020FB20E01922114601207F
:101C300000F01AFB1AE019221146032000F014FBF1
:101C400014E019221146022000F00EFB0EE00822DB
:101C50001921032000F008FB08E0192208210220C6
:101C600000F002FB02E000F0B1FB00BF00BF10BDBE
:101C7000002004E00021034A1154411CC8B2092885
:101C8000F8DB70476401002008B501214020FEF711
:101C900071FE2020ADF8000010208DF80300032015
:101CA0008DF8020069460248FEF721FB08BD0000DE
:101CB000001801404FF0E021096921F004014FF0C4
:101CC000E0221161C21700EB5272C2F3C702074B48
:101CD0001A701946097801EB4102C2EBC1114FF6A7
:101CE000FF7202EAC101024A118070470000002021
:101CF0000200002001460D4A12884A434FF0E023BB
:101D00005A6100229A6101221A6100BF4FF0E0225D
:101D1000106900F001021AB100F48032002AF5D0F7
:101D200000224FF0E0231A619A6170470200002000
:101D300001460D4A12784A434FF0E0235A610022CF
:101D40009A6101221A6100BF4FF0E022106900F091
:101D500001021AB100F48032002AF5D000224FF0BF
:101D6000E0231A619A6170470000002010B5082135
:101D70001448FEF754FB1020FFF7DAFF012000F0B3
:101D8000FBF9432000F0F8F9002000F0F5F90120FC
:101D900000F0F2F9002000F0EFF9002000F0ECF97B
:101DA000002000F0E9F9002000F0E6F9002000F042
:101DB000E3F908210348FEF734FB1020FFF7B8FFD2
:101DC00010BD00000018014010B50F221146002080
:101DD00000F04AFA4FF4FA70FFF78CFF00BF0A22B6
:101DE0001146002000F040FA5520FFF783FF00F075
:101DF000EDFA09480068FFF7A9FA084908600846A3
:101E0000016807A0FFF702FE0448006840F6B831F9
:101E10008842E4D810BD0000480100203C010020A9
:101E2000466F72776172642049203A206E6F772086
:101E30003D2025750D0A000070B504460D46E1B23F
:101E40000548FFF78CFC00BF40210348FFF7B9FBB2
:101E50000128F9D1204670BD0038014010B5FFF7C8
:101E600007FF00F02DF90D48C0780C49097940EAC8
:101E700001200B49088000240BE00A48015D012085
:101E8000884007490988084008B9204610BD601CF1
:101E9000C4B2102CF1DB0020F8E700006401002040
:101EA0000A0000200E00002010B5FFF7D7FF082819
:101EB00002D10120024908700148007810BD0000DD
:101EC0000800002010B5FFF7C9FF0A280ED1002432
:101ED00005E000BFFFF7C2FF0A28FBD0641C322CCC
:101EE000F7DB0B480068401C094908600848007887
:101EF00000F0010028B120210648FEF792FA0120E7
:101F000010BD20210348FEF78AFA0020F8E7000000
:101F100004000020001801404820FFF7CBFEFEF728
:101F2000A3F9FFF72DFAFEF772F9FEF787F9FFF72D
:101F300055FAFEF75BFB6420FFF7DCFEFFF7EAFCD7
:101F40006420FFF7D7FE20A0FFF760FDFFF70CFC31
:101F500000F06EF837E0FFF7B5FF00282DD1FFF74E
:101F60007DFF0546FFF74EFEFFF778FF0446032C82
:101F700008D18020FFF748FC0546294616A0FFF748
:101F800045FD15E0082C08D16001FFF73DFC054632
:101F9000294614A0FFF73AFD0AE0092C08D14FF4B6
:101FA0000070FFF731FC0546294611A0FFF72EFD12
:101FB000FFF77AFF1149087005E0FFF783FF10B1C2
:101FC0000120FEF784F9C6E70A697320636F6E6E1D
:101FD0006563746564210A0037203A2025750D0A6F
:101FE0000000000038203A2025750D0A000000008E
:101FF00039203A2025750D0A000000001E0000203F
:102000007047000038B14FF48071074A11604900F1
:10201000064A116006E04FF40071034A116049104E
:10202000024A116070470000400100204801002072
:1020300010B57323002211464020FEF73DFC4FF4FB
:102040007A70FFF757FE4FF4EB7300220121402016
:10205000FEF732FC40F2F913002202214020FEF785
:102060002BFC10BD10B508211448FEF7D8F910203C
:10207000FFF75EFE012000F07FF8432000F07CF8BF
:10208000002000F079F8002000F076F85A2000F0E7
:1020900073F85A2000F070F85A2000F06DF85A20BA
:1020A00000F06AF85A2000F067F808210348FEF7AC
:1020B000B8F91020FFF73CFE10BD000000180140E9
:1020C0001CB5012001900020009008212748FEF750
:1020D000A6F92749087800F04FF82549487800F01C
:1020E0004BF80220009037E00120019028E01021F9
:1020F0001E48FEF796F90220FFF71AFE10211B4832
:10210000FEF78DF90220FFF713FE10211748FEF7A6
:1021100088F902211548FEF775F950B115489DF868
:102120000010405CBDF80410084312499DF80020DF
:102130008854BDF804004FF6FF7101EA4000019099
:10214000BDF80400FF28D2DD1020FFF7F1FD9DF857
:102150000000401CC0B200909DF800000928C3DBBD
:1021600008210248FEF75DF91CBD0000001801407F
:102170000C0000206401002038B5044601200090C6
:1021800000201F4948700120009031E0BDF8000098
:10219000204020B104211B48FEF743F903E004214D
:1021A0001848FEF73CF910211648FEF73AF90220CC
:1021B000FFF7BEFD10211348FEF731F90220FFF7AB
:1021C000B7FD10210F48FEF72CF902210D48FEF74C
:1021D00019F930B10A484078BDF8001008430849A1
:1021E0004870BDF800004FF6FF7101EA4000009012
:1021F000BDF80000FF28C9DD1020FFF799FD38BDAC
:10220000640100200018014010B50A48FEF703F9E8
:102210004FF6AA7100EA010421460648FEF703F9C9
:102220000448FEF7F8F840F0AA0421460148FEF7FA
:10223000FAF810BD0014014010B50A48FEF7EBF89B
:102240004FF6557100EA010421460648FEF7EBF807
:102250000448FEF7E0F840F0550421460148FEF737
:10226000E2F810BD001401402DE9F04106460C468D
:102270001546412C01DA204600E041200446412D5C
:1022800001DA284600E041200546642C35DC642D47
:1022900033DCC4EB0430642190FBF1F087B23B46A1
:1022A000002204214020FEF707FB04F12300C0EBCD
:1022B0000030642190FBF1F087B23B4600220521FB
:1022C0004020FEF7F9FAC5EB0530642190FBF1F0F0
:1022D00087B23B46002206214020FEF7EDFA05F1C9
:1022E0002300C0EB0030642190FBF1F087B23B4645
:1022F000002207214020FEF7DFFA36B1012E07D079
:10230000022E08D0032E0CD108E0FFF795FF08E05D
:10231000FFF77AFF05E000F007F802E000F01CF894
:1023200000BF00BFBDE8F08110B50A48FEF773F8A2
:102330004FF65A7100EA010421460648FEF773F889
:102340000448FEF768F840F05A0421460148FEF7B9
:102350006AF810BD0014014010B50A48FEF75BF89A
:102360004FF6A57100EA010421460648FEF75BF826
:102370000448FEF750F840F0A50421460148FEF756
:1023800052F810BD0014014010B508210E48FEF7A8
:1023900046F81020FFF7CCFC0120FFF7EDFE4220AD
:1023A000FFF7EAFE0020FFF7E7FE0020FFF7E4FE5C
:1023B0000020FFF7E1FE08210348FEF732F8102065
:1023C000FFF7B6FC10BD00000018014010B513481F
:1023D000FEF721F800F47F4421461048FEF723F869
:1023E000002340F6FF7204214020FEF765FA002327
:1023F00040F6FF7205214020FEF75EFA002340F60A
:10240000FF7206214020FEF757FA002340F6FF72C4
:1024100007214020FEF750FA10BD000000140140D3
:1024200010B5044600BF2CB1142211460220FFF75C
:102430001BFF04E0142211460320FFF715FF642060
:10244000FFF758FC10480068FEF780FF0F4908604E
:10245000084601680EA0FFF7D9FA0C48006843F659
:1024600098218842DFD32CB1142211460320FFF7B4
:10247000FBFE04E0142211460220FFF7F5FE642063
:10248000FFF738FC10BD0000440100203C01002093
:102490005475726E20696E6E6572203A206E6F7789
:1024A000203D2025750D0A0010B508211248FDF7C2
:1024B000B6FF0120FFF760FE4420FFF75DFE00201D
:1024C000FFF75AFE0120FFF757FEEE20FFF754FEFC
:1024D0000020FFF751FE0020FFF74EFE0020FFF71F
:1024E0004BFE0020FFF748FE08210348FDF799FF47
:1024F0001020FFF71DFC10BD0018014010B5082189
:102500000E48FDF78CFF1020FFF712FC0120FFF7AB
:1025100033FE4D20FFF730FE0020FFF72DFE002098
:10252000FFF72AFE0120FFF727FE08210348FDF7E9
:1025300078FF1020FFF7FCFB10BD000000180140E1
:1025400010B504462CB1122211460320FFF78CFE71
:1025500004E0122211460220FFF786FE4FF4487075
:10256000FFF7C8FB2B480068FEF7F0FE2A49086019
:1025700000BF2CB1122211460320FFF775FE04E0C4
:10258000122211460220FFF76FFE5520FFF7B2FB23
:1025900020480068FEF7DAFE204908600846016816
:1025A0001FA0FFF733FA1C48016823A0FFF72EFA9B
:1025B000194801681948006800F57A70814207D807
:1025C000154801681548006800F57A70814203D209
:1025D0001248006810490860104800684FF6FA7108
:1025E000884200D905E00C4800680C490968884217
:1025F000BFD000BF2CB1122211460320FFF734FEDA
:1026000004E0122211460220FFF72EFE5F20FFF7A2
:1026100071FB10BD40010020380100203C0100206A
:102620005475726E204F75746572203A206E6F7704
:10263000203D2025750D0A005475726E204F75746B
:102640006572203A206C6173745F74696D65203D1A
:102650002025750D0A00000010B528221146002023
:10266000FFF702FE4FF46170FFF744FB0A221146A8
:102670000020FFF7F9FD4FF49670FFF73BFBFFF7E3
:10268000A5FE21480068FEF761FE20490860084663
:10269000006841F20401884217D900BF04221146A4
:1026A0000020FFF7E1FD4B20FFF724FBFFF78EFE34
:1026B00015480068FEF74AFE14490860084600689D
:1026C00041F204018842E9D81CE01048006841F258
:1026D0000401884216D200BF042211460120FFF7F0
:1026E000C3FD4B20FFF706FBFFF770FE06480068AE
:1026F000FEF72CFE054908600846006841F2040117
:102700008842E9D310BD0000440100203C010020B4
:10271000302700080000002064010000B801000814
:1027200060270008640100200C0400003C1A000827
:10273000C113014200101101020304050607080934
:102740000A0B0C0D0E0F02FF3021021201AA801F8E
:102750002C020304044009060708090204060800C5
:0400000508000131BD
:00000001FF
