:020000040800F2
:10000000F805002045010008171C00087F140008AF
:10001000131C0008610E00084D32000800000000AB
:100020000000000000000000000000004521000862
:10003000BD100008000000007D1F000839250008E1
:100040005F0100085F0100085F0100085F01000810
:100050005F0100085F0100085F0100085F01000800
:100060005F0100085F0100085F0100085F010008F0
:100070005F0100085F0100085F0100085F010008E0
:100080005F0100085F0100085F0100085F010008D0
:100090005F0100085F0100085F0100085F010008C0
:1000A0005F0100085F0100085F0100085F010008B0
:1000B0005F010008DD2700085F0100085F010008FC
:1000C0005F0100085F0100085F0100085F01000890
:1000D0005F010008152F00085F0100085F0100089C
:1000E0005F0100085F0100085F0100085F01000870
:1000F0005F0100085F0100085F0100085F01000860
:100100005F0100085F0100085F0100085F0100084F
:100110005F0100085F0100085F0100085F0100083F
:100120005F0100085F0100085F0100085F0100082F
:10013000DFF80CD000F034FC00480047B557000849
:10014000F80500200648804706480047FEE7FEE71E
:10015000FEE7FEE7FEE7FEE7FEE7FEE7FEE7FEE777
:100160003D250008310100082DE9F0410024061B5F
:10017000254671F1000605DA01240027D0EB0700BF
:1001800067EB0101161E73F1000605DA0027D2EBBA
:100190000702012567EB030300F004FB86460E46C9
:1001A00017469C46AC4204D00025D0EB050E65EB0B
:1001B000010624B10020D2EB000760EB030C70466F
:1001C00031463A466346BDE8F081D2B201E000F81C
:1001D000012B491EFBD270470022F6E710B51346EB
:1001E0000A4604461946FFF7F0FF204610BD30B519
:1001F00004460020034600E05B1C934203D2E05C0F
:10020000CD5C401BF8D030BDF0B480EA0102D40FC1
:100210004200B2EB410F02D20246084611464A00A4
:1002200042D0C30DDDB2C1F3C752AD1A202D35DA6D
:10023000C1F3160141F4000204B15242C5F1200697
:1002400002FA06F12A411044B3EBD05F23D0C4B1C7
:10025000012DA0EBC35009DCF0BC4FF0004202EAD4
:10026000C352DBB200F5000000F0F7BA400000F125
:10027000807000EBC350A0F1807040EAD17049005B
:1002800009E0490841EAC071A0EBC35000F5000045
:10029000400800EBC350F0BC00F0D6BA6142012226
:1002A00002EB4101001BF6E7F0BC704781F0004112
:1002B000AAE780F00040A7E780EA010210B502F04B
:1002C0000043400022D04A001FD0010E01EB126112
:1002D000C0F35600C2F3560240F4000042F400029C
:1002E000A0FB022000047F39140400D0401C50EA17
:1002F000124001D44000491EC2B20C0604EBD010DB
:10030000401C4008802A02D003E0002010BD20F0ED
:100310000100002900DA0020184310BD30B480EA43
:10032000010202F0004530F0004221F0004013D0FD
:1003300090B1C30DD40DC2F31601C0F31600E41A38
:1003400041F4000140F400027D34914201D3641C69
:1003500000E04900002C02DA30BC002070474FF466
:1003600000000023914201D3891A034340084FEA59
:100370004101F7D151B1914202D14FF0004105E066
:1003800002D24FF0010101E06FF0010103EBC45014
:10039000284430BC00F058BA2DE9FE4F804681EA6F
:1003A0000300C00F0C46009021F0004123F00045EF
:1003B000B8EB0200A94105D24046214690461C46B2
:1003C0000B46024623F00040104347D0270DC7F3E9
:1003D0000A00C3F30A510290401A019040286BDAD8
:1003E000C3F3130040F4801B0098924620B1002311
:1003F000D2EB030A63EB0B0B01985946C0F14002A4
:10040000504600F000FA06460D4650465946019AFD
:1004100000F008FA10EB08006141002487EA11524D
:1004200084EAE7731A4340D0009A62B3019A012A22
:100430004FEA075215DC001B61EB02014FF000424E
:1004400002EA0752CDE90042001C41F58011324614
:100450002B4600F03FFA03B0BDE8F08F404621463E
:10046000F9E7001B61EB0201001C41F58013001845
:100470005B412018A2F5001747EB030140EAD57055
:10048000B6196D4111E06D084FEA360645EAC075B0
:100490004FEA0752001B61EB0201001C41F580117D
:1004A00049084FEA30000019514132462B4603B04B
:1004B000BDE8F04F00F0FFB9009801224000002392
:1004C000D0EB020263EBE073009821464FEAE07440
:1004D000B8EB000061EB0401E9E783F000435BE760
:1004E00081F0004158E72DE9FE4F81EA030404F052
:1004F000004421F0004100944FF0000B23F0004332
:1005000050EA01045ED052EA03045BD0C3F30A54FC
:10051000C1F30A552C44A4F2F3340194A0FB025415
:10052000C1F3130141F48011C3F3130343F48013A7
:1005300001FB024400FB034E840A970A44EA8154FB
:1005400047EA8357A4FB076802958D0A05FB0785D8
:100550004FEA932C04FB0C542705029D4FEA0658E2
:1005600047EA1637B5EB08056EEB070C870E920EBF
:1005700047EA811742EA8312A7FB0201B6EB0B019F
:1005800064EB00042B0D43EA0C335E1844EB1C5063
:10059000DA465146E7FB0201C5F313044FEA0B3379
:1005A00043EA14534FEA0432019C43EA0603A4F1E0
:1005B0000C040294009CCDE900B400F08BF903B068
:1005C000BDE8F08F00200146F9E72DE9F04D81EA02
:1005D000030404F0004B21F0004514464FF0000ADC
:1005E00023F0004150EA050220D054EA01021DD058
:1005F000C5F30A570246C5F31303C1F31300C1F351
:100600000A5640F4801543F48013A7EB0608101B2C
:10061000D64608F2FD3873EB050002D308F1010855
:1006200001E092185B41B8F1000F03DA00200146A7
:10063000BDE8F08D00204FF48011064684460EE0A0
:10064000171B73EB050705D3121B63EB050306436A
:100650004CEA010C49084FEA300092185B4150EA1D
:100660000107EDD152EA030012D082EA040083EAC6
:100670000501084305D0101BAB4106D2012200231F
:1006800006E000224FF0004302E06FF00102531039
:100690001AEB06004CEB085110EB0A0041EB0B0182
:1006A000BDE8F04D00F007B9C10F80EAE0700844E2
:1006B000CA079623002100F0D0B8962300221146E5
:1006C00000F0CBB800F0004220F00040C10DC0F3B4
:1006D000160040F400007F2901DA002070479629B7
:1006E00003DCC1F19601C84001E096398840002A38
:1006F000F4D04042704720F00040C10DC0F3160016
:1007000040F400007F2901DA00207047962903DCBD
:10071000C1F19601C840704796398840704700F093
:10072000004230F000400AD0C10D01F56071C0F305
:10073000160042EA0151C2084007114370470020E9
:100740000146704701F0004330B421F0004150EA07
:10075000010206D00A0DA2F56072C1F31301002A4E
:1007600002DC30BC00207047440F44EAC104C100E1
:10077000E01830BC00EBC25000F066B8002801DB86
:10078000C0F10040002901DBC1F100418142704706
:10079000002801DBC0F10040002901DBC1F100416C
:1007A000884270472DE9F05F0546002092469B463F
:1007B00088460646814640241BE028464146474677
:1007C000224600F0FFF853465A46C01A914110D312
:1007D00011461846224600F016F82D1A67EB01085C
:1007E0004F4622460120002100F00DF817EB0009CA
:1007F0004E41201EA4F10104DFDC484631462A4662
:100800004346BDE8F09F202A04DB203A00FA02F1BB
:10081000002070479140C2F1200320FA03F31943EE
:1008200090407047202A06DBCB17203A41FA02F0AD
:1008300043EAE07306E041FA02F3D040C2F120023D
:1008400091400843194670470029A8BF7047401CD3
:10085000490008BF20F00100704710B4B0FA80FCD6
:1008600000FA0CF050EA010404BF10BC704749B113
:10087000CCF1200421FA04F411FA0CF118BF012183
:1008800021430843A3EB0C01CB1D4FEA00614FEA63
:10089000102042BF002010BC704700EBC350104432
:1008A0000029A4BF10BC7047401C490008BF20F0BD
:1008B000010010BC704710B5141E73F1000408DA73
:1008C000401C41F1000192185B411A4301D120F014
:1008D000010010BD2DE9F04D92469B4611B1B1FAD1
:1008E00081F202E0B0FA80F220329046FFF78BFFEF
:1008F00004460F4640EA0A0041EA0B0153465A46B5
:10090000084313D0114653EA010019D0C8F1400240
:10091000504600F057F805460E46504659464246A6
:10092000FFF771FF084305D0012004E02046394657
:10093000BDE8F08D0020054346EAE0762C433743BE
:100940000A986305E40AA0EB08000022FD0A44EAC5
:1009500047540A3002D500200146E9E70105101985
:100960006941DDE9084500196941BDE8F04DA2E79C
:1009700070B521F0004303430CD0C1F30A550024A5
:10098000D5EB040564EB0403D617AD1AB34102DBC3
:100990000020014670BD201841EB025170BD0000DF
:1009A000064C074D06E0E06840F0010394E80700BC
:1009B00098471034AC42F6D3FFF7BEFB887F00089F
:1009C000A87F0008202A04DB203A21FA02F0002147
:1009D000704721FA02F3D040C2F12002914008434F
:1009E0001946704770B58C1810F8015B15F00703B5
:1009F00001D110F8013B2A1106D110F8012B03E0B8
:100A000010F8016B01F8016B5B1EF9D12B0705D4BF
:100A10000023521E0DD401F8013BFAE710F8013B08
:100A2000CB1A921C03E013F8015B01F8015B521E24
:100A3000F9D5A142D8D3002070BD21B1826842F01F
:100A40000102826003E0826822F001028260704746
:100A500000B591B00121142001F0E0FA7E20ADF83C
:100A6000400000208DF8430010A9574800F020FCFA
:100A70003F20ADF8400010A9544800F019FC0320B5
:100A8000ADF8400010A9524800F012FC01214802C4
:100A900001F0C4FA4FF4004001F094FA00200B90EA
:100AA00001208DF830008DF831004FF460200D905A
:100AB00000200E900A208DF83C000BA9454800F05C
:100AC000AFF8072301221146424800F01FF907231F
:100AD000022211463F4800F019F90723032211466C
:100AE0003C4800F013F9072304221146394800F06E
:100AF0000DF9072305220A21364800F007F90723DC
:100B000006220B21334800F001F907231A460C2175
:100B1000304800F0FBF8072308220D212D4800F093
:100B2000F5F80723092208212A4800F0EFF80723E7
:100B30000A220921274800F0E9F80121254800F0A0
:100B40004FF801212348FFF778FF224800F03AF9D7
:100B500000BF204800F059F80028FAD11D4800F0E5
:100B600036F900BF1B4800F046F80028FAD10121F1
:100B7000084601F033FA184800F0DCF915484C300B
:100B8000009016480190002002900A200390002057
:100B9000049080200590400006908000079020205F
:100BA00008900002099000200A9069460A4800F067
:100BB00067FA0121084800F0B1F901210548FFF763
:100BC0003CFF11B000BD00000008014000100140D2
:100BD000000C01400024014008000240CE0100202A
:100BE00021B1826842F48072826003E0826822F45C
:100BF000807282607047014600208A6802F0040219
:100C00000AB1012000E000207047014600208A68F8
:100C100002F008020AB1012000E000207047000045
:100C200030B502460020002350680F4C20400D795B
:100C30000C6844EA05242043506090680B4C204027
:100C4000D1E902542C434D7944EA45042043906095
:100C5000D06A20F470000C7C641EE4B2234340EAA6
:100C60000350D06230BD0000FFFEF0FFFDF7F1FF42
:100C700008B50D48C08800900B48838842880188D9
:100C80000AA002F0B3FB0848C08900900648838997
:100C9000428901890EA002F0A9FB0348428A018A19
:100CA00014A002F0A3FB08BDCE01002076616C7594
:100CB000653A2066726F6E74202534642C202534CA
:100CC000642C202534642C202534640A00000000A4
:100CD000202020202020206261636B2020253464A6
:100CE0002C202534642C202534642C202534640ADF
:100CF0000000000020202020202020636F6C6F72F5
:100D0000202534642C202534640A0000F0B5044604
:100D10000D4600200021092D11DDE068A5F10A062D
:100D200006EB4607072606FA07F18843A5F10A06EF
:100D300006EB460603FA06F10843E0600CE0206982
:100D400005EB4507072606FA07F1884305EB45063C
:100D500003FA06F108432061072A0FDA606B561E7A
:100D600006EB86071F2606FA07F18843561E06EB98
:100D7000860605FA06F10843606322E00D2A0FDAC1
:100D8000206BD61F06EB86071F2606FA07F188435D
:100D9000D61F06EB860605FA06F10843206310E02D
:100DA000E06AA2F10D0606EB86071F2606FA07F198
:100DB0008843A2F10D0606EB860605FA06F1084304
:100DC000E062F0BD816841F0080181607047816890
:100DD00041F00401816070471CB500F0C8FF40205D
:100DE0008DF8000000208DF8010001208DF8020030
:100DF00000208DF8030082208DF80400684601F081
:100E00002DF81CBD10B50B48007830B901F0B8F8CA
:100E10000120084908700849087001E001F094F9C0
:100E2000054800780028F9D104A002F0DFFA08484C
:100E3000006810BD680000206900002070617274B5
:100E40002074776F20697320656E6465640A000002
:100E50006000002010B501F02DFF00F003F810BD78
:100E600000BFFEE708B50121042001F0D7F84FF4D8
:100E70000050ADF8000010208DF8030003208DF81D
:100E800002006946014800F013FA08BD0010014055
:100E900010B54FF40051024800F0EBFA10BD00000D
:100EA0000010014010B54FF40051024800F0E3FA81
:100EB00010BD00000010014008B50121402001F0E4
:100EC000ADF81C20ADF8000010208DF803000320C1
:100ED0008DF802006946104800F0EAF90220ADF8EA
:100EE000000028208DF8030069460B4800F0E0F967
:100EF00003F034F805F04EFF05F04CFF05F04AFF13
:100F000003F026FE06F016F806F03EF805F06CFD3C
:100F100003F00EF808BD00000018014021B102687E
:100F200042F00102026004E002684FF6FE731A40CC
:100F30000260704701684FF6FE72114001600021A7
:100F4000016041608160C1604B49884208D14A49D3
:100F50000839496841F00F01474A083A51608AE070
:100F600045491431884208D143490839496841F05C
:100F7000F001414A083A51607DE03F4928318842FA
:100F800008D13D490839496841F470613A4A083A44
:100F9000516070E038493C31884208D136490839FF
:100FA000496841F47041344A083A516063E032497B
:100FB0005031884208D130490839496841F47021DC
:100FC0002D4A083A516056E02B496431884208D1D5
:100FD00029490839496841F47001274A083A5160A3
:100FE00049E025497831884208D1234908394968C0
:100FF00041F07061204A083A51603CE01F49884244
:1010000006D1011F096841F00F01021F116032E093
:101010001A491431884208D11849091F096841F05A
:10102000F001164A121F116025E014492831884248
:1010300008D11249091F096841F470610F4A121F53
:10104000116018E00D493C31884208D10B49091F55
:10105000096841F47041094A121F11600BE0074909
:101060005031884207D10549091F096841F47021B0
:10107000024A121F11607047080002400804024033
:1010800010B50022026847F6F0739A430C6A8B6829
:1010900023430C6923434C6923438C692343CC6964
:1010A00023434C6A23438C6A23431A430260CB6870
:1010B00043600B6883604B68C36010BD70470000DD
:1010C0002DE9F04107460C4664A002F08FF905F0C7
:1010D00083FE322002F0AAFFC4F103005A22114617
:1010E00005F084FDF4B1012C39D1614961480068F3
:1010F000FFF78AF806466049FFF7D8F85F490860AD
:1011000000BF5F4803F07CFE0028FAD102E05C4893
:1011100003F076FE5948016859480068FFF72EFB36
:10112000F5D31CE0524953480068FFF7BFF8064664
:101130005149FFF769F85149086000BF504803F072
:101140005FFE0028FAD102E04D4803F059FE4B48FB
:1011500001684B480068FFF71BFBF5D300BF00BFD9
:1011600014221146012005F041FD4FF4167002F0E3
:101170005DFF10221146012005F038FDC82002F065
:1011800055FF14221146002005F030FDC82002F062
:101190004DFF00254FF4FA7001F00CFD04E001F062
:1011A0001DFD08B9012503E003F086FD0028F6D0F7
:1011B00000BF01F0F1FCA01C5A22114605F016FDFB
:1011C000D4B1012C31D12F492A480068FFF71CF80F
:1011D0002A49086000BF2A4803F012FE0028FAD10D
:1011E00002E0274803F00CFE244801682448006808
:1011F000FFF7CEFAF5D318E022491E480068FFF742
:1012000055F81E49086000BF1D4803F0F9FD00288D
:10121000FAD102E01A4803F0F3FD184801681848B3
:101220000068FFF7ABFAF5D300BF00BF05F0D4FDAF
:1012300000201549087015A002F0D8F802201849BE
:10124000087018490870002017490870174908707D
:10125000322002F0EBFEBDE8F08100003A6C6967D5
:101260006874206973207365656B65640A0000000B
:101270000000B44260000020000020416400002013
:101280005C0000200000E0406A0000206C69676894
:10129000742069732066696E6465640A000000004A
:1012A0006E0000206D000020700000206F00002004
:1012B0002DE9F041024600250026002000230024ED
:1012C000002791F803C00CF00F0591F803C00CF053
:1012D000100CBCF1000F03D091F802C04CEA0505D8
:1012E00091F800C0BCF1000F31D0146800202BE051
:1012F0004FF0010C0CFA00F3B1F800C00CEA030641
:101300009E4220D183004FF00F0C0CFA03F7BC4330
:1013100005FA03FC4CEA040491F803C0BCF1280F61
:1013200006D14FF0010C0CFA00FCC2F814C00AE020
:1013300091F803C0BCF1480F05D14FF0010C0CFA35
:1013400000FCC2F810C0401C0828D1D31460B1F8CA
:1013500000C0BCF1FF0F34DD546800202EE000F126
:10136000080C4FF0010808FA0CF3B1F800C00CEAC1
:1013700003069E4221D183004FF00F0C0CFA03F7B5
:10138000BC4305FA03FC4CEA040491F803C0BCF129
:10139000280F05D100F1080C08FA0CF8C2F81480E7
:1013A00091F803C0BCF1480F07D100F1080C4FF0D1
:1013B000010808FA0CF8C2F81080401C0828CED3A7
:1013C0005460BDE8F0810000F0B50A460023002417
:1013D0000021002500F00046B6F1004F02D11D4E5D
:1013E000F16901E01B4E7168C0F3034583B200F45C
:1013F0004016B6F5401F08D121F07061154E766891
:1014000026F07066134F7E6012E000F48016B6F589
:10141000801F06D1032606FA05F4A14341F070614E
:1014200006E0460D360103FA06F6B14341F070615D
:1014300022B1460D360103FA06F6314300F00046AC
:10144000B6F1004F02D1034EF16101E0014E71602F
:10145000F0BD0000000001400246002093680B40F0
:101460000BB1012000E0002070470146C86880B23F
:1014700070474161704701617047C160704700BFAC
:10148000FEE770B502460024002500230020958A5F
:10149000138B1B0445EA030626F07F4404EA010689
:1014A0008E4201D1012000E0002070BD21B10288F0
:1014B00042F00102028004E002884FF6FE731A40F7
:1014C0000280704721B1028842F48072028004E0F9
:1014D00002884FF6FF631A400280704721B10288EC
:1014E00042F40072028004E002884FF6FF531A4073
:1014F000028070470CB50246002000230193009340
:1015000000920B0F019321F07F41019B1BB1009BC7
:101510001433009303E0090C009B18330093009BE5
:101520001B680B400BB1012000E000200CBD000047
:101530002DE9F04385B004460D460026B146042748
:10154000DFF8CC80A6884FF6C0700640684600F0F1
:1015500075FDDDF808802F48B8FBF0F01FFA80F920
:1015600046EA0906A68020884FF6FE7108402080D2
:1015700000262949286888420CD828684000B8FB12
:10158000F0F087B2042F00DA04273E4309F101008E
:10159000208427E0E8884BF6FF71884206D128684E
:1015A00000EB4000B8FBF0F087B209E0286800EBE0
:1015B000C00101EB0010B8FBF0F087B247F48047A0
:1015C000C7F30B0008B947F0010747F40040064392
:1015D0004FF4967009FB00F04FF47A7190FBF1F034
:1015E000401C2084A683208840F0010020802688AB
:1015F0004FF6F5300640A8886989084306432680DF
:10160000A88929890843208105B0BDE8F08300003E
:1016100000127A0040420F00A08601000146088AAD
:10162000C0B2704712B141F0010102E04FF6FE7303
:10163000194001827047018270470000002000219C
:10164000002208E0214B33F81230B3F57A7F01DD38
:10165000431CD8B2521C042AF4DB042208E01B4BC2
:1016600033F81230B3F57A7F01DD4B1CD9B2521C2E
:10167000082AF4DB00FB01F2002A1ADD134A128863
:1016800040F6B8339A4203DC104AD2889A4202DD0F
:1016900000220F4B1A700D4A128940F6B8339A4255
:1016A00003DC0A4AD2899A420EDD0122084B1A70E5
:1016B0000AE0002803DD0022054B1A7004E000292F
:1016C00002DD0122024B1A7070470000CE0100209B
:1016D0006D00002010B500200E4908600E4800681B
:1016E00020F470400C4908600846006840F44050FF
:1016F000086000200949C1F8AC0100F011F8012090
:101700000449086000F00CF800200449C1F8A80161
:1017100010BD0000A8812142040C0140008021423C
:1017200010B5022002F0A0FC10BD000008B5012198
:10173000082000F073FC4FF44060ADF8000010206A
:101740008DF8030003208DF8020069460448FFF776
:10175000AFFD4FF440610248FFF78DFE08BD000069
:10176000000C014010B500200E4908600E480068CA
:1017700020F470400C4908600846006840F440506E
:10178000086001200949C1F8AC01FFF7C9FF012039
:1017900004490860FFF7C4FF00200449C1F8A8010C
:1017A00010BD0000A8812142040C014000802142AC
:1017B00070B5054600241648006820F470401449AE
:1017C00008600846006840F400400860002614E005
:1017D000002010490860FFF7A3FF01200E49C1F85F
:1017E000A8016006040E0B487C38006808B1601C34
:1017F000C4B2FFF795FF701CC6B2082EE8DB15B91E
:10180000FFF7B0FF01E0FFF765FF204670BD000065
:10181000040C0140A88121420080214270B5044699
:101820001248006820F470401049086008460068BB
:1018300040F44050086000200D490860002512E087
:10184000E0090B49091D08606006040E01200949E2
:10185000C1F8A801FFF764FF002005490860FFF701
:101860005FFF681CC5B2082DEADB70BD040C0140A7
:10187000A88121420080214210B50E48006820F462
:1018800070400C4908600846006840F44050086009
:101890000120094908600949C1F8A801FFF740FF84
:1018A000002005490860FFF73BFF00200349C1F80D
:1018B000A80110BD040C0140AC81214200802142EE
:1018C00010B50E48006820F470400C4908600846C6
:1018D000006840F440500860002009490860094948
:1018E000C1F8AC01FFF71CFF01200549086005495C
:1018F000C1F8AC01FFF714FF10BD0000040C01405B
:10190000A88121420080214210B5002414480068BB
:1019100020F47040124908600846006840F4004016
:10192000086001200F490860FFF7FAFE01200E4908
:10193000C1F8A801FFF7F4FE07E0601CC4B2FA2C5E
:1019400003DDFFF7BDFF012010BD064880380068A9
:101950000028F2D10349091F086000BFF4E7000026
:10196000040C0140AC8121420080214238B50121A4
:10197000084600F053FB0121042000F04FFB4FF418
:101980000040ADF8000010208DF8030003208DF812
:10199000020069462248FFF78BFC01212148FFF72E
:1019A00013FD002020490860FFF7C0FE80216B2056
:1019B00000F0DDF8642002F039FB00216B2000F01C
:1019C000D6F8022000F091F8002000F086F83220CE
:1019D00000F0B0F80021382000F0C9F800216A209A
:1019E00000F0C5F80021232000F0C1F88021372045
:1019F00000F0BDF8752000F019F80446682C0BD1F2
:101A000001216B2000F0B3F800216C2000F0AFF84A
:101A1000322000F08FF801E0012038BD0020FCE703
:101A20000008014000023000BC01214270B50446AC
:101A3000FFF722FFD020FFF7F1FEFFF765FF2046FA
:101A4000FFF7ECFEFFF760FFFFF716FFD120FFF76F
:101A5000E5FEFFF759FF0020FFF7AAFE0546FFF756
:101A60002FFF284670BD2DE9F04106460F4614466B
:101A70001D46FFF701FF002141EA4601C8B2FFF70A
:101A8000CDFEFFF741FF20B1FFF71AFF0120BDE8AF
:101A9000F0813846FFF7C2FEFFF736FFFFF7ECFE96
:101AA000012101EB4601C8B2FFF7B8FEFFF72CFF9A
:101AB0000DE0012C04D10020FFF77AFE287003E02E
:101AC0000120FFF775FE2870601EC4B26D1C002C4B
:101AD000EFD1FFF7F5FE0020D9E710B50446E00688
:101AE000010E1C2000F043F810BD10B50446E006BE
:101AF000010E1B2000F03BF810BD70B50446002518
:101B0000BC2C01DB012510E0622C01DB02250CE07E
:101B10002A2C01DB032508E0142C01DB042504E05A
:101B20000A2C01DB052500E0062529461A2000F0D5
:101B30001EF870BD70B50446B4F57A7F01DD4FF430
:101B40007A74042C00DA04244FF47A7090FBF4F0D9
:101B5000401EC5B22946192000F009F80546264660
:101B600004EBD671C1F34F00FFF7C7FF70BD70B52E
:101B700005460C46FFF780FED020FFF74FFEFFF72B
:101B8000C3FE18B1FFF79CFE012070BD2846FFF789
:101B900045FEFFF7B9FE2046FFF740FEFFF7B4FE13
:101BA00018B1FFF78DFE0120EFE7FFF789FE002057
:101BB000EBE72DE9F04105460E4617469846FFF73C
:101BC0005BFE002141EA4501C8B2FFF727FEFFF79F
:101BD0009BFE20B1FFF774FE0120BDE8F081304686
:101BE000FFF71CFEFFF790FE00240CE018F804003D
:101BF000FFF714FEFFF788FE18B1FFF761FE012022
:101C0000EBE7601CC4B2BC42F0DBFFF759FE0020DA
:101C1000E3E700BFFEE7704708B500214FF0006022
:101C200000F054F84FF4E06000F046F825208DF8FD
:101C3000000000208DF8020001208DF803006846A6
:101C400000F002F808BD000070B5002100230F224B
:101C5000C47804B3154C246804F4E064C4F5E0646B
:101C6000210AC1F10403CA40447804FA03F18478DC
:101C70001440214309010E4C0678A155047804F064
:101C80001F050124AC4005786D11AD0005F1E0257C
:101C9000C5F8004109E0047804F01F050124AC40B8
:101CA000044D0678761145F8264070BD0CED00E035
:101CB00000E400E080E100E002490143024A1160D3
:101CC000704700000000FA050CED00E0024A0A40EF
:101CD0000243024B1A60704780FFFF1F08ED00E0CF
:101CE00010B5044601210C48FFF7ECFB00BF0B497F
:101CF0000948FFF7C6FB0028F9D06006010E002254
:101D00000548FFF78FFC00BF05490348FFF7B9FB03
:101D10000028F9D010BD000000540040010003006D
:101D20008200070010B501210148FFF7D7FB10BD65
:101D30000054004008B50121082000F06FF901218E
:101D4000480500F05BF9C020ADF8000003208DF8D5
:101D500002001C208DF8030069460248FFF7A8FA2C
:101D600008BD0000000C014001460120704710B57D
:101D7000FFF7E0FF00F002F810BD00001FB50020E3
:101D8000ADF804004BF6FF70ADF806004FF480602C
:101D9000ADF80A000001ADF80C0005480090694656
:101DA0000448FFF7C5FB01210248FFF77FFB1FBD79
:101DB000400D03000054004070B506460D46144621
:101DC00000BF4FF400311A48FFF794FB0028F8D108
:101DD00001211748FFF776FB00BF16491448FFF7AB
:101DE00050FB0028F9D07006010E01221048FFF7C1
:101DF00019FC00BF0F49491C0D48FFF742FB0028A2
:101E0000F8D011E01CB901210948FFF767FB094927
:101E10003F310748FFF735FB30B10548FFF7FEFBC0
:101E200028706D1C601EC4B2002CEBD1012070BD67
:101E3000005400400100030010B504462146054847
:101E4000FFF7F9FB00BF04490248FFF71AFB00281F
:101E5000F9D010BD005400408400070070B504465E
:101E600000250026FFF783FF2078FFF77DFF00287D
:101E700033D02078FFF734FF0020FFF7DDFF10207C
:101E8000FFF7DAFFFFF74EFF2078FFF729FFFE206C
:101E9000FFF7D2FF2079FFF7CFFFFFF743FF20784E
:101EA000FFF71EFF0020FFF7C7FF2120FFF7C4FF49
:101EB000FFF738FF60780001A17840EA8100E178FF
:101EC0000843C6B22078FFF70BFF0120FFF7B4FFED
:101ED0003046FFF7B1FFFFF725FF207800F02BF821
:101EE000284670BD2DE9F04107460E4614461D46B2
:101EF0000F2E1EDCB4F5805F1BDAB5F5805F18DAB3
:101F00003846FFF7EDFE062101EB8601C8B2FFF768
:101F100093FFE0B2FFF790FFC4F30320FFF78CFFBD
:101F2000E8B2FFF789FFC5F30320FFF785FFFFF74E
:101F3000F9FEBDE8F08138B5044600200090204647
:101F4000FFF7CEFE0020FFF777FFFFF7EBFE012241
:101F500069462046FFF730FF9DF8000020F0100092
:101F600000902046FFF7BCFE0020FFF765FF9DF8BC
:101F70000000FFF761FFFFF7D5FE38BD7047000096
:101F800010B504F029FF00BF0D4802F039FF00280A
:101F9000FAD14FF4E17000F00DFE04E0002000F0F3
:101FA000ABFEFFF74BFB00F019FE0028F6D100F066
:101FB000F3FD04F011FF322002F038F810BD0000EC
:101FC0006000002001460020034A506820F4404091
:101FD00008435060704700000010024029B1064AD3
:101FE00052690243044B5A6104E0034A5269824336
:101FF000014B5A61704700000010024029B1064AA7
:10200000D2690243044BDA6104E0034AD269824395
:10201000014BDA61704700000010024029B1064A06
:1020200092690243044B9A6104E0034A9269824335
:10203000014B9A61704700000010024030B500214A
:102040000022002400232D4D6D6805F00C0121B104
:10205000042905D0082923D105E0294D056022E097
:10206000274D05601FE0254D6D6805F47012234D66
:102070006D6805F48034022505EB92421CB9214DB0
:10208000554305600BE01D4D6D6805F400351DB12D
:102090001C4D5543056002E0194D5543056002E0B3
:1020A000174D056000BF00BF144D6D6805F0F001CD
:1020B0000909154D6B5C0568DD4045600F4D6D6885
:1020C00005F4E061090A104D6B5C4568DD408560F0
:1020D0000A4D6D6805F46051C90A0B4D6B5C45688B
:1020E000DD40C560054D6D6805F44041890B074D25
:1020F0006B5CC568B5FBF3F5056130BD00100240AF
:1021000000127A0000093D000000002010000020AD
:102110000020084908700849087001200749087024
:10212000002003E006490854411CC8B20028F9D138
:10213000704700007201002073010020740100202C
:10214000720000207047000010B5FFF777FAA04832
:10215000008AA0490988884209DD9F480078142830
:1021600008DA9D480078401C9B49087002E0002076
:10217000994908709648408A98490988884209DD3B
:1021800097480078142808DA95480078401C94494C
:10219000087002E0002092490870924800780228F6
:1021A00061D19148007810B19048007810B10020BA
:1021B00000F0A2FD01248C48007830B18B480078F3
:1021C00018B9802004F09CFB044689A001F00EF9A8
:1021D000FEF74EFD214689A001F008F982480078FB
:1021E000B0B97D4800780A2812DD01207E490870C8
:1021F0001622114604F0FAFC322001F017FF04F019
:10220000EBFD802004F07CFB044680A001F0EEF89A
:1022100075480078A8B17548007890B9B4F57A7F10
:1022200005D204F0D9FD7CA001F0E0F809E001201E
:102230006E4908704FF47A7000F0BCFC7BA001F08E
:10224000D5F86A48007868B16148008A6149098810
:10225000884202DB00F0C2FC20B9002075490870FA
:1022600000F09AFC10BD00205F4908705F490870BB
:102270005C48007800F040FD5A48007818B16EA024
:1022800001F0B4F802E06EA001F0B0F8FEF7F0FC47
:1022900002F084FD70B104F09FFD052001F0C6FE40
:1022A00002F07CFDB0B10120674908700020674949
:1022B00008700FE002F098FD60B104F08DFD05207C
:1022C00001F0B4FE02F090FD20B101205E490870DB
:1022D0005E49087043480078A8BB3F48007805284D
:1022E00032DD3B480088B0F57A7F12DD384800883F
:1022F0003749C98888420CDD012053490870534989
:1023000008701622114604F071FC642001F08EFE64
:1023100053E02F48C088B0F57A7F4EDD2C48C08846
:102320002B490988884248DD012047490870002070
:102330004649087016221146012004F057FC64201B
:1023400001F074FE39E0FFE726480078012834D117
:1023500023480078052830DD1D480089B0F57A7FD4
:1023600014DD1B4800891A49C98988420EDD012005
:1023700035490870002035490870162211460120A1
:1023800004F034FC0A2001F051FE16E01048C08928
:10239000B0F57A7F11DD0E48C0890D490989884260
:1023A0000BDD0120284908702849087016221146C3
:1023B00004F01CFC0A2001F039FE2348007828B103
:1023C0002248017807480078FEF77AFE00BF49E707
:1023D000CE0100207E0100206F000020800100203F
:1023E000700000206D0000206B0000206C000020B9
:1023F0003A4E4F204C494748540A00003A3A444963
:102400005354414E43452025750A000050726545DE
:102410006E640D0A00000000446F6F722069732023
:102420006E6F74206F70656E0D0A0000456E640D4E
:102430000A000000690000203A4241434B0A0000B4
:102440003A46524F4E540A006A0000206E000020A7
:1024500010B500F001F810BD0CB5002001900090FF
:102460003348006840F480303149086000BF30488C
:10247000006800F4003000900198401C0190009822
:1024800018B90198B0F5A06FF1D12948006800F49F
:10249000003010B10120009001E000200090009871
:1024A000012843D12348006840F01000214908600A
:1024B0000846006820F0030008600846006840F005
:1024C000020008601A484068194948600846406898
:1024D00048600846406840F48060486008464068AC
:1024E00020F47C1048600846406840F4E8104860DA
:1024F0000846006840F08070086000BF0C48006823
:1025000000F000700028F9D00948406820F003006E
:10251000074948600846406840F00200486000BF34
:102520000348406800F00C000828F9D10CBD0000F9
:1025300000100240002002407047000010B5134810
:10254000006840F0010011490860084640681049E1
:1025500008400E494860084600680E4908400B498B
:1025600008600846006820F480200860084640683B
:1025700020F4FE0048604FF41F008860FFF768FFFA
:102580004FF000600449086010BD000000100240D8
:102590000000FFF8FFFFF6FE08ED00E0F0B50C4686
:1025A000154600220021068C4FF6FE773E40068439
:1025B000028B018C4FF60C7632407E1C06EA031625
:1025C0002E433243104EB0420ED0104EB0420BD0CC
:1025D000B0F1804F08D00E4EB04205D00D4EB04243
:1025E00002D00D4EB04206D14FF6FD76314044F098
:1025F0000106314305E04FF6F576314044F001061F
:10260000314302830184F0BD002C014000340140BD
:102610000004004000080040000C0040F0B50C46EB
:102620001546002200210026078C4FF6EF7C07EAB2
:102630000C070784028B018C4FF6FF7707EA04161C
:1026400040F6FF473A404FF6FF7707EA03373A4331
:102650004FF6FF7707EA05273A43114FB8420ED0ED
:10266000104FB8420BD0B0F1804F08D00E4FB84297
:1026700005D00E4FB84202D00D4FB84206D14FF6EA
:10268000DF77394046F01007394305E04FF65F77B2
:10269000394044F01007394302830184F0BD000043
:1026A000002C0140003401400004004000080040BC
:1026B000000C0040F0B50C46154600220021002613
:1026C000078C4FF6FF6C07EA0C070784828B018C9E
:1026D0004FF6FF7707EA04264FF60C773A404FF69D
:1026E000FF7707EA03172F433A43114FB8420ED042
:1026F000104FB8420BD0B0F1804F08D00E4FB84207
:1027000005D00E4FB84202D00D4FB84206D14FF659
:10271000FF57394046F48077394305E04FF2FF57C1
:10272000394044F48077394382830184F0BD00004E
:10273000002C01400034014000040040000800402B
:10274000000C0040F0B50C46154600220021002682
:10275000078C4EF6FF7C07EA0C070784828B018CFE
:102760004FF6FF7707EA043640F6FF473A404FF648
:10277000FF7707EA05273A434FF6FF7707EA033763
:102780003A43114FB8420ED0104FB8420BD0B0F1BF
:10279000804F08D00E4FB84205D00E4FB84202D03D
:1027A0000D4FB84206D14DF6FF77394046F48057B9
:1027B000394305E047F6FF57394044F48057394321
:1027C00082830184F0BD0000002C014000340140F0
:1027D0000004004000080040000C004010B5042137
:1027E0002A4800F0DCF801282AD10421274800F00B
:1027F000C4F82748007860B9244800F0CDF825498E
:1028000008600120224908700221204800F037F9B1
:1028100016E02148006840B11C4800F0BDF81D4991
:102820000968401A1C4909680860002018490870A6
:102830000021164800F023F90021144800F0A0F808
:102840000121124800F0ABF801281DD101210F48E9
:1028500000F093F81048006858B10D48007820B98E
:1028600000200D490968086003E001200A49096851
:1028700008600020064908700021044800F0FFF8B5
:102880000021024800F07CF810BD00000004004068
:1028900050000020540000205800002000B587B0F0
:1028A00000202A4908702A4908602A490860012145
:1028B0000220FFF7A3FB4FF6FF70ADF8140047208E
:1028C000ADF810000020ADF81600ADF8120004A914
:1028D000214800F00FF901211F4800F04BF80420B7
:1028E000ADF804000020ADF806000120ADF80800A6
:1028F0000020ADF80A00ADF80C0001A9164800F060
:102900005FF84FF4E060FFF7D7F91D208DF8000065
:1029100000208DF8010001208DF802008DF80300E1
:102920006846FFF791F901210B4800F026F80021D5
:10293000094800F013F801220521074800F096F835
:102940000021054800F01CF807B000BD5000002031
:1029500054000020580000200004004021B10288EB
:1029600042F08002028004E002884FF67F731A4032
:1029700002807047CA4302827047CA43028270478E
:1029800021B1028842F00102028004E002884FF681
:10299000FE731A40028070470146088F704730B5B9
:1029A0000246002000230024158A05EA01039589C8
:1029B00005EA010413B10CB1012000E0002030BD94
:1029C00070B505460C46244885420ED02348854202
:1029D0000BD0B5F1804F08D02148854205D0214861
:1029E000854202D02048854200D100E000BF208807
:1029F00050B92389A28861882846FFF7CFFDE18876
:102A0000284600F04BF825E0208804280AD12389C5
:102A1000A28861882846FFF701FEE188284600F079
:102A200046F817E0208808280AD12389A2886188FF
:102A30002846FFF73FFEE188284600F045F809E008
:102A40002389A28861882846FFF77CFEE188284612
:102A500000F043F870BD0000002C0140003401403C
:102A60000004004000080040000C00401AB18389B7
:102A70000B43838102E083898B43838170470A463D
:102A80000021018C4FF6DF7319404FF6FF7303EA04
:102A9000021319430184704781847047028B4FF6FB
:102AA000F3731A400283028B0A4302837047028B3E
:102AB0004FF2FF331A400283028B4FF6FF7303EA93
:102AC00001231A4302837047828B4FF6F3731A4037
:102AD0008283828B0A4382837047828B4FF2FF335B
:102AE0001A408283828B4FF6FF7303EA01231A4355
:102AF00082837047002202881D4B98420ED01D4BE6
:102B000098420BD0B0F1804F08D01B4B984205D0B3
:102B10001A4B984202D01A4B984204D14FF68F7349
:102B20001A404B881A43174B984207D0164B9842CD
:102B300004D04FF6FF431A40CB881A4302808B889B
:102B400083850B8803850A4B98420BD0094B98422A
:102B500008D00E4B984205D00D4B984202D00D4B39
:102B6000984201D10B7A03860123838270470000CB
:102B7000002C0140003401400004004000080040E7
:102B8000000C0040001000400014004000400140D4
:102B900000440140004801400548007830B1002061
:102BA0004FF0E0210861886101490870704700001A
:102BB00071000020B0F5E16F01DD4FF4E16042F2F9
:102BC000283141434FF0E022516100219161012100
:102BD0001161014A11707047710000204FF0E0222E
:102BE000116901F0010222B101F480320AB9012217
:102BF00000E00022104630B900224FF0E0231A61B5
:102C00009A61014B1A7070477100002008B50121CC
:102C10002020FFF703FA0320ADF8000010208DF804
:102C2000030003208DF8020069460E48FEF740FBC2
:102C30000C20ADF8000069460A48FEF739FB302049
:102C4000ADF8000069460748FEF732FBC020ADF83A
:102C5000000069460348FEF72BFBFEF7BDF804F0C1
:102C6000BBF808BD0014014010B500244FF400610A
:102C70000F48FEF7F1FB2044C4B24FF480410C48EA
:102C8000FEF7EAFB04EB4000C4B24FF400510848E1
:102C9000FEF7E2FB04EB8000C4B24FF4805104481D
:102CA000FEF7DAFB04EBC000C4B2204610BD000002
:102CB0000014014008B501210420FFF7AFF94FF4DB
:102CC000F040ADF8000004208DF803006946084884
:102CD000FEF7EEFA01214020FFF7A0F94FF4F04093
:102CE000ADF8000069460348FEF7E2FA08BD0000AF
:102CF000001401400018014010B50446002C57D0C4
:102D0000FFF7B2FF0A2849D2DFE800F0054848483B
:102D10000E4817482B3416221146012003F066FF97
:102D200000205049087042E05A221146022003F068
:102D30005DFF00204B49087039E04A48007850B9DF
:102D400004F04AF800BF484802F05AF80028FAD1C7
:102D50000120444908705A221146022003F046FF20
:102D600025E05A221146032003F040FF00203D4990
:102D700008701CE03B48007850B904F02DF800BF03
:102D8000394802F03DF80028FAD101203549087091
:102D90005A221146032003F029FF08E016221146AB
:102DA000012003F023FF00202E49087000BF57E0E8
:102DB000FFF75AFF0A2849D2DFE800F0050E2B483A
:102DC00048483448481716221146002003F00EFFE9
:102DD00000202449087042E05A221146022003F0E4
:102DE00005FF00201F49087039E01E48007850B9DF
:102DF00003F0F2FF00BF1C4802F002F80028FAD1ED
:102E00000120184908705A221146022003F0EEFEF4
:102E100025E05A221146032003F0E8FE0020114964
:102E200008701CE00F48007850B903F0D5FF00BFD0
:102E30000D4801F0E5FF0028FAD10120094908708A
:102E40005A221146032003F0D1FE08E01622114653
:102E5000002003F0CBFE00200249087000BF00BF35
:102E600010BD0000850100206000002000B585B085
:102E700001210520FFF7D2F801218803FFF7CEF8E2
:102E80004FF40070ADF8100018208DF813000320E7
:102E90008DF8120004A91C48FEF70AFA4FF480606E
:102EA000ADF8100004208DF8130004A91648FEF7B1
:102EB000FFF94FF4E13000900020ADF80400ADF8C8
:102EC0000600ADF80800ADF80C000C20ADF80A00C3
:102ED00069460E4800F016F9012240F225510B48D0
:102EE00000F0EAF80121094800F0A3F84021074862
:102EF00000F096F8002003E005490854411CC8B2D0
:102F00000028F9D105B000BD00080140003801409B
:102F10007200002010B540F225513C4800F0A2F8A4
:102F2000002872D03A4800783A490978884229D175
:102F3000394838490978405C3649097888420ED1C9
:102F400036480078401CC0B23449087031490870D6
:102F5000324800783049314A1278885412E02D49BD
:102F6000087803E02C490854411CC8B22A49294A70
:102F70001278895C8142F5DC274826490978405C53
:102F800024490870214800F029F92349204A127881
:102F900088541F480078401C1D4908700846007876
:102FA000801E1D49085C0D282FD119480078401E4D
:102FB000085C0A2829D11648017818480078C01CF6
:102FC000814205D112480078801E114908701CE02A
:102FD0000F480078801E1049104A127888540C4817
:102FE0000078801E0D490870084601780A480B4A8F
:102FF0001278815406480078401E0549087008463A
:1030000000780549024A1278885410BD0038014002
:103010007401002072010020720000207301002062
:1030200001F40072B2F5007F00D100BFCA430280F4
:10303000704721B1828942F40052828104E0828982
:103040004DF6FF731A408281704702460020B1F5A9
:10305000007F00D100BF13880B400BB1012000E0BE
:103060000020704770B50246002400230025002090
:1030700040F66A16B14200D100BFC1F3421501F01B
:103080001F03012606FA03F3012D02D1968933406E
:1030900006E0022D02D1168A334001E0968A3340C1
:1030A0000C12012606FA04F41688344013B10CB150
:1030B000012000E0002070BDF0B50346002400268A
:1030C0000025002040F66A17B94200D100BF18461B
:1030D000C1F3421401F01F06012707FA06F5012C7F
:1030E00001D10C3004E0022C01D1103000E014308A
:1030F0001AB107682F43076002E00768AF43076013
:10310000F0BD00002DE9F04786B005460E460024CC
:10311000A24600BFA1460027B08900B100BF2F46DC
:103120002C8A4CF6FF700440F08804432C82AC8952
:103130004EF6F3100440B088318908437189084382
:103140000443AC81AC8A4FF6FF400440B08904438D
:10315000AC8201A8FEF772FF1F48874202D1DDF85A
:1031600010A001E0DDF80CA0A88900F4004040B1F7
:103170000AEBCA0000EB0A1031684900B0FBF1F815
:1031800007E00AEBCA0000EB0A1031688900B0FBC7
:10319000F1F86420B8FBF0F004012009642101FB80
:1031A0001089A88900F4004040B1322000EBC9002A
:1031B000B0FBF1F000F00700044308E0322000EB20
:1031C00009106421B0FBF1F000F00F0004432C81E2
:1031D00006B0BDE8F087000000380140014688884D
:1031E000C0F308007047C1F30802828070470000F6
:1031F00008B501211D20FEF711FF8020ADF8000069
:1032000028208DF8030003208DF8020069460D4840
:10321000FEF74EF880210B48FEF72BF98020ADF821
:10322000000010208DF8030003208DF8020069468D
:103230000548FEF73DF880210348FEF71AF9FFF72D
:103240002DFB08BD000801400010014000BFFEE753
:1032500010B53EE023480378234822490978445CAE
:103260001A460146581C085C2B2804D030280FD081
:103270004F2822D11DE000BF1046511CCAB21A4986
:10328000085C3A28F8D12146104603F051FB14E0BF
:103290001549181D085C4F2802D1012013490870F8
:1032A0001149181D085C4C2802D100200F490870F4
:1032B00003E001200E49087000BF00BF09480470F8
:1032C0001A4603E008488254501CC2B2A242F9D107
:1032D00000BF054803490978405C024909788842E3
:1032E000B8D110BD720100207200002083010020BF
:1032F0008201002010B5FEF70BFF0020274908705F
:1033000012E041F6907226A129A000F06FF8002487
:1033100005E00A2000F08AFEFFF79AFF641C1F48B0
:10332000007808B9642CF4DB1C4800780028E8D049
:10333000FEF7EEFE0020194908700FE023A000F010
:1033400055F8002405E00A2000F070FEFFF780FF2A
:10335000641C1248007808B9322CF4DB0F4800785E
:103360000028EBD0FEF7D4FE00200C4908700FE0D7
:103370001AA000F03BF8002405E00A2000F056FEF9
:10338000FFF766FF641C0548007808B9322CF4DBAF
:10339000024800780028EBD010BD00008201002018
:1033A00031302E31382E3139362E32303200000095
:1033B00041542B43495053544152543D225443509D
:1033C000222C222573222C25640D0A0041542B4304
:1033D00049504D4F44453D310D0A000041542B43A7
:1033E000495053454E440D0A000000000FB4054BF0
:1033F00010B503A9044A029800F08EF810BC5DF8DD
:1034000014FB0000954C0008C0010020490050EA60
:10341000C12018BF04204A0D18BF40F0010040F23F
:10342000FF72B2EB515F08BF40F00200012808BFF5
:10343000052070472DE9F0414F1E00EBC7010446FF
:10344000D1E9000115461E4637F006020DD02A4686
:103450003346FDF748F87F1E04EBC703D3E900238A
:10346000FCF79AFF37F00602F1D1022F25D0042F86
:1034700013D0062F18BFBDE8F0812A463346FDF76A
:1034800032F8D4E90A23FCF787FF2A463346FDF7D2
:103490002AF8D4E90823FCF77FFF2A463346FDF7D4
:1034A00022F8D4E90623FCF777FF2A463346FDF7D6
:1034B0001AF8D4E90423FCF76FFF2A463346FDF7D8
:1034C00012F8D4E90223FCF767FF2A463346FDF7DA
:1034D0000AF8D4E90023BDE8F041FCF75DBF012202
:1034E000FDF746BAFCF758BF024A00201107FDF766
:1034F0003FBA000001FDFFFF02E008C8121F08C12B
:10350000002AFAD170477047002001E001C1121F64
:10351000002AFBD1704700002DE9FF4F8DB00F4608
:103520000546002606E025280BD0DDE90F1290475E
:103530006D1C761C28780028F5D111B03046BDE806
:10354000F08F0024A246A1460122EC4900E004438A
:1035500015F8013F203B02FA03F00842F7D1287822
:103560002A2810D06FF02F022878A0F13001092905
:1035700014D80AEB8A0102EB410144F0020400EB8B
:10358000010A6D1CF0E701CF5FEA000A03D544F49D
:103590000054CAF1000A44F002046D1C28782E2859
:1035A00017D115F8010F44F004042A280ED06FF04B
:1035B0002F022878A0F1300109290AD809EB8901E6
:1035C00002EB410100EB01096D1CF2E757F8049B87
:1035D0006D1C28786C280FD006DC4C2817D0682882
:1035E0000DD06A2814D104E0742810D07A280FD1A5
:1035F0000DE044F400140AE044F4801401E044F4C3
:1036000040146978814202D104F580146D1C6D1C50
:103610002A786E2A1FD00CDC632A31D004DC002A01
:103620008BD0582A11D1A3E0642A68D0692A0CD122
:1036300065E0732A2ED004DC6F2A73D0702A04D17F
:103640009BE0752A6FD0782A6ED01046DDE90F1204
:103650009047761C50E1C4F30250022806D003289C
:1036600009D0042801CF09D0066045E101CFF11748
:10367000C0E9006140E101CF06803DE106703BE119
:1036800017F8040B8DF8000000208DF80100EB46C0
:10369000012003E057F804BB4FF0FF3061074FF003
:1036A000000102D40DE008F10101884649450FDA16
:1036B0008045F8DB1BF808100029F4D108E008F178
:1036C000010188468142FADB1BF808100029F6D177
:1036D000DDE90F23AAEB08008146214600F036F908
:1036E000304400EB080604E0DDE90F121BF8010B83
:1036F0009047B8F10108F7D221464846F7E00A2181
:10370000C4F302534FF0000B0891022B04D001CFF9
:10371000C117032B09D00AE0FF1D27F00707F7E8C0
:10372000020108E032E01FE020E000B2C117042BE4
:1037300001D140B2C117031E71F1000307DA4FF047
:10374000000CD0EB0C006CEB01012D2302E02305F3
:1037500004D52B238DF82430012303E0E30701D0A7
:103760002023F7E7984658E00A2110E010210EE0E8
:1037700010204FF0000B08900CE010214FF0000BD0
:1037800044F004044FF00809089103E008214FF0C9
:10379000000B0891C4F30253022B04D001CF002187
:1037A000032B06D006E0FF1D27F00707F7E802010C
:1037B00003E080B2042B00D1C0B24FF00008230711
:1037C0002BD5702A07D0DDF820C08CF0100C5CEAF5
:1037D0000B0C05D00EE040238DF82430012308E0C7
:1037E00050EA010306D030238DF824308DF82520CF
:1037F00002239846DDF820C08CF0080C5CEA0B0C24
:103800000BD150EA010301D1630706D530238DF8AF
:1038100024304FF00108A9F10109582A04D038A238
:103820000B9208AA0A920BE03AA2F9E75B46089AC3
:10383000FCF7B8FF0B9B9B5C0A9A521E0A9213700E
:1038400050EA0102F2D10A98ADEB000000F1200B22
:10385000600702D524F4803401E04FF00109D94516
:1038600002DDA9EB0B0000E0002000EB0B0141445E
:103870000890AAEB010AE00306D4DDE90F232146F4
:10388000504600F063F806444FF0000908E009A92B
:1038900011F80900DDE90F12904709F10109761CC2
:1038A000C145F4DBE0030CD5DDE90F23214650468A
:1038B00000F04CF8064404E0DDE90F123020904798
:1038C000761C0899481E08900029F5DC08E00A9843
:1038D0000A990078491C0A91DDE90F129047761C7D
:1038E000BBF10001ABF1010BF1DC21465046DDE9F3
:1038F0000F2300F019F806446D1C1BE6092801008F
:103900003031323334353637383961626364656655
:103910000000000030313233343536373839414217
:1039200043444546000000002DE9F04104460025CF
:103930001E461746880404D405E039462020B047C7
:103940006D1C641EF9D52846BDE8F0812DE9F041D3
:10395000044600251E469046C80301D5302700E0E6
:103960002027880404D505E041463846B0476D1C41
:10397000641EF9D52846BDE8F08100002DE9FE4F10
:1039800006460F460025684601F0D2FA002442E0C0
:1039900056F8240057F82410A0EB010ABAF1000FE2
:1039A00001DB514601E0CAF100010846FCF77CFE4C
:1039B00083464FF08F41FCF7B1FC80465DF8240050
:1039C0000021FCF7DBFE16D05DF824104046FCF722
:1039D000A5FC82464FF07E51FCF768FC814629F039
:1039E000004A0F48416A5046FCF7D2FE12D201202D
:1039F000A04005430EE00A48C1694046FCF7BEFE00
:103A000005D30748016A4046FCF7C2FE02D20120F6
:103A1000A0400543641C032CBADB2846BDE8FE8F9A
:103A20007872000810B50446092C0ED00B2C09D072
:103A30000C2C04D00E2C0BD102F07BFF08E002F01E
:103A400083FF05E001F040FE02E001F045FE00BF0B
:103A500000BF10BD2DE9F84F04460D4621F000408F
:103A600000917349814211DC7249884201DC06D120
:103A70002CB120462946BDE8F84FFFF730BD6E480F
:103A8000002DCCBF6D496E49BDE8F88F6D4981426C
:103A900011DD6D498142D8BF4FF0FF366DDD204604
:103AA0002946FFF7B3FC042808BFFFF71DFD204699
:103AB0002946BDE8F88F6549654F25F000458142EC
:103AC00033DD6449814219DD002632464FF08043E0
:103AD00020462946FCF760FC80468A4601222046A3
:103AE0002946FCF745FF00223B46FCF7F6FC424620
:103AF0005346FCF76AFD04460D463EE001260022CF
:103B0000BA463B4620462946FCF746FC80460F460F
:103B10000022534620462946FCF7DFFC42463B463E
:103B2000FCF753FD04460D4627E04B4981421BDD5F
:103B3000DFF828A102260022534620462946FCF73A
:103B4000D2FC00223B46FCF727FC80460F460022B1
:103B5000534620462946FCF7C0FC42463B46FCF74C
:103B600034FD04460D4608E0032622462B4600207D
:103B70003B49FCF72AFD04460D4622462B461046DB
:103B80001946FCF7B0FC8B46824602460B46FCF712
:103B9000AAFC07460246334888460B46062178446D
:103BA000FFF748FC52465B46FCF79DFC82462E48D8
:103BB0008B463A46434605217844FFF73BFC3A469C
:103BC0004346FCF790FC02460B46002E50465946F1
:103BD0000CDAFCF7E1FB22462B46FCF784FC01B033
:103BE00022462B46BDE8F04FFCF77ABCFCF7D4FB2D
:103BF00022462B46FCF777FC1C4A7A4402EBC603AC
:103C0000D3E90023FCF769FC22462B46FCF765FC50
:103C1000174A7A4402EBC603D3E90023FCF760FCA1
:103C2000009A002AB8BF81F00041BDE8F88F00007B
:103C3000000010440000F07F182D4454FB21F93F90
:103C4000FB21F9BF0000DC3F0000203E0000F33FF5
:103C50000000F03F0000E63F008003400000F83F16
:103C60000000F0BF5E4300001C430000BA420000A9
:103C7000824200002DE9F04D9446CCF1000423F07F
:103C800000464CEA0404524F46EAD4749A468846E9
:103C900021F00042BC4206D8454240EA050442EA0F
:103CA000D474BC4204D9BDE8F04D6246FFF71ABC9B
:103CB000AAF14055A5F17F6555EA0C040BD002240A
:103CC00004EAAA74434DDFF810E144EAD87452EADA
:103CD000000B04D00CE0BDE8F04DFFF7BBBE002C9C
:103CE00014BF012CBDE8F08D022C30D0032C32D053
:103CF00056EA0C0B0AD0BE4220D1BA4209D126F0B6
:103D0000804622F080423346114617E000291ADB34
:103D100025E0DFF8C8B0FB44002C04BFDBE900015C
:103D2000BDE8F08D012C02BFDBE9000181F000410C
:103D3000BDE8F08D022C0AD0032C0CD0BA4212D16F
:103D4000B8F1000F0BDA23482549BDE8F08D28466D
:103D50002449BDE8F08D28467146BDE8F08D1D4828
:103D60002149BDE8F08D921B12153C2AC4BF1948A9
:103D70001D490EDCBAF1000FBEBF12F13C0F00204E
:103D8000014606DB6246FCF720FC21F00041FFF70C
:103D900061FE002C08BFBDE8F08D012C04BF81F04E
:103DA0000041BDE8F08D114A114B022C07D0FCF701
:103DB00094FB2A46BDE8F04D0A4BFCF78EBBFCF79E
:103DC0008CFB2A46BDE8F04D064BFCF789BB000092
:103DD0000000F07F182D4454FB2109C0164200005A
:103DE000FB21F9BFFB210940FB21F93F075C14339C
:103DF00026A6A13C38B5054602F0EEFF00BF684696
:103E000000F0FEFF0028FAD128460099FCF751FA8D
:103E1000009000210098FCF7BBFC14D25A221146F6
:103E2000032002F0E3FE07E0684600F0E9FF2846C1
:103E30000099FCF73EFA00904FF080410098FCF7A3
:103E4000A7FC19D2F0E700210098FCF797FC13D2E9
:103E50005A221146022002F0C9FE07E0684600F02F
:103E6000CFFF28460099FCF724FA00904FF040411C
:103E70000098FCF783FCF1D302F0AEFF802002F043
:103E80003FFD044608E01E221146002002F0AEFE6F
:103E9000802002F035FD0446B4F5AF7FF3D802F080
:103EA0009BFF02A0FFF7A2FA38BD00004E6F772CEF
:103EB00020676F20737472616967687420656E642F
:103EC0002E0D0A0010B50446201F0C282BD2DFE867
:103ED00000F006120C182A2A2A2A2A1E2A241E2238
:103EE0001146002002F082FE20E01E221146012031
:103EF00002F07CFE1AE055221146032002F076FE05
:103F000014E055221146022002F070FE0EE0282235
:103F10001146032002F06AFE08E028221146022022
:103F200002F064FE02E002F057FF00BF00BF10BDC8
:103F3000002004E00021034A1154411CC8B20928A2
:103F4000F8DB7047C401002010B502F045FF1420D3
:103F500000F06CF8802002F0D3FC10BD08B5012100
:103F60004020FEF75BF82020ADF8000010208DF80F
:103F7000030003208DF8020069460248FDF798F916
:103F800008BD0000001801402DE9F0410446E0782A
:103F900000F0C006E07800F03F05607800F0010016
:103FA00098B1EF102846E91705EB5171C910A5EB40
:103FB000C101491C01F0FF080B48006820B10A4804
:103FC000414602683846904700BF607800F008001C
:103FD00030B10548406818B1B011034A51688847AC
:103FE0000020BDE8F0810000E40100204FF0E02156
:103FF000096921F004014FF0E0221161C21700EBC2
:104000005272C2F3C702074B1A701946097801EBC6
:104010004102C2EBC1114FF6FF7202EAC101024A2E
:1040200011807047320000203400002001460D4A04
:1040300012884A434FF0E0235A6100229A6101221C
:104040001A6100BF4FF0E022106900F001021AB1BE
:1040500000F48032002AF5D000224FF0E0231A61EC
:104060009A6170473400002001460D4A12784A4395
:104070004FF0E0235A6100229A6101221A6100BFC9
:104080004FF0E022106900F001021AB100F4803212
:10409000002AF5D000224FF0E0231A619A617047A0
:1040A0003200002030B10221064A11700321064A75
:1040B000117005E00321034A11700221024A1170B8
:1040C00070470000480000204900002038B5044631
:1040D00064B120208DF8000028208DF801003020E8
:1040E0008DF8020038208DF8030004E0A32204219B
:1040F0006846FCF76AF86A46042140F69E2002F002
:10410000BFFB01F0A9FF38BD3EB5044602208DF883
:104110000000CA208DF80100E3208DF8020009207C
:104120008DF803006A460421682002F0A9FBA32051
:104130008DF8000004F0400048B1C0208DF8010067
:10414000C8208DF80200C2208DF8030006E0A320ED
:104150008DF801008DF802008DF8030004F4C070A2
:1041600048B1C4208DF80400CC208DF80500C6208D
:104170008DF8060006E0A3208DF804008DF80500F8
:104180008DF80600A3208DF807008DF808008DF843
:1041900009006A460A2140F6A72002F071FB04F0EC
:1041A000030018B120208DF8000002E0D8208DF81F
:1041B00000006A46012140F6B62002F061FB04F0DF
:1041C000200018B1012000F0ADF802E0002000F05E
:1041D000A9F804F4C07008B304F4807060B1B22090
:1041E0008DF800008B208DF80100B6208DF80200BC
:1041F0009B208DF803000BE0B0208DF8000080209C
:104200008DF80100B4208DF8020090208DF8030095
:104210006A46042140F6A22002F032FB04F00100BD
:1042200020B3F8208DF800006A4601214FF40B609E
:1042300002F026FBFA21072000F094FB072000F093
:104240005BFB012000F07BFB642000F05BFC4FF483
:10425000FA7000F06AFCC821304800F00BFB2820FF
:1042600000F024FB0A2000F034FB08E0D8208DF891
:1042700000006A4601214FF40B6002F001FB04F0DC
:10428000020018B1D9208DF8000002E0D8208DF886
:1042900000006A46012140F23D7002F0F1FA04F09C
:1042A000040018B1012000F069F802E0002000F0DD
:1042B00065F804F0100018B10120FFF707FF02E0D5
:1042C0000020FFF703FF44F008001549488101F082
:1042D000C3FE00201249887304F0400018B108465C
:1042E000807B801D887304F4C07020B10C48807BF3
:1042F000801D0B49887304F0140020B10848807BAE
:1043000010300749887304F0030020B10448807B13
:10431000001D0349887300203EBD000009E3CA0266
:10432000E40100203EB504466CB10EA1D1E90020A5
:104330008968CDE9002002916A4609214FF497600F
:1043400002F09EFA3EBD0AA2D2E900109268CDE9C1
:10435000010200916A4609214FF4976002F090FA39
:10436000F0E70000B8AAB38DB4980D355D000000E9
:10437000B8AAAAAAB088C3C5C700000038B50446C9
:1043800064B1C0208DF80000C2208DF80100C42067
:104390008DF80200C6208DF8030004E08B22042172
:1043A0006846FBF712FF6A46042140F6982002F0A7
:1043B00067FA01F051FE38BD10B5C8234FF4806292
:1043C000024940F6F63001F0DBFC10BDA072000897
:1043D0002DE9F04F8DB00746884615469946DDE930
:1043E000166B0024002030806B49887B5A4605A953
:1043F00001F092FD18B1601E0DB0BDE8F08F664867
:10440000807A00F01400002867D09DF814000006A0
:104410009DF8151040EA01409DF8161040EA012071
:104420009DF81710084328609DF8180000069DF8B5
:10443000191040EA01409DF81A1040EA01209DF849
:104440001B10084368609DF81C0000069DF81D10B5
:1044500040EA01409DF81E1040EA01209DF81F101F
:104460000843A8609DF8200000069DF8211040EA4E
:1044700001409DF8221040EA01209DF823100843D6
:10448000E86004F11000C4B2286800140190686864
:1044900000140290A86800140390E86800140490C7
:1044A00001984043029901FB0100039901FB0100BF
:1044B000049901FB010ABAF1706F02DBBAF1885F5F
:1044C00005DD01F0C9FD00203080401E94E7B6F9FB
:1044D000000040F48070308000BF2F48807A00F0E8
:1044E000400020B305A9601C085C095D40EA01207A
:1044F00000B2A8F8000005A9E01C095C05AAA01CF0
:10450000105C41EA002000B2A8F8020005A9601D75
:10451000095C201D105C41EA002000B2A8F80400EC
:10452000A01DC4B2B6F9000040F0080030801A485F
:10453000408900F4C07008B305A9601C085C095DDF
:1045400040EA012000B2388005A9E01C095C05AAF8
:10455000A01C105C41EA002000B2788005A9601D13
:10456000095C201D105C41EA002000B2B880A01D4B
:10457000C4B2B6F9000040F0700030800648807A7E
:1045800000F0030018B105A90819FFF7FDFC484623
:1045900001F0C4F900202FE7E401002030B585B018
:1045A000044616A207CA02AB07C3C82C03DD4FF0AE
:1045B000FF3005B030BDC82090FBF4F0401E85B23E
:1045C000280A8DF80000E8B28DF801006A46022141
:1045D00040F2162002F054F910B14FF0FF30E8E736
:1045E00002AA0C2140F6C12002F04AF910B14FF0A6
:1045F000FF30DEE7044884810020DAE7FEF2ABC436
:10460000AAF1DFDFBBAFDFDFE40100201FB5044606
:104610004848007A00F0030054F820000190454813
:10462000007A00F0040010B1019840420190414826
:10463000007AC0F3C10054F8200002903D48007A8F
:1046400000F0200010B10298404202903948007AF0
:10465000C0F3811054F8200003903648008900F41C
:10466000807010B10398404203903349019880FB59
:104670000101800F40EA810001902F49029880FBE0
:104680000110820042EA917002902B49039880FB4E
:104690000110820042EA917003900198000E8DF89B
:1046A00000000198000C8DF801000198000A8DF8B7
:1046B00002000198C0B28DF803006A4604214FF44D
:1046C000747002F0DDF818B14FF0FF3004B010BD87
:1046D0000298000E8DF800000298000C8DF8010081
:1046E0000298000A8DF802000298C0B28DF803000B
:1046F0006A4604214FF4757002F0C2F810B14FF011
:10470000FF30E3E70398000E8DF800000398000CDB
:104710008DF801000398000A8DF802000398C0B2DA
:104720008DF803006A4604214FF4767002F0A8F871
:10473000CCE70000E401002009E3CA0210B586B00E
:10474000044647A00068039046A00068029046A077
:104750000068019045A00068009004F0030003A9E0
:10476000085C8DF8140003A8C4F3C101405C8DF807
:10477000150003A8C4F38111405C8DF8160004F005
:10478000030002A9085C8DF8100002A8C4F3C1015F
:10479000405C8DF8110002A8C4F38111405C8DF8D3
:1047A000120005AA032140F2264002F069F818B170
:1047B0004FF0FF3006B010BD04AA032140F22A409A
:1047C00002F05EF810B14FF0FF30F3E7019805906A
:1047D0000098049004F0040058B19DF8140040F0D3
:1047E00001008DF814009DF8100040F001008DF8D4
:1047F000100004F0200058B19DF8150040F00100B1
:104800008DF815009DF8110040F001008DF81100A1
:1048100004F4807058B19DF8160040F001008DF846
:1048200016009DF8120040F001008DF8120005AA54
:1048300003214FF4886002F023F810B14FF0FF30ED
:10484000B8E704AA032140F2314002F019F810B190
:104850004FF0FF30AEE7064804810020AAE70000D1
:104860004CCD6C000CC92C003656760026466600EE
:10487000E4010020F8B505460E464FF47A7095FB2A
:10488000F0F000FB06F4200E8DF80000200C8DF8EF
:104890000100200A8DF80200E0B28DF803006A469C
:1048A00004214FF4AE7001F0EBFFF8BD38B50446BB
:1048B000052094FBF0F084B220128DF80000E0B2E5
:1048C0008DF801006A4602214FF4AD7001F0D8FF67
:1048D00038BD38B50446052094FBF0F084B22012B0
:1048E0008DF80000E0B28DF801006A4602214FF415
:1048F000AC7001F0C5FF38BD38B50446002000900B
:1049000004F0010020B19DF8000040F0300000905C
:1049100004F0020020B19DF8000040F00C0000906F
:1049200004F0040020B19DF8000040F00300009066
:104930006A4601214FF4A47001F0A2FF38BD38B5DA
:104940000446012C01DA012402E0042C00DD0424D9
:10495000601EC0B200906A46012140F24F1001F083
:104960008FFF38BD2DE9FC4706460F4606F00700CD
:1049700010B1B7F5C86F03DD4FF0FF30BDE8FC871D
:104980003846FBF79AFE81465949FBF7C7FC80463B
:10499000684601F04DF89DF80000022806D0042872
:1049A00016D0082826D0102848D135E04FF08D4188
:1049B0004046FBF781FC8146FBF79DFE84B24D49E2
:1049C0004046FBF779FC8146FBF795FE85B238E05F
:1049D0004FF08C414046FBF76FFC8146FBF78BFEA6
:1049E00084B245494046FBF767FC8146FBF783FEEE
:1049F00085B226E04FF08B414046FBF75DFC8146D7
:104A0000FBF779FE84B23D494046FBF755FC8146F1
:104A1000FBF771FE85B214E04FF08A414046FBF788
:104A20004BFC8146FBF767FE84B235494046FBF7F5
:104A300043FC8146FBF75FFE85B202E04FF0FF309A
:104A40009CE700BF20128DF80400E0B28DF805004D
:104A500028128DF80600E8B28DF8070006F0010074
:104A6000A0B101AA02214FF4EA7001F009FF10B1D0
:104A70004FF0FF3082E70DF1060202214FF49270F1
:104A800001F0FEFE10B14FF0FF3077E706F00200B4
:104A9000A0B101AA02214FF4EC7001F0F1FE10B1B7
:104AA0004FF0FF306AE70DF1060202214FF49470D7
:104AB00001F0E6FE10B14FF0FF305FE706F00400B2
:104AC000A0B101AA02214FF4EE7001F0D9FE10B19D
:104AD0004FF0FF3052E70DF1060202214FF49670BD
:104AE00001F0CEFE10B14FF0FF3047E7002045E760
:104AF00000004843000040460000C045000040451B
:104B00000000C04438B50446052094FBF0F085B29F
:104B100028128DF80000E8B28DF801006A460221E3
:104B20004FF4EF7001F0ACFE38BD38B504460520F7
:104B300094FBF0F085B228128DF80000E8B28DF8F1
:104B400001006A4602214FF4ED7001F099FE38BD74
:104B500010B508211448FCF78CFC1020FFF784FAEC
:104B6000012001F0CBFF432001F0C8FF002001F03D
:104B7000C5FF012001F0C2FF002001F0BFFF0020AF
:104B800001F0BCFF002001F0B9FF002001F0B6FFEA
:104B9000002001F0B3FF08210348FCF76CFC102053
:104BA000FFF762FA10BD00000018014005460E46EE
:104BB000234805700078FFF775FA3046FFF71AF9B9
:104BC000304602F033F95A221146002002F00EF866
:104BD0004FF4CD70FFF72AFA02F0FEF819A0FEF7A5
:104BE00005FC304602F0F2F91E221146002001F0C9
:104BF000FDFF802001F084FE044611E0802001F0DA
:104C00007FFE04464FF6FA70844202D9FFF79CF902
:104C10000446214611A0FEF7E9FB14A0FEF7E6FBCF
:104C2000B4F5B47FEAD802F0D7F8304602F018FAAB
:104C300002F092FA02F0D0F801F093FE00BFFEE716
:104C40004A000020466F72776172642031207761DC
:104C500073206F766572210A00000000536F6E6941
:104C60006320463A20253564000000004E6F77200F
:104C70007468652063617220697320646173686978
:104C80006E6720746F2074686520736C6F70652E7A
:104C9000200D0A0070B504460D46E1B20548FEF746
:104CA000A2FA00BF40210348FEF7CFF90128F9D14D
:104CB000204670BD0038014010B54FF480510248C5
:104CC000FCF7CAFB10BD00000018014010B5FFF74B
:104CD0002FF901F0B7FE0D48C0780C49097940EA78
:104CE00001200B49088000240BE00A48015D0120E7
:104CF000884007490988084008B9204610BD601C53
:104D0000C4B2102CF1DB0020F8E70000C401002041
:104D10001E0000202200002070B5044600BF1B4882
:104D200000F06EF80028FAD15A221146184800788F
:104D300001F05CFF154801682046FBF729FD0ED203
:104D400002E0124800F05CF8104801682046FBF7CA
:104D5000ADFA05460F49FBF71BFD14D2F1E70B48EE
:104D600001682046FBF70AFD0DD202E0074800F07B
:104D700047F8064801682046FBF798FA05460649B9
:104D8000FBF7FCFCF2D302F027F870BD44000020D2
:104D9000480000200000AEC20000AE4210B54FF443
:104DA00000610348FCF758FBC0F10100C0B210BD20
:104DB0000018014010B5002400BF06E000BFFFF757
:104DC00085FF0828FBD0601CC4B20A2CF6DB06D194
:104DD000FFF77CFF082802D1012002490870014832
:104DE000007810BD1C00002010B54FF4804103482E
:104DF000FCF732FBC0F10100C0B210BD0018014049
:104E00002DE9F04F97B004464FF07E5500264FF045
:104E100000094FF0000A10A811A916AB0CAACDE9A1
:104E2000001012A914A8FFF7D3FA18B1012017B087
:104E3000BDE8F08FBDF8440000F48070002870D009
:104E40000C98FBF731FC07464FF09D41FBF766FAE3
:104E500005460D98FBF728FC07464FF09D41FBF7F0
:104E60005DFA06460E98FBF71FFC07464FF09D4182
:104E7000FBF754FA81460F98FBF716FC07464FF0F4
:104E80009D41FBF74BFA824651465046FBF714FA18
:104E9000494605904846FBF70FFA314603903046E5
:104EA000FBF70AFA294601902846FBF705FA00901D
:104EB0000199FBF7A9F902900399FBF7F7F9049020
:104EC0000599FBF7F3F98346FBF729FC074688466B
:104ED00051462846FBF7F0F9494604903046FBF767
:104EE000EBF903900499FBF78FF94FF0804105909F
:104EF000FBF7E2F98346FBF712FC3A464346CDE95D
:104F00000601FEF7B7FE4FF06632084BCDE9080107
:104F1000FBF7E9FACDE90A01FBF714FC206002E097
:104F2000FFE7022083E7002081E7000066A64C40EF
:104F30007CB5054628494968087801AB04220D2153
:104F4000FCF791FD08B107207CBD9DF80700C0F378
:104F500001109DF8041001F0E00140EAE1008DF835
:104F600000009DF80700C0F381009DF8051001F0D6
:104F7000E00140EAE1008DF801009DF8070000F033
:104F800003009DF8061001F0E00140EAE1008DF811
:104F9000020000241CE01DF8040018B9002045F8A8
:104FA000240013E00D4845F8240006E055F82400DD
:104FB0000B49FBF781F945F824001DF80400401E59
:104FC000C0B20DF804000028F0D100BF601CC4B2CC
:104FD000032CE0DB0020B7E7880100207B14AE3E05
:104FE0001D5A843F2DE9F04F87B005460C46914687
:104FF00001208DF8100000208DF81100FE4A126883
:10500000917CFD4A5268107804AB0222FCF7D1FD76
:1050100020B14FF0FF3007B0BDE8F08FC820FFF798
:1050200005F800208DF81000F34A1268D17BF24A8F
:105030005268107804AB0122FCF7BBFD10B14FF0B1
:10504000FF30E8E7EC4A12685179EB4A5268107871
:1050500004AB0122FCF7ADFD10B14FF0FF30DAE7F1
:10506000E54A1268917CE44A5268107804AB012248
:10507000FCF79FFD10B14FF0FF30CCE7DE4A12681D
:10508000D17DDD4A5268107804AB0122FCF791FD16
:1050900010B14FF0FF30BEE7D74A12681179D64AF7
:1050A0005268107804AB0122FCF783FD10B14FF079
:1050B000FF30B0E70C208DF81000CF4A126811794C
:1050C000CD4A5268107804AB0122FCF772FD10B192
:1050D0004FF0FF309FE70F20FEF7A8FFC648806A19
:1050E000407A8DF81000C44A12689178C24A52681A
:1050F000107804AB0122FCF75CFD10B14FF0FF30DB
:1051000089E7BD48806A007A8DF81000BA4A1268B3
:105110005178B94A5268107804AB0122FCF749FD76
:1051200010B14FF0FF3076E7B9F1000F07D0B24869
:10513000806A807A40F0E0008DF8100004E0AE480C
:10514000806A807A8DF81000AB4A12689179AA4A79
:105150005268107804AB0122FCF72BFD10B14FF020
:10516000FF3058E7B9F1000F07D0A348806AC07A32
:1051700040F0E0008DF8100003E0A048C07A8DF800
:1051800010009D4A1268D1799B4A5268107804AB8E
:105190000122FCF70EFD10B14FF0FF303BE7B9F1F3
:1051A000000F02D0C820FEF741FF40208DF810000C
:1051B000914A12681179904A5268107804AB012222
:1051C000FCF7F7FC10B14FF0FF3024E778208DF8A2
:1051D0001000894A12685179874A5268107804ABE6
:1051E0000122FCF7E6FC10B14FF0FF3013E78349D2
:1051F0008889FEF71BFF00208DF810007E4A126898
:1052000051797D4A5268107804AB0122FCF7D1FC39
:1052100010B14FF0FF30FEE6774A1268917A764A75
:105220005268107804AB0222FCF71DFC10B14FF05D
:10523000FF30F0E69DF811009DF8101040EA012BB8
:105240000C209BFBF0F0C6B20020A86068602860CC
:10525000A06060602060824665E0674A1268D17A8B
:10526000654A5268107804AB0C22FCF7FCFB10B1C5
:105270004FF0FF30CFE69DF811009DF8101040EA86
:10528000012000B2ADF808009DF813009DF812103F
:1052900040EA012000B2ADF80A009DF815009DF823
:1052A000141040EA012000B2ADF80C00BDF908105E
:1052B000206808442060BDF90A10606808446060F6
:1052C000BDF90C10A0680844A0609DF817009DF877
:1052D000161040EA012000B2ADF800009DF8190058
:1052E0009DF8181040EA012000B2ADF802009DF8C8
:1052F0001B009DF81A1040EA012000B2ADF804002E
:10530000BDF90010286808442860BDF902106868DB
:1053100008446860BDF90410A8680844A8600AF150
:10532000010000F0FF0AB24597DB3448D0F800C016
:105330002868C117090441EA1041070462460023A6
:105340003846FAF711FF32460023CDE90201FAF799
:105350000BFF28602948D0F800C06868C11709040D
:1053600041EA10410704624600233846FAF7FCFE82
:1053700032460023CDE90201FAF7F6FE68601F48C5
:10538000D0F800C0A868C117090441EA1041070419
:10539000624600233846FAF7E7FE32460023CDE99D
:1053A0000201FAF7E1FEA8601448D0F804C02168B1
:1053B000C817000440EA11480F046246002338462B
:1053C0004146FAF7D1FE32460023CDE90201FAF751
:1053D000CBFE20600948D0F804C06068C1170904FA
:1053E00041EA10410704624600233846FAF7BCFE42
:1053F0003246002304E00000880100207872000893
:10540000CDE90201FAF7B0FE60601148D0F804C09F
:10541000A068C117090441EA10410704624600234D
:105420003846FAF7A1FE32460023CDE90201FAF729
:105430009BFEA060A068002804DDA068A0F5803075
:10544000A06003E0A06800F58030A0600020E2E5E5
:10545000787200087CB500BF01A8FFF7D1FC0028D6
:10546000FAD1FBF71FFDC820FEF7E0FDFBF710FDAA
:1054700000240025002609E04748008A04444648E5
:10548000408A05440120FEF7D1FD761CB6F5806FF9
:10549000F2DBC4F38F2041490880C5F38F204049D7
:1054A0000880FBF7FFFC6420FEF7C0FDFBF7F0FC73
:1054B000C820FEF7BBFDFBF7F5FC6420FEF7B6FD48
:1054C000FBF7E6FC02E06846FFF79AFC35490198D5
:1054D000FAF7ECFE06460099FBF750F908D231497D
:1054E0000198FAF791FE06460099FBF751F9EAD3C5
:1054F000FBF7D8FCC820FEF799FDFBF7C9FC40F28A
:10550000DC50FEF793FDFBF7CDFCC820FEF78EFDC7
:10551000FBF7BEFC002005460446002609E01E48B5
:10552000008A04441C48408A05440120FEF77EFDA1
:10553000761CB6F5806FF2DBC4F38F201A49088021
:10554000C5F38F2019490880FBF7ACFC6420FEF7F7
:105550006DFDFBF79DFCC820FEF768FDFBF7A2FC84
:105560006420FEF763FDFBF793FC0C4909880E4AA3
:105570001288881800EBD071C1F34F010C4A1180DA
:105580000A490988064A1288881800EBD071C1F3CD
:105590004F01084A11807CBDCE0100207601002019
:1055A0007C01002000008C42780100207A0100205C
:1055B0007E010020800100202DE9FC5F06460F4699
:1055C00000253D494968087801AB03220D21FCF70D
:1055D0004AFA10B10720BDE8FC9F9DF8040000F0D6
:1055E0001F008DF804009DF8050000F01F008DF8E5
:1055F00005009DF8060000F01F008DF8060000244D
:1056000056E056F8240057F82410A0EB010BBBF12C
:10561000000F01DB594601E0CBF100010846FBF722
:1056200043F84FF08F410090FAF778FE814601A8C9
:10563000005D68B321490868FBF73FF88346594687
:105640001F48FAF76BFE804604E01E494046FAF711
:1056500033FE804601A8005D401EC0B201A9085576
:105660000028F2D141464846FAF758FE83464FF0EB
:105670007E51FAF71BFE82462AF0004B0F488169E3
:105680005846FBF785F812D20120A04005430EE0F2
:105690000A4801694846FBF771F805D30748416994
:1056A0004846FBF775F802D20120A0400543641C70
:1056B000032CA6DB28468EE78801002078720008BC
:1056C00000B04C4554E3853F10B57D2300220121F5
:1056D0004020FCF707FC10BD10B5FA230022012181
:1056E0004020FCF7FFFB10BD10B50446204600F03B
:1056F0000FF80346E01C00F00BF843EAC00083B249
:10570000A01D00F005F843EA801083B2184610BDD2
:10571000014691F90020002A01DD00201EE091F9E8
:105720000020002A01DA042018E091F90120002A63
:1057300001DD012012E091F90120002A01DA0520A3
:105740000CE091F90220002A01DD022006E091F927
:105750000220002A01DA062000E00720704700003E
:1057600010B5FFF7B3FA0A280ED1002405E000BFF8
:10577000FFF7ACFA0A28FBD0641C302CF7DB0B488F
:105780000068401C094908600848007800F00100E2
:1057900028B120210648FBF76EFE012010BD202114
:1057A0000348FBF766FE0020F8E700001800002021
:1057B000001801404820FEF719FCFBF77DFBFDF7C0
:1057C00025FAFBF709FBFDF713FDFBF741F9FBF7A2
:1057D00041FBFCF7CBF800BF00F0DAF80028FBD162
:1057E000FDF744FBFCF718FA6420FEF71FFCFDF7F9
:1057F00081FD6420FEF71AFC38A0FDF7F7FD01F0EB
:1058000098F8FFF727FE67E0FFF7AAFF002850D1BE
:10581000FFF75CFA0446FEF755FB3648007888B17E
:1058200035480078401C3449087008460078FA284A
:1058300001DD0220087030480078012802D12FA035
:10584000FDF7D4FDFFF742FA03280ED1FBF710FA5B
:10585000802001F055F8044621462DA0FDF7C6FD35
:1058600000BFFFF733FA0328FBD0FFF72FFA0446F7
:10587000FEF7D8F8FFF79EFA1E4908700846007830
:10588000012829D12448007830BB00240BE0FBF725
:1058900009FB1E20FEF7CAFBFBF7FAFA1420FEF7FD
:1058A000C5FB601CC4B2052CF1DB01201A4908704D
:1058B00012E0FFF755FF78B1FBF7F4FA6420FEF72A
:1058C000B5FBFBF7E5FAFBF79DFA044621460948CC
:1058D0000078FFF76BF900BF96E700000A5468658F
:1058E0002063617220697320636F6E6E65637465F7
:1058F00064210A0014000020160000206469722050
:1059000069732052494748542121210A2E00000082
:105910003A3A25750A000000150000207047000083
:1059200070B50446002624F00104184890F82400BD
:1059300008B1002070BD1548807A10B94FF0FF30D3
:10594000F8E71248057C807A204010490874084620
:10595000007CA04202D04FF0FF3600E0002614B9D0
:105960000A48007D18B1012001F0CCF902E00020C6
:1059700001F0C8F93CB100F06FFB20B10348057499
:105980004FF0FF30D6E73046D4E700008801002012
:1059900070B50024FBF7CAFE00F0FAF8002840D1E9
:1059A000782000F005FFC4B20CB1012070BD782052
:1059B000FFF7B6FFC4B20CB10220F7E7642000F095
:1059C000A9FEC4B20CB10320F0E7FEF7F5FCC4B2A7
:1059D0000CB10420EAE71548FFF786FE0546FEF7FE
:1059E000ADFEC4B20CB10520E0E740F27310FEF743
:1059F0008BFBC4B20CB10620D8E76420FEF7CEFDC5
:105A0000C4B20CB10720D1E700F0B8FF04460CB1D6
:105A10000820CBE7012000F079FDC4B21CB10920B9
:105A2000C4E70A20C2E70020C0E70000B40100205C
:105A300001461148407A30B1012807D0022808D029
:105A400003280CD108E0022008700BE00420087045
:105A500008E00820087005E01020087002E04FF010
:105A6000FF30704700BF0448C07C18B1087840067A
:105A7000000E08700020F4E788010020014602486B
:105A8000007C0870002070478801002001460F4804
:105A9000007A30B1012807D0022809D003280FD19D
:105AA0000AE0FA2008800EE04FF4FA7008800AE05D
:105AB0004FF47A70088006E04FF4FA60088002E044
:105AC0000020088000BF00BF002070478801002030
:105AD00001460E48007A30B1012807D0022808D0CC
