:020000040800F2
:1000000038040020450100081305000853030008C8
:100010000F050008B90100085D0A00080000000093
:10002000000000000000000000000000C9080008F7
:100030002102000800000000B1070008B50900080F
:100040005F0100085F0100085F0100085F01000810
:100050005F0100085F0100085F0100085F01000800
:100060005F0100085F0100085F0100085F010008F0
:100070005F0100085F0100085F0100085F010008E0
:100080005F0100085F0100085F0100085F010008D0
:100090005F0100085F0100085F0100085F010008C0
:1000A0005F0100085F0100085F0100085F010008B0
:1000B0005F0100085F0100085F0100085F010008A0
:1000C0005F0100085F0100085F0100085F01000890
:1000D0005F0100085F0100085F0100085F01000880
:1000E0005F0100085F0100085F0100085F01000870
:1000F0005F0100085F0100085F0100085F01000860
:100100005F0100085F0100085F0100085F0100084F
:100110005F0100085F0100085F0100085F0100083F
:100120005F0100085F0100085F0100085F0100082F
:10013000DFF80CD000F018F800480047C10B0008A9
:10014000380400200648804706480047FEE7FEE7DF
:10015000FEE7FEE7FEE7FEE7FEE7FEE7FEE7FEE777
:10016000B909000831010008064C074D06E0E068B7
:1001700040F0010394E8070098471034AC42F6D3EE
:10018000FFF7DAFF1C1000083C1000081CB500F057
:1001900008FA40208DF8000000208DF801000120B1
:1001A0008DF8020000208DF8030082208DF80400F5
:1001B000684600F06DFA1CBD00BFFEE708B50121DE
:1001C000082000F007FB4FF46040ADF8000010205D
:1001D0008DF8030003208DF8020069460F4800F0F7
:1001E00020F84FF48050ADF8000028208DF803006F
:1001F00069460A4800F015F800F05EFE00F05CFE6B
:1002000000F05AFE00F086FC00F0B8FE00F0E2FEBE
:1002100000F0E6FC00F034FC08BD0000000C0140DA
:1002200070472DE9F04102460025002600200023FA
:100230000024002791F803C00CF00F0591F803C0CB
:100240000CF0100CBCF1000F03D091F802C04CEA86
:10025000050591F800C0BCF1000F31D014680020F2
:100260002BE04FF0010C0CFA00F3B1F800C00CEADF
:1002700003069E4220D183004FF00F0C0CFA03F7C7
:10028000BC4305FA03FC4CEA040491F803C0BCF13A
:10029000280F06D14FF0010C0CFA00FCC2F814C074
:1002A0000AE091F803C0BCF1480F05D14FF0010CF2
:1002B0000CFA00FCC2F810C0401C0828D1D314600E
:1002C000B1F800C0BCF1FF0F34DD546800202EE00F
:1002D00000F1080C4FF0010808FA0CF3B1F800C067
:1002E0000CEA03069E4221D183004FF00F0C0CFA5A
:1002F00003F7BC4305FA03FC4CEA040491F803C07D
:10030000BCF1280F05D100F1080C08FA0CF8C2F86E
:10031000148091F803C0BCF1480F07D100F1080C1C
:100320004FF0010808FA0CF8C2F81080401C0828A9
:10033000CED35460BDE8F0810246002093680B40A4
:100340000BB1012000E0002070474161704701615E
:10035000704700BFFEE770B5024600240025002369
:100360000020958A138B1B0445EA030626F07F4480
:1003700004EA01068E4201D1012000E0002070BD98
:1003800021B1028842F00102028004E002884FF6A7
:10039000FE731A400280704721B1028842F48072D5
:1003A000028004E002884FF6FF631A400280704723
:1003B00021B1028842F40072028004E002884FF604
:1003C000FF531A40028070470CB5024600200023FC
:1003D0000193009300920B0F019321F07F41019B49
:1003E0001BB1009B1433009303E0090C009B1833EE
:1003F0000093009B1B680B400BB1012000E0002024
:100400000CBD00002DE9F04385B004460D460026E2
:10041000B1460427DFF8CC80A6884FF6C0700640AE
:10042000684600F0E7F9DDF808802F48B8FBF0F0E7
:100430001FFA80F946EA0906A68020884FF6FE7169
:100440000840208000262949286888420CD828685E
:100450004000B8FBF0F087B2042F00DA04273E43D7
:1004600009F10100208427E0E8884BF6FF718842FB
:1004700006D1286800EB4000B8FBF0F087B209E035
:10048000286800EBC00101EB0010B8FBF0F087B268
:1004900047F48047C7F30B0008B947F0010747F45A
:1004A000004006434FF4967009FB00F04FF47A7158
:1004B00090FBF1F0401C2084A683208840F00100CE
:1004C000208026884FF6F5300640A88869890843C1
:1004D00006432680A88929890843208105B0BDE804
:1004E000F083000000127A0040420F00A086010055
:1004F0000146088AC0B2704712B141F0010102E022
:100500004FF6FE731940018270470182704700BFA9
:10051000FEE7704710B5044601210C48FFF73CFF89
:1005200000BF0B490948FFF716FF0028F9D0600605
:10053000010E00220548FFF7DFFF00BF0549034811
:10054000FFF709FF0028F9D010BD0000005400405B
:10055000010003008200070010B501210148FFF7E8
:1005600027FF10BD0054004008B50121082000F00D
:1005700031F90121480500F01DF9C020ADF8000057
:1005800003208DF802001C208DF803006946024804
:10059000FFF747FE08BD0000000C014001460120A6
:1005A000704710B5FFF7E0FF00F002F810BD000043
:1005B0001FB50020ADF804004BF6FF70ADF8060043
:1005C0004FF48060ADF80A000001ADF80C0005485A
:1005D000009069460448FFF715FF01210248FFF724
:1005E000CFFE1FBD400D03000054004070B506460D
:1005F0000D46144600BF4FF400311A48FFF7E4FEE1
:100600000028F8D101211748FFF7C6FE00BF1649A0
:100610001448FFF7A0FE0028F9D07006010E012251
:100620001048FFF769FF00BF0F49491C0D48FFF74D
:1006300092FE0028F8D011E01CB901210948FFF70B
:10064000B7FE09493F310748FFF785FE30B105483D
:10065000FFF74EFF28706D1C601EC4B2002CEBD15A
:10066000012070BD005400400100030010B5044695
:1006700021460548FFF749FF00BF04490248FFF73C
:100680006AFE0028F9D010BD005400408400070025
:1006900070B5044600250026FFF783FF2078FFF79A
:1006A0007DFF002833D02078FFF734FF0020FFF7CC
:1006B000DDFF1020FFF7DAFFFFF74EFF2078FFF78E
:1006C00029FFFE20FFF7D2FF2079FFF7CFFFFFF7CA
:1006D00043FF2078FFF71EFF0020FFF7C7FF212010
:1006E000FFF7C4FFFFF738FF60780001A17840EA08
:1006F0008100E1780843C6B22078FFF70BFF0120A4
:10070000FFF7B4FF3046FFF7B1FFFFF725FF207872
:1007100000F02BF8284670BD2DE9F04107460E4643
:1007200014461D460F2E1EDCB4F5805F1BDAB5F5AE
:10073000805F18DA3846FFF7EDFE062101EB8601EF
:10074000C8B2FFF793FFE0B2FFF790FFC4F30320B6
:10075000FFF78CFFE8B2FFF789FFC5F30320FFF72F
:1007600085FFFFF7F9FEBDE8F08138B504460020AB
:1007700000902046FFF7CEFE0020FFF777FFFFF73F
:10078000EBFE012269462046FFF730FF9DF800008E
:1007900020F0100000902046FFF7BCFE0020FFF77D
:1007A00065FF9DF80000FFF761FFFFF7D5FE38BD3C
:1007B0007047000029B1064AD2690243044BDA614E
:1007C00004E0034AD2698243014BDA6170470000BA
:1007D0000010024029B1064A92690243044B9A6113
:1007E00004E0034A92698243014B9A61704700001A
:1007F0000010024030B500210022002400232D4DBE
:100800006D6805F00C0121B1042905D0082923D118
:1008100005E0294D056022E0274D05601FE0254DCC
:100820006D6805F47012234D6D6805F4803402255F
:1008300005EB92421CB9214D554305600BE01D4D5F
:100840006D6805F400351DB11C4D5543056002E08F
:10085000194D5543056002E0174D056000BF00BF0C
:10086000144D6D6805F0F0010909154D6B5C0568C4
:10087000DD4045600F4D6D6805F4E061090A104DDB
:100880006B5C4568DD4085600A4D6D6805F460511C
:10089000C90A0B4D6B5C4568DD40C560054D6D6850
:1008A00005F44041890B074D6B5CC568B5FBF3F55A
:1008B000056130BD0010024000127A0000093D00C1
:1008C0001800002028000020704710B500F002F842
:1008D00010BD00000CB50020019000903348006866
:1008E00040F480303149086000BF3048006800F4AF
:1008F000003000900198401C0190009818B90198B0
:10090000B0F5A06FF1D12948006800F4003010B1B3
:100910000120009001E0002000900098012843D1C0
:100920002348006840F0100021490860084600682C
:1009300020F0030008600846006840F002000860EC
:100940001A484068194948600846406848600846A7
:10095000406840F4806048600846406820F47C109D
:1009600048600846406840F4E8104860084600685F
:1009700040F08070086000BF0C48006800F0007014
:100980000028F9D00948406820F003000749486072
:100990000846406840F00200486000BF03484068D5
:1009A00000F00C000828F9D10CBD00000010024036
:1009B000002002407047000010B51348006840F066
:1009C00001001149086008464068104908400E4976
:1009D0004860084600680E4908400B490860084610
:1009E000006820F4802008600846406820F4FE007B
:1009F00048604FF41F008860FFF767FF4FF000600A
:100A00000449086010BD0000001002400000FFF81B
:100A1000FFFFF6FE08ED00E008B501210C20FFF70E
:100A2000D9FE0320ADF8000018208DF80300032044
:100A30008DF8020069460748FFF7F3FBC020ADF8C8
:100A4000000069460448FFF7ECFBFFF79FFB00F04E
:100A500057FA08BD000C01400008014000BFFEE746
:100A600002E008C8121F08C1002AFAD17047704777
:100A7000002001E001C1121F002AFBD170470000D5
:100A8000002004E00021034A1154411CC8B2092887
:100A9000F8DB70472C0000204FF0E021096921F0BD
:100AA00004014FF0E0221161C21700EB5272C2F351
:100AB000C702074B1A701946097801EB4102C2EBD5
:100AC000C1114FF6FF7202EAC101024A118070475C
:100AD000000000200200002001460D4A12784A431F
:100AE0004FF0E0235A6100229A6101221A6100BF8F
:100AF0004FF0E022106900F001021AB100F48032D8
:100B0000002AF5D000224FF0E0231A619A61704765
:100B10000000002010B54FF480411548FFF715FC88
:100B20001020FFF7D9FF012000F0ECF8432000F07F
:100B3000E9F8002000F0E6F8012000F0E3F80020DA
:100B400000F0E0F8002000F0DDF8002000F0DAF816
:100B5000002000F0D7F8002000F0D4F84FF48041D6
:100B60000348FFF7F4FB1020FFF7B6FF10BD0000AD
:100B7000000C014010B5FFF783FF00F061F80D484D
:100B8000C0780C49097940EA01200B49088000240B
:100B90000BE00A48015D01208840074909880840A8
:100BA00008B9204610BD601CC4B2102CF1DB002037
:100BB000F8E700002C0000200400002008000020BE
:100BC0004820FFF769FFFFF7F9FAFFF7DFFAFFF7B1
:100BD00023FF04E0FFF7CEFF044600F0A7F9F9E792
:100BE00010B54FF480411548FFF7AFFB1020FFF719
:100BF00073FF012000F086F8432000F083F8002006
:100C000000F080F8002000F07DF85A2000F07AF81B
:100C10005A2000F077F85A2000F074F85A2000F0BB
:100C200071F85A2000F06EF84FF480410348FFF746
:100C30008EFB1020FFF750FF10BD0000000C01409C
:100C40001CB501200190002000904FF480412A48FB
:100C5000FFF77BFB2949087800F054F827494878CA
:100C600000F050F8022000903BE0012001902CE0C1
:100C70004FF400412048FFF76AFB0220FFF72CFFEA
:100C80004FF400411C48FFF760FB0220FFF724FFF0
:100C90004FF400411848FFF75AFB4FF480511648B3
:100CA000FFF74AFB50B116489DF80010405CBDF8B4
:100CB0000410084312499DF800208854BDF8040030
:100CC0004FF6FF7101EA40000190BDF80400FF28D3
:100CD000CEDD1020FFF700FF9DF80000401CC0B2E1
:100CE00000909DF800000928BFDB4FF480410248C6
:100CF000FFF72DFB1CBD0000000C0140060000208A
:100D00002C00002038B50446012000900020224924
:100D100048700120009037E0BDF80000204028B165
:100D20004FF400511D48FFF712FB04E04FF400514F
:100D30001A48FFF70AFB4FF400411848FFF707FB7A
:100D40000220FFF7C9FE4FF400411448FFF7FDFAF7
:100D50000220FFF7C1FE4FF400411048FFF7F7FAF9
:100D60004FF480510D48FFF7E7FA30B10A48407858
:100D7000BDF80010084308494870BDF800004FF660
:100D8000FF7101EA40000090BDF80000FF28C3DDBC
:100D90001020FFF7A1FE38BD2C000020000C014000
:100DA00010B502210748FFF7D2FA80210648FFF765
:100DB000CEFA01210348FFF7C8FA40210248FFF7A5
:100DC000C4FA10BD000C01400008014010B501211B
:100DD0000748FFF7BCFA40210648FFF7B8FA02219E
:100DE0000348FFF7B2FA80210248FFF7AEFA10BDC0
:100DF000000C0140000801402DE9F04104460D4679
:100E0000164634B1012C07D0022C08D0032C0CD18B
:100E100008E0FFF7DBFF08E0FFF7C2FF05E000F0A6
:100E20001FF802E000F032F800BF00BFC5EB05304C
:100E3000642190FBF1F087B23B4600220421402060
:100E4000FFF76AFCC6EB0630642190FBF1F087B235
:100E50003B46002205214020FFF75EFCBDE8F08103
:100E600010B501210748FFF772FA80210648FFF705
:100E70006EFA02210348FFF768FA40210248FFF7A3
:100E800064FA10BD000C01400008014010B50221B9
:100E90000748FFF75CFA40210648FFF758FA01219E
:100EA0000348FFF752FA80210248FFF74EFA10BDBF
:100EB000000C01400008014010B54FF480410F487C
:100EC000FFF743FA1020FFF707FE0120FFF71AFF94
:100ED0004220FFF717FF0020FFF714FF0020FFF765
:100EE00011FF0020FFF70EFF4FF480410348FFF78A
:100EF0002EFA1020FFF7F0FD10BD0000000C01409D
:100F000010B501210748FFF720FA40210648FFF7F6
:100F10001CFA02210348FFF718FA80210248FFF764
:100F200014FA10BD000C01400008014010B5044641
:100F3000042C06D0052C10D0062C08D0072C18D174
:100F400011E0462211460020FFF756FF14E046222A
:100F500011460120FFF750FF0EE046221146032004
:100F6000FFF74AFF08E0462211460220FFF744FF40
:100F700002E0FFF7C5FF00BF00BF10BD10B54FF482
:100F800080411348FFF7E1F90120FFF7BBFE442041
:100F9000FFF7B8FE0020FFF7B5FE0120FFF7B2FE15
:100FA000EE20FFF7AFFE0020FFF7ACFE0020FFF7BA
:100FB000A9FE0020FFF7A6FE0020FFF7A3FE4FF4D6
:100FC00080410348FFF7C3F91020FFF785FD10BDEE
:100FD000000C014010B54FF480410F48FFF7B5F900
:100FE0001020FFF779FD0120FFF78CFE4D20FFF761
:100FF00089FE0020FFF786FE0020FFF783FE012018
:10100000FFF780FE4FF480410348FFF7A0F910205E
:10101000FFF762FD10BD0000000C01403C1000080D
:10102000000000202C000000600A00086810000882
:101030002C0000200C040000700A000800000000D2
:1010400000000142000102030405060708090A0B1B
:101050000C0D0E0F00000000010203040102030446
:08106000060708090204060856
:0400000508000131BD
:00000001FF
