:020000040800F2
:10000000B805002045010008DB0F0008AF09000813
:10001000D70F00089D050008952200080000000089
:10002000000000000000000000000000C5140008EF
:10003000A50700080000000041130008B1150008E2
:100040005F0100085F0100085F0100085F01000810
:100050005F0100085F0100085F0100085F01000800
:100060005F0100085F0100085F0100085F010008F0
:100070005F0100085F0100085F0100085F010008E0
:100080005F0100085F0100085F0100085F010008D0
:100090005F0100085F0100085F0100085F010008C0
:1000A0005F0100085F0100085F0100085F010008B0
:1000B0005F010008551800085F0100085F01000893
:1000C0005F0100085F0100085F0100085F01000890
:1000D0005F010008B51E00085F0100085F0100080D
:1000E0005F0100085F0100085F0100085F01000870
:1000F0005F0100085F0100085F0100085F01000860
:100100005F0100085F0100085F0100085F0100084F
:100110005F0100085F0100085F0100085F0100083F
:100120005F0100085F0100085F0100085F0100082F
:10013000DFF80CD000F058F800480047092C000800
:10014000B80500200648804706480047FEE7FEE75E
:10015000FEE7FEE7FEE7FEE7FEE7FEE7FEE7FEE777
:10016000B5150008310100082DE9F05F05460020B3
:1001700092469B4688460646814640241BE0284618
:1001800041464746224600F041F853465A46C01AB7
:10019000914110D311461846224600F016F82D1A48
:1001A00067EB01084F4622460120002100F00DF8C0
:1001B00017EB00094E41201EA4F10104DFDC484684
:1001C00031462A464346BDE8F09F202A04DB203A08
:1001D00000FA02F1002070479140C2F1200320FA9A
:1001E00003F3194390407047064C074D06E0E06862
:1001F00040F0010394E8070098471034AC42F6D36E
:10020000FFF79AFF9C330008BC330008202A04DB68
:10021000203A21FA02F00021704721FA02F3D0407F
:10022000C2F12002914008431946704770B58C18FE
:1002300010F8015B15F0070301D110F8013B2A11FA
:1002400006D110F8012B03E010F8016B01F8016BE7
:100250005B1EF9D12B0705D40023521E0DD401F8E3
:10026000013BFAE710F8013BCB1A921C03E013F8AC
:10027000015B01F8015B521EF9D5A142D8D30020E1
:1002800070BD21B1826842F00102826003E08268A1
:1002900022F001028260704700B591B00121142064
:1002A00001F07CF81E20ADF8400000208DF84300DE
:1002B00010A9534800F095FA3F20ADF8400010A96E
:1002C000504800F08EFA0121480201F067F84FF41F
:1002D000004001F037F800200B9001208DF830002D
:1002E0008DF831004FF460200D9000200E900A2010
:1002F0008DF83C000BA9444800F0ACF8072301221C
:100300001146414800F0CEF80723022211463E482C
:1003100000F0C8F80723032211463B4800F0C2F85A
:10032000072304221146384800F0BCF807230522B1
:100330000A21354800F0B6F8072306220B2132487F
:1003400000F0B0F807231A460C212F4800F0AAF855
:10035000072308220D212C4800F0A4F807230922C6
:100360000E21294800F09EF807230A220F21264873
:1003700000F098F80121244800F04CF801212248AF
:10038000FFF77FFF204800F0E9F800BF1E4800F0AB
:1003900056F80028FAD11C4800F0E5F800BF1A48CA
:1003A00000F043F80028FAD10121084600F0D6FFFA
:1003B000164800F033F914484C300090144801906E
:1003C000002002900A2003900020049080200590D5
:1003D00040000690800007902020089000020990BD
:1003E00000200A906946094800F0BEF9012107483B
:1003F00000F008F901210448FFF743FF11B000BDE8
:1004000000080140001001400024014008000240A3
:100410007C01002021B1826842F48072826003E096
:10042000826822F4807282607047014600208A68E8
:1004300002F004020AB1012000E0002070470146EA
:1004400000208A6802F008020AB1012000E00020C2
:100450007047000030B502460020002350680F4C62
:1004600020400D790C6844EA0524204350609068D0
:100470000B4C2040D1E902542C434D7944EA450409
:1004800020439060D06A20F470000C7C641EE4B2BB
:10049000234340EA0350D06230BD0000FFFEF0FF6E
:1004A000FDF7F1FFF0B504460D4600200021092DAF
:1004B00011DDE068A5F10A0606EB4607072606FAF5
:1004C00007F18843A5F10A0606EB460603FA06F192
:1004D0000843E0600CE0206905EB4507072606FAB3
:1004E00007F1884305EB450603FA06F1084320614E
:1004F000072A0FDA606B561E06EB86071F2606FAE0
:1005000007F18843561E06EB860605FA06F10843F6
:10051000606322E00D2A0FDA206BD61F06EB8607F8
:100520001F2606FA07F18843D61F06EB860605FA52
:1005300006F10843206310E0E06AA2F10D0606EB25
:1005400086071F2606FA07F18843A2F10D0606EB7F
:10055000860605FA06F10843E062F0BD816841F0C5
:10056000080181607047816841F004018160704733
:100570001CB500F0DEFD40208DF8000000208DF855
:10058000010001208DF8020000208DF80300822078
:100590008DF80400684600F043FE1CBD00BFFEE776
:1005A00008B50121402000F0F9FE1C20ADF8000044
:1005B00010208DF8030003208DF8020069461048D2
:1005C00000F00FF90220ADF8000028208DF803009C
:1005D00069460B4800F005F902F0C0F902F05CFD35
:1005E00002F05AFD02F058FD02F02AFA02F0E4FD92
:1005F00002F00CFE02F0C2FB02F0A4F908BD0000FC
:100600000018014021B1026842F00102026004E0DA
:1006100002684FF6FE731A400260704701684FF699
:10062000FE72114001600021016041608160C16083
:100630004B49884208D14A490839496841F00F01BD
:10064000474A083A51608AE045491431884208D146
:1006500043490839496841F0F001414A083A51607C
:100660007DE03F492831884208D13D490839496831
:1006700041F470613A4A083A516070E038493C31BF
:10068000884208D136490839496841F47041344AF2
:10069000083A516063E032495031884208D130490C
:1006A0000839496841F470212D4A083A516056E0F2
:1006B0002B496431884208D129490839496841F4F5
:1006C0007001274A083A516049E02549783188424B
:1006D00008D123490839496841F07061204A083A35
:1006E00051603CE01F49884206D1011F096841F072
:1006F0000F01021F116032E01A491431884208D1FB
:100700001849091F096841F0F001164A121F1160CB
:1007100025E014492831884208D11249091F096887
:1007200041F470610F4A121F116018E00D493C310D
:10073000884208D10B49091F096841F47041094AF0
:10074000121F11600BE007495031884207D105495B
:10075000091F096841F47021024A121F1160704795
:10076000080002400804024010B50022026847F663
:10077000F0739A430C6A8B6823430C6923434C69DA
:1007800023438C692343CC6923434C6A23438C6AFB
:1007900023431A430260CB6843600B6883604B6855
:1007A000C36010BD70470446204602F0B7FA2046E9
:1007B00002F0BEFC204602F071F92CB15F22114616
:1007C000032002F0DDFB04E05F221146022002F06C
:1007D000D7FBC82002F0F8F8204602F039FD00BF30
:1007E000FEE72DE9F0410246002500260020002307
:1007F0000024002791F803C00CF00F0591F803C006
:100800000CF0100CBCF1000F03D091F802C04CEAC0
:10081000050591F800C0BCF1000F31D0146800202C
:100820002BE04FF0010C0CFA00F3B1F800C00CEA19
:1008300003069E4220D183004FF00F0C0CFA03F701
:10084000BC4305FA03FC4CEA040491F803C0BCF174
:10085000280F06D14FF0010C0CFA00FCC2F814C0AE
:100860000AE091F803C0BCF1480F05D14FF0010C2C
:100870000CFA00FCC2F810C0401C0828D1D3146048
:10088000B1F800C0BCF1FF0F34DD546800202EE049
:1008900000F1080C4FF0010808FA0CF3B1F800C0A1
:1008A0000CEA03069E4221D183004FF00F0C0CFA94
:1008B00003F7BC4305FA03FC4CEA040491F803C0B7
:1008C000BCF1280F05D100F1080C08FA0CF8C2F8A9
:1008D000148091F803C0BCF1480F07D100F1080C57
:1008E0004FF0010808FA0CF8C2F81080401C0828E4
:1008F000CED35460BDE8F081F0B50A460023002451
:100900000021002500F00046B6F1004F02D11D4E37
:10091000F16901E01B4E7168C0F3034583B200F436
:100920004016B6F5401F08D121F07061154E76686B
:1009300026F07066134F7E6012E000F48016B6F564
:10094000801F06D1032606FA05F4A14341F0706129
:1009500006E0460D360103FA06F6B14341F0706138
:1009600022B1460D360103FA06F6314300F0004687
:10097000B6F1004F02D1034EF16101E0014E71600A
:10098000F0BD0000000001400246002093680B40CB
:100990000BB1012000E0002070470146C86880B21A
:1009A00070474161704701617047C160704700BF87
:1009B000FEE770B502460024002500230020958A3A
:1009C000138B1B0445EA030626F07F4404EA010664
:1009D0008E4201D1012000E0002070BD21B10288CB
:1009E00042F00102028004E002884FF6FE731A40D2
:1009F0000280704721B1028842F48072028004E0D4
:100A000002884FF6FF631A400280704721B10288C6
:100A100042F40072028004E002884FF6FF531A404D
:100A2000028070470CB5024600200023019300931A
:100A300000920B0F019321F07F41019B1BB1009BA2
:100A40001433009303E0090C009B18330093009BC0
:100A50001B680B400BB1012000E000200CBD000022
:100A60002DE9F04385B004460D460026B146042723
:100A7000DFF8CC80A6884FF6C0700640684600F0CC
:100A80009DFCDDF808802F48B8FBF0F01FFA80F9D4
:100A900046EA0906A68020884FF6FE7108402080AD
:100AA00000262949286888420CD828684000B8FBED
:100AB000F0F087B2042F00DA04273E4309F1010069
:100AC000208427E0E8884BF6FF71884206D1286829
:100AD00000EB4000B8FBF0F087B209E0286800EBBB
:100AE000C00101EB0010B8FBF0F087B247F480477B
:100AF000C7F30B0008B947F0010747F4004006436D
:100B00004FF4967009FB00F04FF47A7190FBF1F00E
:100B1000401C2084A683208840F001002080268885
:100B20004FF6F5300640A8886989084306432680B9
:100B3000A88929890843208105B0BDE8F083000019
:100B400000127A0040420F00A08601000146088A88
:100B5000C0B2704712B141F0010102E04FF6FE73DE
:100B600019400182704701827047000010B50020D3
:100B70000E4908600E48006820F470400C49086077
:100B80000846006840F44050086000200949C1F858
:100B9000AC0100F011F801200449086000F00CF8E5
:100BA00000200449C1F8A80110BD0000A88121421D
:100BB000040C01400080214210B5022001F022FF08
:100BC00010BD000008B50121082000F0E7FB4FF43C
:100BD0004060ADF8000010208DF8030003208DF870
:100BE000020069460448FFF7FCFD4FF440610248EB
:100BF000FFF7D9FE08BD0000000C014010B5002031
:100C00000E4908600E48006820F470400C490860E6
:100C10000846006840F44050086001200949C1F8C6
:100C2000AC01FFF7C9FF012004490860FFF7C4FFCA
:100C300000200449C1F8A80110BD0000A88121428C
:100C4000040C01400080214270B50546002416487E
:100C5000006820F47040144908600846006840F4B9
:100C600000400860002614E0002010490860FFF7EB
:100C7000A3FF01200E49C1F8A8016006040E0B482D
:100C80007C38006808B1601CC4B2FFF795FF701C87
:100C9000C6B2082EE8DB15B9FFF7B0FF01E0FFF799
:100CA00065FF204670BD0000040C0140A881214270
:100CB0000080214270B504461248006820F470405C
:100CC000104908600846006840F440500860002061
:100CD0000D490860002512E0E0090B49091D086074
:100CE0006006040E01200949C1F8A801FFF764FF5E
:100CF000002005490860FFF75FFF681CC5B2082D9A
:100D0000EADB70BD040C0140A88121420080214231
:100D100010B50E48006820F470400C490860084681
:100D2000006840F440500860012009490860094902
:100D3000C1F8A801FFF740FF002005490860FFF750
:100D40003BFF00200349C1F8A80110BD040C01407D
:100D5000AC8121420080214210B50E48006820F489
:100D600070400C4908600846006840F44050086034
:100D70000020094908600949C1F8AC01FFF71CFFD0
:100D80000120054908600549C1F8AC01FFF714FFCF
:100D900010BD0000040C0140A881214200802142C6
:100DA00010B500241448006820F47040124908600F
:100DB0000846006840F40040086001200F490860C0
:100DC000FFF7FAFE01200E49C1F8A801FFF7F4FE73
:100DD00007E0601CC4B2FA2C03DDFFF7BDFF012061
:100DE00010BD0648803800680028F2D10349091F69
:100DF000086000BFF4E70000040C0140AC81214210
:100E00000080214238B50121084600F0C7FA0121CF
:100E1000042000F0C3FA4FF40040ADF800001020A9
:100E20008DF8030003208DF8020069462248FFF781
:100E3000D8FC01212148FFF75FFD00202049086010
:100E4000FFF7C0FE80216B2000F0A3F8642001F0C2
:100E5000BBFD00216B2000F09CF8032000F057F848
:100E6000002000F04CF8322000F076F80021382005
:100E700000F08FF800216A2000F08BF80021232079
:100E800000F087F88021372000F083F8752000F00B
:100E900019F80446682C0BD101216B2000F079F879
:100EA00000216C2000F075F8322000F055F801E0C8
:100EB000012038BD0020FCE700080140000230009E
:100EC000BC01214270B50446FFF722FFD020FFF796
:100ED000F1FEFFF765FF2046FFF7ECFEFFF760FF2E
:100EE000FFF716FFD120FFF7E5FEFFF759FF0020BF
:100EF000FFF7AAFE0546FFF72FFF284670BD10B585
:100F00000446E006010E1C2000F043F810BD10B5A9
:100F10000446E006010E1B2000F03BF810BD70B542
:100F200004460025BC2C01DB012510E0622C01DB0E
:100F300002250CE02A2C01DB032508E0142C01DB40
:100F4000042504E00A2C01DB052500E006252946DE
:100F50001A2000F01EF870BD70B50446B4F57A7F13
:100F600001DD4FF47A74042C00DA04244FF47A7013
:100F700090FBF4F0401EC5B22946192000F009F894
:100F80000546264604EBD671C1F34F00FFF7C7FFB5
:100F900070BD70B505460C46FFF7BAFED020FFF7CE
:100FA00089FEFFF7FDFE18B1FFF7D6FE012070BDE8
:100FB0002846FFF77FFEFFF7F3FE2046FFF77AFE95
:100FC000FFF7EEFE18B1FFF7C7FE0120EFE7FFF7CE
:100FD000C3FE0020EBE700BFFEE7704708B5002125
:100FE0004FF0006000F054F84FF4E06000F046F875
:100FF00025208DF8000000208DF8020001208DF8DA
:101000000300684600F002F808BD000070B500213A
:1010100000230F22C47804B3154C246804F4E06460
:10102000C4F5E064210AC1F10403CA40447804FA1B
:1010300003F184781440214309010E4C0678A15530
:10104000047804F01F050124AC4005786D11AD0053
:1010500005F1E025C5F8004109E0047804F01F051A
:101060000124AC40044D0678761145F8264070BD49
:101070000CED00E000E400E080E100E00249014303
:10108000024A1160704700000000FA050CED00E014
:10109000024A0A400243024B1A60704780FFFF1F5A
:1010A00008ED00E010B5044601210C48FFF7A2FC52
:1010B00000BF0B490948FFF77CFC0028F9D0600607
:1010C000010E00220548FFF745FD00BF0549034812
:1010D000FFF76FFC0028F9D010BD0000005400405D
:1010E000010003008200070010B501210148FFF74D
:1010F0008DFC10BD0054004008B50121082000F00F
:101100004DF90121480500F039F9C020ADF8000083
:1011100003208DF802001C208DF803006946024868
:10112000FFF75FFB08BD0000000C014001460120F5
:10113000704710B5FFF7E0FF00F002F810BD0000A7
:101140001FB50020ADF804004BF6FF70ADF80600A7
:101150004FF48060ADF80A000001ADF80C000548BE
:10116000009069460448FFF77BFC01210248FFF725
:1011700035FC1FBD400D03000054004070B506460D
:101180000D46144600BF4FF400311A48FFF74AFCE1
:101190000028F8D101211748FFF72CFC00BF1649A1
:1011A0001448FFF706FC0028F9D07006010E012252
:1011B0001048FFF7CFFC00BF0F49491C0D48FFF74F
:1011C000F8FB0028F8D011E01CB901210948FFF70D
:1011D0001DFC09493F310748FFF7EBFB30B10548DB
:1011E000FFF7B4FC28706D1C601EC4B2002CEBD15C
:1011F000012070BD005400400100030010B50446FA
:1012000021460548FFF7AFFC00BF04490248FFF73D
:10121000D0FB0028F9D010BD005400408400070026
:1012200070B5044600250026FFF783FF2078FFF7FE
:101230007DFF002833D02078FFF734FF0020FFF730
:10124000DDFF1020FFF7DAFFFFF74EFF2078FFF7F2
:1012500029FFFE20FFF7D2FF2079FFF7CFFFFFF72E
:1012600043FF2078FFF71EFF0020FFF7C7FF212074
:10127000FFF7C4FFFFF738FF60780001A17840EA6C
:101280008100E1780843C6B22078FFF70BFF012008
:10129000FFF7B4FF3046FFF7B1FFFFF725FF2078D7
:1012A00000F02BF8284670BD2DE9F04107460E46A8
:1012B00014461D460F2E1EDCB4F5805F1BDAB5F513
:1012C000805F18DA3846FFF7EDFE062101EB860154
:1012D000C8B2FFF793FFE0B2FFF790FFC4F303201B
:1012E000FFF78CFFE8B2FFF789FFC5F30320FFF794
:1012F00085FFFFF7F9FEBDE8F08138B50446002010
:1013000000902046FFF7CEFE0020FFF777FFFFF7A3
:10131000EBFE012269462046FFF730FF9DF80000F2
:1013200020F0100000902046FFF7BCFE0020FFF7E1
:1013300065FF9DF80000FFF761FFFFF7D5FE38BDA0
:101340007047000001460020034A506820F44040E6
:1013500008435060704700000010024029B1064A5F
:1013600052690243044B5A6104E0034A52698243C2
:10137000014B5A61704700000010024029B1064A33
:10138000D2690243044BDA6104E0034AD269824322
:10139000014BDA61704700000010024029B1064A93
:1013A00092690243044B9A6104E0034A92698243C2
:1013B000014B9A61704700000010024030B50021D7
:1013C0000022002400232D4D6D6805F00C0121B191
:1013D000042905D0082923D105E0294D056022E024
:1013E000274D05601FE0254D6D6805F47012234DF3
:1013F0006D6805F48034022505EB92421CB9214D3D
:10140000554305600BE01D4D6D6805F400351DB1B9
:101410001C4D5543056002E0194D5543056002E03F
:10142000174D056000BF00BF144D6D6805F0F00159
:101430000909154D6B5C0568DD4045600F4D6D6811
:1014400005F4E061090A104D6B5C4568DD4085607C
:101450000A4D6D6805F46051C90A0B4D6B5C456817
:10146000DD40C560054D6D6805F44041890B074DB1
:101470006B5CC568B5FBF3F5056130BD001002403B
:1014800000127A0000093D00580100206801002088
:1014900000200849087008490870012007490870B1
:1014A000002003E006490854411CC8B20028F9D1C5
:1014B000704700003B0100203C0100203D0100205E
:1014C0003B000020704710B500F002F810BD00008E
:1014D0000CB50020019000903348006840F4803043
:1014E0003149086000BF3048006800F400300090C7
:1014F0000198401C0190009818B90198B0F5A06FB0
:10150000F1D12948006800F4003010B101200090AA
:1015100001E0002000900098012843D12348006892
:1015200040F01000214908600846006820F00300E0
:1015300008600846006840F0020008601A484068E9
:10154000194948600846406848600846406840F4C9
:10155000806048600846406820F47C104860084677
:10156000406840F4E81048600846006840F0807029
:10157000086000BF0C48006800F000700028F9D037
:101580000948406820F00300074948600846406861
:1015900040F00200486000BF0348406800F00C00C3
:1015A0000828F9D10CBD00000010024000200240C4
:1015B0007047000010B51348006840F00100114961
:1015C000086008464068104908400E4948600846CF
:1015D00000680E4908400B4908600846006820F47E
:1015E000802008600846406820F4FE0048604FF400
:1015F0001F008860FFF767FF4FF000600449086034
:1016000010BD0000001002400000FFF8FFFFF6FED2
:1016100008ED00E0F0B50C46154600220021068CCE
:101620004FF6FE773E400684028B018C4FF60C7617
:1016300032407E1C06EA03162E433243104EB0425F
:101640000ED0104EB0420BD0B0F1804F08D00E4EED
:10165000B04205D00D4EB04202D00D4EB04206D180
:101660004FF6FD76314044F00106314305E04FF678
:10167000F576314044F00106314302830184F0BD28
:10168000002C0140003401400004004000080040EC
:10169000000C0040F0B50C46154600220021002643
:1016A000078C4FF6EF7C07EA0C070784028B018C4E
:1016B0004FF6FF7707EA041640F6FF473A404FF629
:1016C000FF7707EA03373A434FF6FF7707EA052724
:1016D0003A43114FB8420ED0104FB8420BD0B0F180
:1016E000804F08D00E4FB84205D00E4FB84202D0FE
:1016F0000D4FB84206D14FF6DF77394046F010075C
:10170000394305E04FF65F77394044F0100739431D
:1017100002830184F0BD0000002C01400034014030
:101720000004004000080040000C0040F0B50C46EA
:101730001546002200210026078C4FF6FF6C07EAB1
:101740000C070784828B018C4FF6FF7707EA04268B
:101750004FF60C773A404FF6FF7707EA03172F430F
:101760003A43114FB8420ED0104FB8420BD0B0F1EF
:10177000804F08D00E4FB84205D00E4FB84202D06D
:101780000D4FB84206D14FF6FF57394046F48077E7
:10179000394305E04FF2FF57394044F4807739432D
:1017A00082830184F0BD0000002C01400034014020
:1017B0000004004000080040000C0040F0B50C465A
:1017C0001546002200210026078C4EF6FF7C07EA12
:1017D0000C070784828B018C4FF6FF7707EA0436EB
:1017E00040F6FF473A404FF6FF7707EA05273A43AE
:1017F0004FF6FF7707EA03373A43114FB8420ED04E
:10180000104FB8420BD0B0F1804F08D00E4FB84205
:1018100005D00E4FB84202D00D4FB84206D14DF65A
:10182000FF77394046F48057394305E047F6FF57C4
:10183000394044F48057394382830184F0BD00006D
:10184000002C01400034014000040040000800402A
:10185000000C004010B504215F4800F070F9012829
:101860002AD104215C4800F051F95C48007860B945
:10187000594800F05AF95A49086001205749087040
:101880000221554800F0CBF916E05648006840B1F7
:10189000514800F04AF952490968401A514909680B
:1018A000086000204D49087000214B4800F0B7F94E
:1018B0000021494800F02DF90821474800F03FF980
:1018C00001282AD10821444800F020F94348007833
:1018D00060B9414800F02CF94149086001203F49B6
:1018E000087002213C4800F0A7F916E03D48006866
:1018F00040B1394800F01CF939490968401A3949A2
:10190000096808600020354908700021324800F05D
:1019100093F90021304800F0FCF810212E4800F027
:101920000EF901282AD110212B4800F0EFF82B489E
:10193000007860B9284800F0FEF8294908600120C5
:10194000264908700221244800F083F916E0254852
:10195000006840B1204800F0EEF821490968401ABB
:1019600020490968086000201C49087000211A48B5
:1019700000F06FF90021184800F0CBF8012116485B
:1019800000F0DDF8012826D10121134800F0BEF84F
:101990001448006858B11148007820B90020114956
:1019A0000968086003E001200E490968086000200A
:1019B0000A49087000214FF0804000F04AF90021E8
:1019C000054800F046F90021074800F042F90021DF
:1019D000014800F09EF810BD000400402C000020DB
:1019E00030000020340000200008004000B587B01F
:1019F00000203C4908703C4908603C4908600121CE
:101A00000220FFF7BBFC4FF6FF70ADF8140000207A
:101A1000ADF81000ADF81600ADF8120004A9344876
:101A200000F056F901221121314800F01FF904207D
:101A3000ADF804000020ADF806000120ADF8080064
:101A40000020ADF80A00ADF80C0001A9284800F00C
:101A500087F80820ADF804000020ADF8060001204A
:101A6000ADF808000020ADF80A00ADF80C0001A99F
:101A70001F4800F075F80C20ADF804000020ADF808
:101A800006000120ADF808000020ADF80A00ADF80E
:101A90000C0001A9164800F063F84FF4E060FFF76E
:101AA000EDFA1D208DF8000000208DF801000120C6
:101AB0008DF802008DF803006846FFF7A7FA0121B0
:101AC0000B4800F023F80021094800F013F8012228
:101AD0001D21074800F09AF80021054800F019F888
:101AE00007B000BD2C000020300000203400002092
:101AF0000004004021B1028842F08002028004E02C
:101B000002884FF67F731A4002807047CA430282F0
:101B1000704721B1028842F00102028004E002888D
:101B20004FF6FE731A40028070470146088F7047D7
:101B30000146888F70470146B1F84000704730B5C4
:101B40000246002000230024158A05EA0103958936
:101B500005EA010413B10CB1012000E0002030BD02
:101B600070B505460C46244885420ED02348854270
:101B70000BD0B5F1804F08D02148854205D02148CF
:101B8000854202D02048854200D100E000BF208875
:101B900050B92389A28861882846FFF73BFDE18878
:101BA000284600F068F825E0208804280AD1238917
:101BB000A28861882846FFF76DFDE188284600F07D
:101BC00063F817E0208808280AD12389A288618851
:101BD0002846FFF7ABFDE188284600F062F809E0EF
:101BE0002389A28861882846FFF7E8FDE188284616
:101BF00000F060F870BD0000002C0140003401408E
:101C00000004004000080040000C00401AB1838925
:101C10000B43838102E083898B43838170470A46AB
:101C20000021018C4FF6DF7319404FF6FF7303EA72
:101C300002131943018470470A460021018C4FF6B4
:101C4000FF5319404FF6FF7303EA0223194301843F
:101C500070470A460021018C4DF6FF7319404FF67C
:101C6000FF7303EA023319430184704701858282BE
:101C7000704781847047028B4FF6F3731A400283DA
:101C8000028B0A4302837047028B4FF2FF331A40E4
:101C90000283028B4FF6FF7303EA01231A43028388
:101CA0007047828B4FF6F3731A408283828B0A430C
:101CB00082837047828B4FF2FF331A408283828B7C
:101CC0004FF6FF7303EA01231A4382837047000033
:101CD000002202881D4B98420ED01D4B98420BD01B
:101CE000B0F1804F08D01B4B984205D01A4B984258
:101CF00002D01A4B984204D14FF68F731A404B888A
:101D00001A43174B984207D0164B984204D04FF60F
:101D1000FF431A40CB881A4302808B8883850B8847
:101D200003850A4B98420BD0094B984208D00E4BC2
:101D3000984205D00D4B984202D00D4B984201D1EC
:101D40000B7A03860123838270470000002C014038
:101D5000003401400004004000080040000C004036
:101D600000100040001400400040014000440140C9
:101D7000004801402DE9F0410746002500260DE00E
:101D8000384600F055FA0446012C00D01CB94FF635
:101D9000FF70BDE8F0812544701CC6B20A2EEFDB4F
:101DA0000A20B5FBF0F0F4E708B501212020FFF789
:101DB000F5FA0320ADF8000010208DF80300032091
:101DC0008DF8020069460E48FEF70BFD0C20ADF8B9
:101DD000000069460A48FEF704FD3020ADF8000017
:101DE00069460748FEF7FDFCC020ADF800006946D3
:101DF0000348FEF7F6FCFEF7BBFB01F06FF908BDE8
:101E00000014014000B585B001210520FFF7C6FA96
:101E100001218803FFF7C2FA4FF40070ADF81000FB
:101E200018208DF8130003208DF8120004A91E4815
:101E3000FEF7D7FC4FF48060ADF8100004208DF859
:101E4000130004A91848FEF7CCFC04A91648FEF7B5
:101E5000C8FC4FF4E13000900020ADF80400ADF86C
:101E60000600ADF80800ADF80C000C20ADF80A0033
:101E700069460E4800F016F9012240F225510B4840
:101E800000F0EAF80121094800F0A3F840210748D2
:101E900000F096F8002003E005490854411CC8B240
:101EA0000028F9D105B000BD00080140003801400C
:101EB0003B00002010B540F225513C4800F0A2F84C
:101EC000002872D03A4800783A490978884229D1E6
:101ED000394838490978405C3649097888420ED13A
:101EE00036480078401CC0B2344908703149087047
:101EF000324800783049314A1278885412E02D492E
:101F0000087803E02C490854411CC8B22A49294AE0
:101F10001278895C8142F5DC274826490978405CC3
:101F200024490870214800F029F92349204A1278F1
:101F300088541F480078401C1D49087008460078E6
:101F4000801E1D49085C0D282FD119480078401EBD
:101F5000085C0A2829D11648017818480078C01C66
:101F6000814205D112480078801E114908701CE09A
:101F70000F480078801E1049104A127888540C4887
:101F80000078801E0D490870084601780A480B4AFF
:101F90001278815406480078401E054908700846AA
:101FA00000780549024A1278885410BD0038014073
:101FB0003D0100203B0100203B0000203C010020AF
:101FC00001F40072B2F5007F00D100BFCA43028065
:101FD000704721B1828942F40052828104E08289F3
:101FE0004DF6FF731A408281704702460020B1F51A
:101FF000007F00D100BF13880B400BB1012000E02F
:102000000020704770B50246002400230025002000
:1020100040F66A16B14200D100BFC1F3421501F08B
:102020001F03012606FA03F3012D02D196893340DE
:1020300006E0022D02D1168A334001E0968A334031
:102040000C12012606FA04F41688344013B10CB1C0
:10205000012000E0002070BDF0B5034600240026FA
:102060000025002040F66A17B94200D100BF18468B
:10207000C1F3421401F01F06012707FA06F5012CEF
:1020800001D10C3004E0022C01D1103000E01430FA
:102090001AB107682F43076002E00768AF43076083
:1020A000F0BD00002DE9F04786B005460E4600243D
:1020B000A24600BFA1460027B08900B100BF2F464D
:1020C0002C8A4CF6FF700440F08804432C82AC89C3
:1020D0004EF6F3100440B0883189084371890843F3
:1020E0000443AC81AC8A4FF6FF400440B0890443FE
:1020F000AC8201A8FFF762F91F48874202D1DDF8E0
:1021000010A001E0DDF80CA0A88900F4004040B167
:102110000AEBCA0000EB0A1031684900B0FBF1F885
:1021200007E00AEBCA0000EB0A1031688900B0FB37
:10213000F1F86420B8FBF0F004012009642101FBF0
:102140001089A88900F4004040B1322000EBC9009A
:10215000B0FBF1F000F00700044308E0322000EB90
:1021600009106421B0FBF1F000F00F0004432C8152
:1021700006B0BDE8F08700000038014001468888BD
:10218000C0F308007047C1F3080282807047000066
:1021900008B501211D20FFF701F90320ADF800006B
:1021A00028208DF8030003208DF8020069461D48A1
:1021B000FEF717FB01211B48FEF7F3FB022119482C
:1021C000FEF7EFFB8020ADF8000028208DF803001B
:1021D00003208DF8020069461348FEF702FB8021B8
:1021E0001148FEF7DEFB4FF46070ADF800001020E0
:1021F0008DF8030003208DF8020069460B48FEF7B6
:10220000F0FA80210948FEF7CCFB4FF480710748B3
:10221000FEF7C7FB4FF400710448FEF7C2FBFFF75F
:10222000E5FB08BD000C0140000801400010014022
:1022300070B5044600250020114908600846114980
:102240000860A1B21048FEF7AEFB142000F0DAFBE4
:1022500000210E48FFF70DFD01210C48FFF759FC46
:10226000A1B20948FEF79DFB00E06D1C08488542BD
:1022700003D2034800680028F7D00148006870BD09
:102280004001002034000020001001400004004004
:10229000FFFF080000BFFEE710B53EE023480378CB
:1022A000234822490978445C1A460146581C085CB8
:1022B0002B2804D030280FD04F2822D11DE000BF9A
:1022C0001046511CCAB21A49085C3A28F8D1214676
:1022D000104600F021FD14E01549181D085C4F2838
:1022E00002D10120134908701149181D085C4C28BF
:1022F00002D100200F49087003E001200E49087048
:1023000000BF00BF094804701A4603E00848825421
:10231000501CC2B2A242F9D100BF05480349097856
:10232000405C024909788842B8D110BD3B010020C9
:102330003B000020390000203800002010B5FFF7D6
:10234000A7F800202749087012E041F6907226A1F4
:1023500029A000F06FF8002405E00A2000F034FB0B
:10236000FFF79AFF641C1F48007808B9642CF4DB5F
:102370001C4800780028E8D0FFF78AF800201949A7
:1023800008700FE023A000F055F8002405E00A20B3
:1023900000F01AFBFFF780FF641C1248007808B9B0
:1023A000322CF4DB0F4800780028EBD0FFF770F8F0
:1023B00000200C4908700FE01AA000F03BF8002440
:1023C00005E00A2000F000FBFFF766FF641C0548EB
:1023D000007808B9322CF4DB024800780028EBD0F2
:1023E00010BD00003800002031302E31382E313938
:1023F000362E32303200000041542B4349505354A2
:102400004152543D22544350222C222573222C2524
:10241000640D0A0041542B4349504D4F44453D3112
:102420000D0A000041542B43495053454E440D0AB8
:10243000000000000FB4054B10B503A9044A029830
:1024400000F018F810BC5DF814FB00002D2B0008FC
:102450006C01002002E008C8121F08C1002AFAD14E
:1024600070477047002001E001C1121F002AFBD114
:10247000704700002DE9FF4F8DB00F46054600263E
:1024800006E025280BD0DDE90F1290476D1C761C65
:1024900028780028F5D111B03046BDE8F08F00242F
:1024A000A246A1460122EC4900E0044315F8013F91
:1024B000203B02FA03F00842F7D128782A2810D0EE
:1024C0006FF02F022878A0F13001092914D80AEB07
:1024D0008A0102EB410144F0020400EB010A6D1C89
:1024E000F0E701CF5FEA000A03D544F40054CAF1D3
:1024F000000A44F002046D1C28782E2817D115F824
:10250000010F44F004042A280ED06FF02F0228781F
:10251000A0F1300109290AD809EB890102EB410138
:1025200000EB01096D1CF2E757F8049B6D1C28783D
:102530006C280FD006DC4C2817D068280DD06A28EC
:1025400014D104E0742810D07A280FD10DE044F49F
:1025500000140AE044F4801401E044F44014697863
:10256000814202D104F580146D1C6D1C2A786E2AFC
:102570001FD00CDC632A31D004DC002A8BD0582A0F
:1025800011D1A3E0642A68D0692A0CD165E0732ACE
:102590002ED004DC6F2A73D0702A04D19BE0752AF8
:1025A0006FD0782A6ED01046DDE90F129047761C66
:1025B00050E1C4F30250022806D0032809D00428B1
:1025C00001CF09D0066045E101CFF117C0E90061F4
:1025D00040E101CF06803DE106703BE117F8040BB6
:1025E0008DF8000000208DF80100EB46012003E08B
:1025F00057F804BB4FF0FF3061074FF0000102D4E1
:102600000DE008F10101884649450FDA8045F8DB05
:102610001BF808100029F4D108E008F101018846F0
:102620008142FADB1BF808100029F6D1DDE90F23FF
:10263000AAEB08008146214600F036F9304400EB51
:10264000080604E0DDE90F121BF8010B9047B8F112
:102650000108F7D221464846F7E00A21C4F30253A5
:102660004FF0000B0891022B04D001CFC117032BB0
:1026700009D00AE0FF1D27F00707F7E8020108E08C
:1026800032E01FE020E000B2C117042B01D140B2BC
:10269000C117031E71F1000307DA4FF0000CD0EBF5
:1026A0000C006CEB01012D2302E0230504D52B2344
:1026B0008DF82430012303E0E30701D02023F7E75E
:1026C000984658E00A2110E010210EE010204FF04B
:1026D000000B08900CE010214FF0000B44F00404B4
:1026E0004FF00809089103E008214FF0000B089112
:1026F000C4F30253022B04D001CF0021032B06D0D8
:1027000006E0FF1D27F00707F7E8020103E080B2AB
:10271000042B00D1C0B24FF0000823072BD5702A3C
:1027200007D0DDF820C08CF0100C5CEA0B0C05D053
:102730000EE040238DF82430012308E050EA010325
:1027400006D030238DF824308DF8252002239846BA
:10275000DDF820C08CF0080C5CEA0B0C0BD150EAC1
:10276000010301D1630706D530238DF824304FF0E3
:102770000108A9F10109582A04D038A20B9208AA2D
:102780000A920BE03AA2F9E75B46089AFDF7ECFCE7
:102790000B9B9B5C0A9A521E0A92137050EA01022C
:1027A000F2D10A98ADEB000000F1200B600702D5D2
:1027B00024F4803401E04FF00109D94502DDA9EB92
:1027C0000B0000E0002000EB0B0141440890AAEB55
:1027D000010AE00306D4DDE90F232146504600F04C
:1027E00063F806444FF0000908E009A911F8090050
:1027F000DDE90F12904709F10109761CC145F4DBB0
:10280000E0030CD5DDE90F232146504600F04CF8DB
:10281000064404E0DDE90F1230209047761C089949
:10282000481E08900029F5DC08E00A980A9900780B
:10283000491C0A91DDE90F129047761CBBF100019B
:10284000ABF1010BF1DC21465046DDE90F2300F02E
:1028500019F806446D1C1BE609280100303132339B
:1028600034353637383961626364656600000000CC
:1028700030313233343536373839414243444546B6
:10288000000000002DE9F041044600251E461746D1
:10289000880404D405E039462020B0476D1C641E2E
:1028A000F9D52846BDE8F0812DE9F0410446002520
:1028B0001E469046C80301D5302700E02027880433
:1028C00004D505E041463846B0476D1C641EF9D575
:1028D0002846BDE8F08110B50446201F0C282BD2F5
:1028E000DFE800F006120C182A2A2A2A2A1E2A24B7
:1028F00019221146002000F043FB20E01922114666
:10290000012000F03DFB1AE03C221146032000F0BC
:1029100037FB14E03C221146022000F031FB0EE0B0
:1029200019221146032000F02BFB08E01922114662
:10293000022000F025FB02E000F0D0FB00BF00BF4A
:1029400010BD0000002004E00021034A1154411C86
:10295000C8B20928F8DB70477001002008B50121D2
:102960004020FEF71BFD2020ADF8000010208DF860
:10297000030003208DF8020069460248FDF731FF8D
:1029800008BD0000001801404FF0E021096921F066
:1029900004014FF0E0221161C21700EB5272C2F342
:1029A000C702074B1A701946097801EB4102C2EBC6
:1029B000C1114FF6FF7202EAC101024A118070474D
:1029C0000C0000200E00002001460D4A12884A43E8
:1029D0004FF0E0235A6100229A6101221A6100BF80
:1029E0004FF0E022106900F001021AB100F48032C9
:1029F000002AF5D000224FF0E0231A619A61704757
:102A00000E00002001460D4A12784A434FF0E023A1
:102A10005A6100229A6101221A6100BF4FF0E02240
:102A2000106900F001021AB100F48032002AF5D0DA
:102A300000224FF0E0231A619A6170470C000020D9
:102A400010B508211448FDF7ACFF1020FFF7DAFF9E
:102A5000012000F01DFA432000F01AFA002000F0D7
:102A600017FA012000F014FA002000F011FA0020FB
:102A700000F00EFA002000F00BFA002000F008FA37
:102A8000002000F005FA08210348FDF78CFF102014
:102A9000FFF7B8FF10BD00000018014010B5044654
:102AA0000F221146002000F06BFA4FF42F70FFF751
:102AB0008BFF2CB114221146032000F061FA04E0D0
:102AC00014221146022000F05BFAD220FFF77CFFAF
:102AD00000BF0A221146002000F052FA5520FFF7ED
:102AE00073FF00F0FBFA09480068FFF743F9084953
:102AF00008600846016807A0FFF79CFC04480068CE
:102B000040F6C4118842E4D810BD000050010020F6
:102B100048010020466F72776172642049203A2094
:102B20006E6F77203D2025750D0A000070B50446B4
:102B30000D46E1B20548FFF726FB00BF40210348E0
:102B4000FFF753FA0128F9D1204670BD0038014043
:102B500010B5FFF7F7FE00F03FF90D48C0780C49BB
:102B6000097940EA01200B49088000240BE00A485B
:102B7000015D0120884007490988084008B92046BE
:102B800010BD601CC4B2102CF1DB0020F8E700007F
:102B900070010020160000201A00002010B5FFF779
:102BA000D7FF10B90120024908700148007810BD14
:102BB0001400002010B5FFF7CBFF03280ED100242E
:102BC00005E000BFFFF7C4FF0328FBD0641C322CD4
:102BD000F7DB0B480068401C09490860084800788A
:102BE00000F0010028B120210648FDF7DCFE01209D
:102BF00010BD20210348FDF7D4FE0020F8E70000B7
:102C000010000020001801404820FFF7BDFEFDF72E
:102C1000C7FCFFF7C9F8FDF7ABFCFDF73DFBFEF77E
:102C2000F1F8FFF7EFF8FEF7D9F96420FFF7CCFED3
:102C3000FFF784FB6420FFF7C7FE26A0FFF7FAFB2F
:102C4000FFF7A6FA00F080F843E0FFF7B3FF002893
:102C500038D1FFF77DFF0546FFF73DFEFFF778FF10
:102C600004468020FFF7E4FA054629461DA0FFF739
:102C7000E1FB6420FFF7A8FE032C08D18020FFF7BA
:102C8000D7FA054629461AA0FFF7D4FB15E0082C11
:102C900008D16001FFF7CCFA0546294617A0FFF7D7
:102CA000C9FB0AE0092C08D14FF40070FFF7C0FA05
:102CB0000546294614A0FFF7BDFBFFF76FFF154936
:102CC000087006E0FFF776FF18B112480078FDF7AC
:102CD0006AFDBAE70A697320636F6E6E6563746597
:102CE00064210A00736F6E69633A202535640A0017
:102CF00037203A2025750D0A0000000038203A20C0
:102D000025750D0A0000000039203A2025750D0AAE
:102D100000000000000000207047000038B14FF4B0
:102D20008071074A11604900064A116006E04FF4BD
:102D30000071034A11604910024A11607047000097
:102D40004C0100205401002010B5732300221146CD
:102D50004020FEF7A9FA4FF47A70FFF735FE4FF4E2
:102D6000EB73002201214020FEF79EFA40F2F91396
:102D7000002202214020FEF797FA10BD10B508216D
:102D80001448FDF70EFE1020FFF73CFE012000F076
:102D90007FF8432000F07CF8002000F079F8002054
:102DA00000F076F85A2000F073F85A2000F070F81E
:102DB0005A2000F06DF85A2000F06AF85A2000F00E
:102DC00067F808210348FDF7EEFD1020FFF71AFE13
:102DD00010BD0000001801401CB50120019000202A
:102DE000009008212748FDF7DCFD2749087800F00E
:102DF0004FF82549487800F04BF80220009037E062
:102E00000120019028E010211E48FDF7CCFD022092
:102E1000FFF7F8FD10211B48FDF7C3FD0220FFF767
:102E2000F1FD10211748FDF7BEFD02211548FDF701
:102E3000ABFD50B115489DF80010405CBDF8041082
:102E4000084312499DF800208854BDF804004FF64D
:102E5000FF7101EA40000190BDF80400FF28D2DDB7
:102E60001020FFF7CFFD9DF80000401CC0B200907D
:102E70009DF800000928C3DB08210248FDF793FDF7
:102E80001CBD000000180140180000207001002047
:102E900038B504460120009000201F4948700120E9
:102EA000009031E0BDF80000204020B104211B4813
:102EB000FDF779FD03E004211848FDF772FD1021AC
:102EC0001648FDF770FD0220FFF79CFD1021134806
:102ED000FDF767FD0220FFF795FD10210F48FDF774
:102EE00062FD02210D48FDF74FFD30B10A484078E0
:102EF000BDF80010084308494870BDF800004FF6BF
:102F0000FF7101EA40000090BDF80000FF28C9DD14
:102F10001020FFF777FD38BD700100200018014038
:102F200010B50A48FDF739FD4FF6AA7100EA010411
:102F300021460648FDF739FD0448FDF72EFD40F017
:102F4000AA0421460148FDF730FD10BD00140140E0
:102F500010B50A48FDF721FD4FF6557100EA01044E
:102F600021460648FDF721FD0448FDF716FD40F017
:102F7000550421460148FDF718FD10BD001401401D
:102F80002DE9F04106460C461546642C01DA204630
:102F900000E064200446642D01DA284600E0642045
:102FA0000546642C31DC642D2FDCC4EB0430642135
:102FB00090FBF1F087B23B46002204214020FEF74F
:102FC00073F9C4EB0430642190FBF1F087B23B4607
:102FD000002205214020FEF767F9C5EB053064218A
:102FE00090FBF1F087B23B46002206214020FEF71D
:102FF0005BF9C5EB0530642190FBF1F087B23B46ED
:10300000002207214020FEF74FF936B1012E07D0EC
:10301000022E08D0032E0CD108E0FFF799FF08E03C
:10302000FFF77EFF05E000F007F802E000F01CF873
:1030300000BF00BFBDE8F08110B50A48FDF7ADFC48
:103040004FF65A7100EA010421460648FDF7ADFC2F
:103050000448FDF7A2FC40F05A0421460148FDF760
:10306000A4FC10BD0014014010B50A48FDF795FC02
:103070004FF6A57100EA010421460648FDF795FCCC
:103080000448FDF78AFC40F0A50421460148FDF7FD
:103090008CFC10BD0014014010B508210E48FDF74E
:1030A00080FC1020FFF7AEFC0120FFF7F1FE42206C
:1030B000FFF7EEFE0020FFF7EBFE0020FFF7E8FE33
:1030C0000020FFF7E5FE08210348FDF76CFC102007
:1030D000FFF798FC10BD00000018014010B5134820
:1030E000FDF75BFC00F47F4421461048FDF75DFCD2
:1030F000002340F6FF7204214020FEF7D5F800239C
:1031000040F6FF7205214020FEF7CEF8002340F67E
:10311000FF7206214020FEF7C7F8002340F6FF7239
:1031200007214020FEF7C0F810BD00000014014048
:1031300010B5044600BF2CB1142211460220FFF73F
:103140001FFF04E0142211460320FFF719FF64203B
:10315000FFF73AFC10480068FEF70CFE0F490860C4
:10316000084601680EA0FFF765F90C48006843F6B1
:1031700098218842DFD32CB1142211460220FFF798
:10318000FFFE04E0142211460320FFF7F9FE64203D
:10319000FFF71AFC10BD000050010020480100207C
:1031A0005475726E20696E6E6572203A206E6F776C
:1031B000203D2025750D0A0010B508211248FDF7A5
:1031C000F0FB0120FFF764FE4420FFF761FE0020C2
:1031D000FFF75EFE0120FFF75BFEEE20FFF758FED3
:1031E0000020FFF755FE0020FFF752FE0020FFF7FA
:1031F0004FFE0020FFF74CFE08210348FDF7D3FBEC
:103200001020FFF7FFFB10BD0018014010B508218A
:103210000E48FDF7C6FB1020FFF7F4FB0120FFF777
:1032200037FE4D20FFF734FE0020FFF731FE00206F
:10323000FFF72EFE0120FFF72BFE08210348FDF7C4
:10324000B2FB1020FFF7DEFB10BD000000180140AC
:1032500010B504462CB1122211460220FFF790FE51
:1032600004E0122211460320FFF78AFE7320FFF7C5
:10327000ABFB282211460020FFF782FE40F26630A9
:10328000FFF7A2FB0A2211460020FFF779FE4FF458
:103290009670FFF799FBFFF721FF2C480068FEF7B7
:1032A00069FD2B49086044E02948006841F20401A7
:1032B00088421CD900BF0A2211460020FFF760FE99
:1032C0002A20FFF781FBFFF709FF20480068FEF77F
:1032D00051FD1F490860084601681EA0FFF7AAF8C3
:1032E0001B48006841F204018842E4D821E01848F4
:1032F000006841F2040188421BD200BF0A22114635
:103300000120FFF73DFE2A20FFF75EFBFFF7E6FEF8
:103310000E480068FEF72EFD0D490860084601685A
:1033200015A0FFF787F80A48006841F204018842B7
:10333000E4D30748006841F236018842B4D2044819
:10334000006840F6D2718842AED910BD500100200D
:1033500048010020757077617264536C6F7065204E
:103360003A206E6F77203D2025750D0A205B62693B
:10337000676765725D000000757077617264536CF9
:103380006F7065203A206E6F77203D2025750D0AFD
:10339000205B736D616C6C65725D0000BC3300086E
:1033A00000000020700100002C020008EC3300082F
:1033B0007001002048040000642400080118130173
:1033C000420010110102030405060708090A0B0C4C
:1033D0000D0E0F02FF3021021201AA801F2C0203E2
:0C33E0000404400906070809020406085E
:0400000508000131BD
:00000001FF
